{
  "abi": [
    {
      "inputs": [
        {
          "internalType": "string",
          "name": "name",
          "type": "string"
        },
        {
          "internalType": "string",
          "name": "symbol",
          "type": "string"
        }
      ],
      "stateMutability": "nonpayable",
      "type": "constructor"
    },
    {
      "inputs": [
        {
          "internalType": "address",
          "name": "sender",
          "type": "address"
        },
        {
          "internalType": "uint256",
          "name": "tokenId",
          "type": "uint256"
        },
        {
          "internalType": "address",
          "name": "owner",
          "type": "address"
        }
      ],
      "name": "ERC721IncorrectOwner",
      "type": "error"
    },
    {
      "inputs": [
        {
          "internalType": "address",
          "name": "operator",
          "type": "address"
        },
        {
          "internalType": "uint256",
          "name": "tokenId",
          "type": "uint256"
        }
      ],
      "name": "ERC721InsufficientApproval",
      "type": "error"
    },
    {
      "inputs": [
        {
          "internalType": "address",
          "name": "approver",
          "type": "address"
        }
      ],
      "name": "ERC721InvalidApprover",
      "type": "error"
    },
    {
      "inputs": [
        {
          "internalType": "address",
          "name": "operator",
          "type": "address"
        }
      ],
      "name": "ERC721InvalidOperator",
      "type": "error"
    },
    {
      "inputs": [
        {
          "internalType": "address",
          "name": "owner",
          "type": "address"
        }
      ],
      "name": "ERC721InvalidOwner",
      "type": "error"
    },
    {
      "inputs": [
        {
          "internalType": "address",
          "name": "receiver",
          "type": "address"
        }
      ],
      "name": "ERC721InvalidReceiver",
      "type": "error"
    },
    {
      "inputs": [
        {
          "internalType": "address",
          "name": "sender",
          "type": "address"
        }
      ],
      "name": "ERC721InvalidSender",
      "type": "error"
    },
    {
      "inputs": [
        {
          "internalType": "uint256",
          "name": "tokenId",
          "type": "uint256"
        }
      ],
      "name": "ERC721NonexistentToken",
      "type": "error"
    },
    {
      "inputs": [
        {
          "internalType": "address",
          "name": "owner",
          "type": "address"
        }
      ],
      "name": "OwnableInvalidOwner",
      "type": "error"
    },
    {
      "inputs": [
        {
          "internalType": "address",
          "name": "account",
          "type": "address"
        }
      ],
      "name": "OwnableUnauthorizedAccount",
      "type": "error"
    },
    {
      "anonymous": false,
      "inputs": [
        {
          "indexed": true,
          "internalType": "address",
          "name": "owner",
          "type": "address"
        },
        {
          "indexed": true,
          "internalType": "address",
          "name": "approved",
          "type": "address"
        },
        {
          "indexed": true,
          "internalType": "uint256",
          "name": "tokenId",
          "type": "uint256"
        }
      ],
      "name": "Approval",
      "type": "event"
    },
    {
      "anonymous": false,
      "inputs": [
        {
          "indexed": true,
          "internalType": "address",
          "name": "owner",
          "type": "address"
        },
        {
          "indexed": true,
          "internalType": "address",
          "name": "operator",
          "type": "address"
        },
        {
          "indexed": false,
          "internalType": "bool",
          "name": "approved",
          "type": "bool"
        }
      ],
      "name": "ApprovalForAll",
      "type": "event"
    },
    {
      "anonymous": false,
      "inputs": [
        {
          "indexed": true,
          "internalType": "address",
          "name": "previousOwner",
          "type": "address"
        },
        {
          "indexed": true,
          "internalType": "address",
          "name": "newOwner",
          "type": "address"
        }
      ],
      "name": "OwnershipTransferred",
      "type": "event"
    },
    {
      "anonymous": false,
      "inputs": [
        {
          "indexed": true,
          "internalType": "address",
          "name": "from",
          "type": "address"
        },
        {
          "indexed": true,
          "internalType": "address",
          "name": "to",
          "type": "address"
        },
        {
          "indexed": true,
          "internalType": "uint256",
          "name": "tokenId",
          "type": "uint256"
        }
      ],
      "name": "Transfer",
      "type": "event"
    },
    {
      "anonymous": false,
      "inputs": [
        {
          "indexed": false,
          "internalType": "uint256",
          "name": "tokenId",
          "type": "uint256"
        },
        {
          "indexed": false,
          "internalType": "address",
          "name": "user",
          "type": "address"
        },
        {
          "indexed": false,
          "internalType": "uint256",
          "name": "amount",
          "type": "uint256"
        },
        {
          "indexed": false,
          "internalType": "address",
          "name": "inviter",
          "type": "address"
        },
        {
          "indexed": false,
          "internalType": "enum Node.MachaineType",
          "name": "_machaineType",
          "type": "uint8"
        }
      ],
      "name": "mintEvent",
      "type": "event"
    },
    {
      "anonymous": false,
      "inputs": [
        {
          "indexed": false,
          "internalType": "uint256",
          "name": "tokenId",
          "type": "uint256"
        },
        {
          "indexed": false,
          "internalType": "enum Node.EquipmentType",
          "name": "equipmentType",
          "type": "uint8"
        },
        {
          "indexed": false,
          "internalType": "enum Node.EquipmentLevel",
          "name": "equipmentLevel",
          "type": "uint8"
        },
        {
          "indexed": false,
          "internalType": "uint256",
          "name": "time",
          "type": "uint256"
        }
      ],
      "name": "upgradeEvent",
      "type": "event"
    },
    {
      "inputs": [],
      "name": "USDT",
      "outputs": [
        {
          "internalType": "contract IERC20",
          "name": "",
          "type": "address"
        }
      ],
      "stateMutability": "view",
      "type": "function"
    },
    {
      "inputs": [],
      "name": "Zeb",
      "outputs": [
        {
          "internalType": "contract IERC20",
          "name": "",
          "type": "address"
        }
      ],
      "stateMutability": "view",
      "type": "function"
    },
    {
      "inputs": [
        {
          "internalType": "address",
          "name": "to",
          "type": "address"
        },
        {
          "internalType": "uint256",
          "name": "tokenId",
          "type": "uint256"
        }
      ],
      "name": "approve",
      "outputs": [],
      "stateMutability": "nonpayable",
      "type": "function"
    },
    {
      "inputs": [
        {
          "internalType": "address",
          "name": "owner",
          "type": "address"
        }
      ],
      "name": "balanceOf",
      "outputs": [
        {
          "internalType": "uint256",
          "name": "",
          "type": "uint256"
        }
      ],
      "stateMutability": "view",
      "type": "function"
    },
    {
      "inputs": [
        {
          "internalType": "uint256",
          "name": "tokenId",
          "type": "uint256"
        }
      ],
      "name": "getApproved",
      "outputs": [
        {
          "internalType": "address",
          "name": "",
          "type": "address"
        }
      ],
      "stateMutability": "view",
      "type": "function"
    },
    {
      "inputs": [
        {
          "internalType": "address",
          "name": "owner",
          "type": "address"
        },
        {
          "internalType": "address",
          "name": "operator",
          "type": "address"
        }
      ],
      "name": "isApprovedForAll",
      "outputs": [
        {
          "internalType": "bool",
          "name": "",
          "type": "bool"
        }
      ],
      "stateMutability": "view",
      "type": "function"
    },
    {
      "inputs": [],
      "name": "isPromotion",
      "outputs": [
        {
          "internalType": "bool",
          "name": "",
          "type": "bool"
        }
      ],
      "stateMutability": "view",
      "type": "function"
    },
    {
      "inputs": [],
      "name": "name",
      "outputs": [
        {
          "internalType": "string",
          "name": "",
          "type": "string"
        }
      ],
      "stateMutability": "view",
      "type": "function"
    },
    {
      "inputs": [],
      "name": "nextTokenID",
      "outputs": [
        {
          "internalType": "uint256",
          "name": "",
          "type": "uint256"
        }
      ],
      "stateMutability": "view",
      "type": "function"
    },
    {
      "inputs": [
        {
          "internalType": "uint256",
          "name": "",
          "type": "uint256"
        }
      ],
      "name": "nodeInfo",
      "outputs": [
        {
          "internalType": "enum Node.MachaineType",
          "name": "machaineType",
          "type": "uint8"
        },
        {
          "internalType": "uint256",
          "name": "mintTime",
          "type": "uint256"
        },
        {
          "internalType": "uint256",
          "name": "unlockPeriod",
          "type": "uint256"
        },
        {
          "internalType": "uint256",
          "name": "totalToken",
          "type": "uint256"
        }
      ],
      "stateMutability": "view",
      "type": "function"
    },
    {
      "inputs": [],
      "name": "oracle",
      "outputs": [
        {
          "internalType": "address",
          "name": "",
          "type": "address"
        }
      ],
      "stateMutability": "view",
      "type": "function"
    },
    {
      "inputs": [],
      "name": "owner",
      "outputs": [
        {
          "internalType": "address",
          "name": "",
          "type": "address"
        }
      ],
      "stateMutability": "view",
      "type": "function"
    },
    {
      "inputs": [
        {
          "internalType": "uint256",
          "name": "tokenId",
          "type": "uint256"
        }
      ],
      "name": "ownerOf",
      "outputs": [
        {
          "internalType": "address",
          "name": "",
          "type": "address"
        }
      ],
      "stateMutability": "view",
      "type": "function"
    },
    {
      "inputs": [
        {
          "internalType": "enum Node.MachaineType[]",
          "name": "_machineType",
          "type": "uint8[]"
        },
        {
          "internalType": "uint256[]",
          "name": "amount",
          "type": "uint256[]"
        },
        {
          "internalType": "address",
          "name": "inviter",
          "type": "address"
        },
        {
          "internalType": "bytes",
          "name": "evidence",
          "type": "bytes"
        }
      ],
      "name": "publicMint",
      "outputs": [],
      "stateMutability": "nonpayable",
      "type": "function"
    },
    {
      "inputs": [],
      "name": "receiver",
      "outputs": [
        {
          "internalType": "address",
          "name": "",
          "type": "address"
        }
      ],
      "stateMutability": "view",
      "type": "function"
    },
    {
      "inputs": [],
      "name": "renounceOwnership",
      "outputs": [],
      "stateMutability": "nonpayable",
      "type": "function"
    },
    {
      "inputs": [
        {
          "internalType": "address",
          "name": "from",
          "type": "address"
        },
        {
          "internalType": "address",
          "name": "to",
          "type": "address"
        },
        {
          "internalType": "uint256",
          "name": "tokenId",
          "type": "uint256"
        }
      ],
      "name": "safeTransferFrom",
      "outputs": [],
      "stateMutability": "nonpayable",
      "type": "function"
    },
    {
      "inputs": [
        {
          "internalType": "address",
          "name": "from",
          "type": "address"
        },
        {
          "internalType": "address",
          "name": "to",
          "type": "address"
        },
        {
          "internalType": "uint256",
          "name": "tokenId",
          "type": "uint256"
        },
        {
          "internalType": "bytes",
          "name": "data",
          "type": "bytes"
        }
      ],
      "name": "safeTransferFrom",
      "outputs": [],
      "stateMutability": "nonpayable",
      "type": "function"
    },
    {
      "inputs": [
        {
          "internalType": "address",
          "name": "operator",
          "type": "address"
        },
        {
          "internalType": "bool",
          "name": "approved",
          "type": "bool"
        }
      ],
      "name": "setApprovalForAll",
      "outputs": [],
      "stateMutability": "nonpayable",
      "type": "function"
    },
    {
      "inputs": [
        {
          "internalType": "bool",
          "name": "_isPromotion",
          "type": "bool"
        }
      ],
      "name": "setPromotion",
      "outputs": [],
      "stateMutability": "nonpayable",
      "type": "function"
    },
    {
      "inputs": [],
      "name": "signer",
      "outputs": [
        {
          "internalType": "address",
          "name": "",
          "type": "address"
        }
      ],
      "stateMutability": "view",
      "type": "function"
    },
    {
      "inputs": [
        {
          "internalType": "bytes4",
          "name": "interfaceId",
          "type": "bytes4"
        }
      ],
      "name": "supportsInterface",
      "outputs": [
        {
          "internalType": "bool",
          "name": "",
          "type": "bool"
        }
      ],
      "stateMutability": "view",
      "type": "function"
    },
    {
      "inputs": [],
      "name": "symbol",
      "outputs": [
        {
          "internalType": "string",
          "name": "",
          "type": "string"
        }
      ],
      "stateMutability": "view",
      "type": "function"
    },
    {
      "inputs": [
        {
          "internalType": "uint256",
          "name": "tokenID",
          "type": "uint256"
        }
      ],
      "name": "tokenURI",
      "outputs": [
        {
          "internalType": "string",
          "name": "",
          "type": "string"
        }
      ],
      "stateMutability": "view",
      "type": "function"
    },
    {
      "inputs": [
        {
          "internalType": "address",
          "name": "from",
          "type": "address"
        },
        {
          "internalType": "address",
          "name": "to",
          "type": "address"
        },
        {
          "internalType": "uint256",
          "name": "tokenId",
          "type": "uint256"
        }
      ],
      "name": "transferFrom",
      "outputs": [],
      "stateMutability": "nonpayable",
      "type": "function"
    },
    {
      "inputs": [
        {
          "internalType": "address",
          "name": "newOwner",
          "type": "address"
        }
      ],
      "name": "transferOwnership",
      "outputs": [],
      "stateMutability": "nonpayable",
      "type": "function"
    },
    {
      "inputs": [],
      "name": "transferable",
      "outputs": [
        {
          "internalType": "bool",
          "name": "",
          "type": "bool"
        }
      ],
      "stateMutability": "view",
      "type": "function"
    },
    {
      "inputs": [
        {
          "internalType": "bool",
          "name": "isUSDT",
          "type": "bool"
        },
        {
          "internalType": "uint256",
          "name": "tokenId",
          "type": "uint256"
        },
        {
          "internalType": "enum Node.EquipmentType",
          "name": "_equipmentType",
          "type": "uint8"
        },
        {
          "internalType": "enum Node.EquipmentLevel",
          "name": "_equipmentLevel",
          "type": "uint8"
        },
        {
          "internalType": "uint256",
          "name": "zebPrice",
          "type": "uint256"
        },
        {
          "internalType": "bytes",
          "name": "evidence",
          "type": "bytes"
        }
      ],
      "name": "upgrade",
      "outputs": [],
      "stateMutability": "nonpayable",
      "type": "function"
    }
  ],
  "bytecode": {
    "object": "0x60806040523480156200001157600080fd5b50604051620032dd380380620032dd8339810160408190526200003491620001b1565b3382826000620000458382620002aa565b506001620000548282620002aa565b5050506001600160a01b0381166200008657604051631e4fbdf760e01b81526000600482015260240160405180910390fd5b62000091816200009a565b50505062000376565b600680546001600160a01b038381166001600160a01b0319831681179093556040519116919082907f8be0079c531659141344cd1fd0a4f28419497f9722a3daafe3b4186f6b6457e090600090a35050565b634e487b7160e01b600052604160045260246000fd5b600082601f8301126200011457600080fd5b81516001600160401b0380821115620001315762000131620000ec565b604051601f8301601f19908116603f011681019082821181831017156200015c576200015c620000ec565b816040528381526020925086838588010111156200017957600080fd5b600091505b838210156200019d57858201830151818301840152908201906200017e565b600093810190920192909252949350505050565b60008060408385031215620001c557600080fd5b82516001600160401b0380821115620001dd57600080fd5b620001eb8683870162000102565b935060208501519150808211156200020257600080fd5b50620002118582860162000102565b9150509250929050565b600181811c908216806200023057607f821691505b6020821081036200025157634e487b7160e01b600052602260045260246000fd5b50919050565b601f821115620002a557600081815260208120601f850160051c81016020861015620002805750805b601f850160051c820191505b81811015620002a1578281556001016200028c565b5050505b505050565b81516001600160401b03811115620002c657620002c6620000ec565b620002de81620002d784546200021b565b8462000257565b602080601f831160018114620003165760008415620002fd5750858301515b600019600386901b1c1916600185901b178555620002a1565b600085815260208120601f198616915b82811015620003475788860151825594840194600190910190840162000326565b5085821015620003665787850151600019600388901b60f8161c191681555b5050505050600190811b01905550565b612f5780620003866000396000f3fe608060405234801561001057600080fd5b50600436106101c45760003560e01c806373046035116100f9578063b88d4fde11610097578063e985e9c511610071578063e985e9c5146103f1578063f101e48114610404578063f2fde38b1461040d578063f7260d3e1461042057600080fd5b8063b88d4fde146103b7578063c54e44eb146103ca578063c87b56dd146103dd57600080fd5b806392ff0d31116100d357806392ff0d311461033f57806395d89b4114610353578063a22cb4651461035b578063b02439ae1461036e57600080fd5b806373046035146103085780637dc0d1d01461031b5780638da5cb5b1461032e57600080fd5b80632677e4d3116101665780634f821a26116101405780634f821a26146102b95780636352211e146102cc57806370a08231146102df578063715018a61461030057600080fd5b80632677e4d31461027f5780633ecb33b01461029357806342842e0e146102a657600080fd5b8063095ea7b3116101a2578063095ea7b31461023157806315f2e20514610246578063238ac9331461025957806323b872dd1461026c57600080fd5b806301ffc9a7146101c957806306fdde03146101f1578063081812fc14610206575b600080fd5b6101dc6101d73660046127ef565b610433565b60405190151581526020015b60405180910390f35b6101f9610485565b6040516101e89190612859565b61021961021436600461286c565b610517565b6040516001600160a01b0390911681526020016101e8565b61024461023f3660046128a1565b610540565b005b600b54610219906001600160a01b031681565b600d54610219906001600160a01b031681565b61024461027a3660046128cb565b61054f565b6007546101dc90600160a01b900460ff1681565b6102446102a1366004612a5a565b6105b5565b6102446102b43660046128cb565b610618565b6102446102c7366004612b5f565b610633565b6102196102da36600461286c565b610659565b6102f26102ed366004612b7c565b610664565b6040519081526020016101e8565b6102446106ac565b610244610316366004612b97565b6106c0565b600754610219906001600160a01b031681565b6006546001600160a01b0316610219565b6007546101dc90600160a81b900460ff1681565b6101f9611029565b610244610369366004612c22565b611038565b6103a761037c36600461286c565b600960205260009081526040902080546003820154600483015460059093015460ff90921692909184565b6040516101e89493929190612c7f565b6102446103c5366004612ca8565b611043565b600a54610219906001600160a01b031681565b6101f96103eb36600461286c565b50606090565b6101dc6103ff366004612d04565b611060565b6102f260085481565b61024461041b366004612b7c565b61108e565b600c54610219906001600160a01b031681565b60006001600160e01b031982166380ac58cd60e01b148061046457506001600160e01b03198216635b5e139f60e01b145b8061047f57506301ffc9a760e01b6001600160e01b03198316145b92915050565b60606000805461049490612d37565b80601f01602080910402602001604051908101604052809291908181526020018280546104c090612d37565b801561050d5780601f106104e25761010080835404028352916020019161050d565b820191906000526020600020905b8154815290600101906020018083116104f057829003601f168201915b5050505050905090565b6000610522826110cc565b506000828152600460205260409020546001600160a01b031661047f565b61054b828233611105565b5050565b600754600160a81b900460ff166105a55760405162461bcd60e51b81526020600482015260156024820152744e46543a206e6f74207472616e7366657261626c6560581b60448201526064015b60405180910390fd5b6105b0838383611112565b505050565b60005b8451811015610611576105ff8582815181106105d6576105d6612d71565b60200260200101518583815181106105f0576105f0612d71565b60200260200101518585611197565b8061060981612d9d565b9150506105b8565b5050505050565b6105b083838360405180602001604052806000815250611043565b61063b61171d565b60078054911515600160a01b0260ff60a01b19909216919091179055565b600061047f826110cc565b60006001600160a01b038216610690576040516322718ad960e21b81526000600482015260240161059c565b506001600160a01b031660009081526003602052604090205490565b6106b461171d565b6106be600061174a565b565b610701826040516020016106d691815260200190565b60408051601f198184030181529190528051602090910120600d5483906001600160a01b031661179c565b6107405760405162461bcd60e51b815260206004820152601060248201526f696e76616c69642065766964656e636560801b604482015260640161059c565b3361074a86610659565b6001600160a01b0316146107915760405162461bcd60e51b815260206004820152600e60248201526d27232a1d103737ba1037bbb732b960911b604482015260640161059c565b8260038111156107a3576107a3612c59565b60008681526009602052604081206002908101919087908111156107c9576107c9612c59565b60028111156107da576107da612c59565b815260208101919091526040016000205460ff1660038111156107ff576107ff612c59565b106108435760405162461bcd60e51b81526020600482015260146024820152734e46543a206e6f74207570677261646561626c6560601b604482015260640161059c565b60008581526009602052604081205460ff169081600281111561086857610868612c59565b036109fb57600085600281111561088157610881612c59565b036108f4576000868152600960205260408120600290810190829088908111156108ad576108ad612c59565b60028111156108be576108be612c59565b815260208101919091526040016000205460ff1690506108ee848989848a8a601f60296032600c6015600a611883565b50610d4f565b600185600281111561090857610908612c59565b036109755760008681526009602052604081206002908101908290889081111561093457610934612c59565b600281111561094557610945612c59565b815260208101919091526040016000205460ff1690506108ee848989848a8a6044605b606e601b60316016611883565b600285600281111561098957610989612c59565b036109f6576000868152600960205260408120600290810190829088908111156109b5576109b5612c59565b60028111156109c6576109c6612c59565b815260208101919091526040016000205460ff1690506108ee848989848a8a6072609860b7602d60516024611883565b610d4f565b6001816002811115610a0f57610a0f612c59565b03610ba5576000856002811115610a2857610a28612c59565b03610a9d57600086815260096020526040812060029081019082908890811115610a5457610a54612c59565b6002811115610a6557610a65612c59565b815260200190815260200160002060009054906101000a900460ff1690506108ee848989848a8a6066608860a3602860486020611883565b6001856002811115610ab157610ab1612c59565b03610b2057600086815260096020526040812060029081019082908890811115610add57610add612c59565b6002811115610aee57610aee612c59565b815260208101919091526040016000205460ff1690506108ee848989848a8a60e161012c610168605a60a26048611883565b6002856002811115610b3457610b34612c59565b036109f657600086815260096020526040812060029081019082908890811115610b6057610b60612c59565b6002811115610b7157610b71612c59565b815260208101919091526040016000205460ff1690506108ee848989848a8a6101776101f4610258609661010e6078611883565b6002816002811115610bb957610bb9612c59565b03610d4f576000856002811115610bd257610bd2612c59565b03610c4157600086815260096020526040812060029081019082908890811115610bfe57610bfe612c59565b6002811115610c0f57610c0f612c59565b815260208101919091526040016000205460ff1690506108ee848989848a8a60dd6101276101626058609e6046611883565b6001856002811115610c5557610c55612c59565b03610cc657600086815260096020526040812060029081019082908890811115610c8157610c81612c59565b6002811115610c9257610c92612c59565b815260208101919091526040016000205460ff1690506108ee848989848a8a6101e761028a61030c60c361015f609c611883565b6002856002811115610cda57610cda612c59565b03610d4f57600086815260096020526040812060029081019082908890811115610d0657610d06612c59565b6002811115610d1757610d17612c59565b815260208101919091526040016000205460ff169050610d4d848989848a8a61032c61043b610514610145610249610104611883565b505b6000856002811115610d6357610d63612c59565b03610e3a576001846003811115610d7c57610d7c612c59565b03610db05760008681526009602052604081206004018054624f1a009290610da5908490612db6565b90915550610fe39050565b6002846003811115610dc457610dc4612c59565b03610df857600086815260096020526040812060040180546276a7009290610ded908490612db6565b90915550610e359050565b6003846003811115610e0c57610e0c612c59565b03610e355760008681526009602052604081206004018054629e34009290610da5908490612db6565b610fe3565b6001856002811115610e4e57610e4e612c59565b03610f0b576001846003811115610e6757610e67612c59565b03610e905760008681526009602052604081206004018054629e34009290610da5908490612db6565b6002846003811115610ea457610ea4612c59565b03610ecd576000868152600960205260408120600401805462ed4e009290610ded908490612db6565b6003846003811115610ee157610ee1612c59565b03610e35576000868152600960205260408120600401805463013c68009290610da5908490612db6565b6002856002811115610f1f57610f1f612c59565b03610fe3576001846003811115610f3857610f38612c59565b03610f61576000868152600960205260408120600401805462ed4e009290610da5908490612db6565b6002846003811115610f7557610f75612c59565b03610f9f5760008681526009602052604081206004018054630163f5009290610da5908490612db6565b6003846003811115610fb357610fb3612c59565b03610fe357600086815260096020526040812060040180546301da9c009290610fdd908490612db6565b90915550505b7f076c993c6e3b81f3d762a49ce745bac32a307f74ce321f8eba2b3c88bd322539868686426040516110189493929190612dc9565b60405180910390a150505050505050565b60606001805461049490612d37565b61054b3383836122f8565b61104e84848461054f565b61105a84848484612397565b50505050565b6001600160a01b03918216600090815260056020908152604080832093909416825291909152205460ff1690565b61109661171d565b6001600160a01b0381166110c057604051631e4fbdf760e01b81526000600482015260240161059c565b6110c98161174a565b50565b6000818152600260205260408120546001600160a01b03168061047f57604051637e27328960e01b81526004810184905260240161059c565b6105b083838360016124b9565b6001600160a01b03821661113c57604051633250574960e11b81526000600482015260240161059c565b60006111498383336125bf565b9050836001600160a01b0316816001600160a01b03161461105a576040516364283d7b60e01b81526001600160a01b038086166004830152602482018490528216604482015260640161059c565b604080516001600160a01b03841660208201526000916111dd910160408051601f198184030181529190528051602090910120600d5484906001600160a01b031661179c565b61121c5760405162461bcd60e51b815260206004820152601060248201526f696e76616c69642065766964656e636560801b604482015260640161059c565b600085600281111561123057611230612c59565b0361137e57600a54600c546001600160a01b039182169163a9059cbb911660646112648869010f0cf064dd59200000612e01565b61126f90605f612e01565b6112799190612e18565b6040518363ffffffff1660e01b8152600401611296929190612e3a565b6020604051808303816000875af11580156112b5573d6000803e3d6000fd5b505050506040513d601f19601f820116820180604052508101906112d99190612e53565b50600a546001600160a01b031663a9059cbb8460646113028869010f0cf064dd59200000612e01565b61130d906005612e01565b6113179190612e18565b6040518363ffffffff1660e01b8152600401611334929190612e3a565b6020604051808303816000875af1158015611353573d6000803e3d6000fd5b505050506040513d601f19601f820116820180604052508101906113779190612e53565b506104b090505b600185600281111561139257611392612c59565b036114e057600a54600c546001600160a01b039182169163a9059cbb911660646113c6886901b1ae4d6e2ef5000000612e01565b6113d190605f612e01565b6113db9190612e18565b6040518363ffffffff1660e01b81526004016113f8929190612e3a565b6020604051808303816000875af1158015611417573d6000803e3d6000fd5b505050506040513d601f19601f8201168201806040525081019061143b9190612e53565b50600a546001600160a01b031663a9059cbb846064611464886901b1ae4d6e2ef5000000612e01565b61146f906005612e01565b6114799190612e18565b6040518363ffffffff1660e01b8152600401611496929190612e3a565b6020604051808303816000875af11580156114b5573d6000803e3d6000fd5b505050506040513d601f19601f820116820180604052508101906114d99190612e53565b506107d090505b60028560028111156114f4576114f4612c59565b0361164257600a54600c546001600160a01b039182169163a9059cbb911660646115288869028a857425466f800000612e01565b61153390605f612e01565b61153d9190612e18565b6040518363ffffffff1660e01b815260040161155a929190612e3a565b6020604051808303816000875af1158015611579573d6000803e3d6000fd5b505050506040513d601f19601f8201168201806040525081019061159d9190612e53565b50600a546001600160a01b031663a9059cbb8460646115c68869028a857425466f800000612e01565b6115d1906005612e01565b6115db9190612e18565b6040518363ffffffff1660e01b81526004016115f8929190612e3a565b6020604051808303816000875af1158015611617573d6000803e3d6000fd5b505050506040513d601f19601f8201168201806040525081019061163b9190612e53565b50610c8090505b60005b848110156117155760088054908190600061165f83612d9d565b919050555061166e33826126b8565b6000818152600960205260409020805488919060ff1916600183600281111561169957611699612c59565b02179055506000818152600960205260409081902042600382015563076a70006004820155600501849055517f2e6d97f41fb5e22a6bdffd32e22b194939ba2aa3ef13f7cfd9d8bc1b3bdae1a4906116fa90839033908a908a908d90612e70565b60405180910390a1508061170d81612d9d565b915050611645565b505050505050565b6006546001600160a01b031633146106be5760405163118cdaa760e01b815233600482015260240161059c565b600680546001600160a01b038381166001600160a01b0319831681179093556040519116919082907f8be0079c531659141344cd1fd0a4f28419497f9722a3daafe3b4186f6b6457e090600090a35050565b60006001600160a01b038216158015906117b7575082516041145b6117c057600080fd5b6000806000856040815181106117d8576117d8612d71565b01602001516117eb9060f81c601b612eae565b90506020860151925060408601519150846001600160a01b031660018883868660405160008152602001604052604051611841949392919093845260ff9290921660208401526040830152606082015260800190565b6020604051602081039080840390855afa158015611863573d6000803e3d6000fd5b505050602060405103516001600160a01b03161493505050509392505050565b600089600381111561189757611897612c59565b03611daa5760018760038111156118b0576118b0612c59565b03611a4c578a1561194c57600a54600c546001600160a01b039182169163a9059cbb91166118e689678ac7230489e80000612e01565b6040518363ffffffff1660e01b8152600401611903929190612e3a565b6020604051808303816000875af1158015611922573d6000803e3d6000fd5b505050506040513d601f19601f820116820180604052508101906119469190612e53565b506119e3565b600b54600c546001600160a01b039182169163a9059cbb911661196f8f8a612e18565b61198190678ac7230489e80000612e01565b6040518363ffffffff1660e01b815260040161199e929190612e3a565b6020604051808303816000875af11580156119bd573d6000803e3d6000fd5b505050506040513d601f19601f820116820180604052508101906119e19190612e53565b505b60008a81526009602052604081206001916002918201918b90811115611a0b57611a0b612c59565b6002811115611a1c57611a1c612c59565b81526020810191909152604001600020805460ff19166001836003811115611a4657611a46612c59565b02179055505b6002876003811115611a6057611a60612c59565b03611bfa578a15611afc57600a54600c546001600160a01b039182169163a9059cbb9116611a9688678ac7230489e80000612e01565b6040518363ffffffff1660e01b8152600401611ab3929190612e3a565b6020604051808303816000875af1158015611ad2573d6000803e3d6000fd5b505050506040513d601f19601f82011682018060405250810190611af69190612e53565b50611b93565b600b54600c546001600160a01b039182169163a9059cbb9116611b1f8f89612e18565b611b3190678ac7230489e80000612e01565b6040518363ffffffff1660e01b8152600401611b4e929190612e3a565b6020604051808303816000875af1158015611b6d573d6000803e3d6000fd5b505050506040513d601f19601f82011682018060405250810190611b919190612e53565b505b60008a8152600960205260408120600291908201908a83811115611bb957611bb9612c59565b6002811115611bca57611bca612c59565b81526020810191909152604001600020805460ff19166001836003811115611bf457611bf4612c59565b02179055505b6003876003811115611c0e57611c0e612c59565b03611daa578a15611caa57600a54600c546001600160a01b039182169163a9059cbb9116611c4487678ac7230489e80000612e01565b6040518363ffffffff1660e01b8152600401611c61929190612e3a565b6020604051808303816000875af1158015611c80573d6000803e3d6000fd5b505050506040513d601f19601f82011682018060405250810190611ca49190612e53565b50611d41565b600b54600c546001600160a01b039182169163a9059cbb9116611ccd8f88612e18565b611cdf90678ac7230489e80000612e01565b6040518363ffffffff1660e01b8152600401611cfc929190612e3a565b6020604051808303816000875af1158015611d1b573d6000803e3d6000fd5b505050506040513d601f19601f82011682018060405250810190611d3f9190612e53565b505b60008a81526009602052604081206003916002918201918b90811115611d6957611d69612c59565b6002811115611d7a57611d7a612c59565b81526020810191909152604001600020805460ff19166001836003811115611da457611da4612c59565b02179055505b6001896003811115611dbe57611dbe612c59565b03612121576002876003811115611dd757611dd7612c59565b03611f71578a15611e7357600a54600c546001600160a01b039182169163a9059cbb9116611e0d86678ac7230489e80000612e01565b6040518363ffffffff1660e01b8152600401611e2a929190612e3a565b6020604051808303816000875af1158015611e49573d6000803e3d6000fd5b505050506040513d601f19601f82011682018060405250810190611e6d9190612e53565b50611f0a565b600b54600c546001600160a01b039182169163a9059cbb9116611e968f87612e18565b611ea890678ac7230489e80000612e01565b6040518363ffffffff1660e01b8152600401611ec5929190612e3a565b6020604051808303816000875af1158015611ee4573d6000803e3d6000fd5b505050506040513d601f19601f82011682018060405250810190611f089190612e53565b505b60008a8152600960205260408120600291908201908a83811115611f3057611f30612c59565b6002811115611f4157611f41612c59565b81526020810191909152604001600020805460ff19166001836003811115611f6b57611f6b612c59565b02179055505b6003876003811115611f8557611f85612c59565b03612121578a1561202157600a54600c546001600160a01b039182169163a9059cbb9116611fbb85678ac7230489e80000612e01565b6040518363ffffffff1660e01b8152600401611fd8929190612e3a565b6020604051808303816000875af1158015611ff7573d6000803e3d6000fd5b505050506040513d601f19601f8201168201806040525081019061201b9190612e53565b506120b8565b600b54600c546001600160a01b039182169163a9059cbb91166120448f86612e18565b61205690678ac7230489e80000612e01565b6040518363ffffffff1660e01b8152600401612073929190612e3a565b6020604051808303816000875af1158015612092573d6000803e3d6000fd5b505050506040513d601f19601f820116820180604052508101906120b69190612e53565b505b60008a81526009602052604081206003916002918201918b908111156120e0576120e0612c59565b60028111156120f1576120f1612c59565b81526020810191909152604001600020805460ff1916600183600381111561211b5761211b612c59565b02179055505b600289600381111561213557612135612c59565b036122ea57600387600381111561214e5761214e612c59565b036122ea578a156121ea57600a54600c546001600160a01b039182169163a9059cbb911661218484678ac7230489e80000612e01565b6040518363ffffffff1660e01b81526004016121a1929190612e3a565b6020604051808303816000875af11580156121c0573d6000803e3d6000fd5b505050506040513d601f19601f820116820180604052508101906121e49190612e53565b50612281565b600b54600c546001600160a01b039182169163a9059cbb911661220d8f85612e18565b61221f90678ac7230489e80000612e01565b6040518363ffffffff1660e01b815260040161223c929190612e3a565b6020604051808303816000875af115801561225b573d6000803e3d6000fd5b505050506040513d601f19601f8201168201806040525081019061227f9190612e53565b505b60008a81526009602052604081206003916002918201918b908111156122a9576122a9612c59565b60028111156122ba576122ba612c59565b81526020810191909152604001600020805460ff191660018360038111156122e4576122e4612c59565b02179055505b505050505050505050505050565b6001600160a01b03821661232a57604051630b61174360e31b81526001600160a01b038316600482015260240161059c565b6001600160a01b03838116600081815260056020908152604080832094871680845294825291829020805460ff191686151590811790915591519182527f17307eab39ab6107e8899845ad3d59bd9653f200f220920489ca2b5937696c31910160405180910390a3505050565b6001600160a01b0383163b1561105a57604051630a85bd0160e11b81526001600160a01b0384169063150b7a02906123d9903390889087908790600401612ec7565b6020604051808303816000875af1925050508015612414575060408051601f3d908101601f1916820190925261241191810190612f04565b60015b61247d573d808015612442576040519150601f19603f3d011682016040523d82523d6000602084013e612447565b606091505b50805160000361247557604051633250574960e11b81526001600160a01b038516600482015260240161059c565b805181602001fd5b6001600160e01b03198116630a85bd0160e11b1461061157604051633250574960e11b81526001600160a01b038516600482015260240161059c565b80806124cd57506001600160a01b03821615155b1561258f5760006124dd846110cc565b90506001600160a01b038316158015906125095750826001600160a01b0316816001600160a01b031614155b801561251c575061251a8184611060565b155b156125455760405163a9fbf51f60e01b81526001600160a01b038416600482015260240161059c565b811561258d5783856001600160a01b0316826001600160a01b03167f8c5be1e5ebec7d5bd14f71427d1e84f3dd0314c0f7b2291e5b200ac8c7c3b92560405160405180910390a45b505b5050600090815260046020526040902080546001600160a01b0319166001600160a01b0392909216919091179055565b6000828152600260205260408120546001600160a01b03908116908316156125ec576125ec81848661271d565b6001600160a01b0381161561262a576126096000856000806124b9565b6001600160a01b038116600090815260036020526040902080546000190190555b6001600160a01b03851615612659576001600160a01b0385166000908152600360205260409020805460010190555b60008481526002602052604080822080546001600160a01b0319166001600160a01b0389811691821790925591518793918516917fddf252ad1be2c89b69c2b068fc378daa952ba7f163c4a11628f55a4df523b3ef91a4949350505050565b6001600160a01b0382166126e257604051633250574960e11b81526000600482015260240161059c565b60006126f0838360006125bf565b90506001600160a01b038116156105b0576040516339e3563760e11b81526000600482015260240161059c565b612728838383612773565b6105b0576001600160a01b03831661275657604051637e27328960e01b81526004810182905260240161059c565b818160405163177e802f60e01b815260040161059c929190612e3a565b60006001600160a01b038316158015906127d15750826001600160a01b0316846001600160a01b031614806127ad57506127ad8484611060565b806127d157506000828152600460205260409020546001600160a01b038481169116145b949350505050565b6001600160e01b0319811681146110c957600080fd5b60006020828403121561280157600080fd5b813561280c816127d9565b9392505050565b6000815180845260005b818110156128395760208185018101518683018201520161281d565b506000602082860101526020601f19601f83011685010191505092915050565b60208152600061280c6020830184612813565b60006020828403121561287e57600080fd5b5035919050565b80356001600160a01b038116811461289c57600080fd5b919050565b600080604083850312156128b457600080fd5b6128bd83612885565b946020939093013593505050565b6000806000606084860312156128e057600080fd5b6128e984612885565b92506128f760208501612885565b9150604084013590509250925092565b634e487b7160e01b600052604160045260246000fd5b604051601f8201601f1916810167ffffffffffffffff8111828210171561294657612946612907565b604052919050565b600067ffffffffffffffff82111561296857612968612907565b5060051b60200190565b600381106110c957600080fd5b600082601f83011261299057600080fd5b813560206129a56129a08361294e565b61291d565b82815260059290921b840181019181810190868411156129c457600080fd5b8286015b848110156129df57803583529183019183016129c8565b509695505050505050565b600082601f8301126129fb57600080fd5b813567ffffffffffffffff811115612a1557612a15612907565b612a28601f8201601f191660200161291d565b818152846020838601011115612a3d57600080fd5b816020850160208301376000918101602001919091529392505050565b60008060008060808587031215612a7057600080fd5b843567ffffffffffffffff80821115612a8857600080fd5b818701915087601f830112612a9c57600080fd5b81356020612aac6129a08361294e565b82815260059290921b8401810191818101908b841115612acb57600080fd5b948201945b83861015612af2578535612ae381612972565b82529482019490820190612ad0565b98505088013592505080821115612b0857600080fd5b612b148883890161297f565b9450612b2260408801612885565b93506060870135915080821115612b3857600080fd5b50612b45878288016129ea565b91505092959194509250565b80151581146110c957600080fd5b600060208284031215612b7157600080fd5b813561280c81612b51565b600060208284031215612b8e57600080fd5b61280c82612885565b60008060008060008060c08789031215612bb057600080fd5b8635612bbb81612b51565b9550602087013594506040870135612bd281612972565b9350606087013560048110612be657600080fd5b92506080870135915060a087013567ffffffffffffffff811115612c0957600080fd5b612c1589828a016129ea565b9150509295509295509295565b60008060408385031215612c3557600080fd5b612c3e83612885565b91506020830135612c4e81612b51565b809150509250929050565b634e487b7160e01b600052602160045260246000fd5b600381106110c9576110c9612c59565b60808101612c8c86612c6f565b9481526020810193909352604083019190915260609091015290565b60008060008060808587031215612cbe57600080fd5b612cc785612885565b9350612cd560208601612885565b925060408501359150606085013567ffffffffffffffff811115612cf857600080fd5b612b45878288016129ea565b60008060408385031215612d1757600080fd5b612d2083612885565b9150612d2e60208401612885565b90509250929050565b600181811c90821680612d4b57607f821691505b602082108103612d6b57634e487b7160e01b600052602260045260246000fd5b50919050565b634e487b7160e01b600052603260045260246000fd5b634e487b7160e01b600052601160045260246000fd5b600060018201612daf57612daf612d87565b5060010190565b8181038181111561047f5761047f612d87565b84815260808101612dd985612c6f565b84602083015260048410612def57612def612c59565b60408201939093526060015292915050565b808202811582820484141761047f5761047f612d87565b600082612e3557634e487b7160e01b600052601260045260246000fd5b500490565b6001600160a01b03929092168252602082015260400190565b600060208284031215612e6557600080fd5b815161280c81612b51565b8581526001600160a01b038581166020830152604082018590528316606082015260a08101612e9e83612c6f565b8260808301529695505050505050565b60ff818116838216019081111561047f5761047f612d87565b6001600160a01b0385811682528416602082015260408101839052608060608201819052600090612efa90830184612813565b9695505050505050565b600060208284031215612f1657600080fd5b815161280c816127d956fea2646970667358221220918834134e869552341ad81e5f808df8c10fa9bcc22f54478918ec1f7f82990d64736f6c63430008150033",
    "linkReferences": {}
  },
  "methodIdentifiers": {
    "USDT()": "c54e44eb",
    "Zeb()": "15f2e205",
    "approve(address,uint256)": "095ea7b3",
    "balanceOf(address)": "70a08231",
    "getApproved(uint256)": "081812fc",
    "isApprovedForAll(address,address)": "e985e9c5",
    "isPromotion()": "2677e4d3",
    "name()": "06fdde03",
    "nextTokenID()": "f101e481",
    "nodeInfo(uint256)": "b02439ae",
    "oracle()": "7dc0d1d0",
    "owner()": "8da5cb5b",
    "ownerOf(uint256)": "6352211e",
    "publicMint(uint8[],uint256[],address,bytes)": "3ecb33b0",
    "receiver()": "f7260d3e",
    "renounceOwnership()": "715018a6",
    "safeTransferFrom(address,address,uint256)": "42842e0e",
    "safeTransferFrom(address,address,uint256,bytes)": "b88d4fde",
    "setApprovalForAll(address,bool)": "a22cb465",
    "setPromotion(bool)": "4f821a26",
    "signer()": "238ac933",
    "supportsInterface(bytes4)": "01ffc9a7",
    "symbol()": "95d89b41",
    "tokenURI(uint256)": "c87b56dd",
    "transferFrom(address,address,uint256)": "23b872dd",
    "transferOwnership(address)": "f2fde38b",
    "transferable()": "92ff0d31",
    "upgrade(bool,uint256,uint8,uint8,uint256,bytes)": "73046035"
  },
  "id": 36
}