{
  "abi": [
    {
      "inputs": [
        {
          "internalType": "string",
          "name": "name",
          "type": "string"
        },
        {
          "internalType": "string",
          "name": "symbol",
          "type": "string"
        },
        {
          "internalType": "address",
          "name": "_usdt",
          "type": "address"
        },
        {
          "internalType": "address",
          "name": "_zeb",
          "type": "address"
        },
        {
          "internalType": "address",
          "name": "_receiver",
          "type": "address"
        },
        {
          "internalType": "address",
          "name": "_signer",
          "type": "address"
        }
      ],
      "stateMutability": "nonpayable",
      "type": "constructor"
    },
    {
      "inputs": [
        {
          "internalType": "address",
          "name": "sender",
          "type": "address"
        },
        {
          "internalType": "uint256",
          "name": "tokenId",
          "type": "uint256"
        },
        {
          "internalType": "address",
          "name": "owner",
          "type": "address"
        }
      ],
      "name": "ERC721IncorrectOwner",
      "type": "error"
    },
    {
      "inputs": [
        {
          "internalType": "address",
          "name": "operator",
          "type": "address"
        },
        {
          "internalType": "uint256",
          "name": "tokenId",
          "type": "uint256"
        }
      ],
      "name": "ERC721InsufficientApproval",
      "type": "error"
    },
    {
      "inputs": [
        {
          "internalType": "address",
          "name": "approver",
          "type": "address"
        }
      ],
      "name": "ERC721InvalidApprover",
      "type": "error"
    },
    {
      "inputs": [
        {
          "internalType": "address",
          "name": "operator",
          "type": "address"
        }
      ],
      "name": "ERC721InvalidOperator",
      "type": "error"
    },
    {
      "inputs": [
        {
          "internalType": "address",
          "name": "owner",
          "type": "address"
        }
      ],
      "name": "ERC721InvalidOwner",
      "type": "error"
    },
    {
      "inputs": [
        {
          "internalType": "address",
          "name": "receiver",
          "type": "address"
        }
      ],
      "name": "ERC721InvalidReceiver",
      "type": "error"
    },
    {
      "inputs": [
        {
          "internalType": "address",
          "name": "sender",
          "type": "address"
        }
      ],
      "name": "ERC721InvalidSender",
      "type": "error"
    },
    {
      "inputs": [
        {
          "internalType": "uint256",
          "name": "tokenId",
          "type": "uint256"
        }
      ],
      "name": "ERC721NonexistentToken",
      "type": "error"
    },
    {
      "inputs": [
        {
          "internalType": "address",
          "name": "owner",
          "type": "address"
        }
      ],
      "name": "OwnableInvalidOwner",
      "type": "error"
    },
    {
      "inputs": [
        {
          "internalType": "address",
          "name": "account",
          "type": "address"
        }
      ],
      "name": "OwnableUnauthorizedAccount",
      "type": "error"
    },
    {
      "anonymous": false,
      "inputs": [
        {
          "indexed": true,
          "internalType": "address",
          "name": "owner",
          "type": "address"
        },
        {
          "indexed": true,
          "internalType": "address",
          "name": "approved",
          "type": "address"
        },
        {
          "indexed": true,
          "internalType": "uint256",
          "name": "tokenId",
          "type": "uint256"
        }
      ],
      "name": "Approval",
      "type": "event"
    },
    {
      "anonymous": false,
      "inputs": [
        {
          "indexed": true,
          "internalType": "address",
          "name": "owner",
          "type": "address"
        },
        {
          "indexed": true,
          "internalType": "address",
          "name": "operator",
          "type": "address"
        },
        {
          "indexed": false,
          "internalType": "bool",
          "name": "approved",
          "type": "bool"
        }
      ],
      "name": "ApprovalForAll",
      "type": "event"
    },
    {
      "anonymous": false,
      "inputs": [
        {
          "indexed": true,
          "internalType": "address",
          "name": "previousOwner",
          "type": "address"
        },
        {
          "indexed": true,
          "internalType": "address",
          "name": "newOwner",
          "type": "address"
        }
      ],
      "name": "OwnershipTransferred",
      "type": "event"
    },
    {
      "anonymous": false,
      "inputs": [
        {
          "indexed": true,
          "internalType": "address",
          "name": "from",
          "type": "address"
        },
        {
          "indexed": true,
          "internalType": "address",
          "name": "to",
          "type": "address"
        },
        {
          "indexed": true,
          "internalType": "uint256",
          "name": "tokenId",
          "type": "uint256"
        }
      ],
      "name": "Transfer",
      "type": "event"
    },
    {
      "anonymous": false,
      "inputs": [
        {
          "indexed": true,
          "internalType": "uint256",
          "name": "tokenId",
          "type": "uint256"
        },
        {
          "indexed": false,
          "internalType": "address",
          "name": "user",
          "type": "address"
        },
        {
          "indexed": false,
          "internalType": "uint256",
          "name": "amount",
          "type": "uint256"
        },
        {
          "indexed": false,
          "internalType": "address",
          "name": "inviter",
          "type": "address"
        },
        {
          "indexed": false,
          "internalType": "enum Node.MachaineType",
          "name": "_machaineType",
          "type": "uint8"
        }
      ],
      "name": "mintEvent",
      "type": "event"
    },
    {
      "anonymous": false,
      "inputs": [
        {
          "indexed": true,
          "internalType": "uint256",
          "name": "tokenId",
          "type": "uint256"
        },
        {
          "indexed": false,
          "internalType": "enum Node.EquipmentType",
          "name": "equipmentType",
          "type": "uint8"
        },
        {
          "indexed": false,
          "internalType": "enum Node.EquipmentLevel",
          "name": "equipmentLevel",
          "type": "uint8"
        },
        {
          "indexed": false,
          "internalType": "uint256",
          "name": "time",
          "type": "uint256"
        }
      ],
      "name": "upgradeEvent",
      "type": "event"
    },
    {
      "inputs": [],
      "name": "USDT",
      "outputs": [
        {
          "internalType": "contract IERC20",
          "name": "",
          "type": "address"
        }
      ],
      "stateMutability": "view",
      "type": "function"
    },
    {
      "inputs": [],
      "name": "Zeb",
      "outputs": [
        {
          "internalType": "contract IERC20",
          "name": "",
          "type": "address"
        }
      ],
      "stateMutability": "view",
      "type": "function"
    },
    {
      "inputs": [
        {
          "internalType": "address",
          "name": "to",
          "type": "address"
        },
        {
          "internalType": "uint256",
          "name": "tokenId",
          "type": "uint256"
        }
      ],
      "name": "approve",
      "outputs": [],
      "stateMutability": "nonpayable",
      "type": "function"
    },
    {
      "inputs": [
        {
          "internalType": "address",
          "name": "owner",
          "type": "address"
        }
      ],
      "name": "balanceOf",
      "outputs": [
        {
          "internalType": "uint256",
          "name": "",
          "type": "uint256"
        }
      ],
      "stateMutability": "view",
      "type": "function"
    },
    {
      "inputs": [
        {
          "internalType": "uint256",
          "name": "tokenId",
          "type": "uint256"
        }
      ],
      "name": "getApproved",
      "outputs": [
        {
          "internalType": "address",
          "name": "",
          "type": "address"
        }
      ],
      "stateMutability": "view",
      "type": "function"
    },
    {
      "inputs": [
        {
          "internalType": "address",
          "name": "owner",
          "type": "address"
        },
        {
          "internalType": "address",
          "name": "operator",
          "type": "address"
        }
      ],
      "name": "isApprovedForAll",
      "outputs": [
        {
          "internalType": "bool",
          "name": "",
          "type": "bool"
        }
      ],
      "stateMutability": "view",
      "type": "function"
    },
    {
      "inputs": [],
      "name": "name",
      "outputs": [
        {
          "internalType": "string",
          "name": "",
          "type": "string"
        }
      ],
      "stateMutability": "view",
      "type": "function"
    },
    {
      "inputs": [],
      "name": "nextTokenID",
      "outputs": [
        {
          "internalType": "uint256",
          "name": "",
          "type": "uint256"
        }
      ],
      "stateMutability": "view",
      "type": "function"
    },
    {
      "inputs": [
        {
          "internalType": "uint256",
          "name": "",
          "type": "uint256"
        }
      ],
      "name": "nodeInfo",
      "outputs": [
        {
          "internalType": "enum Node.MachaineType",
          "name": "machaineType",
          "type": "uint8"
        },
        {
          "internalType": "uint256",
          "name": "mintTime",
          "type": "uint256"
        },
        {
          "internalType": "uint256",
          "name": "unlockPeriod",
          "type": "uint256"
        },
        {
          "internalType": "uint256",
          "name": "totalToken",
          "type": "uint256"
        }
      ],
      "stateMutability": "view",
      "type": "function"
    },
    {
      "inputs": [],
      "name": "owner",
      "outputs": [
        {
          "internalType": "address",
          "name": "",
          "type": "address"
        }
      ],
      "stateMutability": "view",
      "type": "function"
    },
    {
      "inputs": [
        {
          "internalType": "uint256",
          "name": "tokenId",
          "type": "uint256"
        }
      ],
      "name": "ownerOf",
      "outputs": [
        {
          "internalType": "address",
          "name": "",
          "type": "address"
        }
      ],
      "stateMutability": "view",
      "type": "function"
    },
    {
      "inputs": [
        {
          "internalType": "enum Node.MachaineType[]",
          "name": "_machineType",
          "type": "uint8[]"
        },
        {
          "internalType": "uint256[]",
          "name": "amount",
          "type": "uint256[]"
        },
        {
          "internalType": "address",
          "name": "inviter",
          "type": "address"
        },
        {
          "internalType": "uint256",
          "name": "discount",
          "type": "uint256"
        },
        {
          "internalType": "bytes",
          "name": "evidence",
          "type": "bytes"
        }
      ],
      "name": "publicMint",
      "outputs": [],
      "stateMutability": "nonpayable",
      "type": "function"
    },
    {
      "inputs": [],
      "name": "receiver",
      "outputs": [
        {
          "internalType": "address",
          "name": "",
          "type": "address"
        }
      ],
      "stateMutability": "view",
      "type": "function"
    },
    {
      "inputs": [],
      "name": "renounceOwnership",
      "outputs": [],
      "stateMutability": "nonpayable",
      "type": "function"
    },
    {
      "inputs": [
        {
          "internalType": "address",
          "name": "from",
          "type": "address"
        },
        {
          "internalType": "address",
          "name": "to",
          "type": "address"
        },
        {
          "internalType": "uint256",
          "name": "tokenId",
          "type": "uint256"
        }
      ],
      "name": "safeTransferFrom",
      "outputs": [],
      "stateMutability": "nonpayable",
      "type": "function"
    },
    {
      "inputs": [
        {
          "internalType": "address",
          "name": "from",
          "type": "address"
        },
        {
          "internalType": "address",
          "name": "to",
          "type": "address"
        },
        {
          "internalType": "uint256",
          "name": "tokenId",
          "type": "uint256"
        },
        {
          "internalType": "bytes",
          "name": "data",
          "type": "bytes"
        }
      ],
      "name": "safeTransferFrom",
      "outputs": [],
      "stateMutability": "nonpayable",
      "type": "function"
    },
    {
      "inputs": [
        {
          "internalType": "address",
          "name": "operator",
          "type": "address"
        },
        {
          "internalType": "bool",
          "name": "approved",
          "type": "bool"
        }
      ],
      "name": "setApprovalForAll",
      "outputs": [],
      "stateMutability": "nonpayable",
      "type": "function"
    },
    {
      "inputs": [],
      "name": "signer",
      "outputs": [
        {
          "internalType": "address",
          "name": "",
          "type": "address"
        }
      ],
      "stateMutability": "view",
      "type": "function"
    },
    {
      "inputs": [
        {
          "internalType": "bytes4",
          "name": "interfaceId",
          "type": "bytes4"
        }
      ],
      "name": "supportsInterface",
      "outputs": [
        {
          "internalType": "bool",
          "name": "",
          "type": "bool"
        }
      ],
      "stateMutability": "view",
      "type": "function"
    },
    {
      "inputs": [],
      "name": "symbol",
      "outputs": [
        {
          "internalType": "string",
          "name": "",
          "type": "string"
        }
      ],
      "stateMutability": "view",
      "type": "function"
    },
    {
      "inputs": [
        {
          "internalType": "uint256",
          "name": "tokenID",
          "type": "uint256"
        }
      ],
      "name": "tokenURI",
      "outputs": [
        {
          "internalType": "string",
          "name": "",
          "type": "string"
        }
      ],
      "stateMutability": "view",
      "type": "function"
    },
    {
      "inputs": [
        {
          "internalType": "address",
          "name": "from",
          "type": "address"
        },
        {
          "internalType": "address",
          "name": "to",
          "type": "address"
        },
        {
          "internalType": "uint256",
          "name": "tokenId",
          "type": "uint256"
        }
      ],
      "name": "transferFrom",
      "outputs": [],
      "stateMutability": "nonpayable",
      "type": "function"
    },
    {
      "inputs": [
        {
          "internalType": "address",
          "name": "newOwner",
          "type": "address"
        }
      ],
      "name": "transferOwnership",
      "outputs": [],
      "stateMutability": "nonpayable",
      "type": "function"
    },
    {
      "inputs": [],
      "name": "transferable",
      "outputs": [
        {
          "internalType": "bool",
          "name": "",
          "type": "bool"
        }
      ],
      "stateMutability": "view",
      "type": "function"
    },
    {
      "inputs": [
        {
          "internalType": "bool",
          "name": "isUSDT",
          "type": "bool"
        },
        {
          "internalType": "uint256",
          "name": "tokenId",
          "type": "uint256"
        },
        {
          "internalType": "enum Node.EquipmentType",
          "name": "_equipmentType",
          "type": "uint8"
        },
        {
          "internalType": "enum Node.EquipmentLevel",
          "name": "_equipmentLevel",
          "type": "uint8"
        },
        {
          "internalType": "uint256",
          "name": "zebPrice",
          "type": "uint256"
        },
        {
          "internalType": "bytes",
          "name": "evidence",
          "type": "bytes"
        }
      ],
      "name": "upgrade",
      "outputs": [],
      "stateMutability": "nonpayable",
      "type": "function"
    }
  ],
  "bytecode": {
    "object": "0x60806040523480156200001157600080fd5b506040516200331a3803806200331a83398101604081905262000034916200021d565b33868660006200004583826200035f565b5060016200005482826200035f565b5050506001600160a01b0381166200008657604051631e4fbdf760e01b81526000600482015260240160405180910390fd5b6200009181620000e9565b50600980546001600160a01b039586166001600160a01b031991821617909155600a805494861694821694909417909355600b805492851692841692909217909155600c8054919093169116179055506200042b9050565b600680546001600160a01b038381166001600160a01b0319831681179093556040519116919082907f8be0079c531659141344cd1fd0a4f28419497f9722a3daafe3b4186f6b6457e090600090a35050565b634e487b7160e01b600052604160045260246000fd5b600082601f8301126200016357600080fd5b81516001600160401b03808211156200018057620001806200013b565b604051601f8301601f19908116603f01168101908282118183101715620001ab57620001ab6200013b565b81604052838152602092508683858801011115620001c857600080fd5b600091505b83821015620001ec5785820183015181830184015290820190620001cd565b600093810190920192909252949350505050565b80516001600160a01b03811681146200021857600080fd5b919050565b60008060008060008060c087890312156200023757600080fd5b86516001600160401b03808211156200024f57600080fd5b6200025d8a838b0162000151565b975060208901519150808211156200027457600080fd5b506200028389828a0162000151565b955050620002946040880162000200565b9350620002a46060880162000200565b9250620002b46080880162000200565b9150620002c460a0880162000200565b90509295509295509295565b600181811c90821680620002e557607f821691505b6020821081036200030657634e487b7160e01b600052602260045260246000fd5b50919050565b601f8211156200035a57600081815260208120601f850160051c81016020861015620003355750805b601f850160051c820191505b81811015620003565782815560010162000341565b5050505b505050565b81516001600160401b038111156200037b576200037b6200013b565b62000393816200038c8454620002d0565b846200030c565b602080601f831160018114620003cb5760008415620003b25750858301515b600019600386901b1c1916600185901b17855562000356565b600085815260208120601f198616915b82811015620003fc57888601518255948401946001909101908401620003db565b50858210156200041b5787850151600019600388901b60f8161c191681555b5050505050600190811b01905550565b612edf806200043b6000396000f3fe608060405234801561001057600080fd5b50600436106101735760003560e01c80638da5cb5b116100de578063b88d4fde11610097578063e985e9c511610071578063e985e9c514610366578063f101e48114610379578063f2fde38b14610382578063f7260d3e1461039557600080fd5b8063b88d4fde1461032c578063c54e44eb1461033f578063c87b56dd1461035257600080fd5b80638da5cb5b1461029057806392ff0d31146102a157806395d89b41146102b5578063a22cb465146102bd578063b02439ae146102d0578063b588a8901461031957600080fd5b806323b872dd1161013057806323b872dd1461021b57806342842e0e1461022e5780636352211e1461024157806370a0823114610254578063715018a614610275578063730460351461027d57600080fd5b806301ffc9a71461017857806306fdde03146101a0578063081812fc146101b5578063095ea7b3146101e057806315f2e205146101f5578063238ac93314610208575b600080fd5b61018b61018636600461278c565b6103a8565b60405190151581526020015b60405180910390f35b6101a86103fa565b60405161019791906127f6565b6101c86101c3366004612809565b61048c565b6040516001600160a01b039091168152602001610197565b6101f36101ee36600461283e565b6104b5565b005b600a546101c8906001600160a01b031681565b600c546101c8906001600160a01b031681565b6101f3610229366004612868565b6104c4565b6101f361023c366004612868565b61052a565b6101c861024f366004612809565b610545565b6102676102623660046128a4565b610550565b604051908152602001610197565b6101f3610598565b6101f361028b366004612991565b6105ac565b6006546001600160a01b03166101c8565b60065461018b90600160a01b900460ff1681565b6101a8610f14565b6101f36102cb366004612a1c565b610f23565b6103096102de366004612809565b600860205260009081526040902080546003820154600483015460059093015460ff90921692909184565b6040516101979493929190612a79565b6101f3610327366004612b31565b610f2e565b6101f361033a366004612c32565b610f93565b6009546101c8906001600160a01b031681565b6101a8610360366004612809565b50606090565b61018b610374366004612c9a565b610fb0565b61026760075481565b6101f36103903660046128a4565b610fde565b600b546101c8906001600160a01b031681565b60006001600160e01b031982166380ac58cd60e01b14806103d957506001600160e01b03198216635b5e139f60e01b145b806103f457506301ffc9a760e01b6001600160e01b03198316145b92915050565b60606000805461040990612ccd565b80601f016020809104026020016040519081016040528092919081815260200182805461043590612ccd565b80156104825780601f1061045757610100808354040283529160200191610482565b820191906000526020600020905b81548152906001019060200180831161046557829003601f168201915b5050505050905090565b60006104978261101c565b506000828152600460205260409020546001600160a01b03166103f4565b6104c0828233611055565b5050565b600654600160a01b900460ff1661051a5760405162461bcd60e51b81526020600482015260156024820152744e46543a206e6f74207472616e7366657261626c6560581b60448201526064015b60405180910390fd5b610525838383611062565b505050565b61052583838360405180602001604052806000815250610f93565b60006103f48261101c565b60006001600160a01b03821661057c576040516322718ad960e21b815260006004820152602401610511565b506001600160a01b031660009081526003602052604090205490565b6105a06110e7565b6105aa6000611114565b565b6105ed826040516020016105c291815260200190565b60408051601f198184030181529190528051602090910120600c5483906001600160a01b0316611166565b61062c5760405162461bcd60e51b815260206004820152601060248201526f696e76616c69642065766964656e636560801b6044820152606401610511565b3361063686610545565b6001600160a01b03161461067d5760405162461bcd60e51b815260206004820152600e60248201526d27232a1d103737ba1037bbb732b960911b6044820152606401610511565b82600381111561068f5761068f612a53565b60008681526008602052604081206002908101919087908111156106b5576106b5612a53565b60028111156106c6576106c6612a53565b815260208101919091526040016000205460ff1660038111156106eb576106eb612a53565b1061072f5760405162461bcd60e51b81526020600482015260146024820152734e46543a206e6f74207570677261646561626c6560601b6044820152606401610511565b60008581526008602052604081205460ff169081600281111561075457610754612a53565b036108e757600085600281111561076d5761076d612a53565b036107e05760008681526008602052604081206002908101908290889081111561079957610799612a53565b60028111156107aa576107aa612a53565b815260208101919091526040016000205460ff1690506107da848989848a8a601f60296032600c6015600a61124d565b50610c3b565b60018560028111156107f4576107f4612a53565b036108615760008681526008602052604081206002908101908290889081111561082057610820612a53565b600281111561083157610831612a53565b815260208101919091526040016000205460ff1690506107da848989848a8a6044605b606e601b6031601661124d565b600285600281111561087557610875612a53565b036108e2576000868152600860205260408120600290810190829088908111156108a1576108a1612a53565b60028111156108b2576108b2612a53565b815260208101919091526040016000205460ff1690506107da848989848a8a6072609860b7602d6051602461124d565b610c3b565b60018160028111156108fb576108fb612a53565b03610a9157600085600281111561091457610914612a53565b036109895760008681526008602052604081206002908101908290889081111561094057610940612a53565b600281111561095157610951612a53565b815260200190815260200160002060009054906101000a900460ff1690506107da848989848a8a6066608860a360286048602061124d565b600185600281111561099d5761099d612a53565b03610a0c576000868152600860205260408120600290810190829088908111156109c9576109c9612a53565b60028111156109da576109da612a53565b815260208101919091526040016000205460ff1690506107da848989848a8a60e161012c610168605a60a2604861124d565b6002856002811115610a2057610a20612a53565b036108e257600086815260086020526040812060029081019082908890811115610a4c57610a4c612a53565b6002811115610a5d57610a5d612a53565b815260208101919091526040016000205460ff1690506107da848989848a8a6101776101f4610258609661010e607861124d565b6002816002811115610aa557610aa5612a53565b03610c3b576000856002811115610abe57610abe612a53565b03610b2d57600086815260086020526040812060029081019082908890811115610aea57610aea612a53565b6002811115610afb57610afb612a53565b815260208101919091526040016000205460ff1690506107da848989848a8a60dd6101276101626058609e604661124d565b6001856002811115610b4157610b41612a53565b03610bb257600086815260086020526040812060029081019082908890811115610b6d57610b6d612a53565b6002811115610b7e57610b7e612a53565b815260208101919091526040016000205460ff1690506107da848989848a8a6101e761028a61030c60c361015f609c61124d565b6002856002811115610bc657610bc6612a53565b03610c3b57600086815260086020526040812060029081019082908890811115610bf257610bf2612a53565b6002811115610c0357610c03612a53565b815260208101919091526040016000205460ff169050610c39848989848a8a61032c61043b61051461014561024961010461124d565b505b6000856002811115610c4f57610c4f612a53565b03610d26576001846003811115610c6857610c68612a53565b03610c9c5760008681526008602052604081206004018054624f1a009290610c91908490612d1d565b90915550610ecf9050565b6002846003811115610cb057610cb0612a53565b03610ce457600086815260086020526040812060040180546276a7009290610cd9908490612d1d565b90915550610d219050565b6003846003811115610cf857610cf8612a53565b03610d215760008681526008602052604081206004018054629e34009290610c91908490612d1d565b610ecf565b6001856002811115610d3a57610d3a612a53565b03610df7576001846003811115610d5357610d53612a53565b03610d7c5760008681526008602052604081206004018054629e34009290610c91908490612d1d565b6002846003811115610d9057610d90612a53565b03610db9576000868152600860205260408120600401805462ed4e009290610cd9908490612d1d565b6003846003811115610dcd57610dcd612a53565b03610d21576000868152600860205260408120600401805463013c68009290610c91908490612d1d565b6002856002811115610e0b57610e0b612a53565b03610ecf576001846003811115610e2457610e24612a53565b03610e4d576000868152600860205260408120600401805462ed4e009290610c91908490612d1d565b6002846003811115610e6157610e61612a53565b03610e8b5760008681526008602052604081206004018054630163f5009290610c91908490612d1d565b6003846003811115610e9f57610e9f612a53565b03610ecf57600086815260086020526040812060040180546301da9c009290610ec9908490612d1d565b90915550505b857f076c993c6e3b81f3d762a49ce745bac32a307f74ce321f8eba2b3c88bd322539868642604051610f0393929190612d30565b60405180910390a250505050505050565b60606001805461040990612ccd565b6104c0338383611cc2565b60005b8551811015610f8b57610f79868281518110610f4f57610f4f612d61565b6020026020010151868381518110610f6957610f69612d61565b6020026020010151868686611d61565b80610f8381612d77565b915050610f31565b505050505050565b610f9e8484846104c4565b610faa8484848461232d565b50505050565b6001600160a01b03918216600090815260056020908152604080832093909416825291909152205460ff1690565b610fe66110e7565b6001600160a01b03811661101057604051631e4fbdf760e01b815260006004820152602401610511565b61101981611114565b50565b6000818152600260205260408120546001600160a01b0316806103f457604051637e27328960e01b815260048101849052602401610511565b6105258383836001612456565b6001600160a01b03821661108c57604051633250574960e11b815260006004820152602401610511565b600061109983833361255c565b9050836001600160a01b0316816001600160a01b031614610faa576040516364283d7b60e01b81526001600160a01b0380861660048301526024820184905282166044820152606401610511565b6006546001600160a01b031633146105aa5760405163118cdaa760e01b8152336004820152602401610511565b600680546001600160a01b038381166001600160a01b0319831681179093556040519116919082907f8be0079c531659141344cd1fd0a4f28419497f9722a3daafe3b4186f6b6457e090600090a35050565b60006001600160a01b03821615801590611181575082516041145b61118a57600080fd5b6000806000856040815181106111a2576111a2612d61565b01602001516111b59060f81c601b612d90565b90506020860151925060408601519150846001600160a01b03166001888386866040516000815260200160405260405161120b949392919093845260ff9290921660208401526040830152606082015260800190565b6020604051602081039080840390855afa15801561122d573d6000803e3d6000fd5b505050602060405103516001600160a01b03161493505050509392505050565b600089600381111561126157611261612a53565b0361177457600187600381111561127a5761127a612a53565b03611416578a1561131657600954600b546001600160a01b039182169163a9059cbb91166112b089678ac7230489e80000612da9565b6040518363ffffffff1660e01b81526004016112cd929190612dc0565b6020604051808303816000875af11580156112ec573d6000803e3d6000fd5b505050506040513d601f19601f820116820180604052508101906113109190612dd9565b506113ad565b600a54600b546001600160a01b039182169163a9059cbb91166113398f8a612df6565b61134b90678ac7230489e80000612da9565b6040518363ffffffff1660e01b8152600401611368929190612dc0565b6020604051808303816000875af1158015611387573d6000803e3d6000fd5b505050506040513d601f19601f820116820180604052508101906113ab9190612dd9565b505b60008a81526008602052604081206001916002918201918b908111156113d5576113d5612a53565b60028111156113e6576113e6612a53565b81526020810191909152604001600020805460ff1916600183600381111561141057611410612a53565b02179055505b600287600381111561142a5761142a612a53565b036115c4578a156114c657600954600b546001600160a01b039182169163a9059cbb911661146088678ac7230489e80000612da9565b6040518363ffffffff1660e01b815260040161147d929190612dc0565b6020604051808303816000875af115801561149c573d6000803e3d6000fd5b505050506040513d601f19601f820116820180604052508101906114c09190612dd9565b5061155d565b600a54600b546001600160a01b039182169163a9059cbb91166114e98f89612df6565b6114fb90678ac7230489e80000612da9565b6040518363ffffffff1660e01b8152600401611518929190612dc0565b6020604051808303816000875af1158015611537573d6000803e3d6000fd5b505050506040513d601f19601f8201168201806040525081019061155b9190612dd9565b505b60008a8152600860205260408120600291908201908a8381111561158357611583612a53565b600281111561159457611594612a53565b81526020810191909152604001600020805460ff191660018360038111156115be576115be612a53565b02179055505b60038760038111156115d8576115d8612a53565b03611774578a1561167457600954600b546001600160a01b039182169163a9059cbb911661160e87678ac7230489e80000612da9565b6040518363ffffffff1660e01b815260040161162b929190612dc0565b6020604051808303816000875af115801561164a573d6000803e3d6000fd5b505050506040513d601f19601f8201168201806040525081019061166e9190612dd9565b5061170b565b600a54600b546001600160a01b039182169163a9059cbb91166116978f88612df6565b6116a990678ac7230489e80000612da9565b6040518363ffffffff1660e01b81526004016116c6929190612dc0565b6020604051808303816000875af11580156116e5573d6000803e3d6000fd5b505050506040513d601f19601f820116820180604052508101906117099190612dd9565b505b60008a81526008602052604081206003916002918201918b9081111561173357611733612a53565b600281111561174457611744612a53565b81526020810191909152604001600020805460ff1916600183600381111561176e5761176e612a53565b02179055505b600189600381111561178857611788612a53565b03611aeb5760028760038111156117a1576117a1612a53565b0361193b578a1561183d57600954600b546001600160a01b039182169163a9059cbb91166117d786678ac7230489e80000612da9565b6040518363ffffffff1660e01b81526004016117f4929190612dc0565b6020604051808303816000875af1158015611813573d6000803e3d6000fd5b505050506040513d601f19601f820116820180604052508101906118379190612dd9565b506118d4565b600a54600b546001600160a01b039182169163a9059cbb91166118608f87612df6565b61187290678ac7230489e80000612da9565b6040518363ffffffff1660e01b815260040161188f929190612dc0565b6020604051808303816000875af11580156118ae573d6000803e3d6000fd5b505050506040513d601f19601f820116820180604052508101906118d29190612dd9565b505b60008a8152600860205260408120600291908201908a838111156118fa576118fa612a53565b600281111561190b5761190b612a53565b81526020810191909152604001600020805460ff1916600183600381111561193557611935612a53565b02179055505b600387600381111561194f5761194f612a53565b03611aeb578a156119eb57600954600b546001600160a01b039182169163a9059cbb911661198585678ac7230489e80000612da9565b6040518363ffffffff1660e01b81526004016119a2929190612dc0565b6020604051808303816000875af11580156119c1573d6000803e3d6000fd5b505050506040513d601f19601f820116820180604052508101906119e59190612dd9565b50611a82565b600a54600b546001600160a01b039182169163a9059cbb9116611a0e8f86612df6565b611a2090678ac7230489e80000612da9565b6040518363ffffffff1660e01b8152600401611a3d929190612dc0565b6020604051808303816000875af1158015611a5c573d6000803e3d6000fd5b505050506040513d601f19601f82011682018060405250810190611a809190612dd9565b505b60008a81526008602052604081206003916002918201918b90811115611aaa57611aaa612a53565b6002811115611abb57611abb612a53565b81526020810191909152604001600020805460ff19166001836003811115611ae557611ae5612a53565b02179055505b6002896003811115611aff57611aff612a53565b03611cb4576003876003811115611b1857611b18612a53565b03611cb4578a15611bb457600954600b546001600160a01b039182169163a9059cbb9116611b4e84678ac7230489e80000612da9565b6040518363ffffffff1660e01b8152600401611b6b929190612dc0565b6020604051808303816000875af1158015611b8a573d6000803e3d6000fd5b505050506040513d601f19601f82011682018060405250810190611bae9190612dd9565b50611c4b565b600a54600b546001600160a01b039182169163a9059cbb9116611bd78f85612df6565b611be990678ac7230489e80000612da9565b6040518363ffffffff1660e01b8152600401611c06929190612dc0565b6020604051808303816000875af1158015611c25573d6000803e3d6000fd5b505050506040513d601f19601f82011682018060405250810190611c499190612dd9565b505b60008a81526008602052604081206003916002918201918b90811115611c7357611c73612a53565b6002811115611c8457611c84612a53565b81526020810191909152604001600020805460ff19166001836003811115611cae57611cae612a53565b02179055505b505050505050505050505050565b6001600160a01b038216611cf457604051630b61174360e31b81526001600160a01b0383166004820152602401610511565b6001600160a01b03838116600081815260056020908152604080832094871680845294825291829020805460ff191686151590811790915591519182527f17307eab39ab6107e8899845ad3d59bd9653f200f220920489ca2b5937696c31910160405180910390a3505050565b6000611da48484604051602001611d79929190612dc0565b60408051601f198184030181529190528051602090910120600c5484906001600160a01b0316611166565b611de35760405162461bcd60e51b815260206004820152601060248201526f696e76616c69642065766964656e636560801b6044820152606401610511565b6000866002811115611df757611df7612a53565b03611f5d57600954600b546001600160a01b039182169163a9059cbb911661271086611e2d8a69010f0cf064dd59200000612da9565b611e3890605f612da9565b611e429190612da9565b611e4c9190612df6565b6040518363ffffffff1660e01b8152600401611e69929190612dc0565b6020604051808303816000875af1158015611e88573d6000803e3d6000fd5b505050506040513d601f19601f82011682018060405250810190611eac9190612dd9565b506009546001600160a01b031663a9059cbb8561271086611ed78a69010f0cf064dd59200000612da9565b611ee2906005612da9565b611eec9190612da9565b611ef69190612df6565b6040518363ffffffff1660e01b8152600401611f13929190612dc0565b6020604051808303816000875af1158015611f32573d6000803e3d6000fd5b505050506040513d601f19601f82011682018060405250810190611f569190612dd9565b506104b090505b6001866002811115611f7157611f71612a53565b036120d757600954600b546001600160a01b039182169163a9059cbb911661271086611fa78a6901b1ae4d6e2ef5000000612da9565b611fb290605f612da9565b611fbc9190612da9565b611fc69190612df6565b6040518363ffffffff1660e01b8152600401611fe3929190612dc0565b6020604051808303816000875af1158015612002573d6000803e3d6000fd5b505050506040513d601f19601f820116820180604052508101906120269190612dd9565b506009546001600160a01b031663a9059cbb85612710866120518a6901b1ae4d6e2ef5000000612da9565b61205c906005612da9565b6120669190612da9565b6120709190612df6565b6040518363ffffffff1660e01b815260040161208d929190612dc0565b6020604051808303816000875af11580156120ac573d6000803e3d6000fd5b505050506040513d601f19601f820116820180604052508101906120d09190612dd9565b506107d090505b60028660028111156120eb576120eb612a53565b0361225157600954600b546001600160a01b039182169163a9059cbb9116612710866121218a69028a857425466f800000612da9565b61212c90605f612da9565b6121369190612da9565b6121409190612df6565b6040518363ffffffff1660e01b815260040161215d929190612dc0565b6020604051808303816000875af115801561217c573d6000803e3d6000fd5b505050506040513d601f19601f820116820180604052508101906121a09190612dd9565b506009546001600160a01b031663a9059cbb85612710866121cb8a69028a857425466f800000612da9565b6121d6906005612da9565b6121e09190612da9565b6121ea9190612df6565b6040518363ffffffff1660e01b8152600401612207929190612dc0565b6020604051808303816000875af1158015612226573d6000803e3d6000fd5b505050506040513d601f19601f8201168201806040525081019061224a9190612dd9565b50610c8090505b60005b858110156123245760078054908190600061226e83612d77565b919050555061227d3382612655565b6000818152600860205260409020805489919060ff191660018360028111156122a8576122a8612a53565b02179055506000818152600860205260409081902042600382015563076a700060048201556005018490555181907f2e6d97f41fb5e22a6bdffd32e22b194939ba2aa3ef13f7cfd9d8bc1b3bdae1a4906123099033908b908b908e90612e18565b60405180910390a2508061231c81612d77565b915050612254565b50505050505050565b6001600160a01b0383163b15610faa57604051630a85bd0160e11b81526001600160a01b0384169063150b7a029061236f903390889087908790600401612e4f565b6020604051808303816000875af19250505080156123aa575060408051601f3d908101601f191682019092526123a791810190612e8c565b60015b612413573d8080156123d8576040519150601f19603f3d011682016040523d82523d6000602084013e6123dd565b606091505b50805160000361240b57604051633250574960e11b81526001600160a01b0385166004820152602401610511565b805181602001fd5b6001600160e01b03198116630a85bd0160e11b1461244f57604051633250574960e11b81526001600160a01b0385166004820152602401610511565b5050505050565b808061246a57506001600160a01b03821615155b1561252c57600061247a8461101c565b90506001600160a01b038316158015906124a65750826001600160a01b0316816001600160a01b031614155b80156124b957506124b78184610fb0565b155b156124e25760405163a9fbf51f60e01b81526001600160a01b0384166004820152602401610511565b811561252a5783856001600160a01b0316826001600160a01b03167f8c5be1e5ebec7d5bd14f71427d1e84f3dd0314c0f7b2291e5b200ac8c7c3b92560405160405180910390a45b505b5050600090815260046020526040902080546001600160a01b0319166001600160a01b0392909216919091179055565b6000828152600260205260408120546001600160a01b0390811690831615612589576125898184866126ba565b6001600160a01b038116156125c7576125a6600085600080612456565b6001600160a01b038116600090815260036020526040902080546000190190555b6001600160a01b038516156125f6576001600160a01b0385166000908152600360205260409020805460010190555b60008481526002602052604080822080546001600160a01b0319166001600160a01b0389811691821790925591518793918516917fddf252ad1be2c89b69c2b068fc378daa952ba7f163c4a11628f55a4df523b3ef91a4949350505050565b6001600160a01b03821661267f57604051633250574960e11b815260006004820152602401610511565b600061268d8383600061255c565b90506001600160a01b03811615610525576040516339e3563760e11b815260006004820152602401610511565b6126c5838383612710565b610525576001600160a01b0383166126f357604051637e27328960e01b815260048101829052602401610511565b818160405163177e802f60e01b8152600401610511929190612dc0565b60006001600160a01b0383161580159061276e5750826001600160a01b0316846001600160a01b0316148061274a575061274a8484610fb0565b8061276e57506000828152600460205260409020546001600160a01b038481169116145b949350505050565b6001600160e01b03198116811461101957600080fd5b60006020828403121561279e57600080fd5b81356127a981612776565b9392505050565b6000815180845260005b818110156127d6576020818501810151868301820152016127ba565b506000602082860101526020601f19601f83011685010191505092915050565b6020815260006127a960208301846127b0565b60006020828403121561281b57600080fd5b5035919050565b80356001600160a01b038116811461283957600080fd5b919050565b6000806040838503121561285157600080fd5b61285a83612822565b946020939093013593505050565b60008060006060848603121561287d57600080fd5b61288684612822565b925061289460208501612822565b9150604084013590509250925092565b6000602082840312156128b657600080fd5b6127a982612822565b801515811461101957600080fd5b6003811061101957600080fd5b634e487b7160e01b600052604160045260246000fd5b604051601f8201601f1916810167ffffffffffffffff81118282101715612919576129196128da565b604052919050565b600082601f83011261293257600080fd5b813567ffffffffffffffff81111561294c5761294c6128da565b61295f601f8201601f19166020016128f0565b81815284602083860101111561297457600080fd5b816020850160208301376000918101602001919091529392505050565b60008060008060008060c087890312156129aa57600080fd5b86356129b5816128bf565b95506020870135945060408701356129cc816128cd565b93506060870135600481106129e057600080fd5b92506080870135915060a087013567ffffffffffffffff811115612a0357600080fd5b612a0f89828a01612921565b9150509295509295509295565b60008060408385031215612a2f57600080fd5b612a3883612822565b91506020830135612a48816128bf565b809150509250929050565b634e487b7160e01b600052602160045260246000fd5b6003811061101957611019612a53565b60808101612a8686612a69565b9481526020810193909352604083019190915260609091015290565b600067ffffffffffffffff821115612abc57612abc6128da565b5060051b60200190565b600082601f830112612ad757600080fd5b81356020612aec612ae783612aa2565b6128f0565b82815260059290921b84018101918181019086841115612b0b57600080fd5b8286015b84811015612b265780358352918301918301612b0f565b509695505050505050565b600080600080600060a08688031215612b4957600080fd5b853567ffffffffffffffff80821115612b6157600080fd5b818801915088601f830112612b7557600080fd5b81356020612b85612ae783612aa2565b82815260059290921b8401810191818101908c841115612ba457600080fd5b948201945b83861015612bcb578535612bbc816128cd565b82529482019490820190612ba9565b99505089013592505080821115612be157600080fd5b612bed89838a01612ac6565b9550612bfb60408901612822565b9450606088013593506080880135915080821115612c1857600080fd5b50612c2588828901612921565b9150509295509295909350565b60008060008060808587031215612c4857600080fd5b612c5185612822565b9350612c5f60208601612822565b925060408501359150606085013567ffffffffffffffff811115612c8257600080fd5b612c8e87828801612921565b91505092959194509250565b60008060408385031215612cad57600080fd5b612cb683612822565b9150612cc460208401612822565b90509250929050565b600181811c90821680612ce157607f821691505b602082108103612d0157634e487b7160e01b600052602260045260246000fd5b50919050565b634e487b7160e01b600052601160045260246000fd5b818103818111156103f4576103f4612d07565b60608101612d3d85612a69565b84825260048410612d5057612d50612a53565b602082019390935260400152919050565b634e487b7160e01b600052603260045260246000fd5b600060018201612d8957612d89612d07565b5060010190565b60ff81811683821601908111156103f4576103f4612d07565b80820281158282048414176103f4576103f4612d07565b6001600160a01b03929092168252602082015260400190565b600060208284031215612deb57600080fd5b81516127a9816128bf565b600082612e1357634e487b7160e01b600052601260045260246000fd5b500490565b6001600160a01b038581168252602082018590528316604082015260808101612e4083612a69565b82606083015295945050505050565b6001600160a01b0385811682528416602082015260408101839052608060608201819052600090612e82908301846127b0565b9695505050505050565b600060208284031215612e9e57600080fd5b81516127a98161277656fea2646970667358221220225f9e5841df36af26ea034bc74c592b32851276496c7aa4a87002badf09b05b64736f6c63430008150033",
    "linkReferences": {}
  },
  "methodIdentifiers": {
    "USDT()": "c54e44eb",
    "Zeb()": "15f2e205",
    "approve(address,uint256)": "095ea7b3",
    "balanceOf(address)": "70a08231",
    "getApproved(uint256)": "081812fc",
    "isApprovedForAll(address,address)": "e985e9c5",
    "name()": "06fdde03",
    "nextTokenID()": "f101e481",
    "nodeInfo(uint256)": "b02439ae",
    "owner()": "8da5cb5b",
    "ownerOf(uint256)": "6352211e",
    "publicMint(uint8[],uint256[],address,uint256,bytes)": "b588a890",
    "receiver()": "f7260d3e",
    "renounceOwnership()": "715018a6",
    "safeTransferFrom(address,address,uint256)": "42842e0e",
    "safeTransferFrom(address,address,uint256,bytes)": "b88d4fde",
    "setApprovalForAll(address,bool)": "a22cb465",
    "signer()": "238ac933",
    "supportsInterface(bytes4)": "01ffc9a7",
    "symbol()": "95d89b41",
    "tokenURI(uint256)": "c87b56dd",
    "transferFrom(address,address,uint256)": "23b872dd",
    "transferOwnership(address)": "f2fde38b",
    "transferable()": "92ff0d31",
    "upgrade(bool,uint256,uint8,uint8,uint256,bytes)": "73046035"
  },
  "id": 35
}