{
  "abi": [
    {
      "inputs": [
        {
          "internalType": "string",
          "name": "name",
          "type": "string"
        },
        {
          "internalType": "string",
          "name": "symbol",
          "type": "string"
        },
        {
          "internalType": "address",
          "name": "_usdt",
          "type": "address"
        },
        {
          "internalType": "address",
          "name": "_zeb",
          "type": "address"
        },
        {
          "internalType": "address",
          "name": "_fund",
          "type": "address"
        },
        {
          "internalType": "address",
          "name": "_signer",
          "type": "address"
        }
      ],
      "stateMutability": "nonpayable",
      "type": "constructor"
    },
    {
      "inputs": [],
      "name": "ERC721EnumerableForbiddenBatchMint",
      "type": "error"
    },
    {
      "inputs": [
        {
          "internalType": "address",
          "name": "sender",
          "type": "address"
        },
        {
          "internalType": "uint256",
          "name": "tokenId",
          "type": "uint256"
        },
        {
          "internalType": "address",
          "name": "owner",
          "type": "address"
        }
      ],
      "name": "ERC721IncorrectOwner",
      "type": "error"
    },
    {
      "inputs": [
        {
          "internalType": "address",
          "name": "operator",
          "type": "address"
        },
        {
          "internalType": "uint256",
          "name": "tokenId",
          "type": "uint256"
        }
      ],
      "name": "ERC721InsufficientApproval",
      "type": "error"
    },
    {
      "inputs": [
        {
          "internalType": "address",
          "name": "approver",
          "type": "address"
        }
      ],
      "name": "ERC721InvalidApprover",
      "type": "error"
    },
    {
      "inputs": [
        {
          "internalType": "address",
          "name": "operator",
          "type": "address"
        }
      ],
      "name": "ERC721InvalidOperator",
      "type": "error"
    },
    {
      "inputs": [
        {
          "internalType": "address",
          "name": "owner",
          "type": "address"
        }
      ],
      "name": "ERC721InvalidOwner",
      "type": "error"
    },
    {
      "inputs": [
        {
          "internalType": "address",
          "name": "receiver",
          "type": "address"
        }
      ],
      "name": "ERC721InvalidReceiver",
      "type": "error"
    },
    {
      "inputs": [
        {
          "internalType": "address",
          "name": "sender",
          "type": "address"
        }
      ],
      "name": "ERC721InvalidSender",
      "type": "error"
    },
    {
      "inputs": [
        {
          "internalType": "uint256",
          "name": "tokenId",
          "type": "uint256"
        }
      ],
      "name": "ERC721NonexistentToken",
      "type": "error"
    },
    {
      "inputs": [
        {
          "internalType": "address",
          "name": "owner",
          "type": "address"
        },
        {
          "internalType": "uint256",
          "name": "index",
          "type": "uint256"
        }
      ],
      "name": "ERC721OutOfBoundsIndex",
      "type": "error"
    },
    {
      "inputs": [
        {
          "internalType": "address",
          "name": "owner",
          "type": "address"
        }
      ],
      "name": "OwnableInvalidOwner",
      "type": "error"
    },
    {
      "inputs": [
        {
          "internalType": "address",
          "name": "account",
          "type": "address"
        }
      ],
      "name": "OwnableUnauthorizedAccount",
      "type": "error"
    },
    {
      "anonymous": false,
      "inputs": [
        {
          "indexed": true,
          "internalType": "address",
          "name": "owner",
          "type": "address"
        },
        {
          "indexed": true,
          "internalType": "address",
          "name": "approved",
          "type": "address"
        },
        {
          "indexed": true,
          "internalType": "uint256",
          "name": "tokenId",
          "type": "uint256"
        }
      ],
      "name": "Approval",
      "type": "event"
    },
    {
      "anonymous": false,
      "inputs": [
        {
          "indexed": true,
          "internalType": "address",
          "name": "owner",
          "type": "address"
        },
        {
          "indexed": true,
          "internalType": "address",
          "name": "operator",
          "type": "address"
        },
        {
          "indexed": false,
          "internalType": "bool",
          "name": "approved",
          "type": "bool"
        }
      ],
      "name": "ApprovalForAll",
      "type": "event"
    },
    {
      "anonymous": false,
      "inputs": [
        {
          "indexed": true,
          "internalType": "address",
          "name": "previousOwner",
          "type": "address"
        },
        {
          "indexed": true,
          "internalType": "address",
          "name": "newOwner",
          "type": "address"
        }
      ],
      "name": "OwnershipTransferred",
      "type": "event"
    },
    {
      "anonymous": false,
      "inputs": [
        {
          "indexed": true,
          "internalType": "address",
          "name": "from",
          "type": "address"
        },
        {
          "indexed": true,
          "internalType": "address",
          "name": "to",
          "type": "address"
        },
        {
          "indexed": true,
          "internalType": "uint256",
          "name": "tokenId",
          "type": "uint256"
        }
      ],
      "name": "Transfer",
      "type": "event"
    },
    {
      "anonymous": false,
      "inputs": [
        {
          "indexed": true,
          "internalType": "uint256",
          "name": "tokenId",
          "type": "uint256"
        },
        {
          "indexed": false,
          "internalType": "address",
          "name": "user",
          "type": "address"
        },
        {
          "indexed": false,
          "internalType": "uint256",
          "name": "amount",
          "type": "uint256"
        },
        {
          "indexed": false,
          "internalType": "address",
          "name": "inviter",
          "type": "address"
        },
        {
          "indexed": false,
          "internalType": "enum Node.MachineType",
          "name": "_MachineType",
          "type": "uint8"
        }
      ],
      "name": "mintEvent",
      "type": "event"
    },
    {
      "anonymous": false,
      "inputs": [
        {
          "indexed": true,
          "internalType": "uint256",
          "name": "tokenId",
          "type": "uint256"
        },
        {
          "indexed": false,
          "internalType": "address",
          "name": "inviter",
          "type": "address"
        },
        {
          "indexed": false,
          "internalType": "enum Node.EquipmentType",
          "name": "equipmentType",
          "type": "uint8"
        },
        {
          "indexed": false,
          "internalType": "enum Node.EquipmentLevel",
          "name": "equipmentLevel",
          "type": "uint8"
        },
        {
          "indexed": false,
          "internalType": "uint256",
          "name": "time",
          "type": "uint256"
        }
      ],
      "name": "upgradeEvent",
      "type": "event"
    },
    {
      "inputs": [],
      "name": "USDT",
      "outputs": [
        {
          "internalType": "contract IERC20",
          "name": "",
          "type": "address"
        }
      ],
      "stateMutability": "view",
      "type": "function"
    },
    {
      "inputs": [],
      "name": "Zeb",
      "outputs": [
        {
          "internalType": "contract IERC20",
          "name": "",
          "type": "address"
        }
      ],
      "stateMutability": "view",
      "type": "function"
    },
    {
      "inputs": [
        {
          "internalType": "address",
          "name": "to",
          "type": "address"
        },
        {
          "internalType": "uint256",
          "name": "tokenId",
          "type": "uint256"
        }
      ],
      "name": "approve",
      "outputs": [],
      "stateMutability": "nonpayable",
      "type": "function"
    },
    {
      "inputs": [
        {
          "internalType": "address",
          "name": "owner",
          "type": "address"
        }
      ],
      "name": "balanceOf",
      "outputs": [
        {
          "internalType": "uint256",
          "name": "",
          "type": "uint256"
        }
      ],
      "stateMutability": "view",
      "type": "function"
    },
    {
      "inputs": [],
      "name": "fund",
      "outputs": [
        {
          "internalType": "address",
          "name": "",
          "type": "address"
        }
      ],
      "stateMutability": "view",
      "type": "function"
    },
    {
      "inputs": [
        {
          "internalType": "uint256",
          "name": "tokenId",
          "type": "uint256"
        }
      ],
      "name": "getApproved",
      "outputs": [
        {
          "internalType": "address",
          "name": "",
          "type": "address"
        }
      ],
      "stateMutability": "view",
      "type": "function"
    },
    {
      "inputs": [
        {
          "internalType": "uint256",
          "name": "tokenId",
          "type": "uint256"
        }
      ],
      "name": "getEquipmentLevel",
      "outputs": [
        {
          "internalType": "enum Node.EquipmentLevel[]",
          "name": "",
          "type": "uint8[]"
        }
      ],
      "stateMutability": "view",
      "type": "function"
    },
    {
      "inputs": [
        {
          "internalType": "address",
          "name": "owner",
          "type": "address"
        },
        {
          "internalType": "address",
          "name": "operator",
          "type": "address"
        }
      ],
      "name": "isApprovedForAll",
      "outputs": [
        {
          "internalType": "bool",
          "name": "",
          "type": "bool"
        }
      ],
      "stateMutability": "view",
      "type": "function"
    },
    {
      "inputs": [
        {
          "internalType": "bool",
          "name": "isUSDT",
          "type": "bool"
        },
        {
          "internalType": "uint256",
          "name": "tokenId",
          "type": "uint256"
        },
        {
          "internalType": "enum Node.EquipmentType[]",
          "name": "_equipmentType",
          "type": "uint8[]"
        },
        {
          "internalType": "enum Node.EquipmentLevel[]",
          "name": "_equipmentLevel",
          "type": "uint8[]"
        },
        {
          "internalType": "address",
          "name": "inviter",
          "type": "address"
        },
        {
          "internalType": "uint256",
          "name": "zebPrice",
          "type": "uint256"
        },
        {
          "internalType": "uint256",
          "name": "time",
          "type": "uint256"
        },
        {
          "internalType": "address",
          "name": "user",
          "type": "address"
        },
        {
          "internalType": "bytes",
          "name": "evidence",
          "type": "bytes"
        }
      ],
      "name": "multipleUpgrade",
      "outputs": [],
      "stateMutability": "nonpayable",
      "type": "function"
    },
    {
      "inputs": [],
      "name": "name",
      "outputs": [
        {
          "internalType": "string",
          "name": "",
          "type": "string"
        }
      ],
      "stateMutability": "view",
      "type": "function"
    },
    {
      "inputs": [],
      "name": "nextTokenID",
      "outputs": [
        {
          "internalType": "uint256",
          "name": "",
          "type": "uint256"
        }
      ],
      "stateMutability": "view",
      "type": "function"
    },
    {
      "inputs": [
        {
          "internalType": "uint256",
          "name": "",
          "type": "uint256"
        }
      ],
      "name": "nodeInfo",
      "outputs": [
        {
          "internalType": "enum Node.MachineType",
          "name": "MachineType",
          "type": "uint8"
        },
        {
          "internalType": "uint256",
          "name": "mintTime",
          "type": "uint256"
        },
        {
          "internalType": "uint256",
          "name": "unlockPeriod",
          "type": "uint256"
        },
        {
          "internalType": "uint256",
          "name": "totalToken",
          "type": "uint256"
        }
      ],
      "stateMutability": "view",
      "type": "function"
    },
    {
      "inputs": [],
      "name": "owner",
      "outputs": [
        {
          "internalType": "address",
          "name": "",
          "type": "address"
        }
      ],
      "stateMutability": "view",
      "type": "function"
    },
    {
      "inputs": [
        {
          "internalType": "uint256",
          "name": "tokenId",
          "type": "uint256"
        }
      ],
      "name": "ownerOf",
      "outputs": [
        {
          "internalType": "address",
          "name": "",
          "type": "address"
        }
      ],
      "stateMutability": "view",
      "type": "function"
    },
    {
      "inputs": [
        {
          "internalType": "enum Node.MachineType[]",
          "name": "_machineType",
          "type": "uint8[]"
        },
        {
          "internalType": "uint256[]",
          "name": "amount",
          "type": "uint256[]"
        },
        {
          "internalType": "address",
          "name": "inviter",
          "type": "address"
        },
        {
          "internalType": "uint256",
          "name": "discount",
          "type": "uint256"
        },
        {
          "internalType": "uint256",
          "name": "time",
          "type": "uint256"
        },
        {
          "internalType": "address",
          "name": "user",
          "type": "address"
        },
        {
          "internalType": "bytes",
          "name": "evidence",
          "type": "bytes"
        }
      ],
      "name": "publicMint",
      "outputs": [],
      "stateMutability": "nonpayable",
      "type": "function"
    },
    {
      "inputs": [],
      "name": "renounceOwnership",
      "outputs": [],
      "stateMutability": "nonpayable",
      "type": "function"
    },
    {
      "inputs": [
        {
          "internalType": "address",
          "name": "from",
          "type": "address"
        },
        {
          "internalType": "address",
          "name": "to",
          "type": "address"
        },
        {
          "internalType": "uint256",
          "name": "tokenId",
          "type": "uint256"
        }
      ],
      "name": "safeTransferFrom",
      "outputs": [],
      "stateMutability": "nonpayable",
      "type": "function"
    },
    {
      "inputs": [
        {
          "internalType": "address",
          "name": "from",
          "type": "address"
        },
        {
          "internalType": "address",
          "name": "to",
          "type": "address"
        },
        {
          "internalType": "uint256",
          "name": "tokenId",
          "type": "uint256"
        },
        {
          "internalType": "bytes",
          "name": "data",
          "type": "bytes"
        }
      ],
      "name": "safeTransferFrom",
      "outputs": [],
      "stateMutability": "nonpayable",
      "type": "function"
    },
    {
      "inputs": [
        {
          "internalType": "address",
          "name": "operator",
          "type": "address"
        },
        {
          "internalType": "bool",
          "name": "approved",
          "type": "bool"
        }
      ],
      "name": "setApprovalForAll",
      "outputs": [],
      "stateMutability": "nonpayable",
      "type": "function"
    },
    {
      "inputs": [],
      "name": "signer",
      "outputs": [
        {
          "internalType": "address",
          "name": "",
          "type": "address"
        }
      ],
      "stateMutability": "view",
      "type": "function"
    },
    {
      "inputs": [
        {
          "internalType": "bytes4",
          "name": "interfaceId",
          "type": "bytes4"
        }
      ],
      "name": "supportsInterface",
      "outputs": [
        {
          "internalType": "bool",
          "name": "",
          "type": "bool"
        }
      ],
      "stateMutability": "view",
      "type": "function"
    },
    {
      "inputs": [],
      "name": "symbol",
      "outputs": [
        {
          "internalType": "string",
          "name": "",
          "type": "string"
        }
      ],
      "stateMutability": "view",
      "type": "function"
    },
    {
      "inputs": [
        {
          "internalType": "uint256",
          "name": "index",
          "type": "uint256"
        }
      ],
      "name": "tokenByIndex",
      "outputs": [
        {
          "internalType": "uint256",
          "name": "",
          "type": "uint256"
        }
      ],
      "stateMutability": "view",
      "type": "function"
    },
    {
      "inputs": [
        {
          "internalType": "address",
          "name": "owner",
          "type": "address"
        },
        {
          "internalType": "uint256",
          "name": "index",
          "type": "uint256"
        }
      ],
      "name": "tokenOfOwnerByIndex",
      "outputs": [
        {
          "internalType": "uint256",
          "name": "",
          "type": "uint256"
        }
      ],
      "stateMutability": "view",
      "type": "function"
    },
    {
      "inputs": [
        {
          "internalType": "uint256",
          "name": "tokenID",
          "type": "uint256"
        }
      ],
      "name": "tokenURI",
      "outputs": [
        {
          "internalType": "string",
          "name": "",
          "type": "string"
        }
      ],
      "stateMutability": "view",
      "type": "function"
    },
    {
      "inputs": [],
      "name": "totalSupply",
      "outputs": [
        {
          "internalType": "uint256",
          "name": "",
          "type": "uint256"
        }
      ],
      "stateMutability": "view",
      "type": "function"
    },
    {
      "inputs": [
        {
          "internalType": "address",
          "name": "from",
          "type": "address"
        },
        {
          "internalType": "address",
          "name": "to",
          "type": "address"
        },
        {
          "internalType": "uint256",
          "name": "tokenId",
          "type": "uint256"
        }
      ],
      "name": "transferFrom",
      "outputs": [],
      "stateMutability": "nonpayable",
      "type": "function"
    },
    {
      "inputs": [
        {
          "internalType": "address",
          "name": "newOwner",
          "type": "address"
        }
      ],
      "name": "transferOwnership",
      "outputs": [],
      "stateMutability": "nonpayable",
      "type": "function"
    },
    {
      "inputs": [],
      "name": "transferable",
      "outputs": [
        {
          "internalType": "bool",
          "name": "",
          "type": "bool"
        }
      ],
      "stateMutability": "view",
      "type": "function"
    },
    {
      "inputs": [
        {
          "internalType": "bool",
          "name": "isUSDT",
          "type": "bool"
        },
        {
          "internalType": "uint256",
          "name": "tokenId",
          "type": "uint256"
        },
        {
          "internalType": "enum Node.EquipmentType",
          "name": "_equipmentType",
          "type": "uint8"
        },
        {
          "internalType": "enum Node.EquipmentLevel",
          "name": "_equipmentLevel",
          "type": "uint8"
        },
        {
          "internalType": "address",
          "name": "inviter",
          "type": "address"
        },
        {
          "internalType": "uint256",
          "name": "zebPrice",
          "type": "uint256"
        },
        {
          "internalType": "uint256",
          "name": "time",
          "type": "uint256"
        },
        {
          "internalType": "address",
          "name": "user",
          "type": "address"
        },
        {
          "internalType": "bytes",
          "name": "evidence",
          "type": "bytes"
        }
      ],
      "name": "upgrade",
      "outputs": [],
      "stateMutability": "nonpayable",
      "type": "function"
    }
  ],
  "bytecode": {
    "object": "0x60806040523462000401576200adf3803803806200001d8162000406565b92833981019060c081830312620004015780516001600160401b03908181116200040157836200004f9184016200042c565b602093848401519083821162000401576200006c9185016200042c565b906200007b604085016200049e565b906200008a606086016200049e565b93620000a760a06200009f608089016200049e565b97016200049e565b93825190828211620003eb576000988954926001958685811c95168015620003e0575b83861014620003cc578190601f9586811162000376575b5083908d87841160011462000312579262000306575b5050600019600383901b1c191690861b178a555b8151938411620002f25784548581811c91168015620002e7575b82821014620002d35790818486959493116200027c575b5080928411600114620002145750899262000208575b5050600019600383901b1c191690821b1790555b3315620001ef57600a549360018060a01b03809481809460018060a01b031998338a821617600a556040519a7f8be0079c531659141344cd1fd0a4f28419497f9722a3daafe3b4186f6b6457e0843393169180a31687600d541617600d551685600e541617600e551683600f541617600f551690601054161760105561a93f9081620004b48239f35b604051631e4fbdf760e01b815260048101869052602490fd5b01519050388062000152565b9190859450601f198416858c52838c20938c905b82821062000262575050841162000248575b505050811b01905562000166565b015160001960f88460031b161c191690553880806200023a565b848401518655889790950194938401939081019062000228565b9091929350858b52818b208480870160051c820192848810620002c9575b9187968992969594930160051c01915b828110620002ba5750506200013c565b8d8155879650889101620002aa565b925081926200029a565b634e487b7160e01b8b52602260045260248bfd5b90607f169062000125565b634e487b7160e01b8a52604160045260248afd5b015190503880620000f7565b9190899450601f198416838052868420935b878282106200035f575050841162000345575b505050811b018a556200010b565b015160001960f88460031b161c1916905538808062000337565b8385015186558c9790950194938401930162000324565b9091508c8052838d208680850160051c820192868610620003c2575b859493910160051c9091019089908f5b838210620003b357505050620000e1565b81558594508a91018f620003a2565b9250819262000392565b634e487b7160e01b8c52602260045260248cfd5b94607f1694620000ca565b634e487b7160e01b600052604160045260246000fd5b600080fd5b6040519190601f01601f191682016001600160401b03811183821017620003eb57604052565b919080601f84011215620004015782516001600160401b038111620003eb5760209062000462601f8201601f1916830162000406565b92818452828287010111620004015760005b8181106200048a57508260009394955001015290565b858101830151848201840152820162000474565b51906001600160a01b0382168203620004015756fe6080604052600436101561001257600080fd5b60003560e01c806301ffc9a7146101f757806306fdde03146101f2578063081812fc146101ed578063095ea7b3146101e857806315f2e205146101e357806318160ddd146101de578063238ac933146101d957806323b872dd146101d45780632aaf0779146101cf5780632f745c59146101ca5780633e605dc1146101c557806342842e0e146101c05780634f6ccce7146101bb5780636352211e146101b657806370a08231146101b1578063715018a6146101ac578063836f8c71146101a75780638da5cb5b146101a257806392ff0d311461019d57806395d89b4114610198578063a22cb46514610193578063b02439ae1461018e578063b60d428814610189578063b88d4fde14610184578063c54e44eb1461017f578063c87b56dd1461017a578063e985e9c514610175578063f101e48114610170578063f2fde38b1461016b5763fce551eb1461016657600080fd5b6111d8565b6110ec565b6110ce565b611071565b611016565b610fed565b610f9e565b610f75565b610f1b565b610e60565b610d9f565b610d79565b610d50565b610cba565b610b75565b610b4a565b610b1a565b610aaa565b610a70565b6109ef565b61088c565b6107a1565b610667565b610609565b6105eb565b6105c2565b6104c3565b610401565b6102f7565b610213565b6001600160e01b031981160361020e57565b600080fd5b3461020e57602036600319011261020e576020600435610232816101fc565b63ffffffff60e01b1663780e9d6360e01b8114908115610258575b506040519015158152f35b6380ac58cd60e01b81149150811561028a575b8115610279575b503861024d565b6301ffc9a760e01b14905038610272565b635b5e139f60e01b8114915061026b565b60005b8381106102ae5750506000910152565b818101518382015260200161029e565b906020916102d78151809281855285808601910161029b565b601f01601f1916010190565b9060206102f49281815201906102be565b90565b3461020e576000806003193601126103fe57604051908080549060019180831c928082169283156103f4575b60209283861085146103e05785885260208801949081156103bf5750600114610367575b610363876103578189038261096a565b604051918291826102e3565b0390f35b6000805294509192917f290decd9548b62a8d60345a988386fc84ba6bc95484008f6362f93160ef3e5635b8386106103ae5750505091019050610357826103633880610347565b805485870152948201948101610392565b60ff191685525050505090151560051b019050610357826103633880610347565b634e487b7160e01b82526022600452602482fd5b93607f1693610323565b80fd5b3461020e57602036600319011261020e5760043561041e816113aa565b506000526004602052602060018060a01b0360406000205416604051908152f35b600435906001600160a01b038216820361020e57565b608435906001600160a01b038216820361020e57565b60e435906001600160a01b038216820361020e57565b602435906001600160a01b038216820361020e57565b604435906001600160a01b038216820361020e57565b60a435906001600160a01b038216820361020e57565b3461020e57604036600319011261020e576104dc61043f565b602435906104e9826113aa565b331515806105af575b80610581575b61056957610567926105489181906001600160a01b0385811691167f8c5be1e5ebec7d5bd14f71427d1e84f3dd0314c0f7b2291e5b200ac8c7c3b925600080a46000526004602052604060002090565b80546001600160a01b0319166001600160a01b03909216919091179055565b005b60405163a9fbf51f60e01b8152336004820152602490fd5b506001600160a01b038116600090815260056020908152604080832033845290915290205460ff16156104f8565b506001600160a01b0381163314156104f2565b3461020e57600036600319011261020e57600e546040516001600160a01b039091168152602090f35b3461020e57600036600319011261020e576020600854604051908152f35b3461020e57600036600319011261020e576010546040516001600160a01b039091168152602090f35b606090600319011261020e576001600160a01b0390600435828116810361020e5791602435908116810361020e579060443590565b3461020e5761067536610632565b919060ff600a5460a01c16156106eb576001600160a01b0390808216156106d2576106a382918533916125fc565b921691168181036106b057005b606492604051926364283d7b60e01b8452600484015260248301526044820152fd5b604051633250574960e11b815260006004820152602490fd5b60405162461bcd60e51b81526020600482015260156024820152744e46543a206e6f74207472616e7366657261626c6560581b6044820152606490fd5b634e487b7160e01b600052602160045260246000fd5b6004111561074857565b610728565b9060048210156107485752565b6020908160408183019282815285518094520193019160005b828110610781575050505090565b90919293828082610795600194895161074d565b01950193929101610773565b3461020e57602036600319011261020e576103636004356108806108776108466002610866604051956107d387610949565b60038752606036602089013780600052600c6020528260406000200160008052602052610817610809604060002060ff90541690565b6108128961158f565b6115d5565b61085661084d6108468561083585600052600c602052604060002090565b016001600052602052604060002090565b5460ff1690565b610812896115a1565b600052600c602052604060002090565b016002600052602052604060002090565b610812836115b1565b6040519182918261075a565b3461020e57604036600319011261020e576108a561043f565b602435906108b2816112e4565b8210156108e55760018060a01b031660005260066020526040600020906000526020526020604060002054604051908152f35b60405163295f44f760e21b81526001600160a01b039190911660048201526024810191909152604490fd5b8015150361020e57565b6004359061092782610910565b565b6003111561020e57565b634e487b7160e01b600052604160045260246000fd5b6080810190811067ffffffffffffffff82111761096557604052565b610933565b90601f8019910116810190811067ffffffffffffffff82111761096557604052565b67ffffffffffffffff811161096557601f01601f191660200190565b81601f8201121561020e578035906109bf8261098c565b926109cd604051948561096a565b8284526020838301011161020e57816000926020809301838601378301015290565b3461020e5761012036600319011261020e57600435610a0d81610910565b60443590610a1a82610929565b60643590600482101561020e57610a2f610455565b92610a3861046b565b91610104359467ffffffffffffffff861161020e57610a5e6105679636906004016109a8565b9460c4359360a4359360243590612bc3565b3461020e57610a7e36610632565b60405191602083019383851067ffffffffffffffff86111761096557610567946040526000845261131d565b3461020e57602036600319011261020e57600435600854811015610afb5760209060086000527ff3f7a9fe364faab93b216da50a3214154f22a0a2b415b23a84c8169e8b636ee30154604051908152f35b6044906040519063295f44f760e21b8252600060048301526024820152fd5b3461020e57602036600319011261020e576020610b386004356113aa565b6040516001600160a01b039091168152f35b3461020e57602036600319011261020e576020610b6d610b6861043f565b6112e4565b604051908152f35b3461020e576000806003193601126103fe57610b8f6112b8565b600a80546001600160a01b0319811690915581906001600160a01b03167f8be0079c531659141344cd1fd0a4f28419497f9722a3daafe3b4186f6b6457e08280a380f35b67ffffffffffffffff81116109655760051b60200190565b9080601f8301121561020e576020908235610c0581610bd3565b93610c13604051958661096a565b818552838086019260051b82010192831161020e578301905b828210610c3a575050505090565b8380918335610c4881610929565b815201910190610c2c565b9080601f8301121561020e576020908235610c6d81610bd3565b93610c7b604051958661096a565b818552838086019260051b82010192831161020e578301905b828210610ca2575050505090565b8135600481101561020e578152908301908301610c94565b3461020e5761012036600319011261020e57610cd461091a565b67ffffffffffffffff9060443582811161020e57610cf6903690600401610beb565b9060643583811161020e57610d0f903690600401610c53565b91610d18610455565b91610d2161046b565b926101043595861161020e57610d3e6105679636906004016109a8565b9460c4359360a4359360243590612aa3565b3461020e57600036600319011261020e57600a546040516001600160a01b039091168152602090f35b3461020e57600036600319011261020e57602060ff600a5460a01c166040519015158152f35b3461020e576000806003193601126103fe576040519080600190815480831c92808216928315610e56575b60209283861085146103e05785885260208801949081156103bf5750600114610dfd57610363876103578189038261096a565b600160005294509192917fb10e2d527612073b26eecdfd717e6a320cf44b4afac2b0732d9fcbe2b7fa0cf65b838610610e455750505091019050610357826103633880610347565b805485870152948201948101610e29565b93607f1693610dca565b3461020e57604036600319011261020e57610e7961043f565b602435610e8581610910565b6001600160a01b038216918215610ef8573360009081526005602090815260408083206001600160a01b039094168352929052209015159060ff1981541660ff83161790556040519081527f17307eab39ab6107e8899845ad3d59bd9653f200f220920489ca2b5937696c3160203392a3005b604051630b61174360e31b815260048101849052602490fd5b6003111561074857565b3461020e57602036600319011261020e57600435600052600c6020526080604060002060ff81541690600381015490600560048201549101549160405193610f6281610f11565b8452602084015260408301526060820152f35b3461020e57600036600319011261020e57600f546040516001600160a01b039091168152602090f35b3461020e57608036600319011261020e57610fb761043f565b610fbf610481565b6064359167ffffffffffffffff831161020e57610fe36105679336906004016109a8565b916044359161131d565b3461020e57600036600319011261020e57600d546040516001600160a01b039091168152602090f35b3461020e5760208060031936011261020e5760408051828193825260605190818184015260005b82811061105c5750506000828201840152601f01601f19168101030190f35b6080810151868201860152859350810161103d565b3461020e57604036600319011261020e57602060ff6110c261109161043f565b611099610481565b6001600160a01b0391821660009081526005865260408082209290931681526020919091522090565b54166040519015158152f35b3461020e57600036600319011261020e576020600b54604051908152f35b3461020e57602036600319011261020e5761110561043f565b61110d6112b8565b6001600160a01b0390811690811561116157600a54826bffffffffffffffffffffffff60a01b821617600a55167f8be0079c531659141344cd1fd0a4f28419497f9722a3daafe3b4186f6b6457e0600080a3005b604051631e4fbdf760e01b815260006004820152602490fd5b9080601f8301121561020e57602090823561119481610bd3565b936111a2604051958661096a565b818552838086019260051b82010192831161020e578301905b8282106111c9575050505090565b813581529083019083016111bb565b3461020e5760e036600319011261020e5767ffffffffffffffff60043581811161020e573660238201121561020e57806004013561121581610bd3565b91611223604051938461096a565b81835260209160248385019160051b8301019136831161020e57602401905b82821061129f57858560243582811161020e5761126390369060040161117a565b9061126c610497565b916112756104ad565b9160c43594851161020e576112916105679536906004016109a8565b93608435926064359261160b565b83809183356112ad81610929565b815201910190611242565b600a546001600160a01b031633036112cc57565b60405163118cdaa760e01b8152336004820152602490fd5b6001600160a01b0316801561130457600052600360205260406000205490565b6040516322718ad960e21b815260006004820152602490fd5b9392919060ff600a5460a01c16156106eb576001600160a01b03818116156106d25761134a3384846125fc565b86821691168181036113625750506109279394611467565b6064925083604051926364283d7b60e01b8452600484015260248301526044820152fd5b61139a906000526004602052604060002090565b80546001600160a01b0319169055565b6000818152600260205260409020546001600160a01b03169081156113cd575090565b60249060405190637e27328960e01b82526004820152fd5b9081602091031261020e57516102f4816101fc565b6001600160a01b0391821681529116602082015260408101919091526080606082018190526102f4929101906102be565b6040513d6000823e3d90fd5b3d15611462573d906114488261098c565b91611456604051938461096a565b82523d6000602084013e565b606090565b91929092833b611478575b50505050565b61149d916020916040519384928392630a85bd0160e11b9788855233600486016113fa565b038160006001600160a01b0388165af160009181611531575b506114f557826114c4611437565b80519190826114ee57604051633250574960e11b81526001600160a01b0383166004820152602490fd5b9050602001fd5b6001600160e01b0319160361150e575038808080611472565b604051633250574960e11b81526001600160a01b03919091166004820152602490fd5b61155391925060203d811161155a575b61154b818361096a565b8101906113e5565b90386114b6565b503d611541565b634e487b7160e01b600052603260045260246000fd5b9061158181610f11565b600052602052604060002090565b80511561159c5760200190565b611561565b80516001101561159c5760400190565b80516002101561159c5760600190565b805182101561159c5760209160051b010190565b60048210156107485752565b634e487b7160e01b600052601160045260246000fd5b60001981146116065760010190565b6115e1565b9594959390919360005b8151811015611bda578761162982846115c1565b5161163381610f11565b61163d83876115c1565b516116514261164b88611be4565b11611bf3565b61166c6116676116636108468d611c32565b1590565b611c58565b6116806001600160a01b0384163314611c94565b604080516001600160a01b03808c1660208084019182528385018d9052606084018b9052919096166080830152919460009492916116f4916116ef918f91906116d68160a081015b03601f19810183528261096a565b5190206010549091906001600160a01b03165b9161a86e565b611ccf565b61170d6117008d611c32565b805460ff19166001179055565b61171682610f11565b898215611ac0575b5061172882610f11565b600182146119a6575b61173a82610f11565b60028214611836575b5060005b82811061176157505050505061175c906115f7565b611615565b611831908b7f2e6d97f41fb5e22a6bdffd32e22b194939ba2aa3ef13f7cfd9d8bc1b3bdae1a484600b549261179d611798856115f7565b600b55565b6117a784336124d0565b6117c4826117bf86600052600c602052604060002090565b612484565b4260036117db86600052600c602052604060002090565b015561180060046117f686600052600c602052604060002090565b0163076a70009055565b88600561181786600052600c602052604060002090565b01556118298a519283928a338561249c565b0390a26115f7565b611747565b600d80549294509091611859906001600160a01b03165b6001600160a01b031690565b600f546001600160a01b031661188a6118828d61187d61187889611d6e565b611d28565b611d88565b612710900490565b87516323b872dd60e01b808252336004808401919091526001600160a01b039490941660248301526044820192909252909390928590849060649082906000905af19182156119845760008f938f936118fc61184d611882928b9961190e95611989575b50546001600160a01b031690565b9461187d6119098c611d6e565b611d3e565b8a51968752339287019283526001600160a01b039094166020830152604082019390935284928391829060600103925af1801561198457611956575b5050610c809138611743565b8161197592903d1061197d575b61196d818361096a565b81019061246f565b50388061194a565b503d611963565b61142b565b61199f908b3d8d1161197d5761196d818361096a565b50386118ee565b600d8054919450906119c0906001600160a01b031661184d565b600f546001600160a01b03166119df6118828d61187d61187889611d54565b87516323b872dd60e01b808252336004808401919091526001600160a01b039490941660248301526044820192909252909390928790849060649082906000905af19182156119845760008f938f93611a5061184d611882928d99611a5d956119895750546001600160a01b031690565b9461187d6119098c611d54565b8a51968752339287019283526001600160a01b039094166020830152604082019390935284928391829060600103925af1801561198457611aa3575b506107d092611731565b611ab990843d861161197d5761196d818361096a565b5038611a99565b600d805492959192611ada906001600160a01b031661184d565b600f54611afb90611882906001600160a01b03169561187d6118788a611d0e565b88516323b872dd60e01b808252336004808401919091526001600160a01b0397909716602483015260448201929092529094909188908390606490829088905af1938415611984578f938f93611b6961184d611b7693611882938e9a6119895750546001600160a01b031690565b9461187d6119098c611d0e565b8a51968752339287019283526001600160a01b039094166020830152604082019390935284928391829060600103925af1801561198457611bbd575b506104b0928961171e565b611bd390843d861161197d5761196d818361096a565b5038611bb2565b5050505050505050565b9061012c820180921161160657565b15611bfa57565b60405162461bcd60e51b815260206004820152601060248201526f195d9a59195b98d948195e1c1a5c995960821b6044820152606490fd5b6020611c4b91816040519382858094519384920161029b565b8101601181520301902090565b15611c5f57565b60405162461bcd60e51b815260206004820152600d60248201526c195d9a59195b98d9481d5cd959609a1b6044820152606490fd5b15611c9b57565b60405162461bcd60e51b815260206004820152600c60248201526b34b73b30b634b2103ab9b2b960a11b6044820152606490fd5b15611cd657565b60405162461bcd60e51b815260206004820152601060248201526f696e76616c69642065766964656e636560801b6044820152606490fd5b9069010f0cf064dd59200000918083029283040361160657565b90605f820291808304605f149015171561160657565b9060058202918083046005149015171561160657565b906901b1ae4d6e2ef5000000918083029283040361160657565b9069028a857425466f800000918083029283040361160657565b8181029291811591840414171561160657565b8015611dac576507040e3ad4000490565b634e487b7160e01b600052601260045260246000fd5b8015611dac57645e877c5c000490565b8015611dac5765095b7a6345000490565b8015611dac57647e13ea47000490565b8015611dac57650b3b755cec000490565b8015611dac5764975704e4000490565b8015611dac576502cedd573b000490565b8015611dac576425d5c139000490565b8015611dac5765050df4d037000490565b8015611dac5764441a5bcd000490565b8015611dac5765023f1778fc000490565b8015611dac57641e449a94000490565b8015611dac5765043530e399000490565b8015611dac576438b1bb23000490565b8015611dac5765059dbaae76000490565b8015611dac57644bab8272000490565b8015611dac576506bd466af4000490565b8015611dac57645acdcfbc000490565b8015611dac576501af519abd000490565b8015611dac576416b373ef000490565b8015611dac576503085fb021000490565b8015611dac576428dc9d7b000490565b8015611dac576501590e1564000490565b8015611dac57641229298c000490565b8015611dac576501e8d3f3a3000490565b8015611dac576419ba5031000490565b8015611dac5765028c820459000490565b8015611dac57642257af63000490565b8015611dac5765030f026b9e000490565b8015611dac5764293605aa000490565b8015611dac5764c2a57ba8000490565b8015611dac57640a3e9ab8000490565b8015611dac5765015d7a9262000490565b8015611dac57641264c456000490565b8015611dac57649ad516ba000490565b8015611dac57640826299e000490565b8015611dac5765033d758c09000490565b8015611dac57642ba7def3000490565b8015611dac57650451f2100c000490565b8015611dac57643a352944000490565b8015611dac5765052f2279a8000490565b8015611dac576445d964b8000490565b8015611dac5765014bc89e6a000490565b8015611dac57641176592e000490565b8015611dac5765025535e9f2000490565b8015611dac57641f6ea086000490565b8015611dac576501096d4b88000490565b8015611dac57640df84758000490565b8015611dac576501f1aced9f000490565b8015611dac57641a3185c5000490565b8015611dac57650297913cd4000490565b8015611dac576422ecb25c000490565b8015611dac5765031c47e298000490565b8015611dac576429e8d608000490565b8015611dac5764c711f8a6000490565b8015611dac57640a7a3582000490565b8015611dac57650166538c5e000490565b8015611dac576412dbf9ea000490565b8015611dac57649f4193b8000490565b8015611dac57640861c468000490565b8015611dac5764e19ce69a000490565b8015611dac57640bdfd63e000490565b8015611dac5765012cd13378000490565b8015611dac57640fd51da8000490565b8015611dac5765016889cadd000490565b8015611dac576412f9c74f000490565b8015611dac57645879c3d8000490565b8015611dac576404a817c8000490565b8015611dac576446c7cfe0000490565b8015611dac576403b9aca0000490565b8015611dac5764fc27d48e000490565b8015611dac57640d4576fa000490565b8015611dac57650150351b68000490565b8015611dac576411b1f3f8000490565b8015611dac57650194c6acc9000490565b8015611dac5764154dd333000490565b8015611dac57646388fc53000490565b8015611dac5764053d1ac1000490565b8015611dac5764b329c62f000490565b8015611dac5764096dfcf5000490565b8015611dac57644fa0c9dc000490565b8015611dac57640430e234000490565b8015611dac5764966899bc000490565b8015611dac576407ea8ed4000490565b8015611dac5764c9483725000490565b8015611dac57640a9802e7000490565b8015611dac5764f34eda92000490565b8015611dac57640cce4166000490565b8015611dac57643bb89765000490565b8015611dac57640324a9a7000490565b8015611dac57646c61f64f000490565b8015611dac576405b45055000490565b8015611dac576430a95eea000490565b8015611dac5764028fa6ae000490565b8015611dac576444919161000490565b8015611dac5764039bdf3b000490565b8015611dac57645ab00257000490565b8015611dac576404c5e52d000490565b8015611dac57646e9834ce000490565b8015611dac576405d21dba000490565b8015611dac57641a8aedf4000490565b8015611dac57640165a0bc000490565b8015611dac57642e73206b000490565b8015611dac57640271d949000490565b8015611dac5764161e70f6000490565b8015611dac5764012a05f2000490565b9081602091031261020e57516102f481610910565b9061248e81610f11565b60ff80198354169116179055565b6001600160a01b03918216815260208101929092529091166040820152608081019291906060906124cc83610f11565b0152565b6001600160a01b039181831680156106d2576000828152600260205260409020546001600160a01b0316938416801594851595866125ce575b6001600160a01b03861660009081526003602052604090206001815401905561254086610548876000526002602052604060002090565b8484847fddf252ad1be2c89b69c2b068fc378daa952ba7f163c4a11628f55a4df523b3ef600080a4156125ae5750612577836128cb565b0361259e575b505061258557565b6040516339e3563760e11b815260006004820152602490fd5b6125a791612884565b388061257d565b838383036125be575b5050612577565b6125c791612928565b38836125b7565b6125d785611386565b6001600160a01b03821660009081526003602052604090208054600019019055612509565b6000828152600260205260409020549091906001600160a01b0316926001600160a01b039082828216612720575b505080841680159182156126f2575b84169182159081156126ce575b61265e86610548876000526002602052604060002090565b8484847fddf252ad1be2c89b69c2b068fc378daa952ba7f163c4a11628f55a4df523b3ef600080a4156126b857612694846128cb565b156126a55750506102f491506129c5565b036126af57505090565b6102f491612884565b818314612694576126c98487612928565b612694565b6001600160a01b038616600090815260036020526040902060018154019055612646565b6126fb84611386565b6001600160a01b03861660009081526003602052604090208054600019019055612639565b61272a9186612731565b388261262a565b6001600160a01b0390828216801515908161279c575b50156127535750505050565b1661277157604051637e27328960e01b815260048101839052602490fd5b60405163177e802f60e01b81526001600160a01b039190911660048201526024810191909152604490fd5b828416808214925082156127d4575b5081156127ba575b5038612747565b9050846000526004602052826040600020541614386127b3565b909150600052600560205260ff6128018560406000209060018060a01b0316600052602052604060002090565b541690386127ab565b6301da9bff1981019190821161160657565b630163f4ff1981019190821161160657565b62ed4dff1981019190821161160657565b63013c67ff1981019190821161160657565b629e33ff1981019190821161160657565b6276a6ff1981019190821161160657565b624f19ff1981019190821161160657565b9061288e826112e4565b600019810192908311611606576001600160a01b031660009081526006602090815260408083208584528252808320849055928252600790522055565b600854816000526009602052806040600020556801000000000000000081101561096557600181018060085581101561159c5760086000527ff3f7a9fe364faab93b216da50a3214154f22a0a2b415b23a84c8169e8b636ee30155565b90612932826112e4565b60009282845260209060078252846129636040958683205486810361297f575b506000526007602052604060002090565b556001600160a01b031684526006815282842091845252812055565b6001600160a01b03851680855260068088528986208987528852898620549186528752888520828652875288852081905560009081526007602052604090205538612952565b600880546000199283820182811161160657600092828452600960205280604085205492101561159c578484527ff3f7a9fe364faab93b216da50a3214154f22a0a2b415b23a84c8169e8b636ee292838201549183101561159c578492612a61612a729388865280837ff3f7a9fe364faab93b216da50a3214154f22a0a2b415b23a84c8169e8b636ee301556000526009602052604060002090565b556000526009602052604060002090565b558254938415612a8f578401938085101561159c57838352015555565b634e487b7160e01b83526031600452602483fd5b96949290989795939160005b8151811015612b0257612ac281836115c1565b5190612acd82610f11565b612ad781856115c1565b51916004831015610748578989898f898f97612af8968d93612afd9a612bc3565b6115f7565b612aaf565b5050505050505050509050565b15612b1657565b60405162461bcd60e51b815260206004820152600e60248201526d27232a1d103737ba1037bbb732b960911b6044820152606490fd5b15612b5357565b60405162461bcd60e51b81526020600482015260146024820152734e46543a206e6f74207570677261646561626c6560601b6044820152606490fd5b6001600160a01b039091168152608081019493926060926124cc9190612bb481610f11565b6020840152604083019061074d565b9097928261084693968a8796612c876116ef612d889a7f45d556c1b08304cc1ae1a44d5caa6e8dc835b9f6134ff8bed268dfd5cc71bda69e612c71899f612c13612c0c82611be4565b4210611bf3565b612c256116676116636108468a611c32565b612c396001600160a01b0384163314611c94565b60408051602081018b81526001600160a01b039687169282019290925260608101929092529390921660808301528160a081016116c8565b51902060105484906001600160a01b03166116e9565b612c9d33612c9761184d856113aa565b14612b0f565b612cf0611700612cea600299856108568a612cd26108468f9a8b612ccc8f92600052600c602052604060002090565b01611577565b612cdb8261073e565b612ce48161073e565b10612b4c565b92611c32565b612cf981610f11565b80612fdb575050612d0982610f11565b8a82612f4e57612d3694612d2f6108468589612ccc86600052600c602052604060002090565b9288619b51565b612d3f84610f11565b83612df757612d4d8561073e565b60018503612d8d57506004612d6c87600052600c602052604060002090565b01612d778154612873565b90555b604051938493429285612b8f565b0390a2565b612d968561073e565b8403612dc5576004612db287600052600c602052604060002090565b01612dbd8154612862565b90555b612d7a565b612dce8461073e565b60038403612d7a576004612dec87600052600c602052604060002090565b01612dbd8154612851565b612e0084610f11565b60018403612e9257612e118561073e565b60018503612e3057506004612dec87600052600c602052604060002090565b612e398561073e565b8403612e60576004612e5587600052600c602052604060002090565b01612dbd815461282e565b612e698461073e565b60038403612dc0576004612e8787600052600c602052604060002090565b01612dbd815461283f565b612e9b84610f11565b808414612ea9575b50612d7a565b612eb28561073e565b60018503612ee557506004612ed187600052600c602052604060002090565b01612edc815461282e565b90555b38612ea3565b612eee8561073e565b8403612f1c576004612f0a87600052600c602052604060002090565b01612f15815461281c565b9055612edf565b612f258461073e565b60038403612edf576004612f4387600052600c602052604060002090565b01612f15815461280a565b50612f5882610f11565b8a60018303612f8d57612f8894612f816108468589612ccc86600052600c602052604060002090565b9288618e44565b612d36565b50612f9782610f11565b8a858314612faa575b5050505050612d36565b612fd194612fca6108468589612ccc86600052600c602052604060002090565b9288618136565b388585828a612fa0565b612fe481610f11565b600181036130a1575050612ff782610f11565b8a8261302457612f889461301d6108468589612ccc86600052600c602052604060002090565b9288617428565b5061302e82610f11565b8a6001830361305e57612f88946130576108468589612ccc86600052600c602052604060002090565b9288616719565b5061306882610f11565b8a85831461307a575050505050612d36565b612fd19461309a6108468589612ccc86600052600c602052604060002090565b9288615a08565b6130aa81610f11565b146130b9575b50505050612d36565b6130c282610f11565b8a826130f8576130ef946130e86108468589612ccc86600052600c602052604060002090565b9288614cf9565b388585826130b0565b5061310282610f11565b8a60018303613137576131329461312b6108468589612ccc86600052600c602052604060002090565b9288613fe8565b6130ef565b5061314182610f11565b8a858314613154575b50505050506130ef565b61317b946131746108468589612ccc86600052600c602052604060002090565b9288613185565b388585828a61314a565b92959094936131938161073e565b8015613947575b6131a38161073e565b6001811461346d575b806131b860029261073e565b146131c6575b505050505050565b806131d260039261073e565b146131de575b806131be565b1561333857600d5461324d93506131fd906001600160a01b031661184d565b600f546040516323b872dd60e01b8082523360048301526001600160a01b0390921660248201526885e622c9610ed800006044820152602095909391928691859190829060009082906064820190565b03925af1918215611984576132b693869361331b575b50600d54613279906001600160a01b031661184d565b6040519182523360048301526001600160a01b03909216602482015268070c1cc73b00c80000604482015292839190829060009082906064820190565b03925af18015611984576132f3946132e694600293612ccc936132fd575b5050600052600c602052604060002090565b805460ff19166003179055565b38808080806131d8565b8161331392903d1061197d5761196d818361096a565b5038806132d4565b61333190843d861161197d5761196d818361096a565b5038613263565b600e5461334d906001600160a01b031661184d565b600f546001600160a01b0316919061336485611e56565b6040516323b872dd60e01b8082523360048301526001600160a01b0395909516602482015260448101919091526020959093918690859060649082906000905af19283156119845761340d948794613450575b50600e546000906133da906133d4906001600160a01b031661184d565b93611e67565b6040519485523360048601526001600160a01b039092166024850152604484019190915291938492839182906064820190565b03925af18015611984576132f3946132e694600293612ccc93613432575b5050610856565b8161344892903d1061197d5761196d818361096a565b50388061342b565b61346690853d871161197d5761196d818361096a565b50386133b7565b6134768261073e565b600282146136e4575b6134888261073e565b600382036131ac5782156135c057600d546134ab906001600160a01b031661184d565b600f546040516323b872dd60e01b8082523360048301526001600160a01b03909216602482015269012d45ce451a616600006044820152909291602091908290829060649082906000905af18015611984576135a3575b50600d54819061351a906001600160a01b031661184d565b6040519485523360048601526001600160a01b0388166024860152680fdb40c044c1c200006044860152849060649082906000905af192831561198457600293613585575b50505b61357e6132e68784612ccc8c600052600c602052604060002090565b90506131ac565b8161359b92903d1061197d5761196d818361096a565b50388061355f565b6135b990823d841161197d5761196d818361096a565b5038613502565b600e546135d5906001600160a01b031661184d565b600f546001600160a01b031691906135ec88611e35565b6040516323b872dd60e01b8082523360048301526001600160a01b039590951660248201526044810191909152926020918290859060649082906000905af19081156119845761368f9483926136c7575b50600e54613653906001600160a01b031661184d565b61365c8b611e46565b6040519283523360048401526001600160a01b038a16602484015260448301529094859190829060009082906064820190565b03925af1928315611984576002936136a9575b5050613562565b816136bf92903d1061197d5761196d818361096a565b5038806136a2565b6136dd90833d851161197d5761196d818361096a565b503861363d565b821561382757600d5461375290613703906001600160a01b031661184d565b600f546040516323b872dd60e01b8082523360048301526001600160a01b03909216602482015268a75fab7bb9528e000060448201526020939192909184918391829060009082906064820190565b03925af180156119845761380a575b50600d548290613779906001600160a01b031661184d565b6040519283523360048401526001600160a01b03881660248401526808cf23f909c0fa00006044840152829060649082906000905af18015611984576137ec575b50505b6137e76137da866002612ccc8b600052600c602052604060002090565b805460ff19166002179055565b61347f565b8161380292903d1061197d5761196d818361096a565b5038806137ba565b61382090833d851161197d5761196d818361096a565b5038613761565b600e5461383c906001600160a01b031661184d565b600f546001600160a01b031661385188611e14565b6040516323b872dd60e01b8082523360048301526001600160a01b0393909316602482015260448101919091526020929091908390839060649082906000905af1908115611984576138f692849261392a575b50600e546138ba906001600160a01b031661184d565b6138c38b611e25565b6040519283523360048401526001600160a01b038a16602484015260448301529092839190829060009082906064820190565b03925af180156119845761390c575b50506137bd565b8161392292903d1061197d5761196d818361096a565b503880613905565b61394090833d851161197d5761196d818361096a565b50386138a4565b6139508261073e565b60018214613dc4575b6139628261073e565b60028214613ba0575b6139748261073e565b6003820361319a578215613ab357600d546139eb9061399b906001600160a01b031661184d565b600f546040516323b872dd60e01b8082523360048301526001600160a01b03909216602482015269029d7eadeee54a38000060448201526020939192909184918391829060009082906064820190565b03925af1801561198457613a96575b50600d548290613a12906001600160a01b031661184d565b6040519283523360048401526001600160a01b038816602484015268233c8fe42703e800006044840152829060649082906000905af1801561198457613a78575b50505b613a736132e6866002612ccc8b600052600c602052604060002090565b61319a565b81613a8e92903d1061197d5761196d818361096a565b503880613a53565b613aac90833d851161197d5761196d818361096a565b50386139fa565b600e54613ac8906001600160a01b031661184d565b600f546001600160a01b0316613add88611df3565b6040516323b872dd60e01b8082523360048301526001600160a01b0393909316602482015260448101919091526020929091908390839060649082906000905af190811561198457613b4f928492613b83575b50600e54613b46906001600160a01b031661184d565b6138c38b611e04565b03925af1801561198457613b65575b5050613a56565b81613b7b92903d1061197d5761196d818361096a565b503880613b5e565b613b9990833d851161197d5761196d818361096a565b5038613b30565b8215613cd757600d54613c0f90613bbf906001600160a01b031661184d565b600f546040516323b872dd60e01b8082523360048301526001600160a01b03909216602482015269022dbd9eaf30d672000060448201526020939192909184918391829060009082906064820190565b03925af1801561198457613cba575b50600d548290613c36906001600160a01b031661184d565b6040519283523360048401526001600160a01b0388166024840152681d5ad27502920600006044840152829060649082906000905af1801561198457613c9c575b50505b613c976137da866002612ccc8b600052600c602052604060002090565b61396b565b81613cb292903d1061197d5761196d818361096a565b503880613c77565b613cd090833d851161197d5761196d818361096a565b5038613c1e565b600e54613cec906001600160a01b031661184d565b600f546001600160a01b0316613d0188611dd2565b6040516323b872dd60e01b8082523360048301526001600160a01b0393909316602482015260448101919091526020929091908390839060649082906000905af190811561198457613d73928492613da7575b50600e54613d6a906001600160a01b031661184d565b6138c38b611de3565b03925af1801561198457613d89575b5050613c7a565b81613d9f92903d1061197d5761196d818361096a565b503880613d82565b613dbd90833d851161197d5761196d818361096a565b5038613d54565b8215613efb57600d54613e3390613de3906001600160a01b031661184d565b600f546040516323b872dd60e01b8082523360048301526001600160a01b0390921660248201526901a22d415179f348000060448201526020939192909184918391829060009082906064820190565b03925af1801561198457613ede575b50600d548290613e5a906001600160a01b031661184d565b6040519283523360048401526001600160a01b038816602484015268160261c0eb789800006044840152829060649082906000905af1801561198457613ec0575b50505b613ebb611700866002612ccc8b600052600c602052604060002090565b613959565b81613ed692903d1061197d5761196d818361096a565b503880613e9b565b613ef490833d851161197d5761196d818361096a565b5038613e42565b600e54613f10906001600160a01b031661184d565b600f546001600160a01b0316613f2588611d9b565b6040516323b872dd60e01b8082523360048301526001600160a01b0393909316602482015260448101919091526020929091908390839060649082906000905af190811561198457613f97928492613fcb575b50600e54613f8e906001600160a01b031661184d565b6138c38b611dc2565b03925af1801561198457613fad575b5050613e9e565b81613fc392903d1061197d5761196d818361096a565b503880613fa6565b613fe190833d851161197d5761196d818361096a565b5038613f78565b9295909493613ff68161073e565b8015614659575b6140068161073e565b600181146141f3575b8061401b60029261073e565b1461402857505050505050565b8061403460039261073e565b1461403f57806131be565b1561413457600d546140ae935061405e906001600160a01b031661184d565b600f546040516323b872dd60e01b8082523360048301526001600160a01b039092166024820152685056e1ac0708e800006044820152602095909391928691859190829060009082906064820190565b03925af1918215611984576132b6938693614117575b50600d546140da906001600160a01b031661184d565b6040519182523360048301526001600160a01b03909216602482015268043a77aabd00780000604482015292839190829060009082906064820190565b61412d90843d861161197d5761196d818361096a565b50386140c4565b600e54614149906001600160a01b031661184d565b600f546001600160a01b0316919061416085611f1c565b6040516323b872dd60e01b8082523360048301526001600160a01b0395909516602482015260448101919091526020959093918690859060649082906000905af19283156119845761340d9487946141d6575b50600e546000906133da906141d0906001600160a01b031661184d565b93611f2d565b6141ec90853d871161197d5761196d818361096a565b50386141b3565b6141fc8261073e565b60028214614436575b61420e8261073e565b6003820361400f57821561434557600d54614231906001600160a01b031661184d565b600f546040516323b872dd60e01b8082523360048301526001600160a01b03909216602482015268b4c37bc30fd40a00006044820152909291602091908290829060649082906000905af1801561198457614328575b50600d54819061429f906001600160a01b031661184d565b6040519485523360048601526001600160a01b03881660248601526809838d4029410e00006044860152849060649082906000905af19283156119845760029361430a575b50505b6143036132e68784612ccc8c600052600c602052604060002090565b905061400f565b8161432092903d1061197d5761196d818361096a565b5038806142e4565b61433e90823d841161197d5761196d818361096a565b5038614287565b600e5461435a906001600160a01b031661184d565b600f546001600160a01b0316919061437188611efb565b6040516323b872dd60e01b8082523360048301526001600160a01b039590951660248201526044810191909152926020918290859060649082906000905af1908115611984576143e1948392614419575b50600e546143d8906001600160a01b031661184d565b61365c8b611f0c565b03925af1928315611984576002936143fb575b50506142e7565b8161441192903d1061197d5761196d818361096a565b5038806143f4565b61442f90833d851161197d5761196d818361096a565b50386143c2565b821561456c57600d546144a490614455906001600160a01b031661184d565b600f546040516323b872dd60e01b8082523360048301526001600160a01b03909216602482015268646c9a1708cb22000060448201526020939192909184918391829060009082906064820190565b03925af180156119845761454f575b50600d5482906144cb906001600160a01b031661184d565b6040519283523360048401526001600160a01b038816602484015268054915956c409600006044840152829060649082906000905af1801561198457614531575b50505b61452c6137da866002612ccc8b600052600c602052604060002090565b614205565b8161454792903d1061197d5761196d818361096a565b50388061450c565b61456590833d851161197d5761196d818361096a565b50386144b3565b600e54614581906001600160a01b031661184d565b600f546001600160a01b031661459688611eda565b6040516323b872dd60e01b8082523360048301526001600160a01b0393909316602482015260448101919091526020929091908390839060649082906000905af19081156119845761460892849261463c575b50600e546145ff906001600160a01b031661184d565b6138c38b611eeb565b03925af180156119845761461e575b505061450f565b8161463492903d1061197d5761196d818361096a565b503880614617565b61465290833d851161197d5761196d818361096a565b50386145e9565b6146628261073e565b60018214614ad6575b6146748261073e565b600282146148b2575b6146868261073e565b60038203613ffd5782156147c557600d546146fd906146ad906001600160a01b031661184d565b600f546040516323b872dd60e01b8082523360048301526001600160a01b039092166024820152690191b2685c232c88000060448201526020939192909184918391829060009082906064820190565b03925af18015611984576147a8575b50600d548290614724906001600160a01b031661184d565b6040519283523360048401526001600160a01b03881660248401526815245655b1025800006044840152829060649082906000905af180156119845761478a575b50505b6147856132e6866002612ccc8b600052600c602052604060002090565b613ffd565b816147a092903d1061197d5761196d818361096a565b503880614765565b6147be90833d851161197d5761196d818361096a565b503861470c565b600e546147da906001600160a01b031661184d565b600f546001600160a01b03166147ef88611eb9565b6040516323b872dd60e01b8082523360048301526001600160a01b0393909316602482015260448101919091526020929091908390839060649082906000905af190811561198457614861928492614895575b50600e54614858906001600160a01b031661184d565b6138c38b611eca565b03925af1801561198457614877575b5050614768565b8161488d92903d1061197d5761196d818361096a565b503880614870565b6148ab90833d851161197d5761196d818361096a565b5038614842565b82156149e957600d54614921906148d1906001600160a01b031661184d565b600f546040516323b872dd60e01b8082523360048301526001600160a01b03909216602482015269014ebf56f772a51c000060448201526020939192909184918391829060009082906064820190565b03925af18015611984576149cc575b50600d548290614948906001600160a01b031661184d565b6040519283523360048401526001600160a01b038816602484015268119e47f21381f400006044840152829060649082906000905af18015611984576149ae575b50505b6149a96137da866002612ccc8b600052600c602052604060002090565b61467d565b816149c492903d1061197d5761196d818361096a565b503880614989565b6149e290833d851161197d5761196d818361096a565b5038614930565b600e546149fe906001600160a01b031661184d565b600f546001600160a01b0316614a1388611e98565b6040516323b872dd60e01b8082523360048301526001600160a01b0393909316602482015260448101919091526020929091908390839060649082906000905af190811561198457614a85928492614ab9575b50600e54614a7c906001600160a01b031661184d565b6138c38b611ea9565b03925af1801561198457614a9b575b505061498c565b81614ab192903d1061197d5761196d818361096a565b503880614a94565b614acf90833d851161197d5761196d818361096a565b5038614a66565b8215614c0c57600d54614b4490614af5906001600160a01b031661184d565b600f546040516323b872dd60e01b8082523360048301526001600160a01b03909216602482015268facd95d5c0a0ba000060448201526020939192909184918391829060009082906064820190565b03925af1801561198457614bef575b50600d548290614b6b906001600160a01b031661184d565b6040519283523360048401526001600160a01b0388166024840152680d333dc7e1b79e00006044840152829060649082906000905af1801561198457614bd1575b50505b614bcc611700866002612ccc8b600052600c602052604060002090565b61466b565b81614be792903d1061197d5761196d818361096a565b503880614bac565b614c0590833d851161197d5761196d818361096a565b5038614b53565b600e54614c21906001600160a01b031661184d565b600f546001600160a01b0316614c3688611e77565b6040516323b872dd60e01b8082523360048301526001600160a01b0393909316602482015260448101919091526020929091908390839060649082906000905af190811561198457614ca8928492614cdc575b50600e54614c9f906001600160a01b031661184d565b6138c38b611e88565b03925af1801561198457614cbe575b5050614baf565b81614cd492903d1061197d5761196d818361096a565b503880614cb7565b614cf290833d851161197d5761196d818361096a565b5038614c89565b9295909493614d078161073e565b801561536a575b614d178161073e565b60018114614f04575b80614d2c60029261073e565b14614d3957505050505050565b80614d4560039261073e565b14614d5057806131be565b15614e4557600d54614dbf9350614d6f906001600160a01b031661184d565b600f546040516323b872dd60e01b8082523360048301526001600160a01b03909216602482015268240cba98add2c400006044820152602095909391928691859190829060009082906064820190565b03925af1918215611984576132b6938693614e28575b50600d54614deb906001600160a01b031661184d565b6040519182523360048301526001600160a01b0390921660248201526801e5b8fa8fe2ac0000604482015292839190829060009082906064820190565b614e3e90843d861161197d5761196d818361096a565b5038614dd5565b600e54614e5a906001600160a01b031661184d565b600f546001600160a01b03169190614e7185611fe1565b6040516323b872dd60e01b8082523360048301526001600160a01b0395909516602482015260448101919091526020959093918690859060649082906000905af19283156119845761340d948794614ee7575b50600e546000906133da90614ee1906001600160a01b031661184d565b93611ff1565b614efd90853d871161197d5761196d818361096a565b5038614ec4565b614f0d8261073e565b60028214615147575b614f1f8261073e565b60038203614d2057821561505657600d54614f42906001600160a01b031661184d565b600f546040516323b872dd60e01b8082523360048301526001600160a01b03909216602482015268515e8f3b5c755400006044820152909291602091908290829060649082906000905af1801561198457615039575b50600d548190614fb0906001600160a01b031661184d565b6040519485523360048601526001600160a01b0388166024860152680448586170a7dc00006044860152849060649082906000905af19283156119845760029361501b575b50505b6150146132e68784612ccc8c600052600c602052604060002090565b9050614d20565b8161503192903d1061197d5761196d818361096a565b503880614ff5565b61504f90823d841161197d5761196d818361096a565b5038614f98565b600e5461506b906001600160a01b031661184d565b600f546001600160a01b0316919061508288611fc0565b6040516323b872dd60e01b8082523360048301526001600160a01b039590951660248201526044810191909152926020918290859060649082906000905af1908115611984576150f294839261512a575b50600e546150e9906001600160a01b031661184d565b61365c8b611fd1565b03925af19283156119845760029361510c575b5050614ff8565b8161512292903d1061197d5761196d818361096a565b503880615105565b61514090833d851161197d5761196d818361096a565b50386150d3565b821561527d57600d546151b590615166906001600160a01b031661184d565b600f546040516323b872dd60e01b8082523360048301526001600160a01b039092166024820152682d51d4a2aea290000060448201526020939192909184918391829060009082906064820190565b03925af1801561198457615260575b50600d5482906151dc906001600160a01b031661184d565b6040519283523360048401526001600160a01b03881660248401526802629f66e0c53000006044840152829060649082906000905af1801561198457615242575b50505b61523d6137da866002612ccc8b600052600c602052604060002090565b614f16565b8161525892903d1061197d5761196d818361096a565b50388061521d565b61527690833d851161197d5761196d818361096a565b50386151c4565b600e54615292906001600160a01b031661184d565b600f546001600160a01b03166152a788611fa0565b6040516323b872dd60e01b8082523360048301526001600160a01b0393909316602482015260448101919091526020929091908390839060649082906000905af19081156119845761531992849261534d575b50600e54615310906001600160a01b031661184d565b6138c38b611fb0565b03925af180156119845761532f575b5050615220565b8161534592903d1061197d5761196d818361096a565b503880615328565b61536390833d851161197d5761196d818361096a565b50386152fa565b6153738261073e565b600182146157e5575b6153858261073e565b600282146155c2575b6153978261073e565b60038203614d0e5782156154d557600d5461540d906153be906001600160a01b031661184d565b600f546040516323b872dd60e01b8082523360048301526001600160a01b03909216602482015268b64f001a0ff6ac000060448201526020939192909184918391829060009082906064820190565b03925af18015611984576154b8575b50600d548290615434906001600160a01b031661184d565b6040519283523360048401526001600160a01b03881660248401526809985e5236bc2400006044840152829060649082906000905af180156119845761549a575b50505b6154956132e6866002612ccc8b600052600c602052604060002090565b614d0e565b816154b092903d1061197d5761196d818361096a565b503880615475565b6154ce90833d851161197d5761196d818361096a565b503861541c565b600e546154ea906001600160a01b031661184d565b600f546001600160a01b03166154ff88611f7f565b6040516323b872dd60e01b8082523360048301526001600160a01b0393909316602482015260448101919091526020929091908390839060649082906000905af1908115611984576155719284926155a5575b50600e54615568906001600160a01b031661184d565b6138c38b611f90565b03925af1801561198457615587575b5050615478565b8161559d92903d1061197d5761196d818361096a565b503880615580565b6155bb90833d851161197d5761196d818361096a565b5038615552565b82156156f857600d54615630906155e1906001600160a01b031661184d565b600f546040516323b872dd60e01b8082523360048301526001600160a01b0390921660248201526897ec8015b7f83a000060448201526020939192909184918391829060009082906064820190565b03925af18015611984576156db575b50600d548290615657906001600160a01b031661184d565b6040519283523360048401526001600160a01b03881660248401526807fef94482f21e00006044840152829060649082906000905af18015611984576156bd575b50505b6156b86137da866002612ccc8b600052600c602052604060002090565b61538e565b816156d392903d1061197d5761196d818361096a565b503880615698565b6156f190833d851161197d5761196d818361096a565b503861563f565b600e5461570d906001600160a01b031661184d565b600f546001600160a01b031661572288611f5e565b6040516323b872dd60e01b8082523360048301526001600160a01b0393909316602482015260448101919091526020929091908390839060649082906000905af1908115611984576157949284926157c8575b50600e5461578b906001600160a01b031661184d565b6138c38b611f6f565b03925af18015611984576157aa575b505061569b565b816157c092903d1061197d5761196d818361096a565b5038806157a3565b6157de90833d851161197d5761196d818361096a565b5038615775565b821561591b57600d5461585390615804906001600160a01b031661184d565b600f546040516323b872dd60e01b8082523360048301526001600160a01b0390921660248201526871d06a5e5f4c9e000060448201526020939192909184918391829060009082906064820190565b03925af18015611984576158fe575b50600d54829061587a906001600160a01b031661184d565b6040519283523360048401526001600160a01b03881660248401526805fd7edc8bc0aa00006044840152829060649082906000905af18015611984576158e0575b50505b6158db611700866002612ccc8b600052600c602052604060002090565b61537c565b816158f692903d1061197d5761196d818361096a565b5038806158bb565b61591490833d851161197d5761196d818361096a565b5038615862565b600e54615930906001600160a01b031661184d565b600f546001600160a01b031661594588611f3d565b6040516323b872dd60e01b8082523360048301526001600160a01b0393909316602482015260448101919091526020929091908390839060649082906000905af1908115611984576159b79284926159eb575b50600e546159ae906001600160a01b031661184d565b6138c38b611f4e565b03925af18015611984576159cd575b50506158be565b816159e392903d1061197d5761196d818361096a565b5038806159c6565b615a0190833d851161197d5761196d818361096a565b5038615998565b9295909493615a168161073e565b8015616079575b615a268161073e565b60018114615c13575b80615a3b60029261073e565b14615a4857505050505050565b80615a5460039261073e565b14615a5f57806131be565b15615b5457600d54615ace9350615a7e906001600160a01b031661184d565b600f546040516323b872dd60e01b8082523360048301526001600160a01b039092166024820152683dccad9805695000006044820152602095909391928691859190829060009082906064820190565b03925af1918215611984576132b6938693615b37575b50600d54615afa906001600160a01b031661184d565b6040519182523360048301526001600160a01b039092166024820152680340aad21b3b700000604482015292839190829060009082906064820190565b615b4d90843d861161197d5761196d818361096a565b5038615ae4565b600e54615b69906001600160a01b031661184d565b600f546001600160a01b03169190615b80856120a6565b6040516323b872dd60e01b8082523360048301526001600160a01b0395909516602482015260448101919091526020959093918690859060649082906000905af19283156119845761340d948794615bf6575b50600e546000906133da90615bf0906001600160a01b031661184d565b936120b7565b615c0c90853d871161197d5761196d818361096a565b5038615bd3565b615c1c8261073e565b60028214615e56575b615c2e8261073e565b60038203615a2f578215615d6557600d54615c51906001600160a01b031661184d565b600f546040516323b872dd60e01b8082523360048301526001600160a01b039092166024820152688b0c86960c2cf400006044820152909291602091908290829060649082906000905af1801561198457615d48575b50600d548190615cbf906001600160a01b031661184d565b6040519485523360048601526001600160a01b03881660248601526807518058bd45bc00006044860152849060649082906000905af192831561198457600293615d2a575b50505b615d236132e68784612ccc8c600052600c602052604060002090565b9050615a2f565b81615d4092903d1061197d5761196d818361096a565b503880615d04565b615d5e90823d841161197d5761196d818361096a565b5038615ca7565b600e54615d7a906001600160a01b031661184d565b600f546001600160a01b03169190615d9188612085565b6040516323b872dd60e01b8082523360048301526001600160a01b039590951660248201526044810191909152926020918290859060649082906000905af190811561198457615e01948392615e39575b50600e54615df8906001600160a01b031661184d565b61365c8b612096565b03925af192831561198457600293615e1b575b5050615d07565b81615e3192903d1061197d5761196d818361096a565b503880615e14565b615e4f90833d851161197d5761196d818361096a565b5038615de2565b8215615f8c57600d54615ec490615e75906001600160a01b031661184d565b600f546040516323b872dd60e01b8082523360048301526001600160a01b039092166024820152684d3fd8fe06c3a4000060448201526020939192909184918391829060009082906064820190565b03925af1801561198457615f6f575b50600d548290615eeb906001600160a01b031661184d565b6040519283523360048401526001600160a01b0388166024840152680410d586a20a4c00006044840152829060649082906000905af1801561198457615f51575b50505b615f4c6137da866002612ccc8b600052600c602052604060002090565b615c25565b81615f6792903d1061197d5761196d818361096a565b503880615f2c565b615f8590833d851161197d5761196d818361096a565b5038615ed3565b600e54615fa1906001600160a01b031661184d565b600f546001600160a01b0316615fb688612064565b6040516323b872dd60e01b8082523360048301526001600160a01b0393909316602482015260448101919091526020929091908390839060649082906000905af19081156119845761602892849261605c575b50600e5461601f906001600160a01b031661184d565b6138c38b612075565b03925af180156119845761603e575b5050615f2f565b8161605492903d1061197d5761196d818361096a565b503880616037565b61607290833d851161197d5761196d818361096a565b5038616009565b6160828261073e565b600182146164f6575b6160948261073e565b600282146162d2575b6160a68261073e565b60038203615a1d5782156161e557600d5461611d906160cd906001600160a01b031661184d565b600f546040516323b872dd60e01b8082523360048301526001600160a01b039092166024820152690134ff63f81b0e90000060448201526020939192909184918391829060009082906064820190565b03925af18015611984576161c8575b50600d548290616144906001600160a01b031661184d565b6040519283523360048401526001600160a01b0388166024840152681043561a88293000006044840152829060649082906000905af18015611984576161aa575b50505b6161a56132e6866002612ccc8b600052600c602052604060002090565b615a1d565b816161c092903d1061197d5761196d818361096a565b503880616185565b6161de90833d851161197d5761196d818361096a565b503861612c565b600e546161fa906001600160a01b031661184d565b600f546001600160a01b031661620f88612043565b6040516323b872dd60e01b8082523360048301526001600160a01b0393909316602482015260448101919091526020929091908390839060649082906000905af1908115611984576162819284926162b5575b50600e54616278906001600160a01b031661184d565b6138c38b612054565b03925af1801561198457616297575b5050616188565b816162ad92903d1061197d5761196d818361096a565b503880616290565b6162cb90833d851161197d5761196d818361096a565b5038616262565b821561640957600d54616341906162f1906001600160a01b031661184d565b600f546040516323b872dd60e01b8082523360048301526001600160a01b0390921660248201526901017f7df96be178000060448201526020939192909184918391829060009082906064820190565b03925af18015611984576163ec575b50600d548290616368906001600160a01b031661184d565b6040519283523360048401526001600160a01b0388166024840152680d8d726b7177a800006044840152829060649082906000905af18015611984576163ce575b50505b6163c96137da866002612ccc8b600052600c602052604060002090565b61609d565b816163e492903d1061197d5761196d818361096a565b5038806163a9565b61640290833d851161197d5761196d818361096a565b5038616350565b600e5461641e906001600160a01b031661184d565b600f546001600160a01b031661643388612022565b6040516323b872dd60e01b8082523360048301526001600160a01b0393909316602482015260448101919091526020929091908390839060649082906000905af1908115611984576164a59284926164d9575b50600e5461649c906001600160a01b031661184d565b6138c38b612033565b03925af18015611984576164bb575b50506163ac565b816164d192903d1061197d5761196d818361096a565b5038806164b4565b6164ef90833d851161197d5761196d818361096a565b5038616486565b821561662c57600d5461656490616515906001600160a01b031661184d565b600f546040516323b872dd60e01b8082523360048301526001600160a01b03909216602482015268c11f9e7b10e91a000060448201526020939192909184918391829060009082906064820190565b03925af180156119845761660f575b50600d54829061658b906001600160a01b031661184d565b6040519283523360048401526001600160a01b0388166024840152680a2a15d09519be00006044840152829060649082906000905af18015611984576165f1575b50505b6165ec611700866002612ccc8b600052600c602052604060002090565b61608b565b8161660792903d1061197d5761196d818361096a565b5038806165cc565b61662590833d851161197d5761196d818361096a565b5038616573565b600e54616641906001600160a01b031661184d565b600f546001600160a01b031661665688612001565b6040516323b872dd60e01b8082523360048301526001600160a01b0393909316602482015260448101919091526020929091908390839060649082906000905af1908115611984576166c89284926166fc575b50600e546166bf906001600160a01b031661184d565b6138c38b612012565b03925af18015611984576166de575b50506165cf565b816166f492903d1061197d5761196d818361096a565b5038806166d7565b61671290833d851161197d5761196d818361096a565b50386166a9565b92959094936167278161073e565b8015616d8a575b6167378161073e565b60018114616924575b8061674c60029261073e565b1461675957505050505050565b8061676560039261073e565b1461677057806131be565b1561686557600d546167df935061678f906001600160a01b031661184d565b600f546040516323b872dd60e01b8082523360048301526001600160a01b0390921660248201526825146828033f3000006044820152602095909391928691859190829060009082906064820190565b03925af1918215611984576132b6938693616848575b50600d5461680b906001600160a01b031661184d565b6040519182523360048301526001600160a01b0390921660248201526801f399b1438a100000604482015292839190829060009082906064820190565b61685e90843d861161197d5761196d818361096a565b50386167f5565b600e5461687a906001600160a01b031661184d565b600f546001600160a01b031691906168918561216b565b6040516323b872dd60e01b8082523360048301526001600160a01b0395909516602482015260448101919091526020959093918690859060649082906000905af19283156119845761340d948794616907575b50600e546000906133da90616901906001600160a01b031661184d565b9361217b565b61691d90853d871161197d5761196d818361096a565b50386168e4565b61692d8261073e565b60028214616b67575b61693f8261073e565b60038203616740578215616a7657600d54616962906001600160a01b031661184d565b600f546040516323b872dd60e01b8082523360048301526001600160a01b03909216602482015268536dea5a074e2c00006044820152909291602091908290829060649082906000905af1801561198457616a59575b50600d5481906169d0906001600160a01b031661184d565b6040519485523360048601526001600160a01b038816602486015268046419ced7f6a400006044860152849060649082906000905af192831561198457600293616a3b575b50505b616a346132e68784612ccc8c600052600c602052604060002090565b9050616740565b81616a5192903d1061197d5761196d818361096a565b503880616a15565b616a6f90823d841161197d5761196d818361096a565b50386169b8565b600e54616a8b906001600160a01b031661184d565b600f546001600160a01b03169190616aa28861214a565b6040516323b872dd60e01b8082523360048301526001600160a01b039590951660248201526044810191909152926020918290859060649082906000905af190811561198457616b12948392616b4a575b50600e54616b09906001600160a01b031661184d565b61365c8b61215b565b03925af192831561198457600293616b2c575b5050616a18565b81616b4292903d1061197d5761196d818361096a565b503880616b25565b616b6090833d851161197d5761196d818361096a565b5038616af3565b8215616c9d57600d54616bd590616b86906001600160a01b031661184d565b600f546040516323b872dd60e01b8082523360048301526001600160a01b039092166024820152682e598232040efc000060448201526020939192909184918391829060009082906064820190565b03925af1801561198457616c80575b50600d548290616bfc906001600160a01b031661184d565b6040519283523360048401526001600160a01b0388166024840152680270801d946c9400006044840152829060649082906000905af1801561198457616c62575b50505b616c5d6137da866002612ccc8b600052600c602052604060002090565b616936565b81616c7892903d1061197d5761196d818361096a565b503880616c3d565b616c9690833d851161197d5761196d818361096a565b5038616be4565b600e54616cb2906001600160a01b031661184d565b600f546001600160a01b0316616cc78861212a565b6040516323b872dd60e01b8082523360048301526001600160a01b0393909316602482015260448101919091526020929091908390839060649082906000905af190811561198457616d39928492616d6d575b50600e54616d30906001600160a01b031661184d565b6138c38b61213a565b03925af1801561198457616d4f575b5050616c40565b81616d6592903d1061197d5761196d818361096a565b503880616d48565b616d8390833d851161197d5761196d818361096a565b5038616d1a565b616d938261073e565b60018214617205575b616da58261073e565b60028214616fe2575b616db78261073e565b6003820361672e578215616ef557600d54616e2d90616dde906001600160a01b031661184d565b600f546040516323b872dd60e01b8082523360048301526001600160a01b03909216602482015268b96608c8103bf0000060448201526020939192909184918391829060009082906064820190565b03925af1801561198457616ed8575b50600d548290616e54906001600160a01b031661184d565b6040519283523360048401526001600160a01b03881660248401526809c2007651b25000006044840152829060649082906000905af1801561198457616eba575b50505b616eb56132e6866002612ccc8b600052600c602052604060002090565b61672e565b81616ed092903d1061197d5761196d818361096a565b503880616e95565b616eee90833d851161197d5761196d818361096a565b5038616e3c565b600e54616f0a906001600160a01b031661184d565b600f546001600160a01b0316616f1f88612109565b6040516323b872dd60e01b8082523360048301526001600160a01b0393909316602482015260448101919091526020929091908390839060649082906000905af190811561198457616f91928492616fc5575b50600e54616f88906001600160a01b031661184d565b6138c38b61211a565b03925af1801561198457616fa7575b5050616e98565b81616fbd92903d1061197d5761196d818361096a565b503880616fa0565b616fdb90833d851161197d5761196d818361096a565b5038616f72565b821561711857600d5461705090617001906001600160a01b031661184d565b600f546040516323b872dd60e01b8082523360048301526001600160a01b039092166024820152689a7fb1fc0d8748000060448201526020939192909184918391829060009082906064820190565b03925af18015611984576170fb575b50600d548290617077906001600160a01b031661184d565b6040519283523360048401526001600160a01b0388166024840152680821ab0d44149800006044840152829060649082906000905af18015611984576170dd575b50505b6170d86137da866002612ccc8b600052600c602052604060002090565b616dae565b816170f392903d1061197d5761196d818361096a565b5038806170b8565b61711190833d851161197d5761196d818361096a565b503861705f565b600e5461712d906001600160a01b031661184d565b600f546001600160a01b0316617142886120e8565b6040516323b872dd60e01b8082523360048301526001600160a01b0393909316602482015260448101919091526020929091908390839060649082906000905af1908115611984576171b49284926171e8575b50600e546171ab906001600160a01b031661184d565b6138c38b6120f9565b03925af18015611984576171ca575b50506170bb565b816171e092903d1061197d5761196d818361096a565b5038806171c3565b6171fe90833d851161197d5761196d818361096a565b5038617195565b821561733b57600d5461727390617224906001600160a01b031661184d565b600f546040516323b872dd60e01b8082523360048301526001600160a01b0390921660248201526873dfc57d0a2576000060448201526020939192909184918391829060009082906064820190565b03925af180156119845761731e575b50600d54829061729a906001600160a01b031661184d565b6040519283523360048401526001600160a01b03881660248401526806194049f30f7200006044840152829060649082906000905af1801561198457617300575b50505b6172fb611700866002612ccc8b600052600c602052604060002090565b616d9c565b8161731692903d1061197d5761196d818361096a565b5038806172db565b61733490833d851161197d5761196d818361096a565b5038617282565b600e54617350906001600160a01b031661184d565b600f546001600160a01b0316617365886120c7565b6040516323b872dd60e01b8082523360048301526001600160a01b0393909316602482015260448101919091526020929091908390839060649082906000905af1908115611984576173d792849261740b575b50600e546173ce906001600160a01b031661184d565b6138c38b6120d8565b03925af18015611984576173ed575b50506172de565b8161740392903d1061197d5761196d818361096a565b5038806173e6565b61742190833d851161197d5761196d818361096a565b50386173b8565b92959094936174368161073e565b8015617a98575b6174468161073e565b60018114617632575b8061745b60029261073e565b1461746857505050505050565b8061747460039261073e565b1461747f57806131be565b1561757357600d546174ee935061749e906001600160a01b031661184d565b600f546040516323b872dd60e01b8082523360048301526001600160a01b03909216602482015268107ad8f556c6c000006044820152602095909391928691859190829060009082906064820190565b03925af1918215611984576132b6938693617556575b50600d5461751a906001600160a01b031661184d565b6040519182523360048301526001600160a01b03909216602482015267de0b6b3a76400000604482015292839190829060009082906064820190565b61756c90843d861161197d5761196d818361096a565b5038617504565b600e54617588906001600160a01b031661184d565b600f546001600160a01b0316919061759f8561220d565b6040516323b872dd60e01b8082523360048301526001600160a01b0395909516602482015260448101919091526020959093918690859060649082906000905af19283156119845761340d948794617615575b50600e546000906133da9061760f906001600160a01b031661184d565b9361221d565b61762b90853d871161197d5761196d818361096a565b50386175f2565b61763b8261073e565b60028214617875575b61764d8261073e565b6003820361744f57821561778457600d54617670906001600160a01b031661184d565b600f546040516323b872dd60e01b8082523360048301526001600160a01b0390921660248201526825146828033f3000006044820152909291602091908290829060649082906000905af1801561198457617767575b50600d5481906176de906001600160a01b031661184d565b6040519485523360048601526001600160a01b03881660248601526801f399b1438a1000006044860152849060649082906000905af192831561198457600293617749575b50505b6177426132e68784612ccc8c600052600c602052604060002090565b905061744f565b8161775f92903d1061197d5761196d818361096a565b503880617723565b61777d90823d841161197d5761196d818361096a565b50386176c6565b600e54617799906001600160a01b031661184d565b600f546001600160a01b031691906177b08861216b565b6040516323b872dd60e01b8082523360048301526001600160a01b039590951660248201526044810191909152926020918290859060649082906000905af190811561198457617820948392617858575b50600e54617817906001600160a01b031661184d565b61365c8b61217b565b03925af19283156119845760029361783a575b5050617726565b8161785092903d1061197d5761196d818361096a565b503880617833565b61786e90833d851161197d5761196d818361096a565b5038617801565b82156179ab57600d546178e390617894906001600160a01b031661184d565b600f546040516323b872dd60e01b8082523360048301526001600160a01b0390921660248201526814998f32ac7870000060448201526020939192909184918391829060009082906064820190565b03925af180156119845761798e575b50600d54829061790a906001600160a01b031661184d565b6040519283523360048401526001600160a01b03881660248401526801158e460913d000006044840152829060649082906000905af1801561198457617970575b50505b61796b6137da866002612ccc8b600052600c602052604060002090565b617644565b8161798692903d1061197d5761196d818361096a565b50388061794b565b6179a490833d851161197d5761196d818361096a565b50386178f2565b600e546179c0906001600160a01b031661184d565b600f546001600160a01b03166179d5886121ed565b6040516323b872dd60e01b8082523360048301526001600160a01b0393909316602482015260448101919091526020929091908390839060649082906000905af190811561198457617a47928492617a7b575b50600e54617a3e906001600160a01b031661184d565b6138c38b6121fd565b03925af1801561198457617a5d575b505061794e565b81617a7392903d1061197d5761196d818361096a565b503880617a56565b617a9190833d851161197d5761196d818361096a565b5038617a28565b617aa18261073e565b60018214617f13575b617ab38261073e565b60028214617cf0575b617ac58261073e565b6003820361743d578215617c0357600d54617b3b90617aec906001600160a01b031661184d565b600f546040516323b872dd60e01b8082523360048301526001600160a01b0390921660248201526853f1c121b20462000060448201526020939192909184918391829060009082906064820190565b03925af1801561198457617be6575b50600d548290617b62906001600160a01b031661184d565b6040519283523360048401526001600160a01b038816602484015268046b0a2a31ca5600006044840152829060649082906000905af1801561198457617bc8575b50505b617bc36132e6866002612ccc8b600052600c602052604060002090565b61743d565b81617bde92903d1061197d5761196d818361096a565b503880617ba3565b617bfc90833d851161197d5761196d818361096a565b5038617b4a565b600e54617c18906001600160a01b031661184d565b600f546001600160a01b0316617c2d886121cc565b6040516323b872dd60e01b8082523360048301526001600160a01b0393909316602482015260448101919091526020929091908390839060649082906000905af190811561198457617c9f928492617cd3575b50600e54617c96906001600160a01b031661184d565b6138c38b6121dd565b03925af1801561198457617cb5575b5050617ba6565b81617ccb92903d1061197d5761196d818361096a565b503880617cae565b617ce990833d851161197d5761196d818361096a565b5038617c80565b8215617e2657600d54617d5e90617d0f906001600160a01b031661184d565b600f546040516323b872dd60e01b8082523360048301526001600160a01b03909216602482015268460a1a12b0ccb0000060448201526020939192909184918391829060009082906064820190565b03925af1801561198457617e09575b50600d548290617d85906001600160a01b031661184d565b6040519283523360048401526001600160a01b03881660248401526803afb087b8769000006044840152829060649082906000905af1801561198457617deb575b50505b617de66137da866002612ccc8b600052600c602052604060002090565b617abc565b81617e0192903d1061197d5761196d818361096a565b503880617dc6565b617e1f90833d851161197d5761196d818361096a565b5038617d6d565b600e54617e3b906001600160a01b031661184d565b600f546001600160a01b0316617e50886121ab565b6040516323b872dd60e01b8082523360048301526001600160a01b0393909316602482015260448101919091526020929091908390839060649082906000905af190811561198457617ec2928492617ef6575b50600e54617eb9906001600160a01b031661184d565b6138c38b6121bc565b03925af1801561198457617ed8575b5050617dc9565b81617eee92903d1061197d5761196d818361096a565b503880617ed1565b617f0c90833d851161197d5761196d818361096a565b5038617ea3565b821561804957600d54617f8190617f32906001600160a01b031661184d565b600f546040516323b872dd60e01b8082523360048301526001600160a01b039092166024820152683487938e049984000060448201526020939192909184918391829060009082906064820190565b03925af180156119845761802c575b50600d548290617fa8906001600160a01b031661184d565b6040519283523360048401526001600160a01b03881660248401526802c3c465ca58ec00006044840152829060649082906000905af180156119845761800e575b50505b618009611700866002612ccc8b600052600c602052604060002090565b617aaa565b8161802492903d1061197d5761196d818361096a565b503880617fe9565b61804290833d851161197d5761196d818361096a565b5038617f90565b600e5461805e906001600160a01b031661184d565b600f546001600160a01b03166180738861218b565b6040516323b872dd60e01b8082523360048301526001600160a01b0393909316602482015260448101919091526020929091908390839060649082906000905af1908115611984576180e5928492618119575b50600e546180dc906001600160a01b031661184d565b6138c38b61219b565b03925af18015611984576180fb575b5050617fec565b8161811192903d1061197d5761196d818361096a565b5038806180f4565b61812f90833d851161197d5761196d818361096a565b50386180c6565b92959094936181448161073e565b80156187a6575b6181548161073e565b60018114618340575b8061816960029261073e565b1461817657505050505050565b8061818260039261073e565b1461818d57806131be565b1561828157600d546181fc93506181ac906001600160a01b031661184d565b600f546040516323b872dd60e01b8082523360048301526001600160a01b03909216602482015268128a3414019f9800006044820152602095909391928691859190829060009082906064820190565b03925af1918215611984576132b6938693618264575b50600d54618228906001600160a01b031661184d565b6040519182523360048301526001600160a01b03909216602482015267f9ccd8a1c5080000604482015292839190829060009082906064820190565b61827a90843d861161197d5761196d818361096a565b5038618212565b600e54618296906001600160a01b031661184d565b600f546001600160a01b031691906182ad856122cf565b6040516323b872dd60e01b8082523360048301526001600160a01b0395909516602482015260448101919091526020959093918690859060649082906000905af19283156119845761340d948794618323575b50600e546000906133da9061831d906001600160a01b031661184d565b936122df565b61833990853d871161197d5761196d818361096a565b5038618300565b6183498261073e565b60028214618583575b61835b8261073e565b6003820361815d57821561849257600d5461837e906001600160a01b031661184d565b600f546040516323b872dd60e01b8082523360048301526001600160a01b0390921660248201526829b6f52d03a71600006044820152909291602091908290829060649082906000905af1801561198457618475575b50600d5481906183ec906001600160a01b031661184d565b6040519485523360048601526001600160a01b03881660248601526802320ce76bfb5200006044860152849060649082906000905af192831561198457600293618457575b50505b6184506132e68784612ccc8c600052600c602052604060002090565b905061815d565b8161846d92903d1061197d5761196d818361096a565b503880618431565b61848b90823d841161197d5761196d818361096a565b50386183d4565b600e546184a7906001600160a01b031661184d565b600f546001600160a01b031691906184be886122af565b6040516323b872dd60e01b8082523360048301526001600160a01b039590951660248201526044810191909152926020918290859060649082906000905af19081156119845761852e948392618566575b50600e54618525906001600160a01b031661184d565b61365c8b6122bf565b03925af192831561198457600293618548575b5050618434565b8161855e92903d1061197d5761196d818361096a565b503880618541565b61857c90833d851161197d5761196d818361096a565b503861850f565b82156186b957600d546185f1906185a2906001600160a01b031661184d565b600f546040516323b872dd60e01b8082523360048301526001600160a01b03909216602482015268172cc11902077e000060448201526020939192909184918391829060009082906064820190565b03925af180156119845761869c575b50600d548290618618906001600160a01b031661184d565b6040519283523360048401526001600160a01b0388166024840152680138400eca364a00006044840152829060649082906000905af180156119845761867e575b50505b6186796137da866002612ccc8b600052600c602052604060002090565b618352565b8161869492903d1061197d5761196d818361096a565b503880618659565b6186b290833d851161197d5761196d818361096a565b5038618600565b600e546186ce906001600160a01b031661184d565b600f546001600160a01b03166186e38861228f565b6040516323b872dd60e01b8082523360048301526001600160a01b0393909316602482015260448101919091526020929091908390839060649082906000905af190811561198457618755928492618789575b50600e5461874c906001600160a01b031661184d565b6138c38b61229f565b03925af180156119845761876b575b505061865c565b8161878192903d1061197d5761196d818361096a565b503880618764565b61879f90833d851161197d5761196d818361096a565b5038618736565b6187af8261073e565b60018214618c21575b6187c18261073e565b600282146189fe575b6187d38261073e565b6003820361814b57821561891157600d54618849906187fa906001600160a01b031661184d565b600f546040516323b872dd60e01b8082523360048301526001600160a01b039092166024820152685e3e88bb08409a000060448201526020939192909184918391829060009082906064820190565b03925af18015611984576188f4575b50600d548290618870906001600160a01b031661184d565b6040519283523360048401526001600160a01b03881660248401526804f5d14d36543e00006044840152829060649082906000905af18015611984576188d6575b50505b6188d16132e6866002612ccc8b600052600c602052604060002090565b61814b565b816188ec92903d1061197d5761196d818361096a565b5038806188b1565b61890a90833d851161197d5761196d818361096a565b5038618858565b600e54618926906001600160a01b031661184d565b600f546001600160a01b031661893b8861226e565b6040516323b872dd60e01b8082523360048301526001600160a01b0393909316602482015260448101919091526020929091908390839060649082906000905af1908115611984576189ad9284926189e1575b50600e546189a4906001600160a01b031661184d565b6138c38b61227f565b03925af18015611984576189c3575b50506188b4565b816189d992903d1061197d5761196d818361096a565b5038806189bc565b6189f790833d851161197d5761196d818361096a565b503861898e565b8215618b3457600d54618a6c90618a1d906001600160a01b031661184d565b600f546040516323b872dd60e01b8082523360048301526001600160a01b039092166024820152684e47868d5c3010000060448201526020939192909184918391829060009082906064820190565b03925af1801561198457618b17575b50600d548290618a93906001600160a01b031661184d565b6040519283523360048401526001600160a01b038816602484015268041eb63d55b1b000006044840152829060649082906000905af1801561198457618af9575b50505b618af46137da866002612ccc8b600052600c602052604060002090565b6187ca565b81618b0f92903d1061197d5761196d818361096a565b503880618ad4565b618b2d90833d851161197d5761196d818361096a565b5038618a7b565b600e54618b49906001600160a01b031661184d565b600f546001600160a01b0316618b5e8861224d565b6040516323b872dd60e01b8082523360048301526001600160a01b0393909316602482015260448101919091526020929091908390839060649082906000905af190811561198457618bd0928492618c04575b50600e54618bc7906001600160a01b031661184d565b6138c38b61225e565b03925af1801561198457618be6575b5050618ad7565b81618bfc92903d1061197d5761196d818361096a565b503880618bdf565b618c1a90833d851161197d5761196d818361096a565b5038618bb1565b8215618d5757600d54618c8f90618c40906001600160a01b031661184d565b600f546040516323b872dd60e01b8082523360048301526001600160a01b039092166024820152683ab5a4ea05240c000060448201526020939192909184918391829060009082906064820190565b03925af1801561198457618d3a575b50600d548290618cb6906001600160a01b031661184d565b6040519283523360048401526001600160a01b038816602484015268031708ae00454400006044840152829060649082906000905af1801561198457618d1c575b50505b618d17611700866002612ccc8b600052600c602052604060002090565b6187b8565b81618d3292903d1061197d5761196d818361096a565b503880618cf7565b618d5090833d851161197d5761196d818361096a565b5038618c9e565b600e54618d6c906001600160a01b031661184d565b600f546001600160a01b0316618d818861222d565b6040516323b872dd60e01b8082523360048301526001600160a01b0393909316602482015260448101919091526020929091908390839060649082906000905af190811561198457618df3928492618e27575b50600e54618dea906001600160a01b031661184d565b6138c38b61223d565b03925af1801561198457618e09575b5050618cfa565b81618e1f92903d1061197d5761196d818361096a565b503880618e02565b618e3d90833d851161197d5761196d818361096a565b5038618dd4565b9295909493618e528161073e565b80156194b3575b618e628161073e565b6001811461904e575b80618e7760029261073e565b14618e8457505050505050565b80618e9060039261073e565b14618e9b57806131be565b15618f8f57600d54618f0a9350618eba906001600160a01b031661184d565b600f546040516323b872dd60e01b8082523360048301526001600160a01b039092166024820152680b547528aba8a400006044820152602095909391928691859190829060009082906064820190565b03925af1918215611984576132b6938693618f72575b50600d54618f36906001600160a01b031661184d565b6040519182523360048301526001600160a01b0390921660248201526798a7d9b8314c0000604482015292839190829060009082906064820190565b618f8890843d861161197d5761196d818361096a565b5038618f20565b600e54618fa4906001600160a01b031661184d565b600f546001600160a01b03169190618fbb8561238f565b6040516323b872dd60e01b8082523360048301526001600160a01b0395909516602482015260448101919091526020959093918690859060649082906000905af19283156119845761340d948794619031575b50600e546000906133da9061902b906001600160a01b031661184d565b9361239f565b61904790853d871161197d5761196d818361096a565b503861900e565b6190578261073e565b60028214619291575b6190698261073e565b60038203618e6b5782156191a057600d5461908c906001600160a01b031661184d565b600f546040516323b872dd60e01b8082523360048301526001600160a01b03909216602482015268193c1c37ace05600006044820152909291602091908290829060649082906000905af1801561198457619183575b50600d5481906190fa906001600160a01b031661184d565b6040519485523360048601526001600160a01b0388166024860152680154017c31851200006044860152849060649082906000905af192831561198457600293619165575b50505b61915e6132e68784612ccc8c600052600c602052604060002090565b9050618e6b565b8161917b92903d1061197d5761196d818361096a565b50388061913f565b61919990823d841161197d5761196d818361096a565b50386190e2565b600e546191b5906001600160a01b031661184d565b600f546001600160a01b031691906191cc8861236f565b6040516323b872dd60e01b8082523360048301526001600160a01b039590951660248201526044810191909152926020918290859060649082906000905af19081156119845761923c948392619274575b50600e54619233906001600160a01b031661184d565b61365c8b61237f565b03925af192831561198457600293619256575b5050619142565b8161926c92903d1061197d5761196d818361096a565b50388061924f565b61928a90833d851161197d5761196d818361096a565b503861921d565b82156193c657600d546192ff906192b0906001600160a01b031661184d565b600f546040516323b872dd60e01b8082523360048301526001600160a01b039092166024820152680de7a70f0137b2000060448201526020939192909184918391829060009082906064820190565b03925af18015611984576193a9575b50600d548290619326906001600160a01b031661184d565b6040519283523360048401526001600160a01b038816602484015267bb59a27953c600006044840152829060649082906000905af180156119845761938b575b50505b6193866137da866002612ccc8b600052600c602052604060002090565b619060565b816193a192903d1061197d5761196d818361096a565b503880619366565b6193bf90833d851161197d5761196d818361096a565b503861930e565b600e546193db906001600160a01b031661184d565b600f546001600160a01b03166193f08861234f565b6040516323b872dd60e01b8082523360048301526001600160a01b0393909316602482015260448101919091526020929091908390839060649082906000905af190811561198457619462928492619496575b50600e54619459906001600160a01b031661184d565b6138c38b61235f565b03925af1801561198457619478575b5050619369565b8161948e92903d1061197d5761196d818361096a565b503880619471565b6194ac90833d851161197d5761196d818361096a565b5038619443565b6194bc8261073e565b6001821461992e575b6194ce8261073e565b6002821461970b575b6194e08261073e565b60038203618e5957821561961e57600d5461955690619507906001600160a01b031661184d565b600f546040516323b872dd60e01b8082523360048301526001600160a01b0390921660248201526838a649cb5a4b34000060448201526020939192909184918391829060009082906064820190565b03925af1801561198457619601575b50600d54829061957d906001600160a01b031661184d565b6040519283523360048401526001600160a01b03881660248401526802fb474098f67c00006044840152829060649082906000905af18015611984576195e3575b50505b6195de6132e6866002612ccc8b600052600c602052604060002090565b618e59565b816195f992903d1061197d5761196d818361096a565b5038806195be565b61961790833d851161197d5761196d818361096a565b5038619565565b600e54619633906001600160a01b031661184d565b600f546001600160a01b03166196488861232f565b6040516323b872dd60e01b8082523360048301526001600160a01b0393909316602482015260448101919091526020929091908390839060649082906000905af1908115611984576196ba9284926196ee575b50600e546196b1906001600160a01b031661184d565b6138c38b61233f565b03925af18015611984576196d0575b50506195c1565b816196e692903d1061197d5761196d818361096a565b5038806196c9565b61970490833d851161197d5761196d818361096a565b503861969b565b821561984157600d546197799061972a906001600160a01b031661184d565b600f546040516323b872dd60e01b8082523360048301526001600160a01b039092166024820152682edd58f9aec532000060448201526020939192909184918391829060009082906064820190565b03925af1801561198457619824575b50600d5482906197a0906001600160a01b031661184d565b6040519283523360048401526001600160a01b03881660248401526802777078ee404600006044840152829060649082906000905af1801561198457619806575b50505b6198016137da866002612ccc8b600052600c602052604060002090565b6194d7565b8161981c92903d1061197d5761196d818361096a565b5038806197e1565b61983a90833d851161197d5761196d818361096a565b5038619788565b600e54619856906001600160a01b031661184d565b600f546001600160a01b031661986b8861230f565b6040516323b872dd60e01b8082523360048301526001600160a01b0393909316602482015260448101919091526020929091908390839060649082906000905af1908115611984576198dd928492619911575b50600e546198d4906001600160a01b031661184d565b6138c38b61231f565b03925af18015611984576198f3575b50506197e4565b8161990992903d1061197d5761196d818361096a565b5038806198ec565b61992790833d851161197d5761196d818361096a565b50386198be565b8215619a6457600d5461999c9061994d906001600160a01b031661184d565b600f546040516323b872dd60e01b8082523360048301526001600160a01b0390921660248201526823050d09586658000060448201526020939192909184918391829060009082906064820190565b03925af1801561198457619a47575b50600d5482906199c3906001600160a01b031661184d565b6040519283523360048401526001600160a01b03881660248401526801d7d843dc3b4800006044840152829060649082906000905af1801561198457619a29575b50505b619a24611700866002612ccc8b600052600c602052604060002090565b6194c5565b81619a3f92903d1061197d5761196d818361096a565b503880619a04565b619a5d90833d851161197d5761196d818361096a565b50386199ab565b600e54619a79906001600160a01b031661184d565b600f546001600160a01b0316619a8e886122ef565b6040516323b872dd60e01b8082523360048301526001600160a01b0393909316602482015260448101919091526020929091908390839060649082906000905af190811561198457619b00928492619b34575b50600e54619af7906001600160a01b031661184d565b6138c38b6122ff565b03925af1801561198457619b16575b5050619a07565b81619b2c92903d1061197d5761196d818361096a565b503880619b0f565b619b4a90833d851161197d5761196d818361096a565b5038619ae1565b9295909493619b5f8161073e565b801561a1bf575b619b6f8161073e565b60018114619d5b575b80619b8460029261073e565b14619b9157505050505050565b80619b9d60039261073e565b14619ba857806131be565b15619c9c57600d54619c179350619bc7906001600160a01b031661184d565b600f546040516323b872dd60e01b8082523360048301526001600160a01b03909216602482015268052663ccab1e1c00006044820152602095909391928691859190829060009082906064820190565b03925af1918215611984576132b6938693619c7f575b50600d54619c43906001600160a01b031661184d565b6040519182523360048301526001600160a01b039092166024820152674563918244f40000604482015292839190829060009082906064820190565b619c9590843d861161197d5761196d818361096a565b5038619c2d565b600e54619cb1906001600160a01b031661184d565b600f546001600160a01b03169190619cc88561244f565b6040516323b872dd60e01b8082523360048301526001600160a01b0395909516602482015260448101919091526020959093918690859060649082906000905af19283156119845761340d948794619d3e575b50600e546000906133da90619d38906001600160a01b031661184d565b9361245f565b619d5490853d871161197d5761196d818361096a565b5038619d1b565b619d648261073e565b60028214619f9d575b619d768261073e565b60038203619b78578215619eac57600d54619d99906001600160a01b031661184d565b600f546040516323b872dd60e01b8082523360048301526001600160a01b039092166024820152680ad09e6100f26e00006044820152909291602091908290829060649082906000905af1801561198457619e8f575b50600d548190619e07906001600160a01b031661184d565b6040519485523360048601526001600160a01b03881660248601526791b77e5e5d9a00006044860152849060649082906000905af192831561198457600293619e71575b50505b619e6a6132e68784612ccc8c600052600c602052604060002090565b9050619b78565b81619e8792903d1061197d5761196d818361096a565b503880619e4b565b619ea590823d841161197d5761196d818361096a565b5038619def565b600e54619ec1906001600160a01b031661184d565b600f546001600160a01b03169190619ed88861242f565b6040516323b872dd60e01b8082523360048301526001600160a01b039590951660248201526044810191909152926020918290859060649082906000905af190811561198457619f48948392619f80575b50600e54619f3f906001600160a01b031661184d565b61365c8b61243f565b03925af192831561198457600293619f62575b5050619e4e565b81619f7892903d1061197d5761196d818361096a565b503880619f5b565b619f9690833d851161197d5761196d818361096a565b5038619f29565b821561a0d257600d5461a00b90619fbc906001600160a01b031661184d565b600f546040516323b872dd60e01b8082523360048301526001600160a01b03909216602482015268062e115c008a88000060448201526020939192909184918391829060009082906064820190565b03925af180156119845761a0b5575b50600d54829061a032906001600160a01b031661184d565b6040519283523360048401526001600160a01b03881660248401526753444835ec5800006044840152829060649082906000905af180156119845761a097575b50505b61a0926137da866002612ccc8b600052600c602052604060002090565b619d6d565b8161a0ad92903d1061197d5761196d818361096a565b50388061a072565b61a0cb90833d851161197d5761196d818361096a565b503861a01a565b600e5461a0e7906001600160a01b031661184d565b600f546001600160a01b031661a0fc8861240f565b6040516323b872dd60e01b8082523360048301526001600160a01b0393909316602482015260448101919091526020929091908390839060649082906000905af19081156119845761a16e92849261a1a2575b50600e5461a165906001600160a01b031661184d565b6138c38b61241f565b03925af180156119845761a184575b505061a075565b8161a19a92903d1061197d5761196d818361096a565b50388061a17d565b61a1b890833d851161197d5761196d818361096a565b503861a14f565b61a1c88261073e565b6001821461a63a575b61a1da8261073e565b6002821461a417575b61a1ec8261073e565b60038203619b6657821561a32a57600d5461a2629061a213906001600160a01b031661184d565b600f546040516323b872dd60e01b8082523360048301526001600160a01b0390921660248201526819bff2ff57968c000060448201526020939192909184918391829060009082906064820190565b03925af180156119845761a30d575b50600d54829061a289906001600160a01b031661184d565b6040519283523360048401526001600160a01b038816602484015268015af1d78b58c400006044840152829060649082906000905af180156119845761a2ef575b50505b61a2ea6132e6866002612ccc8b600052600c602052604060002090565b619b66565b8161a30592903d1061197d5761196d818361096a565b50388061a2ca565b61a32390833d851161197d5761196d818361096a565b503861a271565b600e5461a33f906001600160a01b031661184d565b600f546001600160a01b031661a354886123ef565b6040516323b872dd60e01b8082523360048301526001600160a01b0393909316602482015260448101919091526020929091908390839060649082906000905af19081156119845761a3c692849261a3fa575b50600e5461a3bd906001600160a01b031661184d565b6138c38b6123ff565b03925af180156119845761a3dc575b505061a2cd565b8161a3f292903d1061197d5761196d818361096a565b50388061a3d5565b61a41090833d851161197d5761196d818361096a565b503861a3a7565b821561a54d57600d5461a4859061a436906001600160a01b031661184d565b600f546040516323b872dd60e01b8082523360048301526001600160a01b03909216602482015268151d65fa572ea6000060448201526020939192909184918391829060009082906064820190565b03925af180156119845761a530575b50600d54829061a4ac906001600160a01b031661184d565b6040519283523360048401526001600160a01b038816602484015268011c7ea162e78200006044840152829060649082906000905af180156119845761a512575b50505b61a50d6137da866002612ccc8b600052600c602052604060002090565b61a1e3565b8161a52892903d1061197d5761196d818361096a565b50388061a4ed565b61a54690833d851161197d5761196d818361096a565b503861a494565b600e5461a562906001600160a01b031661184d565b600f546001600160a01b031661a577886123cf565b6040516323b872dd60e01b8082523360048301526001600160a01b0393909316602482015260448101919091526020929091908390839060649082906000905af19081156119845761a5e992849261a61d575b50600e5461a5e0906001600160a01b031661184d565b6138c38b6123df565b03925af180156119845761a5ff575b505061a4f0565b8161a61592903d1061197d5761196d818361096a565b50388061a5f8565b61a63390833d851161197d5761196d818361096a565b503861a5ca565b821561a76f57600d5461a6a89061a659906001600160a01b031661184d565b600f546040516323b872dd60e01b8082523360048301526001600160a01b039092166024820152680ff7022dac108a000060448201526020939192909184918391829060009082906064820190565b03925af180156119845761a752575b50600d54829061a6cf906001600160a01b031661184d565b6040519283523360048401526001600160a01b038816602484015267d71b0fe0a28e00006044840152829060649082906000905af180156119845761a734575b50505b61a72f611700866002612ccc8b600052600c602052604060002090565b61a1d1565b8161a74a92903d1061197d5761196d818361096a565b50388061a70f565b61a76890833d851161197d5761196d818361096a565b503861a6b7565b600e5461a784906001600160a01b031661184d565b600f546001600160a01b031661a799886123af565b6040516323b872dd60e01b8082523360048301526001600160a01b0393909316602482015260448101919091526020929091908390839060649082906000905af19081156119845761a80b92849261a83f575b50600e5461a802906001600160a01b031661184d565b6138c38b6123bf565b03925af180156119845761a821575b505061a712565b8161a83792903d1061197d5761196d818361096a565b50388061a81a565b61a85590833d851161197d5761196d818361096a565b503861a7ec565b60ff601b9116019060ff821161160657565b6001600160a01b03909216918215158061a8fe575b1561020e5781516040101561159c576060820151602092600092909161a8e09061a8af9060f81c61a85c565b9260408682015191015190604051948594859094939260ff6060936080840197845216602083015260408201520152565b838052039060015afa15611984576000516001600160a01b03161490565b50604182511461a88356fea2646970667358221220e48894d198ee50e71cdb7af9776a8598920b97a1059786439f66dae66c80d95364736f6c63430008150033",
    "linkReferences": {}
  },
  "methodIdentifiers": {
    "USDT()": "c54e44eb",
    "Zeb()": "15f2e205",
    "approve(address,uint256)": "095ea7b3",
    "balanceOf(address)": "70a08231",
    "fund()": "b60d4288",
    "getApproved(uint256)": "081812fc",
    "getEquipmentLevel(uint256)": "2aaf0779",
    "isApprovedForAll(address,address)": "e985e9c5",
    "multipleUpgrade(bool,uint256,uint8[],uint8[],address,uint256,uint256,address,bytes)": "836f8c71",
    "name()": "06fdde03",
    "nextTokenID()": "f101e481",
    "nodeInfo(uint256)": "b02439ae",
    "owner()": "8da5cb5b",
    "ownerOf(uint256)": "6352211e",
    "publicMint(uint8[],uint256[],address,uint256,uint256,address,bytes)": "fce551eb",
    "renounceOwnership()": "715018a6",
    "safeTransferFrom(address,address,uint256)": "42842e0e",
    "safeTransferFrom(address,address,uint256,bytes)": "b88d4fde",
    "setApprovalForAll(address,bool)": "a22cb465",
    "signer()": "238ac933",
    "supportsInterface(bytes4)": "01ffc9a7",
    "symbol()": "95d89b41",
    "tokenByIndex(uint256)": "4f6ccce7",
    "tokenOfOwnerByIndex(address,uint256)": "2f745c59",
    "tokenURI(uint256)": "c87b56dd",
    "totalSupply()": "18160ddd",
    "transferFrom(address,address,uint256)": "23b872dd",
    "transferOwnership(address)": "f2fde38b",
    "transferable()": "92ff0d31",
    "upgrade(bool,uint256,uint8,uint8,address,uint256,uint256,address,bytes)": "3e605dc1"
  },
  "id": 37
}