{
  "abi": [
    {
      "inputs": [
        {
          "internalType": "string",
          "name": "name",
          "type": "string"
        },
        {
          "internalType": "string",
          "name": "symbol",
          "type": "string"
        },
        {
          "internalType": "address",
          "name": "_usdt",
          "type": "address"
        },
        {
          "internalType": "address",
          "name": "_zeb",
          "type": "address"
        },
        {
          "internalType": "address",
          "name": "_fund",
          "type": "address"
        },
        {
          "internalType": "address",
          "name": "_signer",
          "type": "address"
        }
      ],
      "stateMutability": "nonpayable",
      "type": "constructor"
    },
    {
      "inputs": [],
      "name": "ERC721EnumerableForbiddenBatchMint",
      "type": "error"
    },
    {
      "inputs": [
        {
          "internalType": "address",
          "name": "sender",
          "type": "address"
        },
        {
          "internalType": "uint256",
          "name": "tokenId",
          "type": "uint256"
        },
        {
          "internalType": "address",
          "name": "owner",
          "type": "address"
        }
      ],
      "name": "ERC721IncorrectOwner",
      "type": "error"
    },
    {
      "inputs": [
        {
          "internalType": "address",
          "name": "operator",
          "type": "address"
        },
        {
          "internalType": "uint256",
          "name": "tokenId",
          "type": "uint256"
        }
      ],
      "name": "ERC721InsufficientApproval",
      "type": "error"
    },
    {
      "inputs": [
        {
          "internalType": "address",
          "name": "approver",
          "type": "address"
        }
      ],
      "name": "ERC721InvalidApprover",
      "type": "error"
    },
    {
      "inputs": [
        {
          "internalType": "address",
          "name": "operator",
          "type": "address"
        }
      ],
      "name": "ERC721InvalidOperator",
      "type": "error"
    },
    {
      "inputs": [
        {
          "internalType": "address",
          "name": "owner",
          "type": "address"
        }
      ],
      "name": "ERC721InvalidOwner",
      "type": "error"
    },
    {
      "inputs": [
        {
          "internalType": "address",
          "name": "receiver",
          "type": "address"
        }
      ],
      "name": "ERC721InvalidReceiver",
      "type": "error"
    },
    {
      "inputs": [
        {
          "internalType": "address",
          "name": "sender",
          "type": "address"
        }
      ],
      "name": "ERC721InvalidSender",
      "type": "error"
    },
    {
      "inputs": [
        {
          "internalType": "uint256",
          "name": "tokenId",
          "type": "uint256"
        }
      ],
      "name": "ERC721NonexistentToken",
      "type": "error"
    },
    {
      "inputs": [
        {
          "internalType": "address",
          "name": "owner",
          "type": "address"
        },
        {
          "internalType": "uint256",
          "name": "index",
          "type": "uint256"
        }
      ],
      "name": "ERC721OutOfBoundsIndex",
      "type": "error"
    },
    {
      "inputs": [
        {
          "internalType": "address",
          "name": "owner",
          "type": "address"
        }
      ],
      "name": "OwnableInvalidOwner",
      "type": "error"
    },
    {
      "inputs": [
        {
          "internalType": "address",
          "name": "account",
          "type": "address"
        }
      ],
      "name": "OwnableUnauthorizedAccount",
      "type": "error"
    },
    {
      "anonymous": false,
      "inputs": [
        {
          "indexed": true,
          "internalType": "address",
          "name": "owner",
          "type": "address"
        },
        {
          "indexed": true,
          "internalType": "address",
          "name": "approved",
          "type": "address"
        },
        {
          "indexed": true,
          "internalType": "uint256",
          "name": "tokenId",
          "type": "uint256"
        }
      ],
      "name": "Approval",
      "type": "event"
    },
    {
      "anonymous": false,
      "inputs": [
        {
          "indexed": true,
          "internalType": "address",
          "name": "owner",
          "type": "address"
        },
        {
          "indexed": true,
          "internalType": "address",
          "name": "operator",
          "type": "address"
        },
        {
          "indexed": false,
          "internalType": "bool",
          "name": "approved",
          "type": "bool"
        }
      ],
      "name": "ApprovalForAll",
      "type": "event"
    },
    {
      "anonymous": false,
      "inputs": [
        {
          "indexed": true,
          "internalType": "address",
          "name": "previousOwner",
          "type": "address"
        },
        {
          "indexed": true,
          "internalType": "address",
          "name": "newOwner",
          "type": "address"
        }
      ],
      "name": "OwnershipTransferred",
      "type": "event"
    },
    {
      "anonymous": false,
      "inputs": [
        {
          "indexed": true,
          "internalType": "address",
          "name": "from",
          "type": "address"
        },
        {
          "indexed": true,
          "internalType": "address",
          "name": "to",
          "type": "address"
        },
        {
          "indexed": true,
          "internalType": "uint256",
          "name": "tokenId",
          "type": "uint256"
        }
      ],
      "name": "Transfer",
      "type": "event"
    },
    {
      "anonymous": false,
      "inputs": [
        {
          "indexed": true,
          "internalType": "uint256",
          "name": "tokenId",
          "type": "uint256"
        },
        {
          "indexed": false,
          "internalType": "address",
          "name": "user",
          "type": "address"
        },
        {
          "indexed": false,
          "internalType": "uint256",
          "name": "amount",
          "type": "uint256"
        },
        {
          "indexed": false,
          "internalType": "address",
          "name": "inviter",
          "type": "address"
        },
        {
          "indexed": false,
          "internalType": "enum Node.MachineType",
          "name": "_MachineType",
          "type": "uint8"
        }
      ],
      "name": "mintEvent",
      "type": "event"
    },
    {
      "anonymous": false,
      "inputs": [
        {
          "indexed": true,
          "internalType": "uint256",
          "name": "tokenId",
          "type": "uint256"
        },
        {
          "indexed": false,
          "internalType": "address",
          "name": "inviter",
          "type": "address"
        },
        {
          "indexed": false,
          "internalType": "enum Node.EquipmentType",
          "name": "equipmentType",
          "type": "uint8"
        },
        {
          "indexed": false,
          "internalType": "enum Node.EquipmentLevel",
          "name": "equipmentLevel",
          "type": "uint8"
        },
        {
          "indexed": false,
          "internalType": "uint256",
          "name": "time",
          "type": "uint256"
        }
      ],
      "name": "upgradeEvent",
      "type": "event"
    },
    {
      "inputs": [],
      "name": "USDT",
      "outputs": [
        {
          "internalType": "contract IERC20",
          "name": "",
          "type": "address"
        }
      ],
      "stateMutability": "view",
      "type": "function"
    },
    {
      "inputs": [],
      "name": "Zeb",
      "outputs": [
        {
          "internalType": "contract IERC20",
          "name": "",
          "type": "address"
        }
      ],
      "stateMutability": "view",
      "type": "function"
    },
    {
      "inputs": [
        {
          "internalType": "address",
          "name": "to",
          "type": "address"
        },
        {
          "internalType": "uint256",
          "name": "tokenId",
          "type": "uint256"
        }
      ],
      "name": "approve",
      "outputs": [],
      "stateMutability": "nonpayable",
      "type": "function"
    },
    {
      "inputs": [
        {
          "internalType": "address",
          "name": "owner",
          "type": "address"
        }
      ],
      "name": "balanceOf",
      "outputs": [
        {
          "internalType": "uint256",
          "name": "",
          "type": "uint256"
        }
      ],
      "stateMutability": "view",
      "type": "function"
    },
    {
      "inputs": [],
      "name": "fund",
      "outputs": [
        {
          "internalType": "address",
          "name": "",
          "type": "address"
        }
      ],
      "stateMutability": "view",
      "type": "function"
    },
    {
      "inputs": [
        {
          "internalType": "uint256",
          "name": "tokenId",
          "type": "uint256"
        }
      ],
      "name": "getApproved",
      "outputs": [
        {
          "internalType": "address",
          "name": "",
          "type": "address"
        }
      ],
      "stateMutability": "view",
      "type": "function"
    },
    {
      "inputs": [
        {
          "internalType": "uint256",
          "name": "tokenId",
          "type": "uint256"
        }
      ],
      "name": "getEquipmentLevel",
      "outputs": [
        {
          "internalType": "enum Node.EquipmentLevel[]",
          "name": "",
          "type": "uint8[]"
        }
      ],
      "stateMutability": "view",
      "type": "function"
    },
    {
      "inputs": [
        {
          "internalType": "address",
          "name": "owner",
          "type": "address"
        },
        {
          "internalType": "address",
          "name": "operator",
          "type": "address"
        }
      ],
      "name": "isApprovedForAll",
      "outputs": [
        {
          "internalType": "bool",
          "name": "",
          "type": "bool"
        }
      ],
      "stateMutability": "view",
      "type": "function"
    },
    {
      "inputs": [
        {
          "internalType": "bool",
          "name": "isUSDT",
          "type": "bool"
        },
        {
          "internalType": "uint256",
          "name": "tokenId",
          "type": "uint256"
        },
        {
          "internalType": "enum Node.EquipmentType[]",
          "name": "_equipmentType",
          "type": "uint8[]"
        },
        {
          "internalType": "enum Node.EquipmentLevel[]",
          "name": "_equipmentLevel",
          "type": "uint8[]"
        },
        {
          "internalType": "address",
          "name": "inviter",
          "type": "address"
        },
        {
          "internalType": "uint256",
          "name": "zebPrice",
          "type": "uint256"
        },
        {
          "internalType": "uint256",
          "name": "time",
          "type": "uint256"
        },
        {
          "internalType": "address",
          "name": "user",
          "type": "address"
        },
        {
          "internalType": "bytes",
          "name": "evidence",
          "type": "bytes"
        }
      ],
      "name": "multipleUpgrade",
      "outputs": [],
      "stateMutability": "nonpayable",
      "type": "function"
    },
    {
      "inputs": [],
      "name": "name",
      "outputs": [
        {
          "internalType": "string",
          "name": "",
          "type": "string"
        }
      ],
      "stateMutability": "view",
      "type": "function"
    },
    {
      "inputs": [],
      "name": "nextTokenID",
      "outputs": [
        {
          "internalType": "uint256",
          "name": "",
          "type": "uint256"
        }
      ],
      "stateMutability": "view",
      "type": "function"
    },
    {
      "inputs": [
        {
          "internalType": "uint256",
          "name": "",
          "type": "uint256"
        }
      ],
      "name": "nodeInfo",
      "outputs": [
        {
          "internalType": "enum Node.MachineType",
          "name": "MachineType",
          "type": "uint8"
        },
        {
          "internalType": "uint256",
          "name": "mintTime",
          "type": "uint256"
        },
        {
          "internalType": "uint256",
          "name": "unlockPeriod",
          "type": "uint256"
        },
        {
          "internalType": "uint256",
          "name": "totalToken",
          "type": "uint256"
        }
      ],
      "stateMutability": "view",
      "type": "function"
    },
    {
      "inputs": [],
      "name": "owner",
      "outputs": [
        {
          "internalType": "address",
          "name": "",
          "type": "address"
        }
      ],
      "stateMutability": "view",
      "type": "function"
    },
    {
      "inputs": [
        {
          "internalType": "uint256",
          "name": "tokenId",
          "type": "uint256"
        }
      ],
      "name": "ownerOf",
      "outputs": [
        {
          "internalType": "address",
          "name": "",
          "type": "address"
        }
      ],
      "stateMutability": "view",
      "type": "function"
    },
    {
      "inputs": [
        {
          "internalType": "enum Node.MachineType[]",
          "name": "_machineType",
          "type": "uint8[]"
        },
        {
          "internalType": "uint256[]",
          "name": "amount",
          "type": "uint256[]"
        },
        {
          "internalType": "address",
          "name": "inviter",
          "type": "address"
        },
        {
          "internalType": "uint256",
          "name": "discount",
          "type": "uint256"
        },
        {
          "internalType": "uint256",
          "name": "time",
          "type": "uint256"
        },
        {
          "internalType": "address",
          "name": "user",
          "type": "address"
        },
        {
          "internalType": "bytes",
          "name": "evidence",
          "type": "bytes"
        }
      ],
      "name": "publicMint",
      "outputs": [],
      "stateMutability": "nonpayable",
      "type": "function"
    },
    {
      "inputs": [],
      "name": "renounceOwnership",
      "outputs": [],
      "stateMutability": "nonpayable",
      "type": "function"
    },
    {
      "inputs": [
        {
          "internalType": "address",
          "name": "from",
          "type": "address"
        },
        {
          "internalType": "address",
          "name": "to",
          "type": "address"
        },
        {
          "internalType": "uint256",
          "name": "tokenId",
          "type": "uint256"
        }
      ],
      "name": "safeTransferFrom",
      "outputs": [],
      "stateMutability": "nonpayable",
      "type": "function"
    },
    {
      "inputs": [
        {
          "internalType": "address",
          "name": "from",
          "type": "address"
        },
        {
          "internalType": "address",
          "name": "to",
          "type": "address"
        },
        {
          "internalType": "uint256",
          "name": "tokenId",
          "type": "uint256"
        },
        {
          "internalType": "bytes",
          "name": "data",
          "type": "bytes"
        }
      ],
      "name": "safeTransferFrom",
      "outputs": [],
      "stateMutability": "nonpayable",
      "type": "function"
    },
    {
      "inputs": [
        {
          "internalType": "address",
          "name": "operator",
          "type": "address"
        },
        {
          "internalType": "bool",
          "name": "approved",
          "type": "bool"
        }
      ],
      "name": "setApprovalForAll",
      "outputs": [],
      "stateMutability": "nonpayable",
      "type": "function"
    },
    {
      "inputs": [],
      "name": "signer",
      "outputs": [
        {
          "internalType": "address",
          "name": "",
          "type": "address"
        }
      ],
      "stateMutability": "view",
      "type": "function"
    },
    {
      "inputs": [
        {
          "internalType": "bytes4",
          "name": "interfaceId",
          "type": "bytes4"
        }
      ],
      "name": "supportsInterface",
      "outputs": [
        {
          "internalType": "bool",
          "name": "",
          "type": "bool"
        }
      ],
      "stateMutability": "view",
      "type": "function"
    },
    {
      "inputs": [],
      "name": "symbol",
      "outputs": [
        {
          "internalType": "string",
          "name": "",
          "type": "string"
        }
      ],
      "stateMutability": "view",
      "type": "function"
    },
    {
      "inputs": [
        {
          "internalType": "uint256",
          "name": "index",
          "type": "uint256"
        }
      ],
      "name": "tokenByIndex",
      "outputs": [
        {
          "internalType": "uint256",
          "name": "",
          "type": "uint256"
        }
      ],
      "stateMutability": "view",
      "type": "function"
    },
    {
      "inputs": [
        {
          "internalType": "address",
          "name": "owner",
          "type": "address"
        },
        {
          "internalType": "uint256",
          "name": "index",
          "type": "uint256"
        }
      ],
      "name": "tokenOfOwnerByIndex",
      "outputs": [
        {
          "internalType": "uint256",
          "name": "",
          "type": "uint256"
        }
      ],
      "stateMutability": "view",
      "type": "function"
    },
    {
      "inputs": [
        {
          "internalType": "uint256",
          "name": "tokenID",
          "type": "uint256"
        }
      ],
      "name": "tokenURI",
      "outputs": [
        {
          "internalType": "string",
          "name": "",
          "type": "string"
        }
      ],
      "stateMutability": "view",
      "type": "function"
    },
    {
      "inputs": [],
      "name": "totalSupply",
      "outputs": [
        {
          "internalType": "uint256",
          "name": "",
          "type": "uint256"
        }
      ],
      "stateMutability": "view",
      "type": "function"
    },
    {
      "inputs": [
        {
          "internalType": "address",
          "name": "from",
          "type": "address"
        },
        {
          "internalType": "address",
          "name": "to",
          "type": "address"
        },
        {
          "internalType": "uint256",
          "name": "tokenId",
          "type": "uint256"
        }
      ],
      "name": "transferFrom",
      "outputs": [],
      "stateMutability": "nonpayable",
      "type": "function"
    },
    {
      "inputs": [
        {
          "internalType": "address",
          "name": "newOwner",
          "type": "address"
        }
      ],
      "name": "transferOwnership",
      "outputs": [],
      "stateMutability": "nonpayable",
      "type": "function"
    },
    {
      "inputs": [],
      "name": "transferable",
      "outputs": [
        {
          "internalType": "bool",
          "name": "",
          "type": "bool"
        }
      ],
      "stateMutability": "view",
      "type": "function"
    },
    {
      "inputs": [
        {
          "internalType": "bool",
          "name": "isUSDT",
          "type": "bool"
        },
        {
          "internalType": "uint256",
          "name": "tokenId",
          "type": "uint256"
        },
        {
          "internalType": "enum Node.EquipmentType",
          "name": "_equipmentType",
          "type": "uint8"
        },
        {
          "internalType": "enum Node.EquipmentLevel",
          "name": "_equipmentLevel",
          "type": "uint8"
        },
        {
          "internalType": "address",
          "name": "inviter",
          "type": "address"
        },
        {
          "internalType": "uint256",
          "name": "zebPrice",
          "type": "uint256"
        },
        {
          "internalType": "uint256",
          "name": "time",
          "type": "uint256"
        },
        {
          "internalType": "address",
          "name": "user",
          "type": "address"
        },
        {
          "internalType": "bytes",
          "name": "evidence",
          "type": "bytes"
        }
      ],
      "name": "upgrade",
      "outputs": [],
      "stateMutability": "nonpayable",
      "type": "function"
    }
  ],
  "bytecode": {
    "object": "0x60806040523462000401576200aba5803803806200001d8162000406565b92833981019060c081830312620004015780516001600160401b03908181116200040157836200004f9184016200042c565b602093848401519083821162000401576200006c9185016200042c565b906200007b604085016200049e565b906200008a606086016200049e565b93620000a760a06200009f608089016200049e565b97016200049e565b93825190828211620003eb576000988954926001958685811c95168015620003e0575b83861014620003cc578190601f9586811162000376575b5083908d87841160011462000312579262000306575b5050600019600383901b1c191690861b178a555b8151938411620002f25784548581811c91168015620002e7575b82821014620002d35790818486959493116200027c575b5080928411600114620002145750899262000208575b5050600019600383901b1c191690821b1790555b3315620001ef57600a549360018060a01b03809481809460018060a01b031998338a821617600a556040519a7f8be0079c531659141344cd1fd0a4f28419497f9722a3daafe3b4186f6b6457e0843393169180a31687600d541617600d551685600e541617600e551683600f541617600f551690601054161760105561a6f19081620004b48239f35b604051631e4fbdf760e01b815260048101869052602490fd5b01519050388062000152565b9190859450601f198416858c52838c20938c905b82821062000262575050841162000248575b505050811b01905562000166565b015160001960f88460031b161c191690553880806200023a565b848401518655889790950194938401939081019062000228565b9091929350858b52818b208480870160051c820192848810620002c9575b9187968992969594930160051c01915b828110620002ba5750506200013c565b8d8155879650889101620002aa565b925081926200029a565b634e487b7160e01b8b52602260045260248bfd5b90607f169062000125565b634e487b7160e01b8a52604160045260248afd5b015190503880620000f7565b9190899450601f198416838052868420935b878282106200035f575050841162000345575b505050811b018a556200010b565b015160001960f88460031b161c1916905538808062000337565b8385015186558c9790950194938401930162000324565b9091508c8052838d208680850160051c820192868610620003c2575b859493910160051c9091019089908f5b838210620003b357505050620000e1565b81558594508a91018f620003a2565b9250819262000392565b634e487b7160e01b8c52602260045260248cfd5b94607f1694620000ca565b634e487b7160e01b600052604160045260246000fd5b600080fd5b6040519190601f01601f191682016001600160401b03811183821017620003eb57604052565b919080601f84011215620004015782516001600160401b038111620003eb5760209062000462601f8201601f1916830162000406565b92818452828287010111620004015760005b8181106200048a57508260009394955001015290565b858101830151848201840152820162000474565b51906001600160a01b0382168203620004015756fe6080604052600436101561001257600080fd5b60003560e01c806301ffc9a7146101f757806306fdde03146101f2578063081812fc146101ed578063095ea7b3146101e857806315f2e205146101e357806318160ddd146101de578063238ac933146101d957806323b872dd146101d45780632aaf0779146101cf5780632f745c59146101ca5780633e605dc1146101c557806342842e0e146101c05780634f6ccce7146101bb5780636352211e146101b657806370a08231146101b1578063715018a6146101ac578063836f8c71146101a75780638da5cb5b146101a257806392ff0d311461019d57806395d89b4114610198578063a22cb46514610193578063b02439ae1461018e578063b60d428814610189578063b88d4fde14610184578063c54e44eb1461017f578063c87b56dd1461017a578063e985e9c514610175578063f101e48114610170578063f2fde38b1461016b5763fce551eb1461016657600080fd5b611134565b611048565b61102a565b610fcd565b610f72565b610f49565b610efa565b610ed1565b610e77565b610dae565b610ced565b610cc7565b610c9e565b610c08565b610ac3565b610a98565b610a68565b6109f8565b6109be565b61093d565b6107da565b6106ef565b61065f565b610601565b6105e3565b6105ba565b6104bb565b6103f9565b6102ef565b610213565b6001600160e01b031981160361020e57565b600080fd5b3461020e57602036600319011261020e576020600435610232816101fc565b63ffffffff60e01b1663780e9d6360e01b8114908115610258575b506040519015158152f35b6380ac58cd60e01b81149150811561028a575b8115610279575b503861024d565b6301ffc9a760e01b14905038610272565b635b5e139f60e01b8114915061026b565b919082519283825260005b8481106102c7575050826000602080949584010152601f8019910116010190565b6020818301810151848301820152016102a6565b9060206102ec92818152019061029b565b90565b3461020e576000806003193601126103f657604051908080549060019180831c928082169283156103ec575b60209283861085146103d85785885260208801949081156103b7575060011461035f575b61035b8761034f818903826108b8565b604051918291826102db565b0390f35b6000805294509192917f290decd9548b62a8d60345a988386fc84ba6bc95484008f6362f93160ef3e5635b8386106103a6575050509101905061034f8261035b388061033f565b80548587015294820194810161038a565b60ff191685525050505090151560051b01905061034f8261035b388061033f565b634e487b7160e01b82526022600452602482fd5b93607f169361031b565b80fd5b3461020e57602036600319011261020e5760043561041681611514565b506000526004602052602060018060a01b0360406000205416604051908152f35b600435906001600160a01b038216820361020e57565b608435906001600160a01b038216820361020e57565b60e435906001600160a01b038216820361020e57565b602435906001600160a01b038216820361020e57565b604435906001600160a01b038216820361020e57565b60a435906001600160a01b038216820361020e57565b3461020e57604036600319011261020e576104d4610437565b602435906104e182611514565b331515806105a7575b80610579575b6105615761055f926105409181906001600160a01b0385811691167f8c5be1e5ebec7d5bd14f71427d1e84f3dd0314c0f7b2291e5b200ac8c7c3b925600080a46000526004602052604060002090565b80546001600160a01b0319166001600160a01b03909216919091179055565b005b60405163a9fbf51f60e01b8152336004820152602490fd5b506001600160a01b038116600090815260056020908152604080832033845290915290205460ff16156104f0565b506001600160a01b0381163314156104ea565b3461020e57600036600319011261020e57600e546040516001600160a01b039091168152602090f35b3461020e57600036600319011261020e576020600854604051908152f35b3461020e57600036600319011261020e576010546040516001600160a01b039091168152602090f35b606090600319011261020e576001600160a01b0390600435828116810361020e5791602435908116810361020e579060443590565b3461020e5761055f6106703661062a565b91611279565b634e487b7160e01b600052602160045260246000fd5b6004111561069657565b610676565b9060048210156106965752565b6020908160408183019282815285518094520193019160005b8281106106cf575050505090565b909192938280826106e3600194895161069b565b019501939291016106c1565b3461020e57602036600319011261020e5761035b6004356107ce6107c561079460026107b46040519561072187610897565b60038752606036602089013780600052600c6020528260406000200160008052602052610765610757604060002060ff90541690565b610760896118b3565b6118f4565b6107a461079b6107948561078385600052600c602052604060002090565b016001600052602052604060002090565b5460ff1690565b610760896118c0565b600052600c602052604060002090565b016002600052602052604060002090565b610760836118d0565b604051918291826106a8565b3461020e57604036600319011261020e576107f3610437565b6024359061080081611240565b8210156108335760018060a01b031660005260066020526040600020906000526020526020604060002054604051908152f35b60405163295f44f760e21b81526001600160a01b039190911660048201526024810191909152604490fd5b8015150361020e57565b600435906108758261085e565b565b6003111561020e57565b634e487b7160e01b600052604160045260246000fd5b6080810190811067ffffffffffffffff8211176108b357604052565b610881565b90601f8019910116810190811067ffffffffffffffff8211176108b357604052565b67ffffffffffffffff81116108b357601f01601f191660200190565b81601f8201121561020e5780359061090d826108da565b9261091b60405194856108b8565b8284526020838301011161020e57816000926020809301838601378301015290565b3461020e5761012036600319011261020e5760043561095b8161085e565b6044359061096882610877565b60643590600482101561020e5761097d61044d565b92610986610463565b91610104359467ffffffffffffffff861161020e576109ac61055f9636906004016108f6565b9460c4359360a4359360243590612987565b3461020e576109cc3661062a565b60405191602083019383851067ffffffffffffffff8611176108b35761055f94604052600084526113eb565b3461020e57602036600319011261020e57600435600854811015610a495760209060086000527ff3f7a9fe364faab93b216da50a3214154f22a0a2b415b23a84c8169e8b636ee30154604051908152f35b6044906040519063295f44f760e21b8252600060048301526024820152fd5b3461020e57602036600319011261020e576020610a86600435611514565b6040516001600160a01b039091168152f35b3461020e57602036600319011261020e576020610abb610ab6610437565b611240565b604051908152f35b3461020e576000806003193601126103f657610add611214565b600a80546001600160a01b0319811690915581906001600160a01b03167f8be0079c531659141344cd1fd0a4f28419497f9722a3daafe3b4186f6b6457e08280a380f35b67ffffffffffffffff81116108b35760051b60200190565b9080601f8301121561020e576020908235610b5381610b21565b93610b6160405195866108b8565b818552838086019260051b82010192831161020e578301905b828210610b88575050505090565b8380918335610b9681610877565b815201910190610b7a565b9080601f8301121561020e576020908235610bbb81610b21565b93610bc960405195866108b8565b818552838086019260051b82010192831161020e578301905b828210610bf0575050505090565b8135600481101561020e578152908301908301610be2565b3461020e5761012036600319011261020e57610c22610868565b67ffffffffffffffff9060443582811161020e57610c44903690600401610b39565b9060643583811161020e57610c5d903690600401610ba1565b91610c6661044d565b91610c6f610463565b926101043595861161020e57610c8c61055f9636906004016108f6565b9460c4359360a4359360243590612867565b3461020e57600036600319011261020e57600a546040516001600160a01b039091168152602090f35b3461020e57600036600319011261020e57602060ff600a5460a01c166040519015158152f35b3461020e576000806003193601126103f6576040519080600190815480831c92808216928315610da4575b60209283861085146103d85785885260208801949081156103b75750600114610d4b5761035b8761034f818903826108b8565b600160005294509192917fb10e2d527612073b26eecdfd717e6a320cf44b4afac2b0732d9fcbe2b7fa0cf65b838610610d93575050509101905061034f8261035b388061033f565b805485870152948201948101610d77565b93607f1693610d18565b3461020e57604036600319011261020e57610dc7610437565b602435610dd38161085e565b6001600160a01b038216918215610e54573360009081526005602090815260408083206001600160a01b0390941683529290522060ff1981541660ff831515161790557f17307eab39ab6107e8899845ad3d59bd9653f200f220920489ca2b5937696c3160405180610e4f339482919091602081019215159052565b0390a3005b604051630b61174360e31b815260048101849052602490fd5b6003111561069657565b3461020e57602036600319011261020e57600435600052600c6020526080604060002060ff81541690600381015490600560048201549101549160405193610ebe81610e6d565b8452602084015260408301526060820152f35b3461020e57600036600319011261020e57600f546040516001600160a01b039091168152602090f35b3461020e57608036600319011261020e57610f13610437565b610f1b610479565b6064359167ffffffffffffffff831161020e57610f3f61055f9336906004016108f6565b91604435916113eb565b3461020e57600036600319011261020e57600d546040516001600160a01b039091168152602090f35b3461020e5760208060031936011261020e5760408051828193825260605190818184015260005b828110610fb85750506000828201840152601f01601f19168101030190f35b60808101518682018601528593508101610f99565b3461020e57604036600319011261020e57602060ff61101e610fed610437565b610ff5610479565b6001600160a01b0391821660009081526005865260408082209290931681526020919091522090565b54166040519015158152f35b3461020e57600036600319011261020e576020600b54604051908152f35b3461020e57602036600319011261020e57611061610437565b611069611214565b6001600160a01b039081169081156110bd57600a54826bffffffffffffffffffffffff60a01b821617600a55167f8be0079c531659141344cd1fd0a4f28419497f9722a3daafe3b4186f6b6457e0600080a3005b604051631e4fbdf760e01b815260006004820152602490fd5b9080601f8301121561020e5760209082356110f081610b21565b936110fe60405195866108b8565b818552838086019260051b82010192831161020e578301905b828210611125575050505090565b81358152908301908301611117565b3461020e5760e036600319011261020e5767ffffffffffffffff60043581811161020e573660238201121561020e57806004013561117181610b21565b9161117f60405193846108b8565b81835260209160248385019160051b8301019136831161020e57602401905b8282106111fb57858560243582811161020e576111bf9036906004016110d6565b906111c861048f565b916111d16104a5565b9160c43594851161020e576111ed61055f9536906004016108f6565b93608435926064359261190f565b838091833561120981610877565b81520191019061119e565b600a546001600160a01b0316330361122857565b60405163118cdaa760e01b8152336004820152602490fd5b6001600160a01b0316801561126057600052600360205260406000205490565b6040516322718ad960e21b815260006004820152602490fd5b6001600160a01b038281169290919083156113d25760008581526002602052604090205485906001600160a01b031694336113c2575b8486169586158015611394575b6001600160a01b0385166000908152600360205260409020600181540190556112f385610540866000526002602052604060002090565b8383897fddf252ad1be2c89b69c2b068fc378daa952ba7f163c4a11628f55a4df523b3ef600080a415611374575061132a8261179c565b8503611364575b5050169182820361134157505050565b60649350604051926364283d7b60e01b8452600484015260248301526044820152fd5b61136d91611755565b3884611331565b82828803611384575b505061132a565b61138d916117fe565b388261137d565b61139d846114f0565b6001600160a01b038216600090815260036020526040902080546000190190556112bc565b6113cd8233886115e7565b6112af565b604051633250574960e11b815260006004820152602490fd5b919290926113fa818585611279565b833b611407575b50505050565b61142c916020916040519384928392630a85bd0160e11b978885523360048601611564565b038160006001600160a01b0388165af1600091816114c0575b5061148457826114536115a1565b805191908261147d57604051633250574960e11b81526001600160a01b0383166004820152602490fd5b9050602001fd5b6001600160e01b0319160361149d575038808080611401565b604051633250574960e11b81526001600160a01b03919091166004820152602490fd5b6114e291925060203d81116114e9575b6114da81836108b8565b81019061154f565b9038611445565b503d6114d0565b611504906000526004602052604060002090565b80546001600160a01b0319169055565b6000818152600260205260409020546001600160a01b0316908115611537575090565b60249060405190637e27328960e01b82526004820152fd5b9081602091031261020e57516102ec816101fc565b6001600160a01b0391821681529116602082015260408101919091526080606082018190526102ec9291019061029b565b6040513d6000823e3d90fd5b3d156115cc573d906115b2826108da565b916115c060405193846108b8565b82523d6000602084013e565b606090565b634e487b7160e01b600052603260045260246000fd5b6001600160a01b03908282168015159081611652575b50156116095750505050565b1661162757604051637e27328960e01b815260048101839052602490fd5b60405163177e802f60e01b81526001600160a01b039190911660048201526024810191909152604490fd5b8284168082149250821561168a575b508115611670575b50386115fd565b905084600052600460205282604060002054161438611669565b909150600052600560205260ff6116b78560406000209060018060a01b0316600052602052604060002090565b54169038611661565b634e487b7160e01b600052601160045260246000fd5b6301da9bff198101919082116116e857565b6116c0565b630163f4ff198101919082116116e857565b62ed4dff198101919082116116e857565b63013c67ff198101919082116116e857565b629e33ff198101919082116116e857565b6276a6ff198101919082116116e857565b624f19ff198101919082116116e857565b9061175f82611240565b6000198101929083116116e8576001600160a01b031660009081526006602090815260408083208584528252808320849055928252600790522055565b60085481600052600960205280604060002055680100000000000000008110156108b35760018101806008558110156117f95760086000527ff3f7a9fe364faab93b216da50a3214154f22a0a2b415b23a84c8169e8b636ee30155565b6115d1565b9061180882611240565b600092828452602090600782528461183960409586832054868103611855575b506000526007602052604060002090565b556001600160a01b031684526006815282842091845252812055565b6001600160a01b03851680855260068088528986208987528852898620549186528752888520828652875288852081905560009081526007602052604090205538611828565b906118a581610e6d565b600052602052604060002090565b8051156117f95760200190565b8051600110156117f95760400190565b8051600210156117f95760600190565b80518210156117f95760209160051b010190565b60048210156106965752565b60001981146116e85760010190565b9594959390919360005b8151811015611ea7578761192d82846118e0565b5161193781610e6d565b61194183876118e0565b516119554261194f88611eb1565b11611ec0565b6119696001600160a01b0384163314611eff565b604080516001600160a01b03808c1660208084019182528385018d9052606084018b9052919096166080830152919460009492916119da916119d5918f91906119bf8160a081015b03601f1981018352826108b8565b5190206010546001600160a01b0316919061a620565b611f3a565b6119e382610e6d565b898215611d8d575b506119f582610e6d565b60018214611c73575b611a0782610e6d565b60028214611b03575b5060005b828110611a2e575050505050611a2990611900565b611919565b611afe908b7f2e6d97f41fb5e22a6bdffd32e22b194939ba2aa3ef13f7cfd9d8bc1b3bdae1a484600b5492611a6a611a6585611900565b600b55565b611a74843361273b565b611a9182611a8c86600052600c602052604060002090565b6126ef565b426003611aa886600052600c602052604060002090565b0155611acd6004611ac386600052600c602052604060002090565b0163076a70009055565b886005611ae486600052600c602052604060002090565b0155611af68a519283928a3385612707565b0390a2611900565b611a14565b600d80549294509091611b26906001600160a01b03165b6001600160a01b031690565b600f546001600160a01b0316611b57611b4f8d611b4a611b4589611fd9565b611f93565b611ff3565b612710900490565b87516323b872dd60e01b808252336004808401919091526001600160a01b039490941660248301526044820192909252909390928590849060649082906000905af1918215611c515760008f938f93611bc9611b1a611b4f928b99611bdb95611c56575b50546001600160a01b031690565b94611b4a611bd68c611fd9565b611fa9565b8a51968752339287019283526001600160a01b039094166020830152604082019390935284928391829060600103925af18015611c5157611c23575b5050610c809138611a10565b81611c4292903d10611c4a575b611c3a81836108b8565b8101906126da565b503880611c17565b503d611c30565b611595565b611c6c908b3d8d11611c4a57611c3a81836108b8565b5038611bbb565b600d805491945090611c8d906001600160a01b0316611b1a565b600f546001600160a01b0316611cac611b4f8d611b4a611b4589611fbf565b87516323b872dd60e01b808252336004808401919091526001600160a01b039490941660248301526044820192909252909390928790849060649082906000905af1918215611c515760008f938f93611d1d611b1a611b4f928d99611d2a95611c565750546001600160a01b031690565b94611b4a611bd68c611fbf565b8a51968752339287019283526001600160a01b039094166020830152604082019390935284928391829060600103925af18015611c5157611d70575b506107d0926119fe565b611d8690843d8611611c4a57611c3a81836108b8565b5038611d66565b600d805492959192611da7906001600160a01b0316611b1a565b600f54611dc890611b4f906001600160a01b031695611b4a611b458a611f79565b88516323b872dd60e01b808252336004808401919091526001600160a01b0397909716602483015260448201929092529094909188908390606490829088905af1938415611c51578f938f93611e36611b1a611e4393611b4f938e9a611c565750546001600160a01b031690565b94611b4a611bd68c611f79565b8a51968752339287019283526001600160a01b039094166020830152604082019390935284928391829060600103925af18015611c5157611e8a575b506104b092896119eb565b611ea090843d8611611c4a57611c3a81836108b8565b5038611e7f565b5050505050505050565b9061012c82018092116116e857565b15611ec757565b60405162461bcd60e51b815260206004820152601060248201526f195d9a59195b98d948195e1c1a5c995960821b6044820152606490fd5b15611f0657565b60405162461bcd60e51b815260206004820152600c60248201526b34b73b30b634b2103ab9b2b960a11b6044820152606490fd5b15611f4157565b60405162461bcd60e51b815260206004820152601060248201526f696e76616c69642065766964656e636560801b6044820152606490fd5b9069010f0cf064dd5920000091808302928304036116e857565b90605f820291808304605f14901517156116e857565b906005820291808304600514901517156116e857565b906901b1ae4d6e2ef500000091808302928304036116e857565b9069028a857425466f80000091808302928304036116e857565b818102929181159184041417156116e857565b8015612017576507040e3ad4000490565b634e487b7160e01b600052601260045260246000fd5b801561201757645e877c5c000490565b80156120175765095b7a6345000490565b801561201757647e13ea47000490565b801561201757650b3b755cec000490565b80156120175764975704e4000490565b8015612017576502cedd573b000490565b8015612017576425d5c139000490565b80156120175765050df4d037000490565b80156120175764441a5bcd000490565b80156120175765023f1778fc000490565b801561201757641e449a94000490565b80156120175765043530e399000490565b8015612017576438b1bb23000490565b80156120175765059dbaae76000490565b801561201757644bab8272000490565b8015612017576506bd466af4000490565b801561201757645acdcfbc000490565b8015612017576501af519abd000490565b8015612017576416b373ef000490565b8015612017576503085fb021000490565b8015612017576428dc9d7b000490565b8015612017576501590e1564000490565b801561201757641229298c000490565b8015612017576501e8d3f3a3000490565b8015612017576419ba5031000490565b80156120175765028c820459000490565b801561201757642257af63000490565b80156120175765030f026b9e000490565b80156120175764293605aa000490565b80156120175764c2a57ba8000490565b801561201757640a3e9ab8000490565b80156120175765015d7a9262000490565b801561201757641264c456000490565b801561201757649ad516ba000490565b801561201757640826299e000490565b80156120175765033d758c09000490565b801561201757642ba7def3000490565b801561201757650451f2100c000490565b801561201757643a352944000490565b80156120175765052f2279a8000490565b8015612017576445d964b8000490565b80156120175765014bc89e6a000490565b801561201757641176592e000490565b80156120175765025535e9f2000490565b801561201757641f6ea086000490565b8015612017576501096d4b88000490565b801561201757640df84758000490565b8015612017576501f1aced9f000490565b801561201757641a3185c5000490565b801561201757650297913cd4000490565b8015612017576422ecb25c000490565b80156120175765031c47e298000490565b8015612017576429e8d608000490565b80156120175764c711f8a6000490565b801561201757640a7a3582000490565b801561201757650166538c5e000490565b8015612017576412dbf9ea000490565b801561201757649f4193b8000490565b801561201757640861c468000490565b80156120175764e19ce69a000490565b801561201757640bdfd63e000490565b80156120175765012cd13378000490565b801561201757640fd51da8000490565b80156120175765016889cadd000490565b8015612017576412f9c74f000490565b801561201757645879c3d8000490565b8015612017576404a817c8000490565b8015612017576446c7cfe0000490565b8015612017576403b9aca0000490565b80156120175764fc27d48e000490565b801561201757640d4576fa000490565b801561201757650150351b68000490565b8015612017576411b1f3f8000490565b801561201757650194c6acc9000490565b80156120175764154dd333000490565b801561201757646388fc53000490565b80156120175764053d1ac1000490565b80156120175764b329c62f000490565b80156120175764096dfcf5000490565b801561201757644fa0c9dc000490565b801561201757640430e234000490565b80156120175764966899bc000490565b8015612017576407ea8ed4000490565b80156120175764c9483725000490565b801561201757640a9802e7000490565b80156120175764f34eda92000490565b801561201757640cce4166000490565b801561201757643bb89765000490565b801561201757640324a9a7000490565b801561201757646c61f64f000490565b8015612017576405b45055000490565b8015612017576430a95eea000490565b80156120175764028fa6ae000490565b8015612017576444919161000490565b80156120175764039bdf3b000490565b801561201757645ab00257000490565b8015612017576404c5e52d000490565b801561201757646e9834ce000490565b8015612017576405d21dba000490565b801561201757641a8aedf4000490565b801561201757640165a0bc000490565b801561201757642e73206b000490565b801561201757640271d949000490565b80156120175764161e70f6000490565b80156120175764012a05f2000490565b9081602091031261020e57516102ec8161085e565b906126f981610e6d565b60ff80198354169116179055565b6001600160a01b039182168152602081019290925290911660408201526080810192919060609061273783610e6d565b0152565b6001600160a01b039181831680156113d2576000828152600260205260409020546001600160a01b031693841680159485159586612839575b6001600160a01b0386166000908152600360205260409020600181540190556127ab86610540876000526002602052604060002090565b8484847fddf252ad1be2c89b69c2b068fc378daa952ba7f163c4a11628f55a4df523b3ef600080a41561281957506127e28361179c565b03612809575b50506127f057565b6040516339e3563760e11b815260006004820152602490fd5b61281291611755565b38806127e8565b83838303612829575b50506127e2565b612832916117fe565b3883612822565b612842856114f0565b6001600160a01b03821660009081526003602052604090208054600019019055612774565b96949290989795939160005b81518110156128c65761288681836118e0565b519061289182610e6d565b61289b81856118e0565b51916004831015610696578989898f898f976128bc968d936128c19a612987565b611900565b612873565b5050505050505050509050565b156128da57565b60405162461bcd60e51b815260206004820152600e60248201526d27232a1d103737ba1037bbb732b960911b6044820152606490fd5b1561291757565b60405162461bcd60e51b81526020600482015260146024820152734e46543a206e6f74207570677261646561626c6560601b6044820152606490fd5b6001600160a01b03909116815260808101949392606092612737919061297881610e6d565b6020840152604083019061069b565b9097928286612a7d83612a65610794858f7f45d556c1b08304cc1ae1a44d5caa6e8dc835b9f6134ff8bed268dfd5cc71bda69f859f612a5f9c9f9d612b2d9f9e8f926119bf6119d5946119b1612a34976129ea6129e386611eb1565b4210611ec0565b6129fe6001600160a01b0382163314611eff565b60408051602081019788526001600160a01b039485169181019190915260608101959095529091166080840152829060a0820190565b612a4a33612a44611b1a84611514565b146128d3565b60029a8b91600052600c602052604060002090565b0161189b565b612a6e8261068c565b612a778161068c565b10612910565b84612a956107948d600052600c602052604060002090565b612a9e81610e6d565b80612d80575050612aae82610e6d565b8a82612cf357612adb94612ad46107948589612a5f86600052600c602052604060002090565b9288619903565b612ae484610e6d565b83612b9c57612af28561068c565b60018503612b3257506004612b1187600052600c602052604060002090565b01612b1c8154611744565b90555b604051938493429285612953565b0390a2565b612b3b8561068c565b8403612b6a576004612b5787600052600c602052604060002090565b01612b628154611733565b90555b612b1f565b612b738461068c565b60038403612b1f576004612b9187600052600c602052604060002090565b01612b628154611722565b612ba584610e6d565b60018403612c3757612bb68561068c565b60018503612bd557506004612b9187600052600c602052604060002090565b612bde8561068c565b8403612c05576004612bfa87600052600c602052604060002090565b01612b6281546116ff565b612c0e8461068c565b60038403612b65576004612c2c87600052600c602052604060002090565b01612b628154611710565b612c4084610e6d565b808414612c4e575b50612b1f565b612c578561068c565b60018503612c8a57506004612c7687600052600c602052604060002090565b01612c8181546116ff565b90555b38612c48565b612c938561068c565b8403612cc1576004612caf87600052600c602052604060002090565b01612cba81546116ed565b9055612c84565b612cca8461068c565b60038403612c84576004612ce887600052600c602052604060002090565b01612cba81546116d6565b50612cfd82610e6d565b8a60018303612d3257612d2d94612d266107948589612a5f86600052600c602052604060002090565b9288618bf6565b612adb565b50612d3c82610e6d565b8a858314612d4f575b5050505050612adb565b612d7694612d6f6107948589612a5f86600052600c602052604060002090565b9288617ee8565b388585828a612d45565b612d8981610e6d565b60018103612e46575050612d9c82610e6d565b8a82612dc957612d2d94612dc26107948589612a5f86600052600c602052604060002090565b92886171da565b50612dd382610e6d565b8a60018303612e0357612d2d94612dfc6107948589612a5f86600052600c602052604060002090565b92886164cb565b50612e0d82610e6d565b8a858314612e1f575050505050612adb565b612d7694612e3f6107948589612a5f86600052600c602052604060002090565b92886157ba565b612e4f81610e6d565b14612e5e575b50505050612adb565b612e6782610e6d565b8a82612e9d57612e9494612e8d6107948589612a5f86600052600c602052604060002090565b9288614aab565b38858582612e55565b50612ea782610e6d565b8a60018303612edc57612ed794612ed06107948589612a5f86600052600c602052604060002090565b9288613d9a565b612e94565b50612ee682610e6d565b8a858314612ef9575b5050505050612e94565b612f2094612f196107948589612a5f86600052600c602052604060002090565b9288612f2a565b388585828a612eef565b9295909493612f388161068c565b80156136ec575b612f488161068c565b60018114613212575b80612f5d60029261068c565b14612f6b575b505050505050565b80612f7760039261068c565b14612f83575b80612f63565b156130dd57600d54612ff29350612fa2906001600160a01b0316611b1a565b600f546040516323b872dd60e01b8082523360048301526001600160a01b0390921660248201526885e622c9610ed800006044820152602095909391928691859190829060009082906064820190565b03925af1918215611c515761305b9386936130c0575b50600d5461301e906001600160a01b0316611b1a565b6040519182523360048301526001600160a01b03909216602482015268070c1cc73b00c80000604482015292839190829060009082906064820190565b03925af18015611c51576130989461308b94600293612a5f936130a2575b5050600052600c602052604060002090565b805460ff19166003179055565b3880808080612f7d565b816130b892903d10611c4a57611c3a81836108b8565b503880613079565b6130d690843d8611611c4a57611c3a81836108b8565b5038613008565b600e546130f2906001600160a01b0316611b1a565b600f546001600160a01b03169190613109856120c1565b6040516323b872dd60e01b8082523360048301526001600160a01b0395909516602482015260448101919091526020959093918690859060649082906000905af1928315611c51576131b29487946131f5575b50600e5460009061317f90613179906001600160a01b0316611b1a565b936120d2565b6040519485523360048601526001600160a01b039092166024850152604484019190915291938492839182906064820190565b03925af18015611c51576130989461308b94600293612a5f936131d7575b50506107a4565b816131ed92903d10611c4a57611c3a81836108b8565b5038806131d0565b61320b90853d8711611c4a57611c3a81836108b8565b503861315c565b61321b8261068c565b60028214613489575b61322d8261068c565b60038203612f5157821561336557600d54613250906001600160a01b0316611b1a565b600f546040516323b872dd60e01b8082523360048301526001600160a01b03909216602482015269012d45ce451a616600006044820152909291602091908290829060649082906000905af18015611c5157613348575b50600d5481906132bf906001600160a01b0316611b1a565b6040519485523360048601526001600160a01b0388166024860152680fdb40c044c1c200006044860152849060649082906000905af1928315611c515760029361332a575b50505b61332361308b8784612a5f8c600052600c602052604060002090565b9050612f51565b8161334092903d10611c4a57611c3a81836108b8565b503880613304565b61335e90823d8411611c4a57611c3a81836108b8565b50386132a7565b600e5461337a906001600160a01b0316611b1a565b600f546001600160a01b03169190613391886120a0565b6040516323b872dd60e01b8082523360048301526001600160a01b039590951660248201526044810191909152926020918290859060649082906000905af1908115611c515761343494839261346c575b50600e546133f8906001600160a01b0316611b1a565b6134018b6120b1565b6040519283523360048401526001600160a01b038a16602484015260448301529094859190829060009082906064820190565b03925af1928315611c515760029361344e575b5050613307565b8161346492903d10611c4a57611c3a81836108b8565b503880613447565b61348290833d8511611c4a57611c3a81836108b8565b50386133e2565b82156135cc57600d546134f7906134a8906001600160a01b0316611b1a565b600f546040516323b872dd60e01b8082523360048301526001600160a01b03909216602482015268a75fab7bb9528e000060448201526020939192909184918391829060009082906064820190565b03925af18015611c51576135af575b50600d54829061351e906001600160a01b0316611b1a565b6040519283523360048401526001600160a01b03881660248401526808cf23f909c0fa00006044840152829060649082906000905af18015611c5157613591575b50505b61358c61357f866002612a5f8b600052600c602052604060002090565b805460ff19166002179055565b613224565b816135a792903d10611c4a57611c3a81836108b8565b50388061355f565b6135c590833d8511611c4a57611c3a81836108b8565b5038613506565b600e546135e1906001600160a01b0316611b1a565b600f546001600160a01b03166135f68861207f565b6040516323b872dd60e01b8082523360048301526001600160a01b0393909316602482015260448101919091526020929091908390839060649082906000905af1908115611c515761369b9284926136cf575b50600e5461365f906001600160a01b0316611b1a565b6136688b612090565b6040519283523360048401526001600160a01b038a16602484015260448301529092839190829060009082906064820190565b03925af18015611c51576136b1575b5050613562565b816136c792903d10611c4a57611c3a81836108b8565b5038806136aa565b6136e590833d8511611c4a57611c3a81836108b8565b5038613649565b6136f58261068c565b60018214613b69575b6137078261068c565b60028214613945575b6137198261068c565b60038203612f3f57821561385857600d5461379090613740906001600160a01b0316611b1a565b600f546040516323b872dd60e01b8082523360048301526001600160a01b03909216602482015269029d7eadeee54a38000060448201526020939192909184918391829060009082906064820190565b03925af18015611c515761383b575b50600d5482906137b7906001600160a01b0316611b1a565b6040519283523360048401526001600160a01b038816602484015268233c8fe42703e800006044840152829060649082906000905af18015611c515761381d575b50505b61381861308b866002612a5f8b600052600c602052604060002090565b612f3f565b8161383392903d10611c4a57611c3a81836108b8565b5038806137f8565b61385190833d8511611c4a57611c3a81836108b8565b503861379f565b600e5461386d906001600160a01b0316611b1a565b600f546001600160a01b03166138828861205e565b6040516323b872dd60e01b8082523360048301526001600160a01b0393909316602482015260448101919091526020929091908390839060649082906000905af1908115611c51576138f4928492613928575b50600e546138eb906001600160a01b0316611b1a565b6136688b61206f565b03925af18015611c515761390a575b50506137fb565b8161392092903d10611c4a57611c3a81836108b8565b503880613903565b61393e90833d8511611c4a57611c3a81836108b8565b50386138d5565b8215613a7c57600d546139b490613964906001600160a01b0316611b1a565b600f546040516323b872dd60e01b8082523360048301526001600160a01b03909216602482015269022dbd9eaf30d672000060448201526020939192909184918391829060009082906064820190565b03925af18015611c5157613a5f575b50600d5482906139db906001600160a01b0316611b1a565b6040519283523360048401526001600160a01b0388166024840152681d5ad27502920600006044840152829060649082906000905af18015611c5157613a41575b50505b613a3c61357f866002612a5f8b600052600c602052604060002090565b613710565b81613a5792903d10611c4a57611c3a81836108b8565b503880613a1c565b613a7590833d8511611c4a57611c3a81836108b8565b50386139c3565b600e54613a91906001600160a01b0316611b1a565b600f546001600160a01b0316613aa68861203d565b6040516323b872dd60e01b8082523360048301526001600160a01b0393909316602482015260448101919091526020929091908390839060649082906000905af1908115611c5157613b18928492613b4c575b50600e54613b0f906001600160a01b0316611b1a565b6136688b61204e565b03925af18015611c5157613b2e575b5050613a1f565b81613b4492903d10611c4a57611c3a81836108b8565b503880613b27565b613b6290833d8511611c4a57611c3a81836108b8565b5038613af9565b8215613cad57600d54613bd890613b88906001600160a01b0316611b1a565b600f546040516323b872dd60e01b8082523360048301526001600160a01b0390921660248201526901a22d415179f348000060448201526020939192909184918391829060009082906064820190565b03925af18015611c5157613c90575b50600d548290613bff906001600160a01b0316611b1a565b6040519283523360048401526001600160a01b038816602484015268160261c0eb789800006044840152829060649082906000905af18015611c5157613c72575b50505b613c6d613c60866002612a5f8b600052600c602052604060002090565b805460ff19166001179055565b6136fe565b81613c8892903d10611c4a57611c3a81836108b8565b503880613c40565b613ca690833d8511611c4a57611c3a81836108b8565b5038613be7565b600e54613cc2906001600160a01b0316611b1a565b600f546001600160a01b0316613cd788612006565b6040516323b872dd60e01b8082523360048301526001600160a01b0393909316602482015260448101919091526020929091908390839060649082906000905af1908115611c5157613d49928492613d7d575b50600e54613d40906001600160a01b0316611b1a565b6136688b61202d565b03925af18015611c5157613d5f575b5050613c43565b81613d7592903d10611c4a57611c3a81836108b8565b503880613d58565b613d9390833d8511611c4a57611c3a81836108b8565b5038613d2a565b9295909493613da88161068c565b801561440b575b613db88161068c565b60018114613fa5575b80613dcd60029261068c565b14613dda57505050505050565b80613de660039261068c565b14613df15780612f63565b15613ee657600d54613e609350613e10906001600160a01b0316611b1a565b600f546040516323b872dd60e01b8082523360048301526001600160a01b039092166024820152685056e1ac0708e800006044820152602095909391928691859190829060009082906064820190565b03925af1918215611c515761305b938693613ec9575b50600d54613e8c906001600160a01b0316611b1a565b6040519182523360048301526001600160a01b03909216602482015268043a77aabd00780000604482015292839190829060009082906064820190565b613edf90843d8611611c4a57611c3a81836108b8565b5038613e76565b600e54613efb906001600160a01b0316611b1a565b600f546001600160a01b03169190613f1285612187565b6040516323b872dd60e01b8082523360048301526001600160a01b0395909516602482015260448101919091526020959093918690859060649082906000905af1928315611c51576131b2948794613f88575b50600e5460009061317f90613f82906001600160a01b0316611b1a565b93612198565b613f9e90853d8711611c4a57611c3a81836108b8565b5038613f65565b613fae8261068c565b600282146141e8575b613fc08261068c565b60038203613dc15782156140f757600d54613fe3906001600160a01b0316611b1a565b600f546040516323b872dd60e01b8082523360048301526001600160a01b03909216602482015268b4c37bc30fd40a00006044820152909291602091908290829060649082906000905af18015611c51576140da575b50600d548190614051906001600160a01b0316611b1a565b6040519485523360048601526001600160a01b03881660248601526809838d4029410e00006044860152849060649082906000905af1928315611c51576002936140bc575b50505b6140b561308b8784612a5f8c600052600c602052604060002090565b9050613dc1565b816140d292903d10611c4a57611c3a81836108b8565b503880614096565b6140f090823d8411611c4a57611c3a81836108b8565b5038614039565b600e5461410c906001600160a01b0316611b1a565b600f546001600160a01b0316919061412388612166565b6040516323b872dd60e01b8082523360048301526001600160a01b039590951660248201526044810191909152926020918290859060649082906000905af1908115611c51576141939483926141cb575b50600e5461418a906001600160a01b0316611b1a565b6134018b612177565b03925af1928315611c51576002936141ad575b5050614099565b816141c392903d10611c4a57611c3a81836108b8565b5038806141a6565b6141e190833d8511611c4a57611c3a81836108b8565b5038614174565b821561431e57600d5461425690614207906001600160a01b0316611b1a565b600f546040516323b872dd60e01b8082523360048301526001600160a01b03909216602482015268646c9a1708cb22000060448201526020939192909184918391829060009082906064820190565b03925af18015611c5157614301575b50600d54829061427d906001600160a01b0316611b1a565b6040519283523360048401526001600160a01b038816602484015268054915956c409600006044840152829060649082906000905af18015611c51576142e3575b50505b6142de61357f866002612a5f8b600052600c602052604060002090565b613fb7565b816142f992903d10611c4a57611c3a81836108b8565b5038806142be565b61431790833d8511611c4a57611c3a81836108b8565b5038614265565b600e54614333906001600160a01b0316611b1a565b600f546001600160a01b031661434888612145565b6040516323b872dd60e01b8082523360048301526001600160a01b0393909316602482015260448101919091526020929091908390839060649082906000905af1908115611c51576143ba9284926143ee575b50600e546143b1906001600160a01b0316611b1a565b6136688b612156565b03925af18015611c51576143d0575b50506142c1565b816143e692903d10611c4a57611c3a81836108b8565b5038806143c9565b61440490833d8511611c4a57611c3a81836108b8565b503861439b565b6144148261068c565b60018214614888575b6144268261068c565b60028214614664575b6144388261068c565b60038203613daf57821561457757600d546144af9061445f906001600160a01b0316611b1a565b600f546040516323b872dd60e01b8082523360048301526001600160a01b039092166024820152690191b2685c232c88000060448201526020939192909184918391829060009082906064820190565b03925af18015611c515761455a575b50600d5482906144d6906001600160a01b0316611b1a565b6040519283523360048401526001600160a01b03881660248401526815245655b1025800006044840152829060649082906000905af18015611c515761453c575b50505b61453761308b866002612a5f8b600052600c602052604060002090565b613daf565b8161455292903d10611c4a57611c3a81836108b8565b503880614517565b61457090833d8511611c4a57611c3a81836108b8565b50386144be565b600e5461458c906001600160a01b0316611b1a565b600f546001600160a01b03166145a188612124565b6040516323b872dd60e01b8082523360048301526001600160a01b0393909316602482015260448101919091526020929091908390839060649082906000905af1908115611c5157614613928492614647575b50600e5461460a906001600160a01b0316611b1a565b6136688b612135565b03925af18015611c5157614629575b505061451a565b8161463f92903d10611c4a57611c3a81836108b8565b503880614622565b61465d90833d8511611c4a57611c3a81836108b8565b50386145f4565b821561479b57600d546146d390614683906001600160a01b0316611b1a565b600f546040516323b872dd60e01b8082523360048301526001600160a01b03909216602482015269014ebf56f772a51c000060448201526020939192909184918391829060009082906064820190565b03925af18015611c515761477e575b50600d5482906146fa906001600160a01b0316611b1a565b6040519283523360048401526001600160a01b038816602484015268119e47f21381f400006044840152829060649082906000905af18015611c5157614760575b50505b61475b61357f866002612a5f8b600052600c602052604060002090565b61442f565b8161477692903d10611c4a57611c3a81836108b8565b50388061473b565b61479490833d8511611c4a57611c3a81836108b8565b50386146e2565b600e546147b0906001600160a01b0316611b1a565b600f546001600160a01b03166147c588612103565b6040516323b872dd60e01b8082523360048301526001600160a01b0393909316602482015260448101919091526020929091908390839060649082906000905af1908115611c515761483792849261486b575b50600e5461482e906001600160a01b0316611b1a565b6136688b612114565b03925af18015611c515761484d575b505061473e565b8161486392903d10611c4a57611c3a81836108b8565b503880614846565b61488190833d8511611c4a57611c3a81836108b8565b5038614818565b82156149be57600d546148f6906148a7906001600160a01b0316611b1a565b600f546040516323b872dd60e01b8082523360048301526001600160a01b03909216602482015268facd95d5c0a0ba000060448201526020939192909184918391829060009082906064820190565b03925af18015611c51576149a1575b50600d54829061491d906001600160a01b0316611b1a565b6040519283523360048401526001600160a01b0388166024840152680d333dc7e1b79e00006044840152829060649082906000905af18015611c5157614983575b50505b61497e613c60866002612a5f8b600052600c602052604060002090565b61441d565b8161499992903d10611c4a57611c3a81836108b8565b50388061495e565b6149b790833d8511611c4a57611c3a81836108b8565b5038614905565b600e546149d3906001600160a01b0316611b1a565b600f546001600160a01b03166149e8886120e2565b6040516323b872dd60e01b8082523360048301526001600160a01b0393909316602482015260448101919091526020929091908390839060649082906000905af1908115611c5157614a5a928492614a8e575b50600e54614a51906001600160a01b0316611b1a565b6136688b6120f3565b03925af18015611c5157614a70575b5050614961565b81614a8692903d10611c4a57611c3a81836108b8565b503880614a69565b614aa490833d8511611c4a57611c3a81836108b8565b5038614a3b565b9295909493614ab98161068c565b801561511c575b614ac98161068c565b60018114614cb6575b80614ade60029261068c565b14614aeb57505050505050565b80614af760039261068c565b14614b025780612f63565b15614bf757600d54614b719350614b21906001600160a01b0316611b1a565b600f546040516323b872dd60e01b8082523360048301526001600160a01b03909216602482015268240cba98add2c400006044820152602095909391928691859190829060009082906064820190565b03925af1918215611c515761305b938693614bda575b50600d54614b9d906001600160a01b0316611b1a565b6040519182523360048301526001600160a01b0390921660248201526801e5b8fa8fe2ac0000604482015292839190829060009082906064820190565b614bf090843d8611611c4a57611c3a81836108b8565b5038614b87565b600e54614c0c906001600160a01b0316611b1a565b600f546001600160a01b03169190614c238561224c565b6040516323b872dd60e01b8082523360048301526001600160a01b0395909516602482015260448101919091526020959093918690859060649082906000905af1928315611c51576131b2948794614c99575b50600e5460009061317f90614c93906001600160a01b0316611b1a565b9361225c565b614caf90853d8711611c4a57611c3a81836108b8565b5038614c76565b614cbf8261068c565b60028214614ef9575b614cd18261068c565b60038203614ad2578215614e0857600d54614cf4906001600160a01b0316611b1a565b600f546040516323b872dd60e01b8082523360048301526001600160a01b03909216602482015268515e8f3b5c755400006044820152909291602091908290829060649082906000905af18015611c5157614deb575b50600d548190614d62906001600160a01b0316611b1a565b6040519485523360048601526001600160a01b0388166024860152680448586170a7dc00006044860152849060649082906000905af1928315611c5157600293614dcd575b50505b614dc661308b8784612a5f8c600052600c602052604060002090565b9050614ad2565b81614de392903d10611c4a57611c3a81836108b8565b503880614da7565b614e0190823d8411611c4a57611c3a81836108b8565b5038614d4a565b600e54614e1d906001600160a01b0316611b1a565b600f546001600160a01b03169190614e348861222b565b6040516323b872dd60e01b8082523360048301526001600160a01b039590951660248201526044810191909152926020918290859060649082906000905af1908115611c5157614ea4948392614edc575b50600e54614e9b906001600160a01b0316611b1a565b6134018b61223c565b03925af1928315611c5157600293614ebe575b5050614daa565b81614ed492903d10611c4a57611c3a81836108b8565b503880614eb7565b614ef290833d8511611c4a57611c3a81836108b8565b5038614e85565b821561502f57600d54614f6790614f18906001600160a01b0316611b1a565b600f546040516323b872dd60e01b8082523360048301526001600160a01b039092166024820152682d51d4a2aea290000060448201526020939192909184918391829060009082906064820190565b03925af18015611c5157615012575b50600d548290614f8e906001600160a01b0316611b1a565b6040519283523360048401526001600160a01b03881660248401526802629f66e0c53000006044840152829060649082906000905af18015611c5157614ff4575b50505b614fef61357f866002612a5f8b600052600c602052604060002090565b614cc8565b8161500a92903d10611c4a57611c3a81836108b8565b503880614fcf565b61502890833d8511611c4a57611c3a81836108b8565b5038614f76565b600e54615044906001600160a01b0316611b1a565b600f546001600160a01b03166150598861220b565b6040516323b872dd60e01b8082523360048301526001600160a01b0393909316602482015260448101919091526020929091908390839060649082906000905af1908115611c51576150cb9284926150ff575b50600e546150c2906001600160a01b0316611b1a565b6136688b61221b565b03925af18015611c51576150e1575b5050614fd2565b816150f792903d10611c4a57611c3a81836108b8565b5038806150da565b61511590833d8511611c4a57611c3a81836108b8565b50386150ac565b6151258261068c565b60018214615597575b6151378261068c565b60028214615374575b6151498261068c565b60038203614ac057821561528757600d546151bf90615170906001600160a01b0316611b1a565b600f546040516323b872dd60e01b8082523360048301526001600160a01b03909216602482015268b64f001a0ff6ac000060448201526020939192909184918391829060009082906064820190565b03925af18015611c515761526a575b50600d5482906151e6906001600160a01b0316611b1a565b6040519283523360048401526001600160a01b03881660248401526809985e5236bc2400006044840152829060649082906000905af18015611c515761524c575b50505b61524761308b866002612a5f8b600052600c602052604060002090565b614ac0565b8161526292903d10611c4a57611c3a81836108b8565b503880615227565b61528090833d8511611c4a57611c3a81836108b8565b50386151ce565b600e5461529c906001600160a01b0316611b1a565b600f546001600160a01b03166152b1886121ea565b6040516323b872dd60e01b8082523360048301526001600160a01b0393909316602482015260448101919091526020929091908390839060649082906000905af1908115611c5157615323928492615357575b50600e5461531a906001600160a01b0316611b1a565b6136688b6121fb565b03925af18015611c5157615339575b505061522a565b8161534f92903d10611c4a57611c3a81836108b8565b503880615332565b61536d90833d8511611c4a57611c3a81836108b8565b5038615304565b82156154aa57600d546153e290615393906001600160a01b0316611b1a565b600f546040516323b872dd60e01b8082523360048301526001600160a01b0390921660248201526897ec8015b7f83a000060448201526020939192909184918391829060009082906064820190565b03925af18015611c515761548d575b50600d548290615409906001600160a01b0316611b1a565b6040519283523360048401526001600160a01b03881660248401526807fef94482f21e00006044840152829060649082906000905af18015611c515761546f575b50505b61546a61357f866002612a5f8b600052600c602052604060002090565b615140565b8161548592903d10611c4a57611c3a81836108b8565b50388061544a565b6154a390833d8511611c4a57611c3a81836108b8565b50386153f1565b600e546154bf906001600160a01b0316611b1a565b600f546001600160a01b03166154d4886121c9565b6040516323b872dd60e01b8082523360048301526001600160a01b0393909316602482015260448101919091526020929091908390839060649082906000905af1908115611c515761554692849261557a575b50600e5461553d906001600160a01b0316611b1a565b6136688b6121da565b03925af18015611c515761555c575b505061544d565b8161557292903d10611c4a57611c3a81836108b8565b503880615555565b61559090833d8511611c4a57611c3a81836108b8565b5038615527565b82156156cd57600d54615605906155b6906001600160a01b0316611b1a565b600f546040516323b872dd60e01b8082523360048301526001600160a01b0390921660248201526871d06a5e5f4c9e000060448201526020939192909184918391829060009082906064820190565b03925af18015611c51576156b0575b50600d54829061562c906001600160a01b0316611b1a565b6040519283523360048401526001600160a01b03881660248401526805fd7edc8bc0aa00006044840152829060649082906000905af18015611c5157615692575b50505b61568d613c60866002612a5f8b600052600c602052604060002090565b61512e565b816156a892903d10611c4a57611c3a81836108b8565b50388061566d565b6156c690833d8511611c4a57611c3a81836108b8565b5038615614565b600e546156e2906001600160a01b0316611b1a565b600f546001600160a01b03166156f7886121a8565b6040516323b872dd60e01b8082523360048301526001600160a01b0393909316602482015260448101919091526020929091908390839060649082906000905af1908115611c515761576992849261579d575b50600e54615760906001600160a01b0316611b1a565b6136688b6121b9565b03925af18015611c515761577f575b5050615670565b8161579592903d10611c4a57611c3a81836108b8565b503880615778565b6157b390833d8511611c4a57611c3a81836108b8565b503861574a565b92959094936157c88161068c565b8015615e2b575b6157d88161068c565b600181146159c5575b806157ed60029261068c565b146157fa57505050505050565b8061580660039261068c565b146158115780612f63565b1561590657600d546158809350615830906001600160a01b0316611b1a565b600f546040516323b872dd60e01b8082523360048301526001600160a01b039092166024820152683dccad9805695000006044820152602095909391928691859190829060009082906064820190565b03925af1918215611c515761305b9386936158e9575b50600d546158ac906001600160a01b0316611b1a565b6040519182523360048301526001600160a01b039092166024820152680340aad21b3b700000604482015292839190829060009082906064820190565b6158ff90843d8611611c4a57611c3a81836108b8565b5038615896565b600e5461591b906001600160a01b0316611b1a565b600f546001600160a01b0316919061593285612311565b6040516323b872dd60e01b8082523360048301526001600160a01b0395909516602482015260448101919091526020959093918690859060649082906000905af1928315611c51576131b29487946159a8575b50600e5460009061317f906159a2906001600160a01b0316611b1a565b93612322565b6159be90853d8711611c4a57611c3a81836108b8565b5038615985565b6159ce8261068c565b60028214615c08575b6159e08261068c565b600382036157e1578215615b1757600d54615a03906001600160a01b0316611b1a565b600f546040516323b872dd60e01b8082523360048301526001600160a01b039092166024820152688b0c86960c2cf400006044820152909291602091908290829060649082906000905af18015611c5157615afa575b50600d548190615a71906001600160a01b0316611b1a565b6040519485523360048601526001600160a01b03881660248601526807518058bd45bc00006044860152849060649082906000905af1928315611c5157600293615adc575b50505b615ad561308b8784612a5f8c600052600c602052604060002090565b90506157e1565b81615af292903d10611c4a57611c3a81836108b8565b503880615ab6565b615b1090823d8411611c4a57611c3a81836108b8565b5038615a59565b600e54615b2c906001600160a01b0316611b1a565b600f546001600160a01b03169190615b43886122f0565b6040516323b872dd60e01b8082523360048301526001600160a01b039590951660248201526044810191909152926020918290859060649082906000905af1908115611c5157615bb3948392615beb575b50600e54615baa906001600160a01b0316611b1a565b6134018b612301565b03925af1928315611c5157600293615bcd575b5050615ab9565b81615be392903d10611c4a57611c3a81836108b8565b503880615bc6565b615c0190833d8511611c4a57611c3a81836108b8565b5038615b94565b8215615d3e57600d54615c7690615c27906001600160a01b0316611b1a565b600f546040516323b872dd60e01b8082523360048301526001600160a01b039092166024820152684d3fd8fe06c3a4000060448201526020939192909184918391829060009082906064820190565b03925af18015611c5157615d21575b50600d548290615c9d906001600160a01b0316611b1a565b6040519283523360048401526001600160a01b0388166024840152680410d586a20a4c00006044840152829060649082906000905af18015611c5157615d03575b50505b615cfe61357f866002612a5f8b600052600c602052604060002090565b6159d7565b81615d1992903d10611c4a57611c3a81836108b8565b503880615cde565b615d3790833d8511611c4a57611c3a81836108b8565b5038615c85565b600e54615d53906001600160a01b0316611b1a565b600f546001600160a01b0316615d68886122cf565b6040516323b872dd60e01b8082523360048301526001600160a01b0393909316602482015260448101919091526020929091908390839060649082906000905af1908115611c5157615dda928492615e0e575b50600e54615dd1906001600160a01b0316611b1a565b6136688b6122e0565b03925af18015611c5157615df0575b5050615ce1565b81615e0692903d10611c4a57611c3a81836108b8565b503880615de9565b615e2490833d8511611c4a57611c3a81836108b8565b5038615dbb565b615e348261068c565b600182146162a8575b615e468261068c565b60028214616084575b615e588261068c565b600382036157cf578215615f9757600d54615ecf90615e7f906001600160a01b0316611b1a565b600f546040516323b872dd60e01b8082523360048301526001600160a01b039092166024820152690134ff63f81b0e90000060448201526020939192909184918391829060009082906064820190565b03925af18015611c5157615f7a575b50600d548290615ef6906001600160a01b0316611b1a565b6040519283523360048401526001600160a01b0388166024840152681043561a88293000006044840152829060649082906000905af18015611c5157615f5c575b50505b615f5761308b866002612a5f8b600052600c602052604060002090565b6157cf565b81615f7292903d10611c4a57611c3a81836108b8565b503880615f37565b615f9090833d8511611c4a57611c3a81836108b8565b5038615ede565b600e54615fac906001600160a01b0316611b1a565b600f546001600160a01b0316615fc1886122ae565b6040516323b872dd60e01b8082523360048301526001600160a01b0393909316602482015260448101919091526020929091908390839060649082906000905af1908115611c5157616033928492616067575b50600e5461602a906001600160a01b0316611b1a565b6136688b6122bf565b03925af18015611c5157616049575b5050615f3a565b8161605f92903d10611c4a57611c3a81836108b8565b503880616042565b61607d90833d8511611c4a57611c3a81836108b8565b5038616014565b82156161bb57600d546160f3906160a3906001600160a01b0316611b1a565b600f546040516323b872dd60e01b8082523360048301526001600160a01b0390921660248201526901017f7df96be178000060448201526020939192909184918391829060009082906064820190565b03925af18015611c515761619e575b50600d54829061611a906001600160a01b0316611b1a565b6040519283523360048401526001600160a01b0388166024840152680d8d726b7177a800006044840152829060649082906000905af18015611c5157616180575b50505b61617b61357f866002612a5f8b600052600c602052604060002090565b615e4f565b8161619692903d10611c4a57611c3a81836108b8565b50388061615b565b6161b490833d8511611c4a57611c3a81836108b8565b5038616102565b600e546161d0906001600160a01b0316611b1a565b600f546001600160a01b03166161e58861228d565b6040516323b872dd60e01b8082523360048301526001600160a01b0393909316602482015260448101919091526020929091908390839060649082906000905af1908115611c515761625792849261628b575b50600e5461624e906001600160a01b0316611b1a565b6136688b61229e565b03925af18015611c515761626d575b505061615e565b8161628392903d10611c4a57611c3a81836108b8565b503880616266565b6162a190833d8511611c4a57611c3a81836108b8565b5038616238565b82156163de57600d54616316906162c7906001600160a01b0316611b1a565b600f546040516323b872dd60e01b8082523360048301526001600160a01b03909216602482015268c11f9e7b10e91a000060448201526020939192909184918391829060009082906064820190565b03925af18015611c51576163c1575b50600d54829061633d906001600160a01b0316611b1a565b6040519283523360048401526001600160a01b0388166024840152680a2a15d09519be00006044840152829060649082906000905af18015611c51576163a3575b50505b61639e613c60866002612a5f8b600052600c602052604060002090565b615e3d565b816163b992903d10611c4a57611c3a81836108b8565b50388061637e565b6163d790833d8511611c4a57611c3a81836108b8565b5038616325565b600e546163f3906001600160a01b0316611b1a565b600f546001600160a01b03166164088861226c565b6040516323b872dd60e01b8082523360048301526001600160a01b0393909316602482015260448101919091526020929091908390839060649082906000905af1908115611c515761647a9284926164ae575b50600e54616471906001600160a01b0316611b1a565b6136688b61227d565b03925af18015611c5157616490575b5050616381565b816164a692903d10611c4a57611c3a81836108b8565b503880616489565b6164c490833d8511611c4a57611c3a81836108b8565b503861645b565b92959094936164d98161068c565b8015616b3c575b6164e98161068c565b600181146166d6575b806164fe60029261068c565b1461650b57505050505050565b8061651760039261068c565b146165225780612f63565b1561661757600d546165919350616541906001600160a01b0316611b1a565b600f546040516323b872dd60e01b8082523360048301526001600160a01b0390921660248201526825146828033f3000006044820152602095909391928691859190829060009082906064820190565b03925af1918215611c515761305b9386936165fa575b50600d546165bd906001600160a01b0316611b1a565b6040519182523360048301526001600160a01b0390921660248201526801f399b1438a100000604482015292839190829060009082906064820190565b61661090843d8611611c4a57611c3a81836108b8565b50386165a7565b600e5461662c906001600160a01b0316611b1a565b600f546001600160a01b03169190616643856123d6565b6040516323b872dd60e01b8082523360048301526001600160a01b0395909516602482015260448101919091526020959093918690859060649082906000905af1928315611c51576131b29487946166b9575b50600e5460009061317f906166b3906001600160a01b0316611b1a565b936123e6565b6166cf90853d8711611c4a57611c3a81836108b8565b5038616696565b6166df8261068c565b60028214616919575b6166f18261068c565b600382036164f257821561682857600d54616714906001600160a01b0316611b1a565b600f546040516323b872dd60e01b8082523360048301526001600160a01b03909216602482015268536dea5a074e2c00006044820152909291602091908290829060649082906000905af18015611c515761680b575b50600d548190616782906001600160a01b0316611b1a565b6040519485523360048601526001600160a01b038816602486015268046419ced7f6a400006044860152849060649082906000905af1928315611c51576002936167ed575b50505b6167e661308b8784612a5f8c600052600c602052604060002090565b90506164f2565b8161680392903d10611c4a57611c3a81836108b8565b5038806167c7565b61682190823d8411611c4a57611c3a81836108b8565b503861676a565b600e5461683d906001600160a01b0316611b1a565b600f546001600160a01b03169190616854886123b5565b6040516323b872dd60e01b8082523360048301526001600160a01b039590951660248201526044810191909152926020918290859060649082906000905af1908115611c51576168c49483926168fc575b50600e546168bb906001600160a01b0316611b1a565b6134018b6123c6565b03925af1928315611c51576002936168de575b50506167ca565b816168f492903d10611c4a57611c3a81836108b8565b5038806168d7565b61691290833d8511611c4a57611c3a81836108b8565b50386168a5565b8215616a4f57600d5461698790616938906001600160a01b0316611b1a565b600f546040516323b872dd60e01b8082523360048301526001600160a01b039092166024820152682e598232040efc000060448201526020939192909184918391829060009082906064820190565b03925af18015611c5157616a32575b50600d5482906169ae906001600160a01b0316611b1a565b6040519283523360048401526001600160a01b0388166024840152680270801d946c9400006044840152829060649082906000905af18015611c5157616a14575b50505b616a0f61357f866002612a5f8b600052600c602052604060002090565b6166e8565b81616a2a92903d10611c4a57611c3a81836108b8565b5038806169ef565b616a4890833d8511611c4a57611c3a81836108b8565b5038616996565b600e54616a64906001600160a01b0316611b1a565b600f546001600160a01b0316616a7988612395565b6040516323b872dd60e01b8082523360048301526001600160a01b0393909316602482015260448101919091526020929091908390839060649082906000905af1908115611c5157616aeb928492616b1f575b50600e54616ae2906001600160a01b0316611b1a565b6136688b6123a5565b03925af18015611c5157616b01575b50506169f2565b81616b1792903d10611c4a57611c3a81836108b8565b503880616afa565b616b3590833d8511611c4a57611c3a81836108b8565b5038616acc565b616b458261068c565b60018214616fb7575b616b578261068c565b60028214616d94575b616b698261068c565b600382036164e0578215616ca757600d54616bdf90616b90906001600160a01b0316611b1a565b600f546040516323b872dd60e01b8082523360048301526001600160a01b03909216602482015268b96608c8103bf0000060448201526020939192909184918391829060009082906064820190565b03925af18015611c5157616c8a575b50600d548290616c06906001600160a01b0316611b1a565b6040519283523360048401526001600160a01b03881660248401526809c2007651b25000006044840152829060649082906000905af18015611c5157616c6c575b50505b616c6761308b866002612a5f8b600052600c602052604060002090565b6164e0565b81616c8292903d10611c4a57611c3a81836108b8565b503880616c47565b616ca090833d8511611c4a57611c3a81836108b8565b5038616bee565b600e54616cbc906001600160a01b0316611b1a565b600f546001600160a01b0316616cd188612374565b6040516323b872dd60e01b8082523360048301526001600160a01b0393909316602482015260448101919091526020929091908390839060649082906000905af1908115611c5157616d43928492616d77575b50600e54616d3a906001600160a01b0316611b1a565b6136688b612385565b03925af18015611c5157616d59575b5050616c4a565b81616d6f92903d10611c4a57611c3a81836108b8565b503880616d52565b616d8d90833d8511611c4a57611c3a81836108b8565b5038616d24565b8215616eca57600d54616e0290616db3906001600160a01b0316611b1a565b600f546040516323b872dd60e01b8082523360048301526001600160a01b039092166024820152689a7fb1fc0d8748000060448201526020939192909184918391829060009082906064820190565b03925af18015611c5157616ead575b50600d548290616e29906001600160a01b0316611b1a565b6040519283523360048401526001600160a01b0388166024840152680821ab0d44149800006044840152829060649082906000905af18015611c5157616e8f575b50505b616e8a61357f866002612a5f8b600052600c602052604060002090565b616b60565b81616ea592903d10611c4a57611c3a81836108b8565b503880616e6a565b616ec390833d8511611c4a57611c3a81836108b8565b5038616e11565b600e54616edf906001600160a01b0316611b1a565b600f546001600160a01b0316616ef488612353565b6040516323b872dd60e01b8082523360048301526001600160a01b0393909316602482015260448101919091526020929091908390839060649082906000905af1908115611c5157616f66928492616f9a575b50600e54616f5d906001600160a01b0316611b1a565b6136688b612364565b03925af18015611c5157616f7c575b5050616e6d565b81616f9292903d10611c4a57611c3a81836108b8565b503880616f75565b616fb090833d8511611c4a57611c3a81836108b8565b5038616f47565b82156170ed57600d5461702590616fd6906001600160a01b0316611b1a565b600f546040516323b872dd60e01b8082523360048301526001600160a01b0390921660248201526873dfc57d0a2576000060448201526020939192909184918391829060009082906064820190565b03925af18015611c51576170d0575b50600d54829061704c906001600160a01b0316611b1a565b6040519283523360048401526001600160a01b03881660248401526806194049f30f7200006044840152829060649082906000905af18015611c51576170b2575b50505b6170ad613c60866002612a5f8b600052600c602052604060002090565b616b4e565b816170c892903d10611c4a57611c3a81836108b8565b50388061708d565b6170e690833d8511611c4a57611c3a81836108b8565b5038617034565b600e54617102906001600160a01b0316611b1a565b600f546001600160a01b031661711788612332565b6040516323b872dd60e01b8082523360048301526001600160a01b0393909316602482015260448101919091526020929091908390839060649082906000905af1908115611c51576171899284926171bd575b50600e54617180906001600160a01b0316611b1a565b6136688b612343565b03925af18015611c515761719f575b5050617090565b816171b592903d10611c4a57611c3a81836108b8565b503880617198565b6171d390833d8511611c4a57611c3a81836108b8565b503861716a565b92959094936171e88161068c565b801561784a575b6171f88161068c565b600181146173e4575b8061720d60029261068c565b1461721a57505050505050565b8061722660039261068c565b146172315780612f63565b1561732557600d546172a09350617250906001600160a01b0316611b1a565b600f546040516323b872dd60e01b8082523360048301526001600160a01b03909216602482015268107ad8f556c6c000006044820152602095909391928691859190829060009082906064820190565b03925af1918215611c515761305b938693617308575b50600d546172cc906001600160a01b0316611b1a565b6040519182523360048301526001600160a01b03909216602482015267de0b6b3a76400000604482015292839190829060009082906064820190565b61731e90843d8611611c4a57611c3a81836108b8565b50386172b6565b600e5461733a906001600160a01b0316611b1a565b600f546001600160a01b0316919061735185612478565b6040516323b872dd60e01b8082523360048301526001600160a01b0395909516602482015260448101919091526020959093918690859060649082906000905af1928315611c51576131b29487946173c7575b50600e5460009061317f906173c1906001600160a01b0316611b1a565b93612488565b6173dd90853d8711611c4a57611c3a81836108b8565b50386173a4565b6173ed8261068c565b60028214617627575b6173ff8261068c565b6003820361720157821561753657600d54617422906001600160a01b0316611b1a565b600f546040516323b872dd60e01b8082523360048301526001600160a01b0390921660248201526825146828033f3000006044820152909291602091908290829060649082906000905af18015611c5157617519575b50600d548190617490906001600160a01b0316611b1a565b6040519485523360048601526001600160a01b03881660248601526801f399b1438a1000006044860152849060649082906000905af1928315611c51576002936174fb575b50505b6174f461308b8784612a5f8c600052600c602052604060002090565b9050617201565b8161751192903d10611c4a57611c3a81836108b8565b5038806174d5565b61752f90823d8411611c4a57611c3a81836108b8565b5038617478565b600e5461754b906001600160a01b0316611b1a565b600f546001600160a01b03169190617562886123d6565b6040516323b872dd60e01b8082523360048301526001600160a01b039590951660248201526044810191909152926020918290859060649082906000905af1908115611c51576175d294839261760a575b50600e546175c9906001600160a01b0316611b1a565b6134018b6123e6565b03925af1928315611c51576002936175ec575b50506174d8565b8161760292903d10611c4a57611c3a81836108b8565b5038806175e5565b61762090833d8511611c4a57611c3a81836108b8565b50386175b3565b821561775d57600d5461769590617646906001600160a01b0316611b1a565b600f546040516323b872dd60e01b8082523360048301526001600160a01b0390921660248201526814998f32ac7870000060448201526020939192909184918391829060009082906064820190565b03925af18015611c5157617740575b50600d5482906176bc906001600160a01b0316611b1a565b6040519283523360048401526001600160a01b03881660248401526801158e460913d000006044840152829060649082906000905af18015611c5157617722575b50505b61771d61357f866002612a5f8b600052600c602052604060002090565b6173f6565b8161773892903d10611c4a57611c3a81836108b8565b5038806176fd565b61775690833d8511611c4a57611c3a81836108b8565b50386176a4565b600e54617772906001600160a01b0316611b1a565b600f546001600160a01b031661778788612458565b6040516323b872dd60e01b8082523360048301526001600160a01b0393909316602482015260448101919091526020929091908390839060649082906000905af1908115611c51576177f992849261782d575b50600e546177f0906001600160a01b0316611b1a565b6136688b612468565b03925af18015611c515761780f575b5050617700565b8161782592903d10611c4a57611c3a81836108b8565b503880617808565b61784390833d8511611c4a57611c3a81836108b8565b50386177da565b6178538261068c565b60018214617cc5575b6178658261068c565b60028214617aa2575b6178778261068c565b600382036171ef5782156179b557600d546178ed9061789e906001600160a01b0316611b1a565b600f546040516323b872dd60e01b8082523360048301526001600160a01b0390921660248201526853f1c121b20462000060448201526020939192909184918391829060009082906064820190565b03925af18015611c5157617998575b50600d548290617914906001600160a01b0316611b1a565b6040519283523360048401526001600160a01b038816602484015268046b0a2a31ca5600006044840152829060649082906000905af18015611c515761797a575b50505b61797561308b866002612a5f8b600052600c602052604060002090565b6171ef565b8161799092903d10611c4a57611c3a81836108b8565b503880617955565b6179ae90833d8511611c4a57611c3a81836108b8565b50386178fc565b600e546179ca906001600160a01b0316611b1a565b600f546001600160a01b03166179df88612437565b6040516323b872dd60e01b8082523360048301526001600160a01b0393909316602482015260448101919091526020929091908390839060649082906000905af1908115611c5157617a51928492617a85575b50600e54617a48906001600160a01b0316611b1a565b6136688b612448565b03925af18015611c5157617a67575b5050617958565b81617a7d92903d10611c4a57611c3a81836108b8565b503880617a60565b617a9b90833d8511611c4a57611c3a81836108b8565b5038617a32565b8215617bd857600d54617b1090617ac1906001600160a01b0316611b1a565b600f546040516323b872dd60e01b8082523360048301526001600160a01b03909216602482015268460a1a12b0ccb0000060448201526020939192909184918391829060009082906064820190565b03925af18015611c5157617bbb575b50600d548290617b37906001600160a01b0316611b1a565b6040519283523360048401526001600160a01b03881660248401526803afb087b8769000006044840152829060649082906000905af18015611c5157617b9d575b50505b617b9861357f866002612a5f8b600052600c602052604060002090565b61786e565b81617bb392903d10611c4a57611c3a81836108b8565b503880617b78565b617bd190833d8511611c4a57611c3a81836108b8565b5038617b1f565b600e54617bed906001600160a01b0316611b1a565b600f546001600160a01b0316617c0288612416565b6040516323b872dd60e01b8082523360048301526001600160a01b0393909316602482015260448101919091526020929091908390839060649082906000905af1908115611c5157617c74928492617ca8575b50600e54617c6b906001600160a01b0316611b1a565b6136688b612427565b03925af18015611c5157617c8a575b5050617b7b565b81617ca092903d10611c4a57611c3a81836108b8565b503880617c83565b617cbe90833d8511611c4a57611c3a81836108b8565b5038617c55565b8215617dfb57600d54617d3390617ce4906001600160a01b0316611b1a565b600f546040516323b872dd60e01b8082523360048301526001600160a01b039092166024820152683487938e049984000060448201526020939192909184918391829060009082906064820190565b03925af18015611c5157617dde575b50600d548290617d5a906001600160a01b0316611b1a565b6040519283523360048401526001600160a01b03881660248401526802c3c465ca58ec00006044840152829060649082906000905af18015611c5157617dc0575b50505b617dbb613c60866002612a5f8b600052600c602052604060002090565b61785c565b81617dd692903d10611c4a57611c3a81836108b8565b503880617d9b565b617df490833d8511611c4a57611c3a81836108b8565b5038617d42565b600e54617e10906001600160a01b0316611b1a565b600f546001600160a01b0316617e25886123f6565b6040516323b872dd60e01b8082523360048301526001600160a01b0393909316602482015260448101919091526020929091908390839060649082906000905af1908115611c5157617e97928492617ecb575b50600e54617e8e906001600160a01b0316611b1a565b6136688b612406565b03925af18015611c5157617ead575b5050617d9e565b81617ec392903d10611c4a57611c3a81836108b8565b503880617ea6565b617ee190833d8511611c4a57611c3a81836108b8565b5038617e78565b9295909493617ef68161068c565b8015618558575b617f068161068c565b600181146180f2575b80617f1b60029261068c565b14617f2857505050505050565b80617f3460039261068c565b14617f3f5780612f63565b1561803357600d54617fae9350617f5e906001600160a01b0316611b1a565b600f546040516323b872dd60e01b8082523360048301526001600160a01b03909216602482015268128a3414019f9800006044820152602095909391928691859190829060009082906064820190565b03925af1918215611c515761305b938693618016575b50600d54617fda906001600160a01b0316611b1a565b6040519182523360048301526001600160a01b03909216602482015267f9ccd8a1c5080000604482015292839190829060009082906064820190565b61802c90843d8611611c4a57611c3a81836108b8565b5038617fc4565b600e54618048906001600160a01b0316611b1a565b600f546001600160a01b0316919061805f8561253a565b6040516323b872dd60e01b8082523360048301526001600160a01b0395909516602482015260448101919091526020959093918690859060649082906000905af1928315611c51576131b29487946180d5575b50600e5460009061317f906180cf906001600160a01b0316611b1a565b9361254a565b6180eb90853d8711611c4a57611c3a81836108b8565b50386180b2565b6180fb8261068c565b60028214618335575b61810d8261068c565b60038203617f0f57821561824457600d54618130906001600160a01b0316611b1a565b600f546040516323b872dd60e01b8082523360048301526001600160a01b0390921660248201526829b6f52d03a71600006044820152909291602091908290829060649082906000905af18015611c5157618227575b50600d54819061819e906001600160a01b0316611b1a565b6040519485523360048601526001600160a01b03881660248601526802320ce76bfb5200006044860152849060649082906000905af1928315611c5157600293618209575b50505b61820261308b8784612a5f8c600052600c602052604060002090565b9050617f0f565b8161821f92903d10611c4a57611c3a81836108b8565b5038806181e3565b61823d90823d8411611c4a57611c3a81836108b8565b5038618186565b600e54618259906001600160a01b0316611b1a565b600f546001600160a01b031691906182708861251a565b6040516323b872dd60e01b8082523360048301526001600160a01b039590951660248201526044810191909152926020918290859060649082906000905af1908115611c51576182e0948392618318575b50600e546182d7906001600160a01b0316611b1a565b6134018b61252a565b03925af1928315611c51576002936182fa575b50506181e6565b8161831092903d10611c4a57611c3a81836108b8565b5038806182f3565b61832e90833d8511611c4a57611c3a81836108b8565b50386182c1565b821561846b57600d546183a390618354906001600160a01b0316611b1a565b600f546040516323b872dd60e01b8082523360048301526001600160a01b03909216602482015268172cc11902077e000060448201526020939192909184918391829060009082906064820190565b03925af18015611c515761844e575b50600d5482906183ca906001600160a01b0316611b1a565b6040519283523360048401526001600160a01b0388166024840152680138400eca364a00006044840152829060649082906000905af18015611c5157618430575b50505b61842b61357f866002612a5f8b600052600c602052604060002090565b618104565b8161844692903d10611c4a57611c3a81836108b8565b50388061840b565b61846490833d8511611c4a57611c3a81836108b8565b50386183b2565b600e54618480906001600160a01b0316611b1a565b600f546001600160a01b0316618495886124fa565b6040516323b872dd60e01b8082523360048301526001600160a01b0393909316602482015260448101919091526020929091908390839060649082906000905af1908115611c515761850792849261853b575b50600e546184fe906001600160a01b0316611b1a565b6136688b61250a565b03925af18015611c515761851d575b505061840e565b8161853392903d10611c4a57611c3a81836108b8565b503880618516565b61855190833d8511611c4a57611c3a81836108b8565b50386184e8565b6185618261068c565b600182146189d3575b6185738261068c565b600282146187b0575b6185858261068c565b60038203617efd5782156186c357600d546185fb906185ac906001600160a01b0316611b1a565b600f546040516323b872dd60e01b8082523360048301526001600160a01b039092166024820152685e3e88bb08409a000060448201526020939192909184918391829060009082906064820190565b03925af18015611c51576186a6575b50600d548290618622906001600160a01b0316611b1a565b6040519283523360048401526001600160a01b03881660248401526804f5d14d36543e00006044840152829060649082906000905af18015611c5157618688575b50505b61868361308b866002612a5f8b600052600c602052604060002090565b617efd565b8161869e92903d10611c4a57611c3a81836108b8565b503880618663565b6186bc90833d8511611c4a57611c3a81836108b8565b503861860a565b600e546186d8906001600160a01b0316611b1a565b600f546001600160a01b03166186ed886124d9565b6040516323b872dd60e01b8082523360048301526001600160a01b0393909316602482015260448101919091526020929091908390839060649082906000905af1908115611c515761875f928492618793575b50600e54618756906001600160a01b0316611b1a565b6136688b6124ea565b03925af18015611c5157618775575b5050618666565b8161878b92903d10611c4a57611c3a81836108b8565b50388061876e565b6187a990833d8511611c4a57611c3a81836108b8565b5038618740565b82156188e657600d5461881e906187cf906001600160a01b0316611b1a565b600f546040516323b872dd60e01b8082523360048301526001600160a01b039092166024820152684e47868d5c3010000060448201526020939192909184918391829060009082906064820190565b03925af18015611c51576188c9575b50600d548290618845906001600160a01b0316611b1a565b6040519283523360048401526001600160a01b038816602484015268041eb63d55b1b000006044840152829060649082906000905af18015611c51576188ab575b50505b6188a661357f866002612a5f8b600052600c602052604060002090565b61857c565b816188c192903d10611c4a57611c3a81836108b8565b503880618886565b6188df90833d8511611c4a57611c3a81836108b8565b503861882d565b600e546188fb906001600160a01b0316611b1a565b600f546001600160a01b0316618910886124b8565b6040516323b872dd60e01b8082523360048301526001600160a01b0393909316602482015260448101919091526020929091908390839060649082906000905af1908115611c51576189829284926189b6575b50600e54618979906001600160a01b0316611b1a565b6136688b6124c9565b03925af18015611c5157618998575b5050618889565b816189ae92903d10611c4a57611c3a81836108b8565b503880618991565b6189cc90833d8511611c4a57611c3a81836108b8565b5038618963565b8215618b0957600d54618a41906189f2906001600160a01b0316611b1a565b600f546040516323b872dd60e01b8082523360048301526001600160a01b039092166024820152683ab5a4ea05240c000060448201526020939192909184918391829060009082906064820190565b03925af18015611c5157618aec575b50600d548290618a68906001600160a01b0316611b1a565b6040519283523360048401526001600160a01b038816602484015268031708ae00454400006044840152829060649082906000905af18015611c5157618ace575b50505b618ac9613c60866002612a5f8b600052600c602052604060002090565b61856a565b81618ae492903d10611c4a57611c3a81836108b8565b503880618aa9565b618b0290833d8511611c4a57611c3a81836108b8565b5038618a50565b600e54618b1e906001600160a01b0316611b1a565b600f546001600160a01b0316618b3388612498565b6040516323b872dd60e01b8082523360048301526001600160a01b0393909316602482015260448101919091526020929091908390839060649082906000905af1908115611c5157618ba5928492618bd9575b50600e54618b9c906001600160a01b0316611b1a565b6136688b6124a8565b03925af18015611c5157618bbb575b5050618aac565b81618bd192903d10611c4a57611c3a81836108b8565b503880618bb4565b618bef90833d8511611c4a57611c3a81836108b8565b5038618b86565b9295909493618c048161068c565b8015619265575b618c148161068c565b60018114618e00575b80618c2960029261068c565b14618c3657505050505050565b80618c4260039261068c565b14618c4d5780612f63565b15618d4157600d54618cbc9350618c6c906001600160a01b0316611b1a565b600f546040516323b872dd60e01b8082523360048301526001600160a01b039092166024820152680b547528aba8a400006044820152602095909391928691859190829060009082906064820190565b03925af1918215611c515761305b938693618d24575b50600d54618ce8906001600160a01b0316611b1a565b6040519182523360048301526001600160a01b0390921660248201526798a7d9b8314c0000604482015292839190829060009082906064820190565b618d3a90843d8611611c4a57611c3a81836108b8565b5038618cd2565b600e54618d56906001600160a01b0316611b1a565b600f546001600160a01b03169190618d6d856125fa565b6040516323b872dd60e01b8082523360048301526001600160a01b0395909516602482015260448101919091526020959093918690859060649082906000905af1928315611c51576131b2948794618de3575b50600e5460009061317f90618ddd906001600160a01b0316611b1a565b9361260a565b618df990853d8711611c4a57611c3a81836108b8565b5038618dc0565b618e098261068c565b60028214619043575b618e1b8261068c565b60038203618c1d578215618f5257600d54618e3e906001600160a01b0316611b1a565b600f546040516323b872dd60e01b8082523360048301526001600160a01b03909216602482015268193c1c37ace05600006044820152909291602091908290829060649082906000905af18015611c5157618f35575b50600d548190618eac906001600160a01b0316611b1a565b6040519485523360048601526001600160a01b0388166024860152680154017c31851200006044860152849060649082906000905af1928315611c5157600293618f17575b50505b618f1061308b8784612a5f8c600052600c602052604060002090565b9050618c1d565b81618f2d92903d10611c4a57611c3a81836108b8565b503880618ef1565b618f4b90823d8411611c4a57611c3a81836108b8565b5038618e94565b600e54618f67906001600160a01b0316611b1a565b600f546001600160a01b03169190618f7e886125da565b6040516323b872dd60e01b8082523360048301526001600160a01b039590951660248201526044810191909152926020918290859060649082906000905af1908115611c5157618fee948392619026575b50600e54618fe5906001600160a01b0316611b1a565b6134018b6125ea565b03925af1928315611c5157600293619008575b5050618ef4565b8161901e92903d10611c4a57611c3a81836108b8565b503880619001565b61903c90833d8511611c4a57611c3a81836108b8565b5038618fcf565b821561917857600d546190b190619062906001600160a01b0316611b1a565b600f546040516323b872dd60e01b8082523360048301526001600160a01b039092166024820152680de7a70f0137b2000060448201526020939192909184918391829060009082906064820190565b03925af18015611c515761915b575b50600d5482906190d8906001600160a01b0316611b1a565b6040519283523360048401526001600160a01b038816602484015267bb59a27953c600006044840152829060649082906000905af18015611c515761913d575b50505b61913861357f866002612a5f8b600052600c602052604060002090565b618e12565b8161915392903d10611c4a57611c3a81836108b8565b503880619118565b61917190833d8511611c4a57611c3a81836108b8565b50386190c0565b600e5461918d906001600160a01b0316611b1a565b600f546001600160a01b03166191a2886125ba565b6040516323b872dd60e01b8082523360048301526001600160a01b0393909316602482015260448101919091526020929091908390839060649082906000905af1908115611c5157619214928492619248575b50600e5461920b906001600160a01b0316611b1a565b6136688b6125ca565b03925af18015611c515761922a575b505061911b565b8161924092903d10611c4a57611c3a81836108b8565b503880619223565b61925e90833d8511611c4a57611c3a81836108b8565b50386191f5565b61926e8261068c565b600182146196e0575b6192808261068c565b600282146194bd575b6192928261068c565b60038203618c0b5782156193d057600d54619308906192b9906001600160a01b0316611b1a565b600f546040516323b872dd60e01b8082523360048301526001600160a01b0390921660248201526838a649cb5a4b34000060448201526020939192909184918391829060009082906064820190565b03925af18015611c51576193b3575b50600d54829061932f906001600160a01b0316611b1a565b6040519283523360048401526001600160a01b03881660248401526802fb474098f67c00006044840152829060649082906000905af18015611c5157619395575b50505b61939061308b866002612a5f8b600052600c602052604060002090565b618c0b565b816193ab92903d10611c4a57611c3a81836108b8565b503880619370565b6193c990833d8511611c4a57611c3a81836108b8565b5038619317565b600e546193e5906001600160a01b0316611b1a565b600f546001600160a01b03166193fa8861259a565b6040516323b872dd60e01b8082523360048301526001600160a01b0393909316602482015260448101919091526020929091908390839060649082906000905af1908115611c515761946c9284926194a0575b50600e54619463906001600160a01b0316611b1a565b6136688b6125aa565b03925af18015611c5157619482575b5050619373565b8161949892903d10611c4a57611c3a81836108b8565b50388061947b565b6194b690833d8511611c4a57611c3a81836108b8565b503861944d565b82156195f357600d5461952b906194dc906001600160a01b0316611b1a565b600f546040516323b872dd60e01b8082523360048301526001600160a01b039092166024820152682edd58f9aec532000060448201526020939192909184918391829060009082906064820190565b03925af18015611c51576195d6575b50600d548290619552906001600160a01b0316611b1a565b6040519283523360048401526001600160a01b03881660248401526802777078ee404600006044840152829060649082906000905af18015611c51576195b8575b50505b6195b361357f866002612a5f8b600052600c602052604060002090565b619289565b816195ce92903d10611c4a57611c3a81836108b8565b503880619593565b6195ec90833d8511611c4a57611c3a81836108b8565b503861953a565b600e54619608906001600160a01b0316611b1a565b600f546001600160a01b031661961d8861257a565b6040516323b872dd60e01b8082523360048301526001600160a01b0393909316602482015260448101919091526020929091908390839060649082906000905af1908115611c515761968f9284926196c3575b50600e54619686906001600160a01b0316611b1a565b6136688b61258a565b03925af18015611c51576196a5575b5050619596565b816196bb92903d10611c4a57611c3a81836108b8565b50388061969e565b6196d990833d8511611c4a57611c3a81836108b8565b5038619670565b821561981657600d5461974e906196ff906001600160a01b0316611b1a565b600f546040516323b872dd60e01b8082523360048301526001600160a01b0390921660248201526823050d09586658000060448201526020939192909184918391829060009082906064820190565b03925af18015611c51576197f9575b50600d548290619775906001600160a01b0316611b1a565b6040519283523360048401526001600160a01b03881660248401526801d7d843dc3b4800006044840152829060649082906000905af18015611c51576197db575b50505b6197d6613c60866002612a5f8b600052600c602052604060002090565b619277565b816197f192903d10611c4a57611c3a81836108b8565b5038806197b6565b61980f90833d8511611c4a57611c3a81836108b8565b503861975d565b600e5461982b906001600160a01b0316611b1a565b600f546001600160a01b03166198408861255a565b6040516323b872dd60e01b8082523360048301526001600160a01b0393909316602482015260448101919091526020929091908390839060649082906000905af1908115611c51576198b29284926198e6575b50600e546198a9906001600160a01b0316611b1a565b6136688b61256a565b03925af18015611c51576198c8575b50506197b9565b816198de92903d10611c4a57611c3a81836108b8565b5038806198c1565b6198fc90833d8511611c4a57611c3a81836108b8565b5038619893565b92959094936199118161068c565b8015619f71575b6199218161068c565b60018114619b0d575b8061993660029261068c565b1461994357505050505050565b8061994f60039261068c565b1461995a5780612f63565b15619a4e57600d546199c99350619979906001600160a01b0316611b1a565b600f546040516323b872dd60e01b8082523360048301526001600160a01b03909216602482015268052663ccab1e1c00006044820152602095909391928691859190829060009082906064820190565b03925af1918215611c515761305b938693619a31575b50600d546199f5906001600160a01b0316611b1a565b6040519182523360048301526001600160a01b039092166024820152674563918244f40000604482015292839190829060009082906064820190565b619a4790843d8611611c4a57611c3a81836108b8565b50386199df565b600e54619a63906001600160a01b0316611b1a565b600f546001600160a01b03169190619a7a856126ba565b6040516323b872dd60e01b8082523360048301526001600160a01b0395909516602482015260448101919091526020959093918690859060649082906000905af1928315611c51576131b2948794619af0575b50600e5460009061317f90619aea906001600160a01b0316611b1a565b936126ca565b619b0690853d8711611c4a57611c3a81836108b8565b5038619acd565b619b168261068c565b60028214619d4f575b619b288261068c565b6003820361992a578215619c5e57600d54619b4b906001600160a01b0316611b1a565b600f546040516323b872dd60e01b8082523360048301526001600160a01b039092166024820152680ad09e6100f26e00006044820152909291602091908290829060649082906000905af18015611c5157619c41575b50600d548190619bb9906001600160a01b0316611b1a565b6040519485523360048601526001600160a01b03881660248601526791b77e5e5d9a00006044860152849060649082906000905af1928315611c5157600293619c23575b50505b619c1c61308b8784612a5f8c600052600c602052604060002090565b905061992a565b81619c3992903d10611c4a57611c3a81836108b8565b503880619bfd565b619c5790823d8411611c4a57611c3a81836108b8565b5038619ba1565b600e54619c73906001600160a01b0316611b1a565b600f546001600160a01b03169190619c8a8861269a565b6040516323b872dd60e01b8082523360048301526001600160a01b039590951660248201526044810191909152926020918290859060649082906000905af1908115611c5157619cfa948392619d32575b50600e54619cf1906001600160a01b0316611b1a565b6134018b6126aa565b03925af1928315611c5157600293619d14575b5050619c00565b81619d2a92903d10611c4a57611c3a81836108b8565b503880619d0d565b619d4890833d8511611c4a57611c3a81836108b8565b5038619cdb565b8215619e8457600d54619dbd90619d6e906001600160a01b0316611b1a565b600f546040516323b872dd60e01b8082523360048301526001600160a01b03909216602482015268062e115c008a88000060448201526020939192909184918391829060009082906064820190565b03925af18015611c5157619e67575b50600d548290619de4906001600160a01b0316611b1a565b6040519283523360048401526001600160a01b03881660248401526753444835ec5800006044840152829060649082906000905af18015611c5157619e49575b50505b619e4461357f866002612a5f8b600052600c602052604060002090565b619b1f565b81619e5f92903d10611c4a57611c3a81836108b8565b503880619e24565b619e7d90833d8511611c4a57611c3a81836108b8565b5038619dcc565b600e54619e99906001600160a01b0316611b1a565b600f546001600160a01b0316619eae8861267a565b6040516323b872dd60e01b8082523360048301526001600160a01b0393909316602482015260448101919091526020929091908390839060649082906000905af1908115611c5157619f20928492619f54575b50600e54619f17906001600160a01b0316611b1a565b6136688b61268a565b03925af18015611c5157619f36575b5050619e27565b81619f4c92903d10611c4a57611c3a81836108b8565b503880619f2f565b619f6a90833d8511611c4a57611c3a81836108b8565b5038619f01565b619f7a8261068c565b6001821461a3ec575b619f8c8261068c565b6002821461a1c9575b619f9e8261068c565b6003820361991857821561a0dc57600d5461a01490619fc5906001600160a01b0316611b1a565b600f546040516323b872dd60e01b8082523360048301526001600160a01b0390921660248201526819bff2ff57968c000060448201526020939192909184918391829060009082906064820190565b03925af18015611c515761a0bf575b50600d54829061a03b906001600160a01b0316611b1a565b6040519283523360048401526001600160a01b038816602484015268015af1d78b58c400006044840152829060649082906000905af18015611c515761a0a1575b50505b61a09c61308b866002612a5f8b600052600c602052604060002090565b619918565b8161a0b792903d10611c4a57611c3a81836108b8565b50388061a07c565b61a0d590833d8511611c4a57611c3a81836108b8565b503861a023565b600e5461a0f1906001600160a01b0316611b1a565b600f546001600160a01b031661a1068861265a565b6040516323b872dd60e01b8082523360048301526001600160a01b0393909316602482015260448101919091526020929091908390839060649082906000905af1908115611c515761a17892849261a1ac575b50600e5461a16f906001600160a01b0316611b1a565b6136688b61266a565b03925af18015611c515761a18e575b505061a07f565b8161a1a492903d10611c4a57611c3a81836108b8565b50388061a187565b61a1c290833d8511611c4a57611c3a81836108b8565b503861a159565b821561a2ff57600d5461a2379061a1e8906001600160a01b0316611b1a565b600f546040516323b872dd60e01b8082523360048301526001600160a01b03909216602482015268151d65fa572ea6000060448201526020939192909184918391829060009082906064820190565b03925af18015611c515761a2e2575b50600d54829061a25e906001600160a01b0316611b1a565b6040519283523360048401526001600160a01b038816602484015268011c7ea162e78200006044840152829060649082906000905af18015611c515761a2c4575b50505b61a2bf61357f866002612a5f8b600052600c602052604060002090565b619f95565b8161a2da92903d10611c4a57611c3a81836108b8565b50388061a29f565b61a2f890833d8511611c4a57611c3a81836108b8565b503861a246565b600e5461a314906001600160a01b0316611b1a565b600f546001600160a01b031661a3298861263a565b6040516323b872dd60e01b8082523360048301526001600160a01b0393909316602482015260448101919091526020929091908390839060649082906000905af1908115611c515761a39b92849261a3cf575b50600e5461a392906001600160a01b0316611b1a565b6136688b61264a565b03925af18015611c515761a3b1575b505061a2a2565b8161a3c792903d10611c4a57611c3a81836108b8565b50388061a3aa565b61a3e590833d8511611c4a57611c3a81836108b8565b503861a37c565b821561a52157600d5461a45a9061a40b906001600160a01b0316611b1a565b600f546040516323b872dd60e01b8082523360048301526001600160a01b039092166024820152680ff7022dac108a000060448201526020939192909184918391829060009082906064820190565b03925af18015611c515761a504575b50600d54829061a481906001600160a01b0316611b1a565b6040519283523360048401526001600160a01b038816602484015267d71b0fe0a28e00006044840152829060649082906000905af18015611c515761a4e6575b50505b61a4e1613c60866002612a5f8b600052600c602052604060002090565b619f83565b8161a4fc92903d10611c4a57611c3a81836108b8565b50388061a4c1565b61a51a90833d8511611c4a57611c3a81836108b8565b503861a469565b600e5461a536906001600160a01b0316611b1a565b600f546001600160a01b031661a54b8861261a565b6040516323b872dd60e01b8082523360048301526001600160a01b0393909316602482015260448101919091526020929091908390839060649082906000905af1908115611c515761a5bd92849261a5f1575b50600e5461a5b4906001600160a01b0316611b1a565b6136688b61262a565b03925af18015611c515761a5d3575b505061a4c4565b8161a5e992903d10611c4a57611c3a81836108b8565b50388061a5cc565b61a60790833d8511611c4a57611c3a81836108b8565b503861a59e565b60ff601b9116019060ff82116116e857565b6001600160a01b03909216918215158061a6b0575b1561020e578151604010156117f9576060820151602092600092909161a6929061a6619060f81c61a60e565b9260408682015191015190604051948594859094939260ff6060936080840197845216602083015260408201520152565b838052039060015afa15611c51576000516001600160a01b03161490565b50604182511461a63556fea2646970667358221220c68accd573b34b737bf4af53b9bc8aff19a1140d04c649925b6516daadb8fc1764736f6c63430008150033",
    "linkReferences": {}
  },
  "methodIdentifiers": {
    "USDT()": "c54e44eb",
    "Zeb()": "15f2e205",
    "approve(address,uint256)": "095ea7b3",
    "balanceOf(address)": "70a08231",
    "fund()": "b60d4288",
    "getApproved(uint256)": "081812fc",
    "getEquipmentLevel(uint256)": "2aaf0779",
    "isApprovedForAll(address,address)": "e985e9c5",
    "multipleUpgrade(bool,uint256,uint8[],uint8[],address,uint256,uint256,address,bytes)": "836f8c71",
    "name()": "06fdde03",
    "nextTokenID()": "f101e481",
    "nodeInfo(uint256)": "b02439ae",
    "owner()": "8da5cb5b",
    "ownerOf(uint256)": "6352211e",
    "publicMint(uint8[],uint256[],address,uint256,uint256,address,bytes)": "fce551eb",
    "renounceOwnership()": "715018a6",
    "safeTransferFrom(address,address,uint256)": "42842e0e",
    "safeTransferFrom(address,address,uint256,bytes)": "b88d4fde",
    "setApprovalForAll(address,bool)": "a22cb465",
    "signer()": "238ac933",
    "supportsInterface(bytes4)": "01ffc9a7",
    "symbol()": "95d89b41",
    "tokenByIndex(uint256)": "4f6ccce7",
    "tokenOfOwnerByIndex(address,uint256)": "2f745c59",
    "tokenURI(uint256)": "c87b56dd",
    "totalSupply()": "18160ddd",
    "transferFrom(address,address,uint256)": "23b872dd",
    "transferOwnership(address)": "f2fde38b",
    "transferable()": "92ff0d31",
    "upgrade(bool,uint256,uint8,uint8,address,uint256,uint256,address,bytes)": "3e605dc1"
  },
  "id": 37
}