{
  "abi": [
    {
      "inputs": [
        {
          "internalType": "string",
          "name": "name",
          "type": "string"
        },
        {
          "internalType": "string",
          "name": "symbol",
          "type": "string"
        }
      ],
      "stateMutability": "nonpayable",
      "type": "constructor"
    },
    {
      "inputs": [
        {
          "internalType": "address",
          "name": "sender",
          "type": "address"
        },
        {
          "internalType": "uint256",
          "name": "tokenId",
          "type": "uint256"
        },
        {
          "internalType": "address",
          "name": "owner",
          "type": "address"
        }
      ],
      "name": "ERC721IncorrectOwner",
      "type": "error"
    },
    {
      "inputs": [
        {
          "internalType": "address",
          "name": "operator",
          "type": "address"
        },
        {
          "internalType": "uint256",
          "name": "tokenId",
          "type": "uint256"
        }
      ],
      "name": "ERC721InsufficientApproval",
      "type": "error"
    },
    {
      "inputs": [
        {
          "internalType": "address",
          "name": "approver",
          "type": "address"
        }
      ],
      "name": "ERC721InvalidApprover",
      "type": "error"
    },
    {
      "inputs": [
        {
          "internalType": "address",
          "name": "operator",
          "type": "address"
        }
      ],
      "name": "ERC721InvalidOperator",
      "type": "error"
    },
    {
      "inputs": [
        {
          "internalType": "address",
          "name": "owner",
          "type": "address"
        }
      ],
      "name": "ERC721InvalidOwner",
      "type": "error"
    },
    {
      "inputs": [
        {
          "internalType": "address",
          "name": "receiver",
          "type": "address"
        }
      ],
      "name": "ERC721InvalidReceiver",
      "type": "error"
    },
    {
      "inputs": [
        {
          "internalType": "address",
          "name": "sender",
          "type": "address"
        }
      ],
      "name": "ERC721InvalidSender",
      "type": "error"
    },
    {
      "inputs": [
        {
          "internalType": "uint256",
          "name": "tokenId",
          "type": "uint256"
        }
      ],
      "name": "ERC721NonexistentToken",
      "type": "error"
    },
    {
      "inputs": [
        {
          "internalType": "address",
          "name": "owner",
          "type": "address"
        }
      ],
      "name": "OwnableInvalidOwner",
      "type": "error"
    },
    {
      "inputs": [
        {
          "internalType": "address",
          "name": "account",
          "type": "address"
        }
      ],
      "name": "OwnableUnauthorizedAccount",
      "type": "error"
    },
    {
      "anonymous": false,
      "inputs": [
        {
          "indexed": true,
          "internalType": "address",
          "name": "owner",
          "type": "address"
        },
        {
          "indexed": true,
          "internalType": "address",
          "name": "approved",
          "type": "address"
        },
        {
          "indexed": true,
          "internalType": "uint256",
          "name": "tokenId",
          "type": "uint256"
        }
      ],
      "name": "Approval",
      "type": "event"
    },
    {
      "anonymous": false,
      "inputs": [
        {
          "indexed": true,
          "internalType": "address",
          "name": "owner",
          "type": "address"
        },
        {
          "indexed": true,
          "internalType": "address",
          "name": "operator",
          "type": "address"
        },
        {
          "indexed": false,
          "internalType": "bool",
          "name": "approved",
          "type": "bool"
        }
      ],
      "name": "ApprovalForAll",
      "type": "event"
    },
    {
      "anonymous": false,
      "inputs": [
        {
          "indexed": true,
          "internalType": "address",
          "name": "previousOwner",
          "type": "address"
        },
        {
          "indexed": true,
          "internalType": "address",
          "name": "newOwner",
          "type": "address"
        }
      ],
      "name": "OwnershipTransferred",
      "type": "event"
    },
    {
      "anonymous": false,
      "inputs": [
        {
          "indexed": true,
          "internalType": "address",
          "name": "from",
          "type": "address"
        },
        {
          "indexed": true,
          "internalType": "address",
          "name": "to",
          "type": "address"
        },
        {
          "indexed": true,
          "internalType": "uint256",
          "name": "tokenId",
          "type": "uint256"
        }
      ],
      "name": "Transfer",
      "type": "event"
    },
    {
      "anonymous": false,
      "inputs": [
        {
          "indexed": false,
          "internalType": "uint256",
          "name": "tokenId",
          "type": "uint256"
        },
        {
          "indexed": false,
          "internalType": "enum Node.EquipmentType",
          "name": "equipmentType",
          "type": "uint8"
        },
        {
          "indexed": false,
          "internalType": "enum Node.EquipmentLevel",
          "name": "equipmentLevel",
          "type": "uint8"
        },
        {
          "indexed": false,
          "internalType": "uint256",
          "name": "time",
          "type": "uint256"
        }
      ],
      "name": "upgradeEvent",
      "type": "event"
    },
    {
      "inputs": [],
      "name": "USDT",
      "outputs": [
        {
          "internalType": "contract IERC20",
          "name": "",
          "type": "address"
        }
      ],
      "stateMutability": "view",
      "type": "function"
    },
    {
      "inputs": [
        {
          "internalType": "address",
          "name": "to",
          "type": "address"
        },
        {
          "internalType": "uint256",
          "name": "tokenId",
          "type": "uint256"
        }
      ],
      "name": "approve",
      "outputs": [],
      "stateMutability": "nonpayable",
      "type": "function"
    },
    {
      "inputs": [
        {
          "internalType": "address",
          "name": "owner",
          "type": "address"
        }
      ],
      "name": "balanceOf",
      "outputs": [
        {
          "internalType": "uint256",
          "name": "",
          "type": "uint256"
        }
      ],
      "stateMutability": "view",
      "type": "function"
    },
    {
      "inputs": [
        {
          "internalType": "uint256",
          "name": "tokenId",
          "type": "uint256"
        }
      ],
      "name": "getApproved",
      "outputs": [
        {
          "internalType": "address",
          "name": "",
          "type": "address"
        }
      ],
      "stateMutability": "view",
      "type": "function"
    },
    {
      "inputs": [],
      "name": "invitationCenter",
      "outputs": [
        {
          "internalType": "contract InvitationCenter",
          "name": "",
          "type": "address"
        }
      ],
      "stateMutability": "view",
      "type": "function"
    },
    {
      "inputs": [
        {
          "internalType": "address",
          "name": "owner",
          "type": "address"
        },
        {
          "internalType": "address",
          "name": "operator",
          "type": "address"
        }
      ],
      "name": "isApprovedForAll",
      "outputs": [
        {
          "internalType": "bool",
          "name": "",
          "type": "bool"
        }
      ],
      "stateMutability": "view",
      "type": "function"
    },
    {
      "inputs": [],
      "name": "isPromotion",
      "outputs": [
        {
          "internalType": "bool",
          "name": "",
          "type": "bool"
        }
      ],
      "stateMutability": "view",
      "type": "function"
    },
    {
      "inputs": [],
      "name": "name",
      "outputs": [
        {
          "internalType": "string",
          "name": "",
          "type": "string"
        }
      ],
      "stateMutability": "view",
      "type": "function"
    },
    {
      "inputs": [],
      "name": "nextTokenID",
      "outputs": [
        {
          "internalType": "uint256",
          "name": "",
          "type": "uint256"
        }
      ],
      "stateMutability": "view",
      "type": "function"
    },
    {
      "inputs": [
        {
          "internalType": "uint256",
          "name": "",
          "type": "uint256"
        }
      ],
      "name": "nodeInfo",
      "outputs": [
        {
          "internalType": "enum Node.MachaineType",
          "name": "machaineType",
          "type": "uint8"
        },
        {
          "internalType": "uint256",
          "name": "mintTime",
          "type": "uint256"
        },
        {
          "internalType": "uint256",
          "name": "unlockPeriod",
          "type": "uint256"
        },
        {
          "internalType": "uint256",
          "name": "totalToken",
          "type": "uint256"
        }
      ],
      "stateMutability": "view",
      "type": "function"
    },
    {
      "inputs": [],
      "name": "owner",
      "outputs": [
        {
          "internalType": "address",
          "name": "",
          "type": "address"
        }
      ],
      "stateMutability": "view",
      "type": "function"
    },
    {
      "inputs": [
        {
          "internalType": "uint256",
          "name": "tokenId",
          "type": "uint256"
        }
      ],
      "name": "ownerOf",
      "outputs": [
        {
          "internalType": "address",
          "name": "",
          "type": "address"
        }
      ],
      "stateMutability": "view",
      "type": "function"
    },
    {
      "inputs": [
        {
          "internalType": "enum Node.MachaineType[]",
          "name": "_machineType",
          "type": "uint8[]"
        },
        {
          "internalType": "uint256[]",
          "name": "amount",
          "type": "uint256[]"
        },
        {
          "internalType": "bytes32",
          "name": "inviterCode",
          "type": "bytes32"
        }
      ],
      "name": "publicMint",
      "outputs": [],
      "stateMutability": "nonpayable",
      "type": "function"
    },
    {
      "inputs": [],
      "name": "receiver",
      "outputs": [
        {
          "internalType": "address",
          "name": "",
          "type": "address"
        }
      ],
      "stateMutability": "view",
      "type": "function"
    },
    {
      "inputs": [],
      "name": "renounceOwnership",
      "outputs": [],
      "stateMutability": "nonpayable",
      "type": "function"
    },
    {
      "inputs": [
        {
          "internalType": "address",
          "name": "from",
          "type": "address"
        },
        {
          "internalType": "address",
          "name": "to",
          "type": "address"
        },
        {
          "internalType": "uint256",
          "name": "tokenId",
          "type": "uint256"
        }
      ],
      "name": "safeTransferFrom",
      "outputs": [],
      "stateMutability": "nonpayable",
      "type": "function"
    },
    {
      "inputs": [
        {
          "internalType": "address",
          "name": "from",
          "type": "address"
        },
        {
          "internalType": "address",
          "name": "to",
          "type": "address"
        },
        {
          "internalType": "uint256",
          "name": "tokenId",
          "type": "uint256"
        },
        {
          "internalType": "bytes",
          "name": "data",
          "type": "bytes"
        }
      ],
      "name": "safeTransferFrom",
      "outputs": [],
      "stateMutability": "nonpayable",
      "type": "function"
    },
    {
      "inputs": [
        {
          "internalType": "address",
          "name": "operator",
          "type": "address"
        },
        {
          "internalType": "bool",
          "name": "approved",
          "type": "bool"
        }
      ],
      "name": "setApprovalForAll",
      "outputs": [],
      "stateMutability": "nonpayable",
      "type": "function"
    },
    {
      "inputs": [
        {
          "internalType": "bool",
          "name": "_isPromotion",
          "type": "bool"
        }
      ],
      "name": "setPromotion",
      "outputs": [],
      "stateMutability": "nonpayable",
      "type": "function"
    },
    {
      "inputs": [
        {
          "internalType": "bytes4",
          "name": "interfaceId",
          "type": "bytes4"
        }
      ],
      "name": "supportsInterface",
      "outputs": [
        {
          "internalType": "bool",
          "name": "",
          "type": "bool"
        }
      ],
      "stateMutability": "view",
      "type": "function"
    },
    {
      "inputs": [],
      "name": "symbol",
      "outputs": [
        {
          "internalType": "string",
          "name": "",
          "type": "string"
        }
      ],
      "stateMutability": "view",
      "type": "function"
    },
    {
      "inputs": [
        {
          "internalType": "uint256",
          "name": "tokenID",
          "type": "uint256"
        }
      ],
      "name": "tokenURI",
      "outputs": [
        {
          "internalType": "string",
          "name": "",
          "type": "string"
        }
      ],
      "stateMutability": "view",
      "type": "function"
    },
    {
      "inputs": [
        {
          "internalType": "address",
          "name": "from",
          "type": "address"
        },
        {
          "internalType": "address",
          "name": "to",
          "type": "address"
        },
        {
          "internalType": "uint256",
          "name": "tokenId",
          "type": "uint256"
        }
      ],
      "name": "transferFrom",
      "outputs": [],
      "stateMutability": "nonpayable",
      "type": "function"
    },
    {
      "inputs": [
        {
          "internalType": "address",
          "name": "newOwner",
          "type": "address"
        }
      ],
      "name": "transferOwnership",
      "outputs": [],
      "stateMutability": "nonpayable",
      "type": "function"
    },
    {
      "inputs": [],
      "name": "transferable",
      "outputs": [
        {
          "internalType": "bool",
          "name": "",
          "type": "bool"
        }
      ],
      "stateMutability": "view",
      "type": "function"
    },
    {
      "inputs": [
        {
          "internalType": "uint256",
          "name": "tokenId",
          "type": "uint256"
        },
        {
          "internalType": "enum Node.EquipmentType",
          "name": "_equipmentType",
          "type": "uint8"
        },
        {
          "internalType": "enum Node.EquipmentLevel",
          "name": "_equipmentLevel",
          "type": "uint8"
        }
      ],
      "name": "upgrade",
      "outputs": [],
      "stateMutability": "nonpayable",
      "type": "function"
    }
  ],
  "bytecode": {
    "object": "0x60806040523480156200001157600080fd5b5060405162002d8438038062002d848339810160408190526200003491620001b1565b3382826000620000458382620002aa565b506001620000548282620002aa565b5050506001600160a01b0381166200008657604051631e4fbdf760e01b81526000600482015260240160405180910390fd5b62000091816200009a565b50505062000376565b600680546001600160a01b038381166001600160a01b0319831681179093556040519116919082907f8be0079c531659141344cd1fd0a4f28419497f9722a3daafe3b4186f6b6457e090600090a35050565b634e487b7160e01b600052604160045260246000fd5b600082601f8301126200011457600080fd5b81516001600160401b0380821115620001315762000131620000ec565b604051601f8301601f19908116603f011681019082821181831017156200015c576200015c620000ec565b816040528381526020925086838588010111156200017957600080fd5b600091505b838210156200019d57858201830151818301840152908201906200017e565b600093810190920192909252949350505050565b60008060408385031215620001c557600080fd5b82516001600160401b0380821115620001dd57600080fd5b620001eb8683870162000102565b935060208501519150808211156200020257600080fd5b50620002118582860162000102565b9150509250929050565b600181811c908216806200023057607f821691505b6020821081036200025157634e487b7160e01b600052602260045260246000fd5b50919050565b601f821115620002a557600081815260208120601f850160051c81016020861015620002805750805b601f850160051c820191505b81811015620002a1578281556001016200028c565b5050505b505050565b81516001600160401b03811115620002c657620002c6620000ec565b620002de81620002d784546200021b565b8462000257565b602080601f831160018114620003165760008415620002fd5750858301515b600019600386901b1c1916600185901b178555620002a1565b600085815260208120601f198616915b82811015620003475788860151825594840194600190910190840162000326565b5085821015620003665787850151600019600388901b60f8161c191681555b5050505050600190811b01905550565b6129fe80620003866000396000f3fe608060405234801561001057600080fd5b506004361061018e5760003560e01c806392ff0d31116100de578063c54e44eb11610097578063e985e9c511610071578063e985e9c514610395578063f101e481146103a8578063f2fde38b146103b1578063f7260d3e146103c457600080fd5b8063c54e44eb1461035b578063c87b56dd1461036e578063d21d701c1461038257600080fd5b806392ff0d31146102bd57806395d89b41146102d1578063a22cb465146102d9578063b02439ae146102ec578063b88d4fde14610335578063c41b3cd21461034857600080fd5b80632f5332801161014b5780636352211e116101255780636352211e1461027057806370a0823114610283578063715018a6146102a45780638da5cb5b146102ac57600080fd5b80632f5332801461023757806342842e0e1461024a5780634f821a261461025d57600080fd5b806301ffc9a71461019357806306fdde03146101bb578063081812fc146101d0578063095ea7b3146101fb57806323b872dd146102105780632677e4d314610223575b600080fd5b6101a66101a136600461234a565b6103d7565b60405190151581526020015b60405180910390f35b6101c3610429565b6040516101b291906123b4565b6101e36101de3660046123c7565b6104bb565b6040516001600160a01b0390911681526020016101b2565b61020e6102093660046123f5565b6104e4565b005b61020e61021e366004612421565b6104f3565b6006546101a690600160a01b900460ff1681565b600a546101e3906001600160a01b031681565b61020e610258366004612421565b610559565b61020e61026b366004612470565b610574565b6101e361027e3660046123c7565b61059a565b61029661029136600461248d565b6105a5565b6040519081526020016101b2565b61020e6105ed565b6006546001600160a01b03166101e3565b6006546101a690600160a81b900460ff1681565b6101c3610601565b61020e6102e73660046124aa565b610610565b6103256102fa3660046123c7565b600860205260009081526040902080546003820154600483015460059093015460ff90921692909184565b6040516101b29493929190612509565b61020e610343366004612579565b61061b565b61020e61035636600461264a565b610638565b6009546101e3906001600160a01b031681565b6101c361037c3660046123c7565b50606090565b61020e61039036600461271f565b610f0c565b6101a66103a33660046127ea565b610f67565b61029660075481565b61020e6103bf36600461248d565b610f95565b600b546101e3906001600160a01b031681565b60006001600160e01b031982166380ac58cd60e01b148061040857506001600160e01b03198216635b5e139f60e01b145b8061042357506301ffc9a760e01b6001600160e01b03198316145b92915050565b60606000805461043890612818565b80601f016020809104026020016040519081016040528092919081815260200182805461046490612818565b80156104b15780601f10610486576101008083540402835291602001916104b1565b820191906000526020600020905b81548152906001019060200180831161049457829003601f168201915b5050505050905090565b60006104c682610fd3565b506000828152600460205260409020546001600160a01b0316610423565b6104ef82823361100c565b5050565b600654600160a81b900460ff166105495760405162461bcd60e51b81526020600482015260156024820152744e46543a206e6f74207472616e7366657261626c6560581b60448201526064015b60405180910390fd5b610554838383611019565b505050565b6105548383836040518060200160405280600081525061061b565b61057c61109e565b60068054911515600160a01b0260ff60a01b19909216919091179055565b600061042382610fd3565b60006001600160a01b0382166105d1576040516322718ad960e21b815260006004820152602401610540565b506001600160a01b031660009081526003602052604090205490565b6105f561109e565b6105ff60006110cb565b565b60606001805461043890612818565b6104ef33838361111d565b6106268484846104f3565b610632848484846111bc565b50505050565b336106428461059a565b6001600160a01b0316146106895760405162461bcd60e51b815260206004820152600e60248201526d27232a1d103737ba1037bbb732b960911b6044820152606401610540565b80600381111561069b5761069b6124e3565b60008481526008602052604081206002908101919085908111156106c1576106c16124e3565b60028111156106d2576106d26124e3565b815260208101919091526040016000205460ff1660038111156106f7576106f76124e3565b1061073b5760405162461bcd60e51b81526020600482015260146024820152734e46543a206e6f74207570677261646561626c6560601b6044820152606401610540565b60008381526008602052604081205460ff1690816002811115610760576107606124e3565b036108ed576000836002811115610779576107796124e3565b036107ea576000848152600860205260408120600290810190829086908111156107a5576107a56124e3565b60028111156107b6576107b66124e3565b815260208101919091526040016000205460ff1690506107e485828686601f60296032600c6015600a6112e5565b50610c35565b60018360028111156107fe576107fe6124e3565b036108695760008481526008602052604081206002908101908290869081111561082a5761082a6124e3565b600281111561083b5761083b6124e3565b815260208101919091526040016000205460ff1690506107e4858286866044605b606e601b603160166112e5565b600283600281111561087d5761087d6124e3565b036108e8576000848152600860205260408120600290810190829086908111156108a9576108a96124e3565b60028111156108ba576108ba6124e3565b815260208101919091526040016000205460ff1690506107e4858286866072609860b7602d605160246112e5565b610c35565b6001816002811115610901576109016124e3565b03610a9157600083600281111561091a5761091a6124e3565b0361098d57600084815260086020526040812060029081019082908690811115610946576109466124e3565b6002811115610957576109576124e3565b815260200190815260200160002060009054906101000a900460ff1690506107e4858286866066608860a36028604860206112e5565b60018360028111156109a1576109a16124e3565b03610a0e576000848152600860205260408120600290810190829086908111156109cd576109cd6124e3565b60028111156109de576109de6124e3565b815260208101919091526040016000205460ff1690506107e48582868660e161012c610168605a60a260486112e5565b6002836002811115610a2257610a226124e3565b036108e857600084815260086020526040812060029081019082908690811115610a4e57610a4e6124e3565b6002811115610a5f57610a5f6124e3565b815260208101919091526040016000205460ff1690506107e4858286866101776101f4610258609661010e60786112e5565b6002816002811115610aa557610aa56124e3565b03610c35576000836002811115610abe57610abe6124e3565b03610b2b57600084815260086020526040812060029081019082908690811115610aea57610aea6124e3565b6002811115610afb57610afb6124e3565b815260208101919091526040016000205460ff1690506107e48582868660dd6101276101626058609e60466112e5565b6001836002811115610b3f57610b3f6124e3565b03610bae57600084815260086020526040812060029081019082908690811115610b6b57610b6b6124e3565b6002811115610b7c57610b7c6124e3565b815260208101919091526040016000205460ff1690506107e4858286866101e761028a61030c60c361015f609c6112e5565b6002836002811115610bc257610bc26124e3565b03610c3557600084815260086020526040812060029081019082908690811115610bee57610bee6124e3565b6002811115610bff57610bff6124e3565b815260208101919091526040016000205460ff169050610c338582868661032c61043b6105146101456102496101046112e5565b505b6000836002811115610c4957610c496124e3565b03610d20576001826003811115610c6257610c626124e3565b03610c965760008481526008602052604081206004018054624f1a009290610c8b908490612868565b90915550610ec99050565b6002826003811115610caa57610caa6124e3565b03610cde57600084815260086020526040812060040180546276a7009290610cd3908490612868565b90915550610d1b9050565b6003826003811115610cf257610cf26124e3565b03610d1b5760008481526008602052604081206004018054629e34009290610c8b908490612868565b610ec9565b6001836002811115610d3457610d346124e3565b03610df1576001826003811115610d4d57610d4d6124e3565b03610d765760008481526008602052604081206004018054629e34009290610c8b908490612868565b6002826003811115610d8a57610d8a6124e3565b03610db3576000848152600860205260408120600401805462ed4e009290610cd3908490612868565b6003826003811115610dc757610dc76124e3565b03610d1b576000848152600860205260408120600401805463013c68009290610c8b908490612868565b6002836002811115610e0557610e056124e3565b03610ec9576001826003811115610e1e57610e1e6124e3565b03610e47576000848152600860205260408120600401805462ed4e009290610c8b908490612868565b6002826003811115610e5b57610e5b6124e3565b03610e855760008481526008602052604081206004018054630163f5009290610c8b908490612868565b6003826003811115610e9957610e996124e3565b03610ec957600084815260086020526040812060040180546301da9c009290610ec3908490612868565b90915550505b7f076c993c6e3b81f3d762a49ce745bac32a307f74ce321f8eba2b3c88bd32253984848442604051610efe949392919061287b565b60405180910390a150505050565b60005b835181101561063257610f55848281518110610f2d57610f2d6128b3565b6020026020010151848381518110610f4757610f476128b3565b60200260200101518461198c565b80610f5f816128c9565b915050610f0f565b6001600160a01b03918216600090815260056020908152604080832093909416825291909152205460ff1690565b610f9d61109e565b6001600160a01b038116610fc757604051631e4fbdf760e01b815260006004820152602401610540565b610fd0816110cb565b50565b6000818152600260205260408120546001600160a01b03168061042357604051637e27328960e01b815260048101849052602401610540565b6105548383836001612014565b6001600160a01b03821661104357604051633250574960e11b815260006004820152602401610540565b600061105083833361211a565b9050836001600160a01b0316816001600160a01b031614610632576040516364283d7b60e01b81526001600160a01b0380861660048301526024820184905282166044820152606401610540565b6006546001600160a01b031633146105ff5760405163118cdaa760e01b8152336004820152602401610540565b600680546001600160a01b038381166001600160a01b0319831681179093556040519116919082907f8be0079c531659141344cd1fd0a4f28419497f9722a3daafe3b4186f6b6457e090600090a35050565b6001600160a01b03821661114f57604051630b61174360e31b81526001600160a01b0383166004820152602401610540565b6001600160a01b03838116600081815260056020908152604080832094871680845294825291829020805460ff191686151590811790915591519182527f17307eab39ab6107e8899845ad3d59bd9653f200f220920489ca2b5937696c31910160405180910390a3505050565b6001600160a01b0383163b1561063257604051630a85bd0160e11b81526001600160a01b0384169063150b7a02906111fe9033908890879087906004016128e2565b6020604051808303816000875af1925050508015611239575060408051601f3d908101601f191682019092526112369181019061291f565b60015b6112a2573d808015611267576040519150601f19603f3d011682016040523d82523d6000602084013e61126c565b606091505b50805160000361129a57604051633250574960e11b81526001600160a01b0385166004820152602401610540565b805181602001fd5b6001600160e01b03198116630a85bd0160e11b146112de57604051633250574960e11b81526001600160a01b0385166004820152602401610540565b5050505050565b60008960038111156112f9576112f96124e3565b03611626576001876003811115611312576113126124e3565b0361140c57600954600b546001600160a01b039182169163a9059cbb911661134289678ac7230489e8000061293c565b6040518363ffffffff1660e01b815260040161135f929190612953565b6020604051808303816000875af115801561137e573d6000803e3d6000fd5b505050506040513d601f19601f820116820180604052508101906113a2919061296c565b5060008a81526008602052604081206001916002918201918b908111156113cb576113cb6124e3565b60028111156113dc576113dc6124e3565b81526020810191909152604001600020805460ff19166001836003811115611406576114066124e3565b02179055505b6002876003811115611420576114206124e3565b0361151857600954600b546001600160a01b039182169163a9059cbb911661145088678ac7230489e8000061293c565b6040518363ffffffff1660e01b815260040161146d929190612953565b6020604051808303816000875af115801561148c573d6000803e3d6000fd5b505050506040513d601f19601f820116820180604052508101906114b0919061296c565b5060008a8152600860205260408120600291908201908a838111156114d7576114d76124e3565b60028111156114e8576114e86124e3565b81526020810191909152604001600020805460ff19166001836003811115611512576115126124e3565b02179055505b600387600381111561152c5761152c6124e3565b0361162657600954600b546001600160a01b039182169163a9059cbb911661155c87678ac7230489e8000061293c565b6040518363ffffffff1660e01b8152600401611579929190612953565b6020604051808303816000875af1158015611598573d6000803e3d6000fd5b505050506040513d601f19601f820116820180604052508101906115bc919061296c565b5060008a81526008602052604081206003916002918201918b908111156115e5576115e56124e3565b60028111156115f6576115f66124e3565b81526020810191909152604001600020805460ff19166001836003811115611620576116206124e3565b02179055505b600189600381111561163a5761163a6124e3565b03611859576002876003811115611653576116536124e3565b0361174b57600954600b546001600160a01b039182169163a9059cbb911661168386678ac7230489e8000061293c565b6040518363ffffffff1660e01b81526004016116a0929190612953565b6020604051808303816000875af11580156116bf573d6000803e3d6000fd5b505050506040513d601f19601f820116820180604052508101906116e3919061296c565b5060008a8152600860205260408120600291908201908a8381111561170a5761170a6124e3565b600281111561171b5761171b6124e3565b81526020810191909152604001600020805460ff19166001836003811115611745576117456124e3565b02179055505b600387600381111561175f5761175f6124e3565b0361185957600954600b546001600160a01b039182169163a9059cbb911661178f85678ac7230489e8000061293c565b6040518363ffffffff1660e01b81526004016117ac929190612953565b6020604051808303816000875af11580156117cb573d6000803e3d6000fd5b505050506040513d601f19601f820116820180604052508101906117ef919061296c565b5060008a81526008602052604081206003916002918201918b90811115611818576118186124e3565b6002811115611829576118296124e3565b81526020810191909152604001600020805460ff19166001836003811115611853576118536124e3565b02179055505b600289600381111561186d5761186d6124e3565b03611980576003876003811115611886576118866124e3565b0361198057600954600b546001600160a01b039182169163a9059cbb91166118b684678ac7230489e8000061293c565b6040518363ffffffff1660e01b81526004016118d3929190612953565b6020604051808303816000875af11580156118f2573d6000803e3d6000fd5b505050506040513d601f19601f82011682018060405250810190611916919061296c565b5060008a81526008602052604081206003916002918201918b9081111561193f5761193f6124e3565b6002811115611950576119506124e3565b81526020810191909152604001600020805460ff1916600183600381111561197a5761197a6124e3565b02179055505b50505050505050505050565b60008082611a8057600a5460405163a4f62bc360e01b8152336004820152674d415853314b533760c01b60248201526001600160a01b039091169063a4f62bc390604401600060405180830381600087803b1580156119ea57600080fd5b505af11580156119fe573d6000803e3d6000fd5b5050600a546040516328a3d02360e01b8152674d415853314b533760c01b60048201526001600160a01b0390911692506328a3d0239150602401602060405180830381865afa158015611a55573d6000803e3d6000fd5b505050506040513d601f19601f82011682018060405250810190611a799190612989565b9150611b54565b600a5460405163a4f62bc360e01b81526001600160a01b039091169063a4f62bc390611ab29033908790600401612953565b600060405180830381600087803b158015611acc57600080fd5b505af1158015611ae0573d6000803e3d6000fd5b5050600a546040516328a3d02360e01b8152600481018790526001600160a01b0390911692506328a3d0239150602401602060405180830381865afa158015611b2d573d6000803e3d6000fd5b505050506040513d601f19601f82011682018060405250810190611b519190612989565b91505b6000856002811115611b6857611b686124e3565b03611cb657600954600b546001600160a01b039182169163a9059cbb91166064611b9c8869010f0cf064dd5920000061293c565b611ba790605f61293c565b611bb191906129a6565b6040518363ffffffff1660e01b8152600401611bce929190612953565b6020604051808303816000875af1158015611bed573d6000803e3d6000fd5b505050506040513d601f19601f82011682018060405250810190611c11919061296c565b506009546001600160a01b031663a9059cbb836064611c3a8869010f0cf064dd5920000061293c565b611c4590600561293c565b611c4f91906129a6565b6040518363ffffffff1660e01b8152600401611c6c929190612953565b6020604051808303816000875af1158015611c8b573d6000803e3d6000fd5b505050506040513d601f19601f82011682018060405250810190611caf919061296c565b506104b090505b6001856002811115611cca57611cca6124e3565b03611e1857600954600b546001600160a01b039182169163a9059cbb91166064611cfe886901b1ae4d6e2ef500000061293c565b611d0990605f61293c565b611d1391906129a6565b6040518363ffffffff1660e01b8152600401611d30929190612953565b6020604051808303816000875af1158015611d4f573d6000803e3d6000fd5b505050506040513d601f19601f82011682018060405250810190611d73919061296c565b506009546001600160a01b031663a9059cbb836064611d9c886901b1ae4d6e2ef500000061293c565b611da790600561293c565b611db191906129a6565b6040518363ffffffff1660e01b8152600401611dce929190612953565b6020604051808303816000875af1158015611ded573d6000803e3d6000fd5b505050506040513d601f19601f82011682018060405250810190611e11919061296c565b506107d090505b6002856002811115611e2c57611e2c6124e3565b03611f7a57600954600b546001600160a01b039182169163a9059cbb91166064611e608869028a857425466f80000061293c565b611e6b90605f61293c565b611e7591906129a6565b6040518363ffffffff1660e01b8152600401611e92929190612953565b6020604051808303816000875af1158015611eb1573d6000803e3d6000fd5b505050506040513d601f19601f82011682018060405250810190611ed5919061296c565b506009546001600160a01b031663a9059cbb836064611efe8869028a857425466f80000061293c565b611f0990600561293c565b611f1391906129a6565b6040518363ffffffff1660e01b8152600401611f30929190612953565b6020604051808303816000875af1158015611f4f573d6000803e3d6000fd5b505050506040513d601f19601f82011682018060405250810190611f73919061296c565b50610c8090505b60005b8481101561200c57600780549081906000611f97836128c9565b9190505550611fa63382612213565b6000818152600860205260409020805488919060ff19166001836002811115611fd157611fd16124e3565b0217905550600090815260086020526040902042600382015563076a7000600482015560050182905580612004816128c9565b915050611f7d565b505050505050565b808061202857506001600160a01b03821615155b156120ea57600061203884610fd3565b90506001600160a01b038316158015906120645750826001600160a01b0316816001600160a01b031614155b801561207757506120758184610f67565b155b156120a05760405163a9fbf51f60e01b81526001600160a01b0384166004820152602401610540565b81156120e85783856001600160a01b0316826001600160a01b03167f8c5be1e5ebec7d5bd14f71427d1e84f3dd0314c0f7b2291e5b200ac8c7c3b92560405160405180910390a45b505b5050600090815260046020526040902080546001600160a01b0319166001600160a01b0392909216919091179055565b6000828152600260205260408120546001600160a01b039081169083161561214757612147818486612278565b6001600160a01b0381161561218557612164600085600080612014565b6001600160a01b038116600090815260036020526040902080546000190190555b6001600160a01b038516156121b4576001600160a01b0385166000908152600360205260409020805460010190555b60008481526002602052604080822080546001600160a01b0319166001600160a01b0389811691821790925591518793918516917fddf252ad1be2c89b69c2b068fc378daa952ba7f163c4a11628f55a4df523b3ef91a4949350505050565b6001600160a01b03821661223d57604051633250574960e11b815260006004820152602401610540565b600061224b8383600061211a565b90506001600160a01b03811615610554576040516339e3563760e11b815260006004820152602401610540565b6122838383836122ce565b610554576001600160a01b0383166122b157604051637e27328960e01b815260048101829052602401610540565b818160405163177e802f60e01b8152600401610540929190612953565b60006001600160a01b0383161580159061232c5750826001600160a01b0316846001600160a01b0316148061230857506123088484610f67565b8061232c57506000828152600460205260409020546001600160a01b038481169116145b949350505050565b6001600160e01b031981168114610fd057600080fd5b60006020828403121561235c57600080fd5b813561236781612334565b9392505050565b6000815180845260005b8181101561239457602081850181015186830182015201612378565b506000602082860101526020601f19601f83011685010191505092915050565b602081526000612367602083018461236e565b6000602082840312156123d957600080fd5b5035919050565b6001600160a01b0381168114610fd057600080fd5b6000806040838503121561240857600080fd5b8235612413816123e0565b946020939093013593505050565b60008060006060848603121561243657600080fd5b8335612441816123e0565b92506020840135612451816123e0565b929592945050506040919091013590565b8015158114610fd057600080fd5b60006020828403121561248257600080fd5b813561236781612462565b60006020828403121561249f57600080fd5b8135612367816123e0565b600080604083850312156124bd57600080fd5b82356124c8816123e0565b915060208301356124d881612462565b809150509250929050565b634e487b7160e01b600052602160045260246000fd5b60038110610fd057610fd06124e3565b60808101612516866124f9565b9481526020810193909352604083019190915260609091015290565b634e487b7160e01b600052604160045260246000fd5b604051601f8201601f1916810167ffffffffffffffff8111828210171561257157612571612532565b604052919050565b6000806000806080858703121561258f57600080fd5b843561259a816123e0565b93506020858101356125ab816123e0565b935060408601359250606086013567ffffffffffffffff808211156125cf57600080fd5b818801915088601f8301126125e357600080fd5b8135818111156125f5576125f5612532565b612607601f8201601f19168501612548565b9150808252898482850101111561261d57600080fd5b808484018584013760008482840101525080935050505092959194509250565b60038110610fd057600080fd5b60008060006060848603121561265f57600080fd5b8335925060208401356126718161263d565b915060408401356004811061268557600080fd5b809150509250925092565b600067ffffffffffffffff8211156126aa576126aa612532565b5060051b60200190565b600082601f8301126126c557600080fd5b813560206126da6126d583612690565b612548565b82815260059290921b840181019181810190868411156126f957600080fd5b8286015b8481101561271457803583529183019183016126fd565b509695505050505050565b60008060006060848603121561273457600080fd5b833567ffffffffffffffff8082111561274c57600080fd5b818601915086601f83011261276057600080fd5b813560206127706126d583612690565b82815260059290921b8401810191818101908a84111561278f57600080fd5b948201945b838610156127b65785356127a78161263d565b82529482019490820190612794565b975050870135925050808211156127cc57600080fd5b506127d9868287016126b4565b925050604084013590509250925092565b600080604083850312156127fd57600080fd5b8235612808816123e0565b915060208301356124d8816123e0565b600181811c9082168061282c57607f821691505b60208210810361284c57634e487b7160e01b600052602260045260246000fd5b50919050565b634e487b7160e01b600052601160045260246000fd5b8181038181111561042357610423612852565b8481526080810161288b856124f9565b846020830152600484106128a1576128a16124e3565b60408201939093526060015292915050565b634e487b7160e01b600052603260045260246000fd5b6000600182016128db576128db612852565b5060010190565b6001600160a01b03858116825284166020820152604081018390526080606082018190526000906129159083018461236e565b9695505050505050565b60006020828403121561293157600080fd5b815161236781612334565b808202811582820484141761042357610423612852565b6001600160a01b03929092168252602082015260400190565b60006020828403121561297e57600080fd5b815161236781612462565b60006020828403121561299b57600080fd5b8151612367816123e0565b6000826129c357634e487b7160e01b600052601260045260246000fd5b50049056fea264697066735822122015b76b796c243cd3e11d3bb25b6eeefee9d26660c93fddf03d24ba1f974cfbd364736f6c63430008150033",
    "linkReferences": {}
  },
  "methodIdentifiers": {
    "USDT()": "c54e44eb",
    "approve(address,uint256)": "095ea7b3",
    "balanceOf(address)": "70a08231",
    "getApproved(uint256)": "081812fc",
    "invitationCenter()": "2f533280",
    "isApprovedForAll(address,address)": "e985e9c5",
    "isPromotion()": "2677e4d3",
    "name()": "06fdde03",
    "nextTokenID()": "f101e481",
    "nodeInfo(uint256)": "b02439ae",
    "owner()": "8da5cb5b",
    "ownerOf(uint256)": "6352211e",
    "publicMint(uint8[],uint256[],bytes32)": "d21d701c",
    "receiver()": "f7260d3e",
    "renounceOwnership()": "715018a6",
    "safeTransferFrom(address,address,uint256)": "42842e0e",
    "safeTransferFrom(address,address,uint256,bytes)": "b88d4fde",
    "setApprovalForAll(address,bool)": "a22cb465",
    "setPromotion(bool)": "4f821a26",
    "supportsInterface(bytes4)": "01ffc9a7",
    "symbol()": "95d89b41",
    "tokenURI(uint256)": "c87b56dd",
    "transferFrom(address,address,uint256)": "23b872dd",
    "transferOwnership(address)": "f2fde38b",
    "transferable()": "92ff0d31",
    "upgrade(uint256,uint8,uint8)": "c41b3cd2"
  },
  "id": 18
}