{
  "abi": [
    {
      "inputs": [
        {
          "internalType": "string",
          "name": "name",
          "type": "string"
        },
        {
          "internalType": "string",
          "name": "symbol",
          "type": "string"
        },
        {
          "internalType": "address",
          "name": "_usdt",
          "type": "address"
        },
        {
          "internalType": "address",
          "name": "_zeb",
          "type": "address"
        },
        {
          "internalType": "address",
          "name": "_fund",
          "type": "address"
        },
        {
          "internalType": "address",
          "name": "_signer",
          "type": "address"
        }
      ],
      "stateMutability": "nonpayable",
      "type": "constructor"
    },
    {
      "inputs": [],
      "name": "ERC721EnumerableForbiddenBatchMint",
      "type": "error"
    },
    {
      "inputs": [
        {
          "internalType": "address",
          "name": "sender",
          "type": "address"
        },
        {
          "internalType": "uint256",
          "name": "tokenId",
          "type": "uint256"
        },
        {
          "internalType": "address",
          "name": "owner",
          "type": "address"
        }
      ],
      "name": "ERC721IncorrectOwner",
      "type": "error"
    },
    {
      "inputs": [
        {
          "internalType": "address",
          "name": "operator",
          "type": "address"
        },
        {
          "internalType": "uint256",
          "name": "tokenId",
          "type": "uint256"
        }
      ],
      "name": "ERC721InsufficientApproval",
      "type": "error"
    },
    {
      "inputs": [
        {
          "internalType": "address",
          "name": "approver",
          "type": "address"
        }
      ],
      "name": "ERC721InvalidApprover",
      "type": "error"
    },
    {
      "inputs": [
        {
          "internalType": "address",
          "name": "operator",
          "type": "address"
        }
      ],
      "name": "ERC721InvalidOperator",
      "type": "error"
    },
    {
      "inputs": [
        {
          "internalType": "address",
          "name": "owner",
          "type": "address"
        }
      ],
      "name": "ERC721InvalidOwner",
      "type": "error"
    },
    {
      "inputs": [
        {
          "internalType": "address",
          "name": "receiver",
          "type": "address"
        }
      ],
      "name": "ERC721InvalidReceiver",
      "type": "error"
    },
    {
      "inputs": [
        {
          "internalType": "address",
          "name": "sender",
          "type": "address"
        }
      ],
      "name": "ERC721InvalidSender",
      "type": "error"
    },
    {
      "inputs": [
        {
          "internalType": "uint256",
          "name": "tokenId",
          "type": "uint256"
        }
      ],
      "name": "ERC721NonexistentToken",
      "type": "error"
    },
    {
      "inputs": [
        {
          "internalType": "address",
          "name": "owner",
          "type": "address"
        },
        {
          "internalType": "uint256",
          "name": "index",
          "type": "uint256"
        }
      ],
      "name": "ERC721OutOfBoundsIndex",
      "type": "error"
    },
    {
      "inputs": [
        {
          "internalType": "address",
          "name": "owner",
          "type": "address"
        }
      ],
      "name": "OwnableInvalidOwner",
      "type": "error"
    },
    {
      "inputs": [
        {
          "internalType": "address",
          "name": "account",
          "type": "address"
        }
      ],
      "name": "OwnableUnauthorizedAccount",
      "type": "error"
    },
    {
      "anonymous": false,
      "inputs": [
        {
          "indexed": true,
          "internalType": "address",
          "name": "owner",
          "type": "address"
        },
        {
          "indexed": true,
          "internalType": "address",
          "name": "approved",
          "type": "address"
        },
        {
          "indexed": true,
          "internalType": "uint256",
          "name": "tokenId",
          "type": "uint256"
        }
      ],
      "name": "Approval",
      "type": "event"
    },
    {
      "anonymous": false,
      "inputs": [
        {
          "indexed": true,
          "internalType": "address",
          "name": "owner",
          "type": "address"
        },
        {
          "indexed": true,
          "internalType": "address",
          "name": "operator",
          "type": "address"
        },
        {
          "indexed": false,
          "internalType": "bool",
          "name": "approved",
          "type": "bool"
        }
      ],
      "name": "ApprovalForAll",
      "type": "event"
    },
    {
      "anonymous": false,
      "inputs": [
        {
          "indexed": true,
          "internalType": "address",
          "name": "previousOwner",
          "type": "address"
        },
        {
          "indexed": true,
          "internalType": "address",
          "name": "newOwner",
          "type": "address"
        }
      ],
      "name": "OwnershipTransferred",
      "type": "event"
    },
    {
      "anonymous": false,
      "inputs": [
        {
          "indexed": true,
          "internalType": "address",
          "name": "from",
          "type": "address"
        },
        {
          "indexed": true,
          "internalType": "address",
          "name": "to",
          "type": "address"
        },
        {
          "indexed": true,
          "internalType": "uint256",
          "name": "tokenId",
          "type": "uint256"
        }
      ],
      "name": "Transfer",
      "type": "event"
    },
    {
      "anonymous": false,
      "inputs": [
        {
          "indexed": true,
          "internalType": "uint256",
          "name": "tokenId",
          "type": "uint256"
        },
        {
          "indexed": false,
          "internalType": "address",
          "name": "user",
          "type": "address"
        },
        {
          "indexed": false,
          "internalType": "uint256",
          "name": "amount",
          "type": "uint256"
        },
        {
          "indexed": false,
          "internalType": "address",
          "name": "inviter",
          "type": "address"
        },
        {
          "indexed": false,
          "internalType": "enum Node.MachineType",
          "name": "_MachineType",
          "type": "uint8"
        }
      ],
      "name": "mintEvent",
      "type": "event"
    },
    {
      "anonymous": false,
      "inputs": [
        {
          "indexed": true,
          "internalType": "uint256",
          "name": "tokenId",
          "type": "uint256"
        },
        {
          "indexed": false,
          "internalType": "address",
          "name": "inviter",
          "type": "address"
        },
        {
          "indexed": false,
          "internalType": "enum Node.EquipmentType",
          "name": "equipmentType",
          "type": "uint8"
        },
        {
          "indexed": false,
          "internalType": "enum Node.EquipmentLevel",
          "name": "equipmentLevel",
          "type": "uint8"
        },
        {
          "indexed": false,
          "internalType": "uint256",
          "name": "time",
          "type": "uint256"
        }
      ],
      "name": "upgradeEvent",
      "type": "event"
    },
    {
      "inputs": [],
      "name": "USDT",
      "outputs": [
        {
          "internalType": "contract IERC20",
          "name": "",
          "type": "address"
        }
      ],
      "stateMutability": "view",
      "type": "function"
    },
    {
      "inputs": [],
      "name": "Zeb",
      "outputs": [
        {
          "internalType": "contract IERC20",
          "name": "",
          "type": "address"
        }
      ],
      "stateMutability": "view",
      "type": "function"
    },
    {
      "inputs": [
        {
          "internalType": "address",
          "name": "to",
          "type": "address"
        },
        {
          "internalType": "uint256",
          "name": "tokenId",
          "type": "uint256"
        }
      ],
      "name": "approve",
      "outputs": [],
      "stateMutability": "nonpayable",
      "type": "function"
    },
    {
      "inputs": [
        {
          "internalType": "address",
          "name": "owner",
          "type": "address"
        }
      ],
      "name": "balanceOf",
      "outputs": [
        {
          "internalType": "uint256",
          "name": "",
          "type": "uint256"
        }
      ],
      "stateMutability": "view",
      "type": "function"
    },
    {
      "inputs": [],
      "name": "fund",
      "outputs": [
        {
          "internalType": "address",
          "name": "",
          "type": "address"
        }
      ],
      "stateMutability": "view",
      "type": "function"
    },
    {
      "inputs": [
        {
          "internalType": "uint256",
          "name": "tokenId",
          "type": "uint256"
        }
      ],
      "name": "getApproved",
      "outputs": [
        {
          "internalType": "address",
          "name": "",
          "type": "address"
        }
      ],
      "stateMutability": "view",
      "type": "function"
    },
    {
      "inputs": [
        {
          "internalType": "address",
          "name": "owner",
          "type": "address"
        },
        {
          "internalType": "address",
          "name": "operator",
          "type": "address"
        }
      ],
      "name": "isApprovedForAll",
      "outputs": [
        {
          "internalType": "bool",
          "name": "",
          "type": "bool"
        }
      ],
      "stateMutability": "view",
      "type": "function"
    },
    {
      "inputs": [
        {
          "internalType": "bool",
          "name": "isUSDT",
          "type": "bool"
        },
        {
          "internalType": "uint256",
          "name": "tokenId",
          "type": "uint256"
        },
        {
          "internalType": "enum Node.EquipmentType[]",
          "name": "_equipmentType",
          "type": "uint8[]"
        },
        {
          "internalType": "enum Node.EquipmentLevel[]",
          "name": "_equipmentLevel",
          "type": "uint8[]"
        },
        {
          "internalType": "address",
          "name": "inviter",
          "type": "address"
        },
        {
          "internalType": "uint256",
          "name": "zebPrice",
          "type": "uint256"
        },
        {
          "internalType": "bytes",
          "name": "evidence",
          "type": "bytes"
        }
      ],
      "name": "multipleUpgrade",
      "outputs": [],
      "stateMutability": "nonpayable",
      "type": "function"
    },
    {
      "inputs": [],
      "name": "name",
      "outputs": [
        {
          "internalType": "string",
          "name": "",
          "type": "string"
        }
      ],
      "stateMutability": "view",
      "type": "function"
    },
    {
      "inputs": [],
      "name": "nextTokenID",
      "outputs": [
        {
          "internalType": "uint256",
          "name": "",
          "type": "uint256"
        }
      ],
      "stateMutability": "view",
      "type": "function"
    },
    {
      "inputs": [
        {
          "internalType": "uint256",
          "name": "",
          "type": "uint256"
        }
      ],
      "name": "nodeInfo",
      "outputs": [
        {
          "internalType": "enum Node.MachineType",
          "name": "MachineType",
          "type": "uint8"
        },
        {
          "internalType": "uint256",
          "name": "mintTime",
          "type": "uint256"
        },
        {
          "internalType": "uint256",
          "name": "unlockPeriod",
          "type": "uint256"
        },
        {
          "internalType": "uint256",
          "name": "totalToken",
          "type": "uint256"
        }
      ],
      "stateMutability": "view",
      "type": "function"
    },
    {
      "inputs": [],
      "name": "owner",
      "outputs": [
        {
          "internalType": "address",
          "name": "",
          "type": "address"
        }
      ],
      "stateMutability": "view",
      "type": "function"
    },
    {
      "inputs": [
        {
          "internalType": "uint256",
          "name": "tokenId",
          "type": "uint256"
        }
      ],
      "name": "ownerOf",
      "outputs": [
        {
          "internalType": "address",
          "name": "",
          "type": "address"
        }
      ],
      "stateMutability": "view",
      "type": "function"
    },
    {
      "inputs": [
        {
          "internalType": "enum Node.MachineType[]",
          "name": "_machineType",
          "type": "uint8[]"
        },
        {
          "internalType": "uint256[]",
          "name": "amount",
          "type": "uint256[]"
        },
        {
          "internalType": "address",
          "name": "inviter",
          "type": "address"
        },
        {
          "internalType": "uint256",
          "name": "discount",
          "type": "uint256"
        },
        {
          "internalType": "bytes",
          "name": "evidence",
          "type": "bytes"
        }
      ],
      "name": "publicMint",
      "outputs": [],
      "stateMutability": "nonpayable",
      "type": "function"
    },
    {
      "inputs": [],
      "name": "renounceOwnership",
      "outputs": [],
      "stateMutability": "nonpayable",
      "type": "function"
    },
    {
      "inputs": [
        {
          "internalType": "address",
          "name": "from",
          "type": "address"
        },
        {
          "internalType": "address",
          "name": "to",
          "type": "address"
        },
        {
          "internalType": "uint256",
          "name": "tokenId",
          "type": "uint256"
        }
      ],
      "name": "safeTransferFrom",
      "outputs": [],
      "stateMutability": "nonpayable",
      "type": "function"
    },
    {
      "inputs": [
        {
          "internalType": "address",
          "name": "from",
          "type": "address"
        },
        {
          "internalType": "address",
          "name": "to",
          "type": "address"
        },
        {
          "internalType": "uint256",
          "name": "tokenId",
          "type": "uint256"
        },
        {
          "internalType": "bytes",
          "name": "data",
          "type": "bytes"
        }
      ],
      "name": "safeTransferFrom",
      "outputs": [],
      "stateMutability": "nonpayable",
      "type": "function"
    },
    {
      "inputs": [
        {
          "internalType": "address",
          "name": "operator",
          "type": "address"
        },
        {
          "internalType": "bool",
          "name": "approved",
          "type": "bool"
        }
      ],
      "name": "setApprovalForAll",
      "outputs": [],
      "stateMutability": "nonpayable",
      "type": "function"
    },
    {
      "inputs": [],
      "name": "signer",
      "outputs": [
        {
          "internalType": "address",
          "name": "",
          "type": "address"
        }
      ],
      "stateMutability": "view",
      "type": "function"
    },
    {
      "inputs": [
        {
          "internalType": "bytes4",
          "name": "interfaceId",
          "type": "bytes4"
        }
      ],
      "name": "supportsInterface",
      "outputs": [
        {
          "internalType": "bool",
          "name": "",
          "type": "bool"
        }
      ],
      "stateMutability": "view",
      "type": "function"
    },
    {
      "inputs": [],
      "name": "symbol",
      "outputs": [
        {
          "internalType": "string",
          "name": "",
          "type": "string"
        }
      ],
      "stateMutability": "view",
      "type": "function"
    },
    {
      "inputs": [
        {
          "internalType": "uint256",
          "name": "index",
          "type": "uint256"
        }
      ],
      "name": "tokenByIndex",
      "outputs": [
        {
          "internalType": "uint256",
          "name": "",
          "type": "uint256"
        }
      ],
      "stateMutability": "view",
      "type": "function"
    },
    {
      "inputs": [
        {
          "internalType": "address",
          "name": "owner",
          "type": "address"
        },
        {
          "internalType": "uint256",
          "name": "index",
          "type": "uint256"
        }
      ],
      "name": "tokenOfOwnerByIndex",
      "outputs": [
        {
          "internalType": "uint256",
          "name": "",
          "type": "uint256"
        }
      ],
      "stateMutability": "view",
      "type": "function"
    },
    {
      "inputs": [
        {
          "internalType": "uint256",
          "name": "tokenID",
          "type": "uint256"
        }
      ],
      "name": "tokenURI",
      "outputs": [
        {
          "internalType": "string",
          "name": "",
          "type": "string"
        }
      ],
      "stateMutability": "view",
      "type": "function"
    },
    {
      "inputs": [],
      "name": "totalSupply",
      "outputs": [
        {
          "internalType": "uint256",
          "name": "",
          "type": "uint256"
        }
      ],
      "stateMutability": "view",
      "type": "function"
    },
    {
      "inputs": [
        {
          "internalType": "address",
          "name": "from",
          "type": "address"
        },
        {
          "internalType": "address",
          "name": "to",
          "type": "address"
        },
        {
          "internalType": "uint256",
          "name": "tokenId",
          "type": "uint256"
        }
      ],
      "name": "transferFrom",
      "outputs": [],
      "stateMutability": "nonpayable",
      "type": "function"
    },
    {
      "inputs": [
        {
          "internalType": "address",
          "name": "newOwner",
          "type": "address"
        }
      ],
      "name": "transferOwnership",
      "outputs": [],
      "stateMutability": "nonpayable",
      "type": "function"
    },
    {
      "inputs": [],
      "name": "transferable",
      "outputs": [
        {
          "internalType": "bool",
          "name": "",
          "type": "bool"
        }
      ],
      "stateMutability": "view",
      "type": "function"
    },
    {
      "inputs": [
        {
          "internalType": "bool",
          "name": "isUSDT",
          "type": "bool"
        },
        {
          "internalType": "uint256",
          "name": "tokenId",
          "type": "uint256"
        },
        {
          "internalType": "enum Node.EquipmentType",
          "name": "_equipmentType",
          "type": "uint8"
        },
        {
          "internalType": "enum Node.EquipmentLevel",
          "name": "_equipmentLevel",
          "type": "uint8"
        },
        {
          "internalType": "address",
          "name": "inviter",
          "type": "address"
        },
        {
          "internalType": "uint256",
          "name": "zebPrice",
          "type": "uint256"
        },
        {
          "internalType": "bytes",
          "name": "evidence",
          "type": "bytes"
        }
      ],
      "name": "upgrade",
      "outputs": [],
      "stateMutability": "nonpayable",
      "type": "function"
    }
  ],
  "bytecode": {
    "object": "0x60806040523480156200001157600080fd5b50604051620040543803806200405483398101604081905262000034916200021d565b33868660006200004583826200035f565b5060016200005482826200035f565b5050506001600160a01b0381166200008657604051631e4fbdf760e01b81526000600482015260240160405180910390fd5b6200009181620000e9565b50600d80546001600160a01b039586166001600160a01b031991821617909155600e805494861694821694909417909355600f80549285169284169290921790915560108054919093169116179055506200042b9050565b600a80546001600160a01b038381166001600160a01b0319831681179093556040519116919082907f8be0079c531659141344cd1fd0a4f28419497f9722a3daafe3b4186f6b6457e090600090a35050565b634e487b7160e01b600052604160045260246000fd5b600082601f8301126200016357600080fd5b81516001600160401b03808211156200018057620001806200013b565b604051601f8301601f19908116603f01168101908282118183101715620001ab57620001ab6200013b565b81604052838152602092508683858801011115620001c857600080fd5b600091505b83821015620001ec5785820183015181830184015290820190620001cd565b600093810190920192909252949350505050565b80516001600160a01b03811681146200021857600080fd5b919050565b60008060008060008060c087890312156200023757600080fd5b86516001600160401b03808211156200024f57600080fd5b6200025d8a838b0162000151565b975060208901519150808211156200027457600080fd5b506200028389828a0162000151565b955050620002946040880162000200565b9350620002a46060880162000200565b9250620002b46080880162000200565b9150620002c460a0880162000200565b90509295509295509295565b600181811c90821680620002e557607f821691505b6020821081036200030657634e487b7160e01b600052602260045260246000fd5b50919050565b601f8211156200035a57600081815260208120601f850160051c81016020861015620003355750805b601f850160051c820191505b81811015620003565782815560010162000341565b5050505b505050565b81516001600160401b038111156200037b576200037b6200013b565b62000393816200038c8454620002d0565b846200030c565b602080601f831160018114620003cb5760008415620003b25750858301515b600019600386901b1c1916600185901b17855562000356565b600085815260208120601f198616915b82811015620003fc57888601518255948401946001909101908401620003db565b50858210156200041b5787850151600019600388901b60f8161c191681555b5050505050600190811b01905550565b613c19806200043b6000396000f3fe608060405234801561001057600080fd5b50600436106101cf5760003560e01c8063715018a611610104578063b60d4288116100a2578063d0e774f611610071578063d0e774f6146103ff578063e985e9c514610412578063f101e48114610425578063f2fde38b1461042e57600080fd5b8063b60d4288146103b2578063b88d4fde146103c5578063c54e44eb146103d8578063c87b56dd146103eb57600080fd5b806395d89b41116100de57806395d89b411461033b578063a22cb46514610343578063b02439ae14610356578063b588a8901461039f57600080fd5b8063715018a61461030e5780638da5cb5b1461031657806392ff0d311461032757600080fd5b806323b872dd1161017157806342842e0e1161014b57806342842e0e146102c25780634f6ccce7146102d55780636352211e146102e857806370a08231146102fb57600080fd5b806323b872dd1461028957806329fb08f51461029c5780632f745c59146102af57600080fd5b8063095ea7b3116101ad578063095ea7b31461023c57806315f2e2051461025157806318160ddd14610264578063238ac9331461027657600080fd5b806301ffc9a7146101d457806306fdde03146101fc578063081812fc14610211575b600080fd5b6101e76101e2366004613313565b610441565b60405190151581526020015b60405180910390f35b61020461046c565b6040516101f3919061337d565b61022461021f366004613390565b6104fe565b6040516001600160a01b0390911681526020016101f3565b61024f61024a3660046133c5565b610527565b005b600e54610224906001600160a01b031681565b6008545b6040519081526020016101f3565b601054610224906001600160a01b031681565b61024f6102973660046133ef565b610536565b61024f6102aa36600461350c565b6105c6565b6102686102bd3660046133c5565b610f4c565b61024f6102d03660046133ef565b610fa3565b6102686102e3366004613390565b610fc3565b6102246102f6366004613390565b611017565b6102686103093660046135a3565b611022565b61024f61106a565b600a546001600160a01b0316610224565b600a546101e790600160a01b900460ff1681565b61020461107e565b61024f6103513660046135be565b61108d565b61038f610364366004613390565b600c60205260009081526040902080546003820154600483015460059093015460ff90921692909184565b6040516101f3949392919061361b565b61024f6103ad3660046136d3565b611098565b600f54610224906001600160a01b031681565b61024f6103d33660046137d4565b6110fd565b600d54610224906001600160a01b031681565b6102046103f9366004613390565b50606090565b61024f61040d36600461389e565b611114565b6101e76104203660046139ae565b61117d565b610268600b5481565b61024f61043c3660046135a3565b6111ab565b60006001600160e01b0319821663780e9d6360e01b14806104665750610466826111e9565b92915050565b60606000805461047b906139e1565b80601f01602080910402602001604051908101604052809291908181526020018280546104a7906139e1565b80156104f45780601f106104c9576101008083540402835291602001916104f4565b820191906000526020600020905b8154815290600101906020018083116104d757829003601f168201915b5050505050905090565b600061050982611239565b506000828152600460205260409020546001600160a01b0316610466565b610532828233611272565b5050565b6001600160a01b03821661056557604051633250574960e11b8152600060048201526024015b60405180910390fd5b600061057283833361127f565b9050836001600160a01b0316816001600160a01b0316146105c0576040516364283d7b60e01b81526001600160a01b038086166004830152602482018490528216604482015260640161055c565b50505050565b61061982846040516020016105ee9291909182526001600160a01b0316602082015260400190565b60408051601f19818403018152919052805160209091012060105483906001600160a01b0316611354565b6106585760405162461bcd60e51b815260206004820152601060248201526f696e76616c69642065766964656e636560801b604482015260640161055c565b3361066287611017565b6001600160a01b0316146106a95760405162461bcd60e51b815260206004820152600e60248201526d27232a1d103737ba1037bbb732b960911b604482015260640161055c565b8360038111156106bb576106bb6135f5565b6000878152600c602052604081206002908101919088908111156106e1576106e16135f5565b60028111156106f2576106f26135f5565b815260208101919091526040016000205460ff166003811115610717576107176135f5565b1061075b5760405162461bcd60e51b81526020600482015260146024820152734e46543a206e6f74207570677261646561626c6560601b604482015260640161055c565b6000868152600c602052604081205460ff1690816002811115610780576107806135f5565b03610916576000866002811115610799576107996135f5565b0361080d576000878152600c60205260408120600290810190829089908111156107c5576107c56135f5565b60028111156107d6576107d66135f5565b815260208101919091526040016000205460ff16905061080785858b8b858c8c601f60296032600c6015600a61143b565b50610c70565b6001866002811115610821576108216135f5565b0361088f576000878152600c602052604081206002908101908290899081111561084d5761084d6135f5565b600281111561085e5761085e6135f5565b815260208101919091526040016000205460ff16905061080785858b8b858c8c6044605b606e601b6031601661143b565b60028660028111156108a3576108a36135f5565b03610911576000878152600c60205260408120600290810190829089908111156108cf576108cf6135f5565b60028111156108e0576108e06135f5565b815260208101919091526040016000205460ff16905061080785858b8b858c8c6072609860b7602d6051602461143b565b610c70565b600181600281111561092a5761092a6135f5565b03610ac3576000866002811115610943576109436135f5565b036109b9576000878152600c602052604081206002908101908290899081111561096f5761096f6135f5565b6002811115610980576109806135f5565b815260200190815260200160002060009054906101000a900460ff16905061080785858b8b858c8c6066608860a360286048602061143b565b60018660028111156109cd576109cd6135f5565b03610a3d576000878152600c60205260408120600290810190829089908111156109f9576109f96135f5565b6002811115610a0a57610a0a6135f5565b815260208101919091526040016000205460ff16905061080785858b8b858c8c60e161012c610168605a60a2604861143b565b6002866002811115610a5157610a516135f5565b03610911576000878152600c6020526040812060029081019082908990811115610a7d57610a7d6135f5565b6002811115610a8e57610a8e6135f5565b815260208101919091526040016000205460ff16905061080785858b8b858c8c6101776101f4610258609661010e607861143b565b6002816002811115610ad757610ad76135f5565b03610c70576000866002811115610af057610af06135f5565b03610b60576000878152600c6020526040812060029081019082908990811115610b1c57610b1c6135f5565b6002811115610b2d57610b2d6135f5565b815260208101919091526040016000205460ff16905061080785858b8b858c8c60dd6101276101626058609e604661143b565b6001866002811115610b7457610b746135f5565b03610be6576000878152600c6020526040812060029081019082908990811115610ba057610ba06135f5565b6002811115610bb157610bb16135f5565b815260208101919091526040016000205460ff16905061080785858b8b858c8c6101e761028a61030c60c361015f609c61143b565b6002866002811115610bfa57610bfa6135f5565b03610c70576000878152600c6020526040812060029081019082908990811115610c2657610c266135f5565b6002811115610c3757610c376135f5565b815260208101919091526040016000205460ff169050610c6e85858b8b858c8c61032c61043b61051461014561024961010461143b565b505b6000866002811115610c8457610c846135f5565b03610d5b576001856003811115610c9d57610c9d6135f5565b03610cd1576000878152600c602052604081206004018054624f1a009290610cc6908490613a31565b90915550610f049050565b6002856003811115610ce557610ce56135f5565b03610d19576000878152600c6020526040812060040180546276a7009290610d0e908490613a31565b90915550610d569050565b6003856003811115610d2d57610d2d6135f5565b03610d56576000878152600c602052604081206004018054629e34009290610cc6908490613a31565b610f04565b6001866002811115610d6f57610d6f6135f5565b03610e2c576001856003811115610d8857610d886135f5565b03610db1576000878152600c602052604081206004018054629e34009290610cc6908490613a31565b6002856003811115610dc557610dc56135f5565b03610dee576000878152600c60205260408120600401805462ed4e009290610d0e908490613a31565b6003856003811115610e0257610e026135f5565b03610d56576000878152600c60205260408120600401805463013c68009290610cc6908490613a31565b6002866002811115610e4057610e406135f5565b03610f04576001856003811115610e5957610e596135f5565b03610e82576000878152600c60205260408120600401805462ed4e009290610cc6908490613a31565b6002856003811115610e9657610e966135f5565b03610ec0576000878152600c602052604081206004018054630163f5009290610cc6908490613a31565b6003856003811115610ed457610ed46135f5565b03610f04576000878152600c6020526040812060040180546301da9c009290610efe908490613a31565b90915550505b867f45d556c1b08304cc1ae1a44d5caa6e8dc835b9f6134ff8bed268dfd5cc71bda685888842604051610f3a9493929190613a44565b60405180910390a25050505050505050565b6000610f5783611022565b8210610f7a57828260405163295f44f760e21b815260040161055c929190613a85565b506001600160a01b03919091166000908152600660209081526040808320938352929052205490565b610fbe838383604051806020016040528060008152506110fd565b505050565b6000610fce60085490565b8210610ff25760008260405163295f44f760e21b815260040161055c929190613a85565b6008828154811061100557611005613a9e565b90600052602060002001549050919050565b600061046682611239565b60006001600160a01b03821661104e576040516322718ad960e21b81526000600482015260240161055c565b506001600160a01b031660009081526003602052604090205490565b61107261263d565b61107c600061266a565b565b60606001805461047b906139e1565b6105323383836126bc565b60005b85518110156110f5576110e38682815181106110b9576110b9613a9e565b60200260200101518683815181106110d3576110d3613a9e565b602002602001015186868661275b565b806110ed81613ab4565b91505061109b565b505050505050565b611108848484610536565b6105c084848484612d27565b60005b855181101561117357611161888888848151811061113757611137613a9e565b602002602001015188858151811061115157611151613a9e565b60200260200101518888886105c6565b8061116b81613ab4565b915050611117565b5050505050505050565b6001600160a01b03918216600090815260056020908152604080832093909416825291909152205460ff1690565b6111b361263d565b6001600160a01b0381166111dd57604051631e4fbdf760e01b81526000600482015260240161055c565b6111e68161266a565b50565b60006001600160e01b031982166380ac58cd60e01b148061121a57506001600160e01b03198216635b5e139f60e01b145b8061046657506301ffc9a760e01b6001600160e01b0319831614610466565b6000818152600260205260408120546001600160a01b03168061046657604051637e27328960e01b81526004810184905260240161055c565b610fbe8383836001612e50565b60008061128d858585612f56565b90506001600160a01b0381166112ea576112e584600880546000838152600960205260408120829055600182018355919091527ff3f7a9fe364faab93b216da50a3214154f22a0a2b415b23a84c8169e8b636ee30155565b61130d565b846001600160a01b0316816001600160a01b03161461130d5761130d818561304f565b6001600160a01b03851661132957611324846130e0565b61134c565b846001600160a01b0316816001600160a01b03161461134c5761134c858561318f565b949350505050565b60006001600160a01b0382161580159061136f575082516041145b61137857600080fd5b60008060008560408151811061139057611390613a9e565b01602001516113a39060f81c601b613acd565b90506020860151925060408601519150846001600160a01b0316600188838686604051600081526020016040526040516113f9949392919093845260ff9290921660208401526040830152606082015260800190565b6020604051602081039080840390855afa15801561141b573d6000803e3d6000fd5b505050602060405103516001600160a01b03161493505050509392505050565b600089600381111561144f5761144f6135f5565b03611d28576001876003811115611468576114686135f5565b03611746578a1561159f57600d54600f546001600160a01b039182169163a9059cbb911661149789605f613ae6565b6114a99067016345785d8a0000613ae6565b6040518363ffffffff1660e01b81526004016114c6929190613a85565b6020604051808303816000875af11580156114e5573d6000803e3d6000fd5b505050506040513d601f19601f820116820180604052508101906115099190613afd565b50600d546001600160a01b031663a9059cbb8e611527896005613ae6565b6115399067016345785d8a0000613ae6565b6040518363ffffffff1660e01b8152600401611556929190613a85565b6020604051808303816000875af1158015611575573d6000803e3d6000fd5b505050506040513d601f19601f820116820180604052508101906115999190613afd565b506116dd565b600e54600f546001600160a01b039182169163a9059cbb91168e6115c48a605f613ae6565b6115d69067016345785d8a0000613ae6565b6115e09190613b1a565b6040518363ffffffff1660e01b81526004016115fd929190613a85565b6020604051808303816000875af115801561161c573d6000803e3d6000fd5b505050506040513d601f19601f820116820180604052508101906116409190613afd565b50600e546001600160a01b031663a9059cbb8e8e61165f8a6005613ae6565b6116719067016345785d8a0000613ae6565b61167b9190613b1a565b6040518363ffffffff1660e01b8152600401611698929190613a85565b6020604051808303816000875af11580156116b7573d6000803e3d6000fd5b505050506040513d601f19601f820116820180604052508101906116db9190613afd565b505b60008a8152600c602052604081206001916002918201918b90811115611705576117056135f5565b6002811115611716576117166135f5565b81526020810191909152604001600020805460ff19166001836003811115611740576117406135f5565b02179055505b600287600381111561175a5761175a6135f5565b03611a36578a1561189157600d54600f546001600160a01b039182169163a9059cbb911661178988605f613ae6565b61179b9067016345785d8a0000613ae6565b6040518363ffffffff1660e01b81526004016117b8929190613a85565b6020604051808303816000875af11580156117d7573d6000803e3d6000fd5b505050506040513d601f19601f820116820180604052508101906117fb9190613afd565b50600d546001600160a01b031663a9059cbb8e611819886005613ae6565b61182b9067016345785d8a0000613ae6565b6040518363ffffffff1660e01b8152600401611848929190613a85565b6020604051808303816000875af1158015611867573d6000803e3d6000fd5b505050506040513d601f19601f8201168201806040525081019061188b9190613afd565b506119cf565b600e54600f546001600160a01b039182169163a9059cbb91168e6118b689605f613ae6565b6118c89067016345785d8a0000613ae6565b6118d29190613b1a565b6040518363ffffffff1660e01b81526004016118ef929190613a85565b6020604051808303816000875af115801561190e573d6000803e3d6000fd5b505050506040513d601f19601f820116820180604052508101906119329190613afd565b50600e546001600160a01b031663a9059cbb8e8e611951896005613ae6565b6119639067016345785d8a0000613ae6565b61196d9190613b1a565b6040518363ffffffff1660e01b815260040161198a929190613a85565b6020604051808303816000875af11580156119a9573d6000803e3d6000fd5b505050506040513d601f19601f820116820180604052508101906119cd9190613afd565b505b60008a8152600c60205260408120600291908201908a838111156119f5576119f56135f5565b6002811115611a0657611a066135f5565b81526020810191909152604001600020805460ff19166001836003811115611a3057611a306135f5565b02179055505b6003876003811115611a4a57611a4a6135f5565b03611d28578a15611b8157600d54600f546001600160a01b039182169163a9059cbb9116611a7987605f613ae6565b611a8b9067016345785d8a0000613ae6565b6040518363ffffffff1660e01b8152600401611aa8929190613a85565b6020604051808303816000875af1158015611ac7573d6000803e3d6000fd5b505050506040513d601f19601f82011682018060405250810190611aeb9190613afd565b50600d546001600160a01b031663a9059cbb8e611b09876005613ae6565b611b1b9067016345785d8a0000613ae6565b6040518363ffffffff1660e01b8152600401611b38929190613a85565b6020604051808303816000875af1158015611b57573d6000803e3d6000fd5b505050506040513d601f19601f82011682018060405250810190611b7b9190613afd565b50611cbf565b600e54600f546001600160a01b039182169163a9059cbb91168e611ba688605f613ae6565b611bb89067016345785d8a0000613ae6565b611bc29190613b1a565b6040518363ffffffff1660e01b8152600401611bdf929190613a85565b6020604051808303816000875af1158015611bfe573d6000803e3d6000fd5b505050506040513d601f19601f82011682018060405250810190611c229190613afd565b50600e546001600160a01b031663a9059cbb8e8e611c41886005613ae6565b611c539067016345785d8a0000613ae6565b611c5d9190613b1a565b6040518363ffffffff1660e01b8152600401611c7a929190613a85565b6020604051808303816000875af1158015611c99573d6000803e3d6000fd5b505050506040513d601f19601f82011682018060405250810190611cbd9190613afd565b505b60008a8152600c602052604081206003916002918201918b90811115611ce757611ce76135f5565b6002811115611cf857611cf86135f5565b81526020810191909152604001600020805460ff19166001836003811115611d2257611d226135f5565b02179055505b6001896003811115611d3c57611d3c6135f5565b03612323576002876003811115611d5557611d556135f5565b03612031578a15611e8c57600d54600f546001600160a01b039182169163a9059cbb9116611d8486605f613ae6565b611d969067016345785d8a0000613ae6565b6040518363ffffffff1660e01b8152600401611db3929190613a85565b6020604051808303816000875af1158015611dd2573d6000803e3d6000fd5b505050506040513d601f19601f82011682018060405250810190611df69190613afd565b50600d546001600160a01b031663a9059cbb8e611e14866005613ae6565b611e269067016345785d8a0000613ae6565b6040518363ffffffff1660e01b8152600401611e43929190613a85565b6020604051808303816000875af1158015611e62573d6000803e3d6000fd5b505050506040513d601f19601f82011682018060405250810190611e869190613afd565b50611fca565b600e54600f546001600160a01b039182169163a9059cbb91168e611eb187605f613ae6565b611ec39067016345785d8a0000613ae6565b611ecd9190613b1a565b6040518363ffffffff1660e01b8152600401611eea929190613a85565b6020604051808303816000875af1158015611f09573d6000803e3d6000fd5b505050506040513d601f19601f82011682018060405250810190611f2d9190613afd565b50600e546001600160a01b031663a9059cbb8e8e611f4c876005613ae6565b611f5e9067016345785d8a0000613ae6565b611f689190613b1a565b6040518363ffffffff1660e01b8152600401611f85929190613a85565b6020604051808303816000875af1158015611fa4573d6000803e3d6000fd5b505050506040513d601f19601f82011682018060405250810190611fc89190613afd565b505b60008a8152600c60205260408120600291908201908a83811115611ff057611ff06135f5565b6002811115612001576120016135f5565b81526020810191909152604001600020805460ff1916600183600381111561202b5761202b6135f5565b02179055505b6003876003811115612045576120456135f5565b03612323578a1561217c57600d54600f546001600160a01b039182169163a9059cbb911661207485605f613ae6565b6120869067016345785d8a0000613ae6565b6040518363ffffffff1660e01b81526004016120a3929190613a85565b6020604051808303816000875af11580156120c2573d6000803e3d6000fd5b505050506040513d601f19601f820116820180604052508101906120e69190613afd565b50600d546001600160a01b031663a9059cbb8e612104856005613ae6565b6121169067016345785d8a0000613ae6565b6040518363ffffffff1660e01b8152600401612133929190613a85565b6020604051808303816000875af1158015612152573d6000803e3d6000fd5b505050506040513d601f19601f820116820180604052508101906121769190613afd565b506122ba565b600e54600f546001600160a01b039182169163a9059cbb91168e6121a186605f613ae6565b6121b39067016345785d8a0000613ae6565b6121bd9190613b1a565b6040518363ffffffff1660e01b81526004016121da929190613a85565b6020604051808303816000875af11580156121f9573d6000803e3d6000fd5b505050506040513d601f19601f8201168201806040525081019061221d9190613afd565b50600e546001600160a01b031663a9059cbb8e8e61223c866005613ae6565b61224e9067016345785d8a0000613ae6565b6122589190613b1a565b6040518363ffffffff1660e01b8152600401612275929190613a85565b6020604051808303816000875af1158015612294573d6000803e3d6000fd5b505050506040513d601f19601f820116820180604052508101906122b89190613afd565b505b60008a8152600c602052604081206003916002918201918b908111156122e2576122e26135f5565b60028111156122f3576122f36135f5565b81526020810191909152604001600020805460ff1916600183600381111561231d5761231d6135f5565b02179055505b6002896003811115612337576123376135f5565b0361262e576003876003811115612350576123506135f5565b0361262e578a1561248757600d54600f546001600160a01b039182169163a9059cbb911661237f84605f613ae6565b6123919067016345785d8a0000613ae6565b6040518363ffffffff1660e01b81526004016123ae929190613a85565b6020604051808303816000875af11580156123cd573d6000803e3d6000fd5b505050506040513d601f19601f820116820180604052508101906123f19190613afd565b50600d546001600160a01b031663a9059cbb8e61240f846005613ae6565b6124219067016345785d8a0000613ae6565b6040518363ffffffff1660e01b815260040161243e929190613a85565b6020604051808303816000875af115801561245d573d6000803e3d6000fd5b505050506040513d601f19601f820116820180604052508101906124819190613afd565b506125c5565b600e54600f546001600160a01b039182169163a9059cbb91168e6124ac85605f613ae6565b6124be9067016345785d8a0000613ae6565b6124c89190613b1a565b6040518363ffffffff1660e01b81526004016124e5929190613a85565b6020604051808303816000875af1158015612504573d6000803e3d6000fd5b505050506040513d601f19601f820116820180604052508101906125289190613afd565b50600e546001600160a01b031663a9059cbb8e8e612547856005613ae6565b6125599067016345785d8a0000613ae6565b6125639190613b1a565b6040518363ffffffff1660e01b8152600401612580929190613a85565b6020604051808303816000875af115801561259f573d6000803e3d6000fd5b505050506040513d601f19601f820116820180604052508101906125c39190613afd565b505b60008a8152600c602052604081206003916002918201918b908111156125ed576125ed6135f5565b60028111156125fe576125fe6135f5565b81526020810191909152604001600020805460ff19166001836003811115612628576126286135f5565b02179055505b50505050505050505050505050565b600a546001600160a01b0316331461107c5760405163118cdaa760e01b815233600482015260240161055c565b600a80546001600160a01b038381166001600160a01b0319831681179093556040519116919082907f8be0079c531659141344cd1fd0a4f28419497f9722a3daafe3b4186f6b6457e090600090a35050565b6001600160a01b0382166126ee57604051630b61174360e31b81526001600160a01b038316600482015260240161055c565b6001600160a01b03838116600081815260056020908152604080832094871680845294825291829020805460ff191686151590811790915591519182527f17307eab39ab6107e8899845ad3d59bd9653f200f220920489ca2b5937696c31910160405180910390a3505050565b600061279e8484604051602001612773929190613a85565b60408051601f19818403018152919052805160209091012060105484906001600160a01b0316611354565b6127dd5760405162461bcd60e51b815260206004820152601060248201526f696e76616c69642065766964656e636560801b604482015260640161055c565b60008660028111156127f1576127f16135f5565b0361295757600d54600f546001600160a01b039182169163a9059cbb9116612710866128278a69010f0cf064dd59200000613ae6565b61283290605f613ae6565b61283c9190613ae6565b6128469190613b1a565b6040518363ffffffff1660e01b8152600401612863929190613a85565b6020604051808303816000875af1158015612882573d6000803e3d6000fd5b505050506040513d601f19601f820116820180604052508101906128a69190613afd565b50600d546001600160a01b031663a9059cbb85612710866128d18a69010f0cf064dd59200000613ae6565b6128dc906005613ae6565b6128e69190613ae6565b6128f09190613b1a565b6040518363ffffffff1660e01b815260040161290d929190613a85565b6020604051808303816000875af115801561292c573d6000803e3d6000fd5b505050506040513d601f19601f820116820180604052508101906129509190613afd565b506104b090505b600186600281111561296b5761296b6135f5565b03612ad157600d54600f546001600160a01b039182169163a9059cbb9116612710866129a18a6901b1ae4d6e2ef5000000613ae6565b6129ac90605f613ae6565b6129b69190613ae6565b6129c09190613b1a565b6040518363ffffffff1660e01b81526004016129dd929190613a85565b6020604051808303816000875af11580156129fc573d6000803e3d6000fd5b505050506040513d601f19601f82011682018060405250810190612a209190613afd565b50600d546001600160a01b031663a9059cbb8561271086612a4b8a6901b1ae4d6e2ef5000000613ae6565b612a56906005613ae6565b612a609190613ae6565b612a6a9190613b1a565b6040518363ffffffff1660e01b8152600401612a87929190613a85565b6020604051808303816000875af1158015612aa6573d6000803e3d6000fd5b505050506040513d601f19601f82011682018060405250810190612aca9190613afd565b506107d090505b6002866002811115612ae557612ae56135f5565b03612c4b57600d54600f546001600160a01b039182169163a9059cbb911661271086612b1b8a69028a857425466f800000613ae6565b612b2690605f613ae6565b612b309190613ae6565b612b3a9190613b1a565b6040518363ffffffff1660e01b8152600401612b57929190613a85565b6020604051808303816000875af1158015612b76573d6000803e3d6000fd5b505050506040513d601f19601f82011682018060405250810190612b9a9190613afd565b50600d546001600160a01b031663a9059cbb8561271086612bc58a69028a857425466f800000613ae6565b612bd0906005613ae6565b612bda9190613ae6565b612be49190613b1a565b6040518363ffffffff1660e01b8152600401612c01929190613a85565b6020604051808303816000875af1158015612c20573d6000803e3d6000fd5b505050506040513d601f19601f82011682018060405250810190612c449190613afd565b50610c8090505b60005b85811015612d1e57600b80549081906000612c6883613ab4565b9190505550612c7733826131df565b6000818152600c60205260409020805489919060ff19166001836002811115612ca257612ca26135f5565b02179055506000818152600c60205260409081902042600382015563076a700060048201556005018490555181907f2e6d97f41fb5e22a6bdffd32e22b194939ba2aa3ef13f7cfd9d8bc1b3bdae1a490612d039033908b908b908e90613b3c565b60405180910390a25080612d1681613ab4565b915050612c4e565b50505050505050565b6001600160a01b0383163b156105c057604051630a85bd0160e11b81526001600160a01b0384169063150b7a0290612d69903390889087908790600401613b73565b6020604051808303816000875af1925050508015612da4575060408051601f3d908101601f19168201909252612da191810190613bb0565b60015b612e0d573d808015612dd2576040519150601f19603f3d011682016040523d82523d6000602084013e612dd7565b606091505b508051600003612e0557604051633250574960e11b81526001600160a01b038516600482015260240161055c565b805181602001fd5b6001600160e01b03198116630a85bd0160e11b14612e4957604051633250574960e11b81526001600160a01b038516600482015260240161055c565b5050505050565b8080612e6457506001600160a01b03821615155b15612f26576000612e7484611239565b90506001600160a01b03831615801590612ea05750826001600160a01b0316816001600160a01b031614155b8015612eb35750612eb1818461117d565b155b15612edc5760405163a9fbf51f60e01b81526001600160a01b038416600482015260240161055c565b8115612f245783856001600160a01b0316826001600160a01b03167f8c5be1e5ebec7d5bd14f71427d1e84f3dd0314c0f7b2291e5b200ac8c7c3b92560405160405180910390a45b505b5050600090815260046020526040902080546001600160a01b0319166001600160a01b0392909216919091179055565b6000828152600260205260408120546001600160a01b0390811690831615612f8357612f83818486613244565b6001600160a01b03811615612fc157612fa0600085600080612e50565b6001600160a01b038116600090815260036020526040902080546000190190555b6001600160a01b03851615612ff0576001600160a01b0385166000908152600360205260409020805460010190555b60008481526002602052604080822080546001600160a01b0319166001600160a01b0389811691821790925591518793918516917fddf252ad1be2c89b69c2b068fc378daa952ba7f163c4a11628f55a4df523b3ef91a4949350505050565b600061305a83611022565b6000838152600760205260409020549091508082146130ad576001600160a01b03841660009081526006602090815260408083208584528252808320548484528184208190558352600790915290208190555b5060009182526007602090815260408084208490556001600160a01b039094168352600681528383209183525290812055565b6008546000906130f290600190613a31565b6000838152600960205260408120546008805493945090928490811061311a5761311a613a9e565b90600052602060002001549050806008838154811061313b5761313b613a9e565b600091825260208083209091019290925582815260099091526040808220849055858252812055600880548061317357613173613bcd565b6001900381819060005260206000200160009055905550505050565b6000600161319c84611022565b6131a69190613a31565b6001600160a01b039093166000908152600660209081526040808320868452825280832085905593825260079052919091209190915550565b6001600160a01b03821661320957604051633250574960e11b81526000600482015260240161055c565b60006132178383600061127f565b90506001600160a01b03811615610fbe576040516339e3563760e11b81526000600482015260240161055c565b61324f83838361329a565b610fbe576001600160a01b03831661327d57604051637e27328960e01b81526004810182905260240161055c565b818160405163177e802f60e01b815260040161055c929190613a85565b60006001600160a01b0383161580159061134c5750826001600160a01b0316846001600160a01b031614806132d457506132d4848461117d565b8061134c5750506000908152600460205260409020546001600160a01b03908116911614919050565b6001600160e01b0319811681146111e657600080fd5b60006020828403121561332557600080fd5b8135613330816132fd565b9392505050565b6000815180845260005b8181101561335d57602081850181015186830182015201613341565b506000602082860101526020601f19601f83011685010191505092915050565b6020815260006133306020830184613337565b6000602082840312156133a257600080fd5b5035919050565b80356001600160a01b03811681146133c057600080fd5b919050565b600080604083850312156133d857600080fd5b6133e1836133a9565b946020939093013593505050565b60008060006060848603121561340457600080fd5b61340d846133a9565b925061341b602085016133a9565b9150604084013590509250925092565b80151581146111e657600080fd5b600381106111e657600080fd5b8035600481106133c057600080fd5b634e487b7160e01b600052604160045260246000fd5b604051601f8201601f1916810167ffffffffffffffff8111828210171561349457613494613455565b604052919050565b600082601f8301126134ad57600080fd5b813567ffffffffffffffff8111156134c7576134c7613455565b6134da601f8201601f191660200161346b565b8181528460208386010111156134ef57600080fd5b816020850160208301376000918101602001919091529392505050565b600080600080600080600060e0888a03121561352757600080fd5b87356135328161342b565b965060208801359550604088013561354981613439565b945061355760608901613446565b9350613565608089016133a9565b925060a0880135915060c088013567ffffffffffffffff81111561358857600080fd5b6135948a828b0161349c565b91505092959891949750929550565b6000602082840312156135b557600080fd5b613330826133a9565b600080604083850312156135d157600080fd5b6135da836133a9565b915060208301356135ea8161342b565b809150509250929050565b634e487b7160e01b600052602160045260246000fd5b600381106111e6576111e66135f5565b608081016136288661360b565b9481526020810193909352604083019190915260609091015290565b600067ffffffffffffffff82111561365e5761365e613455565b5060051b60200190565b600082601f83011261367957600080fd5b8135602061368e61368983613644565b61346b565b82815260059290921b840181019181810190868411156136ad57600080fd5b8286015b848110156136c857803583529183019183016136b1565b509695505050505050565b600080600080600060a086880312156136eb57600080fd5b853567ffffffffffffffff8082111561370357600080fd5b818801915088601f83011261371757600080fd5b8135602061372761368983613644565b82815260059290921b8401810191818101908c84111561374657600080fd5b948201945b8386101561376d57853561375e81613439565b8252948201949082019061374b565b9950508901359250508082111561378357600080fd5b61378f89838a01613668565b955061379d604089016133a9565b94506060880135935060808801359150808211156137ba57600080fd5b506137c78882890161349c565b9150509295509295909350565b600080600080608085870312156137ea57600080fd5b6137f3856133a9565b9350613801602086016133a9565b925060408501359150606085013567ffffffffffffffff81111561382457600080fd5b6138308782880161349c565b91505092959194509250565b600082601f83011261384d57600080fd5b8135602061385d61368983613644565b82815260059290921b8401810191818101908684111561387c57600080fd5b8286015b848110156136c85761389181613446565b8352918301918301613880565b600080600080600080600060e0888a0312156138b957600080fd5b87356138c48161342b565b96506020888101359650604089013567ffffffffffffffff808211156138e957600080fd5b818b0191508b601f8301126138fd57600080fd5b813561390b61368982613644565b81815260059190911b8301840190848101908e83111561392a57600080fd5b938501935b8285101561395157843561394281613439565b8252938501939085019061392f565b9950505060608b013592508083111561396957600080fd5b6139758c848d0161383c565b965061398360808c016133a9565b955060a08b0135945060c08b01359250808311156139a057600080fd5b50506135948a828b0161349c565b600080604083850312156139c157600080fd5b6139ca836133a9565b91506139d8602084016133a9565b90509250929050565b600181811c908216806139f557607f821691505b602082108103613a1557634e487b7160e01b600052602260045260246000fd5b50919050565b634e487b7160e01b600052601160045260246000fd5b8181038181111561046657610466613a1b565b6001600160a01b038516815260808101613a5d8561360b565b84602083015260048410613a7357613a736135f5565b60408201939093526060015292915050565b6001600160a01b03929092168252602082015260400190565b634e487b7160e01b600052603260045260246000fd5b600060018201613ac657613ac6613a1b565b5060010190565b60ff818116838216019081111561046657610466613a1b565b808202811582820484141761046657610466613a1b565b600060208284031215613b0f57600080fd5b81516133308161342b565b600082613b3757634e487b7160e01b600052601260045260246000fd5b500490565b6001600160a01b038581168252602082018590528316604082015260808101613b648361360b565b82606083015295945050505050565b6001600160a01b0385811682528416602082015260408101839052608060608201819052600090613ba690830184613337565b9695505050505050565b600060208284031215613bc257600080fd5b8151613330816132fd565b634e487b7160e01b600052603160045260246000fdfea26469706673582212208e12e238fe0094ec4dadb020e77b297b1cbd1b9bfabcb6e6b61153dd0894041964736f6c63430008150033",
    "linkReferences": {}
  },
  "methodIdentifiers": {
    "USDT()": "c54e44eb",
    "Zeb()": "15f2e205",
    "approve(address,uint256)": "095ea7b3",
    "balanceOf(address)": "70a08231",
    "fund()": "b60d4288",
    "getApproved(uint256)": "081812fc",
    "isApprovedForAll(address,address)": "e985e9c5",
    "multipleUpgrade(bool,uint256,uint8[],uint8[],address,uint256,bytes)": "d0e774f6",
    "name()": "06fdde03",
    "nextTokenID()": "f101e481",
    "nodeInfo(uint256)": "b02439ae",
    "owner()": "8da5cb5b",
    "ownerOf(uint256)": "6352211e",
    "publicMint(uint8[],uint256[],address,uint256,bytes)": "b588a890",
    "renounceOwnership()": "715018a6",
    "safeTransferFrom(address,address,uint256)": "42842e0e",
    "safeTransferFrom(address,address,uint256,bytes)": "b88d4fde",
    "setApprovalForAll(address,bool)": "a22cb465",
    "signer()": "238ac933",
    "supportsInterface(bytes4)": "01ffc9a7",
    "symbol()": "95d89b41",
    "tokenByIndex(uint256)": "4f6ccce7",
    "tokenOfOwnerByIndex(address,uint256)": "2f745c59",
    "tokenURI(uint256)": "c87b56dd",
    "totalSupply()": "18160ddd",
    "transferFrom(address,address,uint256)": "23b872dd",
    "transferOwnership(address)": "f2fde38b",
    "transferable()": "92ff0d31",
    "upgrade(bool,uint256,uint8,uint8,address,uint256,bytes)": "29fb08f5"
  },
  "id": 37
}