{
  "abi": [
    {
      "inputs": [
        {
          "internalType": "string",
          "name": "name",
          "type": "string"
        },
        {
          "internalType": "string",
          "name": "symbol",
          "type": "string"
        },
        {
          "internalType": "address",
          "name": "_oracle",
          "type": "address"
        },
        {
          "internalType": "address",
          "name": "_usdt",
          "type": "address"
        },
        {
          "internalType": "address",
          "name": "_zeb",
          "type": "address"
        },
        {
          "internalType": "address",
          "name": "_receiver",
          "type": "address"
        },
        {
          "internalType": "address",
          "name": "_signer",
          "type": "address"
        }
      ],
      "stateMutability": "nonpayable",
      "type": "constructor"
    },
    {
      "inputs": [
        {
          "internalType": "address",
          "name": "sender",
          "type": "address"
        },
        {
          "internalType": "uint256",
          "name": "tokenId",
          "type": "uint256"
        },
        {
          "internalType": "address",
          "name": "owner",
          "type": "address"
        }
      ],
      "name": "ERC721IncorrectOwner",
      "type": "error"
    },
    {
      "inputs": [
        {
          "internalType": "address",
          "name": "operator",
          "type": "address"
        },
        {
          "internalType": "uint256",
          "name": "tokenId",
          "type": "uint256"
        }
      ],
      "name": "ERC721InsufficientApproval",
      "type": "error"
    },
    {
      "inputs": [
        {
          "internalType": "address",
          "name": "approver",
          "type": "address"
        }
      ],
      "name": "ERC721InvalidApprover",
      "type": "error"
    },
    {
      "inputs": [
        {
          "internalType": "address",
          "name": "operator",
          "type": "address"
        }
      ],
      "name": "ERC721InvalidOperator",
      "type": "error"
    },
    {
      "inputs": [
        {
          "internalType": "address",
          "name": "owner",
          "type": "address"
        }
      ],
      "name": "ERC721InvalidOwner",
      "type": "error"
    },
    {
      "inputs": [
        {
          "internalType": "address",
          "name": "receiver",
          "type": "address"
        }
      ],
      "name": "ERC721InvalidReceiver",
      "type": "error"
    },
    {
      "inputs": [
        {
          "internalType": "address",
          "name": "sender",
          "type": "address"
        }
      ],
      "name": "ERC721InvalidSender",
      "type": "error"
    },
    {
      "inputs": [
        {
          "internalType": "uint256",
          "name": "tokenId",
          "type": "uint256"
        }
      ],
      "name": "ERC721NonexistentToken",
      "type": "error"
    },
    {
      "inputs": [
        {
          "internalType": "address",
          "name": "owner",
          "type": "address"
        }
      ],
      "name": "OwnableInvalidOwner",
      "type": "error"
    },
    {
      "inputs": [
        {
          "internalType": "address",
          "name": "account",
          "type": "address"
        }
      ],
      "name": "OwnableUnauthorizedAccount",
      "type": "error"
    },
    {
      "anonymous": false,
      "inputs": [
        {
          "indexed": true,
          "internalType": "address",
          "name": "owner",
          "type": "address"
        },
        {
          "indexed": true,
          "internalType": "address",
          "name": "approved",
          "type": "address"
        },
        {
          "indexed": true,
          "internalType": "uint256",
          "name": "tokenId",
          "type": "uint256"
        }
      ],
      "name": "Approval",
      "type": "event"
    },
    {
      "anonymous": false,
      "inputs": [
        {
          "indexed": true,
          "internalType": "address",
          "name": "owner",
          "type": "address"
        },
        {
          "indexed": true,
          "internalType": "address",
          "name": "operator",
          "type": "address"
        },
        {
          "indexed": false,
          "internalType": "bool",
          "name": "approved",
          "type": "bool"
        }
      ],
      "name": "ApprovalForAll",
      "type": "event"
    },
    {
      "anonymous": false,
      "inputs": [
        {
          "indexed": true,
          "internalType": "address",
          "name": "previousOwner",
          "type": "address"
        },
        {
          "indexed": true,
          "internalType": "address",
          "name": "newOwner",
          "type": "address"
        }
      ],
      "name": "OwnershipTransferred",
      "type": "event"
    },
    {
      "anonymous": false,
      "inputs": [
        {
          "indexed": true,
          "internalType": "address",
          "name": "from",
          "type": "address"
        },
        {
          "indexed": true,
          "internalType": "address",
          "name": "to",
          "type": "address"
        },
        {
          "indexed": true,
          "internalType": "uint256",
          "name": "tokenId",
          "type": "uint256"
        }
      ],
      "name": "Transfer",
      "type": "event"
    },
    {
      "anonymous": false,
      "inputs": [
        {
          "indexed": false,
          "internalType": "uint256",
          "name": "tokenId",
          "type": "uint256"
        },
        {
          "indexed": false,
          "internalType": "address",
          "name": "user",
          "type": "address"
        },
        {
          "indexed": false,
          "internalType": "uint256",
          "name": "amount",
          "type": "uint256"
        },
        {
          "indexed": false,
          "internalType": "address",
          "name": "inviter",
          "type": "address"
        },
        {
          "indexed": false,
          "internalType": "enum Node.MachaineType",
          "name": "_machaineType",
          "type": "uint8"
        }
      ],
      "name": "mintEvent",
      "type": "event"
    },
    {
      "anonymous": false,
      "inputs": [
        {
          "indexed": false,
          "internalType": "uint256",
          "name": "tokenId",
          "type": "uint256"
        },
        {
          "indexed": false,
          "internalType": "enum Node.EquipmentType",
          "name": "equipmentType",
          "type": "uint8"
        },
        {
          "indexed": false,
          "internalType": "enum Node.EquipmentLevel",
          "name": "equipmentLevel",
          "type": "uint8"
        },
        {
          "indexed": false,
          "internalType": "uint256",
          "name": "time",
          "type": "uint256"
        }
      ],
      "name": "upgradeEvent",
      "type": "event"
    },
    {
      "inputs": [],
      "name": "USDT",
      "outputs": [
        {
          "internalType": "contract IERC20",
          "name": "",
          "type": "address"
        }
      ],
      "stateMutability": "view",
      "type": "function"
    },
    {
      "inputs": [],
      "name": "Zeb",
      "outputs": [
        {
          "internalType": "contract IERC20",
          "name": "",
          "type": "address"
        }
      ],
      "stateMutability": "view",
      "type": "function"
    },
    {
      "inputs": [
        {
          "internalType": "address",
          "name": "to",
          "type": "address"
        },
        {
          "internalType": "uint256",
          "name": "tokenId",
          "type": "uint256"
        }
      ],
      "name": "approve",
      "outputs": [],
      "stateMutability": "nonpayable",
      "type": "function"
    },
    {
      "inputs": [
        {
          "internalType": "address",
          "name": "owner",
          "type": "address"
        }
      ],
      "name": "balanceOf",
      "outputs": [
        {
          "internalType": "uint256",
          "name": "",
          "type": "uint256"
        }
      ],
      "stateMutability": "view",
      "type": "function"
    },
    {
      "inputs": [
        {
          "internalType": "uint256",
          "name": "tokenId",
          "type": "uint256"
        }
      ],
      "name": "getApproved",
      "outputs": [
        {
          "internalType": "address",
          "name": "",
          "type": "address"
        }
      ],
      "stateMutability": "view",
      "type": "function"
    },
    {
      "inputs": [
        {
          "internalType": "address",
          "name": "owner",
          "type": "address"
        },
        {
          "internalType": "address",
          "name": "operator",
          "type": "address"
        }
      ],
      "name": "isApprovedForAll",
      "outputs": [
        {
          "internalType": "bool",
          "name": "",
          "type": "bool"
        }
      ],
      "stateMutability": "view",
      "type": "function"
    },
    {
      "inputs": [],
      "name": "name",
      "outputs": [
        {
          "internalType": "string",
          "name": "",
          "type": "string"
        }
      ],
      "stateMutability": "view",
      "type": "function"
    },
    {
      "inputs": [],
      "name": "nextTokenID",
      "outputs": [
        {
          "internalType": "uint256",
          "name": "",
          "type": "uint256"
        }
      ],
      "stateMutability": "view",
      "type": "function"
    },
    {
      "inputs": [
        {
          "internalType": "uint256",
          "name": "",
          "type": "uint256"
        }
      ],
      "name": "nodeInfo",
      "outputs": [
        {
          "internalType": "enum Node.MachaineType",
          "name": "machaineType",
          "type": "uint8"
        },
        {
          "internalType": "uint256",
          "name": "mintTime",
          "type": "uint256"
        },
        {
          "internalType": "uint256",
          "name": "unlockPeriod",
          "type": "uint256"
        },
        {
          "internalType": "uint256",
          "name": "totalToken",
          "type": "uint256"
        }
      ],
      "stateMutability": "view",
      "type": "function"
    },
    {
      "inputs": [],
      "name": "oracle",
      "outputs": [
        {
          "internalType": "address",
          "name": "",
          "type": "address"
        }
      ],
      "stateMutability": "view",
      "type": "function"
    },
    {
      "inputs": [],
      "name": "owner",
      "outputs": [
        {
          "internalType": "address",
          "name": "",
          "type": "address"
        }
      ],
      "stateMutability": "view",
      "type": "function"
    },
    {
      "inputs": [
        {
          "internalType": "uint256",
          "name": "tokenId",
          "type": "uint256"
        }
      ],
      "name": "ownerOf",
      "outputs": [
        {
          "internalType": "address",
          "name": "",
          "type": "address"
        }
      ],
      "stateMutability": "view",
      "type": "function"
    },
    {
      "inputs": [
        {
          "internalType": "enum Node.MachaineType[]",
          "name": "_machineType",
          "type": "uint8[]"
        },
        {
          "internalType": "uint256[]",
          "name": "amount",
          "type": "uint256[]"
        },
        {
          "internalType": "address",
          "name": "inviter",
          "type": "address"
        },
        {
          "internalType": "uint256",
          "name": "discount",
          "type": "uint256"
        },
        {
          "internalType": "bytes",
          "name": "evidence",
          "type": "bytes"
        }
      ],
      "name": "publicMint",
      "outputs": [],
      "stateMutability": "nonpayable",
      "type": "function"
    },
    {
      "inputs": [],
      "name": "receiver",
      "outputs": [
        {
          "internalType": "address",
          "name": "",
          "type": "address"
        }
      ],
      "stateMutability": "view",
      "type": "function"
    },
    {
      "inputs": [],
      "name": "renounceOwnership",
      "outputs": [],
      "stateMutability": "nonpayable",
      "type": "function"
    },
    {
      "inputs": [
        {
          "internalType": "address",
          "name": "from",
          "type": "address"
        },
        {
          "internalType": "address",
          "name": "to",
          "type": "address"
        },
        {
          "internalType": "uint256",
          "name": "tokenId",
          "type": "uint256"
        }
      ],
      "name": "safeTransferFrom",
      "outputs": [],
      "stateMutability": "nonpayable",
      "type": "function"
    },
    {
      "inputs": [
        {
          "internalType": "address",
          "name": "from",
          "type": "address"
        },
        {
          "internalType": "address",
          "name": "to",
          "type": "address"
        },
        {
          "internalType": "uint256",
          "name": "tokenId",
          "type": "uint256"
        },
        {
          "internalType": "bytes",
          "name": "data",
          "type": "bytes"
        }
      ],
      "name": "safeTransferFrom",
      "outputs": [],
      "stateMutability": "nonpayable",
      "type": "function"
    },
    {
      "inputs": [
        {
          "internalType": "address",
          "name": "operator",
          "type": "address"
        },
        {
          "internalType": "bool",
          "name": "approved",
          "type": "bool"
        }
      ],
      "name": "setApprovalForAll",
      "outputs": [],
      "stateMutability": "nonpayable",
      "type": "function"
    },
    {
      "inputs": [],
      "name": "signer",
      "outputs": [
        {
          "internalType": "address",
          "name": "",
          "type": "address"
        }
      ],
      "stateMutability": "view",
      "type": "function"
    },
    {
      "inputs": [
        {
          "internalType": "bytes4",
          "name": "interfaceId",
          "type": "bytes4"
        }
      ],
      "name": "supportsInterface",
      "outputs": [
        {
          "internalType": "bool",
          "name": "",
          "type": "bool"
        }
      ],
      "stateMutability": "view",
      "type": "function"
    },
    {
      "inputs": [],
      "name": "symbol",
      "outputs": [
        {
          "internalType": "string",
          "name": "",
          "type": "string"
        }
      ],
      "stateMutability": "view",
      "type": "function"
    },
    {
      "inputs": [
        {
          "internalType": "uint256",
          "name": "tokenID",
          "type": "uint256"
        }
      ],
      "name": "tokenURI",
      "outputs": [
        {
          "internalType": "string",
          "name": "",
          "type": "string"
        }
      ],
      "stateMutability": "view",
      "type": "function"
    },
    {
      "inputs": [
        {
          "internalType": "address",
          "name": "from",
          "type": "address"
        },
        {
          "internalType": "address",
          "name": "to",
          "type": "address"
        },
        {
          "internalType": "uint256",
          "name": "tokenId",
          "type": "uint256"
        }
      ],
      "name": "transferFrom",
      "outputs": [],
      "stateMutability": "nonpayable",
      "type": "function"
    },
    {
      "inputs": [
        {
          "internalType": "address",
          "name": "newOwner",
          "type": "address"
        }
      ],
      "name": "transferOwnership",
      "outputs": [],
      "stateMutability": "nonpayable",
      "type": "function"
    },
    {
      "inputs": [],
      "name": "transferable",
      "outputs": [
        {
          "internalType": "bool",
          "name": "",
          "type": "bool"
        }
      ],
      "stateMutability": "view",
      "type": "function"
    },
    {
      "inputs": [
        {
          "internalType": "bool",
          "name": "isUSDT",
          "type": "bool"
        },
        {
          "internalType": "uint256",
          "name": "tokenId",
          "type": "uint256"
        },
        {
          "internalType": "enum Node.EquipmentType",
          "name": "_equipmentType",
          "type": "uint8"
        },
        {
          "internalType": "enum Node.EquipmentLevel",
          "name": "_equipmentLevel",
          "type": "uint8"
        },
        {
          "internalType": "uint256",
          "name": "zebPrice",
          "type": "uint256"
        },
        {
          "internalType": "bytes",
          "name": "evidence",
          "type": "bytes"
        }
      ],
      "name": "upgrade",
      "outputs": [],
      "stateMutability": "nonpayable",
      "type": "function"
    }
  ],
  "bytecode": {
    "object": "0x60806040523480156200001157600080fd5b506040516200337a3803806200337a83398101604081905262000034916200022c565b338787600062000045838262000382565b50600162000054828262000382565b5050506001600160a01b0381166200008657604051631e4fbdf760e01b81526000600482015260240160405180910390fd5b6200009181620000f8565b50600780546001600160a01b03199081166001600160a01b0397881617909155600a8054821695871695909517909455600b8054851693861693909317909255600c80548416918516919091179055600d80549092169216919091179055506200044e9050565b600680546001600160a01b038381166001600160a01b0319831681179093556040519116919082907f8be0079c531659141344cd1fd0a4f28419497f9722a3daafe3b4186f6b6457e090600090a35050565b634e487b7160e01b600052604160045260246000fd5b600082601f8301126200017257600080fd5b81516001600160401b03808211156200018f576200018f6200014a565b604051601f8301601f19908116603f01168101908282118183101715620001ba57620001ba6200014a565b81604052838152602092508683858801011115620001d757600080fd5b600091505b83821015620001fb5785820183015181830184015290820190620001dc565b600093810190920192909252949350505050565b80516001600160a01b03811681146200022757600080fd5b919050565b600080600080600080600060e0888a0312156200024857600080fd5b87516001600160401b03808211156200026057600080fd5b6200026e8b838c0162000160565b985060208a01519150808211156200028557600080fd5b50620002948a828b0162000160565b965050620002a5604089016200020f565b9450620002b5606089016200020f565b9350620002c5608089016200020f565b9250620002d560a089016200020f565b9150620002e560c089016200020f565b905092959891949750929550565b600181811c908216806200030857607f821691505b6020821081036200032957634e487b7160e01b600052602260045260246000fd5b50919050565b601f8211156200037d57600081815260208120601f850160051c81016020861015620003585750805b601f850160051c820191505b81811015620003795782815560010162000364565b5050505b505050565b81516001600160401b038111156200039e576200039e6200014a565b620003b681620003af8454620002f3565b846200032f565b602080601f831160018114620003ee5760008415620003d55750858301515b600019600386901b1c1916600185901b17855562000379565b600085815260208120601f198616915b828110156200041f57888601518255948401946001909101908401620003fe565b50858210156200043e5787850151600019600388901b60f8161c191681555b5050505050600190811b01905550565b612f1c806200045e6000396000f3fe608060405234801561001057600080fd5b506004361061018e5760003560e01c80638da5cb5b116100de578063b88d4fde11610097578063e985e9c511610071578063e985e9c514610394578063f101e481146103a7578063f2fde38b146103b0578063f7260d3e146103c357600080fd5b8063b88d4fde1461035a578063c54e44eb1461036d578063c87b56dd1461038057600080fd5b80638da5cb5b146102be57806392ff0d31146102cf57806395d89b41146102e3578063a22cb465146102eb578063b02439ae146102fe578063b588a8901461034757600080fd5b806323b872dd1161014b57806370a082311161012557806370a082311461026f578063715018a61461029057806373046035146102985780637dc0d1d0146102ab57600080fd5b806323b872dd1461023657806342842e0e146102495780636352211e1461025c57600080fd5b806301ffc9a71461019357806306fdde03146101bb578063081812fc146101d0578063095ea7b3146101fb57806315f2e20514610210578063238ac93314610223575b600080fd5b6101a66101a13660046127bb565b6103d6565b60405190151581526020015b60405180910390f35b6101c3610428565b6040516101b29190612825565b6101e36101de366004612838565b6104ba565b6040516001600160a01b0390911681526020016101b2565b61020e61020936600461286d565b6104e3565b005b600b546101e3906001600160a01b031681565b600d546101e3906001600160a01b031681565b61020e610244366004612897565b6104f2565b61020e610257366004612897565b610558565b6101e361026a366004612838565b610573565b61028261027d3660046128d3565b61057e565b6040519081526020016101b2565b61020e6105c6565b61020e6102a63660046129c0565b6105da565b6007546101e3906001600160a01b031681565b6006546001600160a01b03166101e3565b6007546101a690600160a01b900460ff1681565b6101c3610f43565b61020e6102f9366004612a4b565b610f52565b61033761030c366004612838565b600960205260009081526040902080546003820154600483015460059093015460ff90921692909184565b6040516101b29493929190612aa8565b61020e610355366004612b60565b610f5d565b61020e610368366004612c61565b610fc2565b600a546101e3906001600160a01b031681565b6101c361038e366004612838565b50606090565b6101a66103a2366004612cc9565b610fdf565b61028260085481565b61020e6103be3660046128d3565b61100d565b600c546101e3906001600160a01b031681565b60006001600160e01b031982166380ac58cd60e01b148061040757506001600160e01b03198216635b5e139f60e01b145b8061042257506301ffc9a760e01b6001600160e01b03198316145b92915050565b60606000805461043790612cfc565b80601f016020809104026020016040519081016040528092919081815260200182805461046390612cfc565b80156104b05780601f10610485576101008083540402835291602001916104b0565b820191906000526020600020905b81548152906001019060200180831161049357829003601f168201915b5050505050905090565b60006104c58261104b565b506000828152600460205260409020546001600160a01b0316610422565b6104ee828233611084565b5050565b600754600160a01b900460ff166105485760405162461bcd60e51b81526020600482015260156024820152744e46543a206e6f74207472616e7366657261626c6560581b60448201526064015b60405180910390fd5b610553838383611091565b505050565b61055383838360405180602001604052806000815250610fc2565b60006104228261104b565b60006001600160a01b0382166105aa576040516322718ad960e21b81526000600482015260240161053f565b506001600160a01b031660009081526003602052604090205490565b6105ce611116565b6105d86000611143565b565b61061b826040516020016105f091815260200190565b60408051601f198184030181529190528051602090910120600d5483906001600160a01b0316611195565b61065a5760405162461bcd60e51b815260206004820152601060248201526f696e76616c69642065766964656e636560801b604482015260640161053f565b3361066486610573565b6001600160a01b0316146106ab5760405162461bcd60e51b815260206004820152600e60248201526d27232a1d103737ba1037bbb732b960911b604482015260640161053f565b8260038111156106bd576106bd612a82565b60008681526009602052604081206002908101919087908111156106e3576106e3612a82565b60028111156106f4576106f4612a82565b815260208101919091526040016000205460ff16600381111561071957610719612a82565b1061075d5760405162461bcd60e51b81526020600482015260146024820152734e46543a206e6f74207570677261646561626c6560601b604482015260640161053f565b60008581526009602052604081205460ff169081600281111561078257610782612a82565b0361091557600085600281111561079b5761079b612a82565b0361080e576000868152600960205260408120600290810190829088908111156107c7576107c7612a82565b60028111156107d8576107d8612a82565b815260208101919091526040016000205460ff169050610808848989848a8a601f60296032600c6015600a61127c565b50610c69565b600185600281111561082257610822612a82565b0361088f5760008681526009602052604081206002908101908290889081111561084e5761084e612a82565b600281111561085f5761085f612a82565b815260208101919091526040016000205460ff169050610808848989848a8a6044605b606e601b6031601661127c565b60028560028111156108a3576108a3612a82565b03610910576000868152600960205260408120600290810190829088908111156108cf576108cf612a82565b60028111156108e0576108e0612a82565b815260208101919091526040016000205460ff169050610808848989848a8a6072609860b7602d6051602461127c565b610c69565b600181600281111561092957610929612a82565b03610abf57600085600281111561094257610942612a82565b036109b75760008681526009602052604081206002908101908290889081111561096e5761096e612a82565b600281111561097f5761097f612a82565b815260200190815260200160002060009054906101000a900460ff169050610808848989848a8a6066608860a360286048602061127c565b60018560028111156109cb576109cb612a82565b03610a3a576000868152600960205260408120600290810190829088908111156109f7576109f7612a82565b6002811115610a0857610a08612a82565b815260208101919091526040016000205460ff169050610808848989848a8a60e161012c610168605a60a2604861127c565b6002856002811115610a4e57610a4e612a82565b0361091057600086815260096020526040812060029081019082908890811115610a7a57610a7a612a82565b6002811115610a8b57610a8b612a82565b815260208101919091526040016000205460ff169050610808848989848a8a6101776101f4610258609661010e607861127c565b6002816002811115610ad357610ad3612a82565b03610c69576000856002811115610aec57610aec612a82565b03610b5b57600086815260096020526040812060029081019082908890811115610b1857610b18612a82565b6002811115610b2957610b29612a82565b815260208101919091526040016000205460ff169050610808848989848a8a60dd6101276101626058609e604661127c565b6001856002811115610b6f57610b6f612a82565b03610be057600086815260096020526040812060029081019082908890811115610b9b57610b9b612a82565b6002811115610bac57610bac612a82565b815260208101919091526040016000205460ff169050610808848989848a8a6101e761028a61030c60c361015f609c61127c565b6002856002811115610bf457610bf4612a82565b03610c6957600086815260096020526040812060029081019082908890811115610c2057610c20612a82565b6002811115610c3157610c31612a82565b815260208101919091526040016000205460ff169050610c67848989848a8a61032c61043b61051461014561024961010461127c565b505b6000856002811115610c7d57610c7d612a82565b03610d54576001846003811115610c9657610c96612a82565b03610cca5760008681526009602052604081206004018054624f1a009290610cbf908490612d4c565b90915550610efd9050565b6002846003811115610cde57610cde612a82565b03610d1257600086815260096020526040812060040180546276a7009290610d07908490612d4c565b90915550610d4f9050565b6003846003811115610d2657610d26612a82565b03610d4f5760008681526009602052604081206004018054629e34009290610cbf908490612d4c565b610efd565b6001856002811115610d6857610d68612a82565b03610e25576001846003811115610d8157610d81612a82565b03610daa5760008681526009602052604081206004018054629e34009290610cbf908490612d4c565b6002846003811115610dbe57610dbe612a82565b03610de7576000868152600960205260408120600401805462ed4e009290610d07908490612d4c565b6003846003811115610dfb57610dfb612a82565b03610d4f576000868152600960205260408120600401805463013c68009290610cbf908490612d4c565b6002856002811115610e3957610e39612a82565b03610efd576001846003811115610e5257610e52612a82565b03610e7b576000868152600960205260408120600401805462ed4e009290610cbf908490612d4c565b6002846003811115610e8f57610e8f612a82565b03610eb95760008681526009602052604081206004018054630163f5009290610cbf908490612d4c565b6003846003811115610ecd57610ecd612a82565b03610efd57600086815260096020526040812060040180546301da9c009290610ef7908490612d4c565b90915550505b7f076c993c6e3b81f3d762a49ce745bac32a307f74ce321f8eba2b3c88bd32253986868642604051610f329493929190612d5f565b60405180910390a150505050505050565b60606001805461043790612cfc565b6104ee338383611cf1565b60005b8551811015610fba57610fa8868281518110610f7e57610f7e612d97565b6020026020010151868381518110610f9857610f98612d97565b6020026020010151868686611d90565b80610fb281612dad565b915050610f60565b505050505050565b610fcd8484846104f2565b610fd98484848461235c565b50505050565b6001600160a01b03918216600090815260056020908152604080832093909416825291909152205460ff1690565b611015611116565b6001600160a01b03811661103f57604051631e4fbdf760e01b81526000600482015260240161053f565b61104881611143565b50565b6000818152600260205260408120546001600160a01b03168061042257604051637e27328960e01b81526004810184905260240161053f565b6105538383836001612485565b6001600160a01b0382166110bb57604051633250574960e11b81526000600482015260240161053f565b60006110c883833361258b565b9050836001600160a01b0316816001600160a01b031614610fd9576040516364283d7b60e01b81526001600160a01b038086166004830152602482018490528216604482015260640161053f565b6006546001600160a01b031633146105d85760405163118cdaa760e01b815233600482015260240161053f565b600680546001600160a01b038381166001600160a01b0319831681179093556040519116919082907f8be0079c531659141344cd1fd0a4f28419497f9722a3daafe3b4186f6b6457e090600090a35050565b60006001600160a01b038216158015906111b0575082516041145b6111b957600080fd5b6000806000856040815181106111d1576111d1612d97565b01602001516111e49060f81c601b612dc6565b90506020860151925060408601519150846001600160a01b03166001888386866040516000815260200160405260405161123a949392919093845260ff9290921660208401526040830152606082015260800190565b6020604051602081039080840390855afa15801561125c573d6000803e3d6000fd5b505050602060405103516001600160a01b03161493505050509392505050565b600089600381111561129057611290612a82565b036117a35760018760038111156112a9576112a9612a82565b03611445578a1561134557600a54600c546001600160a01b039182169163a9059cbb91166112df89678ac7230489e80000612ddf565b6040518363ffffffff1660e01b81526004016112fc929190612df6565b6020604051808303816000875af115801561131b573d6000803e3d6000fd5b505050506040513d601f19601f8201168201806040525081019061133f9190612e0f565b506113dc565b600b54600c546001600160a01b039182169163a9059cbb91166113688f8a612e2c565b61137a90678ac7230489e80000612ddf565b6040518363ffffffff1660e01b8152600401611397929190612df6565b6020604051808303816000875af11580156113b6573d6000803e3d6000fd5b505050506040513d601f19601f820116820180604052508101906113da9190612e0f565b505b60008a81526009602052604081206001916002918201918b9081111561140457611404612a82565b600281111561141557611415612a82565b81526020810191909152604001600020805460ff1916600183600381111561143f5761143f612a82565b02179055505b600287600381111561145957611459612a82565b036115f3578a156114f557600a54600c546001600160a01b039182169163a9059cbb911661148f88678ac7230489e80000612ddf565b6040518363ffffffff1660e01b81526004016114ac929190612df6565b6020604051808303816000875af11580156114cb573d6000803e3d6000fd5b505050506040513d601f19601f820116820180604052508101906114ef9190612e0f565b5061158c565b600b54600c546001600160a01b039182169163a9059cbb91166115188f89612e2c565b61152a90678ac7230489e80000612ddf565b6040518363ffffffff1660e01b8152600401611547929190612df6565b6020604051808303816000875af1158015611566573d6000803e3d6000fd5b505050506040513d601f19601f8201168201806040525081019061158a9190612e0f565b505b60008a8152600960205260408120600291908201908a838111156115b2576115b2612a82565b60028111156115c3576115c3612a82565b81526020810191909152604001600020805460ff191660018360038111156115ed576115ed612a82565b02179055505b600387600381111561160757611607612a82565b036117a3578a156116a357600a54600c546001600160a01b039182169163a9059cbb911661163d87678ac7230489e80000612ddf565b6040518363ffffffff1660e01b815260040161165a929190612df6565b6020604051808303816000875af1158015611679573d6000803e3d6000fd5b505050506040513d601f19601f8201168201806040525081019061169d9190612e0f565b5061173a565b600b54600c546001600160a01b039182169163a9059cbb91166116c68f88612e2c565b6116d890678ac7230489e80000612ddf565b6040518363ffffffff1660e01b81526004016116f5929190612df6565b6020604051808303816000875af1158015611714573d6000803e3d6000fd5b505050506040513d601f19601f820116820180604052508101906117389190612e0f565b505b60008a81526009602052604081206003916002918201918b9081111561176257611762612a82565b600281111561177357611773612a82565b81526020810191909152604001600020805460ff1916600183600381111561179d5761179d612a82565b02179055505b60018960038111156117b7576117b7612a82565b03611b1a5760028760038111156117d0576117d0612a82565b0361196a578a1561186c57600a54600c546001600160a01b039182169163a9059cbb911661180686678ac7230489e80000612ddf565b6040518363ffffffff1660e01b8152600401611823929190612df6565b6020604051808303816000875af1158015611842573d6000803e3d6000fd5b505050506040513d601f19601f820116820180604052508101906118669190612e0f565b50611903565b600b54600c546001600160a01b039182169163a9059cbb911661188f8f87612e2c565b6118a190678ac7230489e80000612ddf565b6040518363ffffffff1660e01b81526004016118be929190612df6565b6020604051808303816000875af11580156118dd573d6000803e3d6000fd5b505050506040513d601f19601f820116820180604052508101906119019190612e0f565b505b60008a8152600960205260408120600291908201908a8381111561192957611929612a82565b600281111561193a5761193a612a82565b81526020810191909152604001600020805460ff1916600183600381111561196457611964612a82565b02179055505b600387600381111561197e5761197e612a82565b03611b1a578a15611a1a57600a54600c546001600160a01b039182169163a9059cbb91166119b485678ac7230489e80000612ddf565b6040518363ffffffff1660e01b81526004016119d1929190612df6565b6020604051808303816000875af11580156119f0573d6000803e3d6000fd5b505050506040513d601f19601f82011682018060405250810190611a149190612e0f565b50611ab1565b600b54600c546001600160a01b039182169163a9059cbb9116611a3d8f86612e2c565b611a4f90678ac7230489e80000612ddf565b6040518363ffffffff1660e01b8152600401611a6c929190612df6565b6020604051808303816000875af1158015611a8b573d6000803e3d6000fd5b505050506040513d601f19601f82011682018060405250810190611aaf9190612e0f565b505b60008a81526009602052604081206003916002918201918b90811115611ad957611ad9612a82565b6002811115611aea57611aea612a82565b81526020810191909152604001600020805460ff19166001836003811115611b1457611b14612a82565b02179055505b6002896003811115611b2e57611b2e612a82565b03611ce3576003876003811115611b4757611b47612a82565b03611ce3578a15611be357600a54600c546001600160a01b039182169163a9059cbb9116611b7d84678ac7230489e80000612ddf565b6040518363ffffffff1660e01b8152600401611b9a929190612df6565b6020604051808303816000875af1158015611bb9573d6000803e3d6000fd5b505050506040513d601f19601f82011682018060405250810190611bdd9190612e0f565b50611c7a565b600b54600c546001600160a01b039182169163a9059cbb9116611c068f85612e2c565b611c1890678ac7230489e80000612ddf565b6040518363ffffffff1660e01b8152600401611c35929190612df6565b6020604051808303816000875af1158015611c54573d6000803e3d6000fd5b505050506040513d601f19601f82011682018060405250810190611c789190612e0f565b505b60008a81526009602052604081206003916002918201918b90811115611ca257611ca2612a82565b6002811115611cb357611cb3612a82565b81526020810191909152604001600020805460ff19166001836003811115611cdd57611cdd612a82565b02179055505b505050505050505050505050565b6001600160a01b038216611d2357604051630b61174360e31b81526001600160a01b038316600482015260240161053f565b6001600160a01b03838116600081815260056020908152604080832094871680845294825291829020805460ff191686151590811790915591519182527f17307eab39ab6107e8899845ad3d59bd9653f200f220920489ca2b5937696c31910160405180910390a3505050565b6000611dd38484604051602001611da8929190612df6565b60408051601f198184030181529190528051602090910120600d5484906001600160a01b0316611195565b611e125760405162461bcd60e51b815260206004820152601060248201526f696e76616c69642065766964656e636560801b604482015260640161053f565b6000866002811115611e2657611e26612a82565b03611f8c57600a54600c546001600160a01b039182169163a9059cbb911661271086611e5c8a69010f0cf064dd59200000612ddf565b611e6790605f612ddf565b611e719190612ddf565b611e7b9190612e2c565b6040518363ffffffff1660e01b8152600401611e98929190612df6565b6020604051808303816000875af1158015611eb7573d6000803e3d6000fd5b505050506040513d601f19601f82011682018060405250810190611edb9190612e0f565b50600a546001600160a01b031663a9059cbb8561271086611f068a69010f0cf064dd59200000612ddf565b611f11906005612ddf565b611f1b9190612ddf565b611f259190612e2c565b6040518363ffffffff1660e01b8152600401611f42929190612df6565b6020604051808303816000875af1158015611f61573d6000803e3d6000fd5b505050506040513d601f19601f82011682018060405250810190611f859190612e0f565b506104b090505b6001866002811115611fa057611fa0612a82565b0361210657600a54600c546001600160a01b039182169163a9059cbb911661271086611fd68a6901b1ae4d6e2ef5000000612ddf565b611fe190605f612ddf565b611feb9190612ddf565b611ff59190612e2c565b6040518363ffffffff1660e01b8152600401612012929190612df6565b6020604051808303816000875af1158015612031573d6000803e3d6000fd5b505050506040513d601f19601f820116820180604052508101906120559190612e0f565b50600a546001600160a01b031663a9059cbb85612710866120808a6901b1ae4d6e2ef5000000612ddf565b61208b906005612ddf565b6120959190612ddf565b61209f9190612e2c565b6040518363ffffffff1660e01b81526004016120bc929190612df6565b6020604051808303816000875af11580156120db573d6000803e3d6000fd5b505050506040513d601f19601f820116820180604052508101906120ff9190612e0f565b506107d090505b600286600281111561211a5761211a612a82565b0361228057600a54600c546001600160a01b039182169163a9059cbb9116612710866121508a69028a857425466f800000612ddf565b61215b90605f612ddf565b6121659190612ddf565b61216f9190612e2c565b6040518363ffffffff1660e01b815260040161218c929190612df6565b6020604051808303816000875af11580156121ab573d6000803e3d6000fd5b505050506040513d601f19601f820116820180604052508101906121cf9190612e0f565b50600a546001600160a01b031663a9059cbb85612710866121fa8a69028a857425466f800000612ddf565b612205906005612ddf565b61220f9190612ddf565b6122199190612e2c565b6040518363ffffffff1660e01b8152600401612236929190612df6565b6020604051808303816000875af1158015612255573d6000803e3d6000fd5b505050506040513d601f19601f820116820180604052508101906122799190612e0f565b50610c8090505b60005b858110156123535760088054908190600061229d83612dad565b91905055506122ac3382612684565b6000818152600960205260409020805489919060ff191660018360028111156122d7576122d7612a82565b02179055506000818152600960205260409081902042600382015563076a70006004820155600501849055517f2e6d97f41fb5e22a6bdffd32e22b194939ba2aa3ef13f7cfd9d8bc1b3bdae1a49061233890839033908b908b908e90612e4e565b60405180910390a1508061234b81612dad565b915050612283565b50505050505050565b6001600160a01b0383163b15610fd957604051630a85bd0160e11b81526001600160a01b0384169063150b7a029061239e903390889087908790600401612e8c565b6020604051808303816000875af19250505080156123d9575060408051601f3d908101601f191682019092526123d691810190612ec9565b60015b612442573d808015612407576040519150601f19603f3d011682016040523d82523d6000602084013e61240c565b606091505b50805160000361243a57604051633250574960e11b81526001600160a01b038516600482015260240161053f565b805181602001fd5b6001600160e01b03198116630a85bd0160e11b1461247e57604051633250574960e11b81526001600160a01b038516600482015260240161053f565b5050505050565b808061249957506001600160a01b03821615155b1561255b5760006124a98461104b565b90506001600160a01b038316158015906124d55750826001600160a01b0316816001600160a01b031614155b80156124e857506124e68184610fdf565b155b156125115760405163a9fbf51f60e01b81526001600160a01b038416600482015260240161053f565b81156125595783856001600160a01b0316826001600160a01b03167f8c5be1e5ebec7d5bd14f71427d1e84f3dd0314c0f7b2291e5b200ac8c7c3b92560405160405180910390a45b505b5050600090815260046020526040902080546001600160a01b0319166001600160a01b0392909216919091179055565b6000828152600260205260408120546001600160a01b03908116908316156125b8576125b88184866126e9565b6001600160a01b038116156125f6576125d5600085600080612485565b6001600160a01b038116600090815260036020526040902080546000190190555b6001600160a01b03851615612625576001600160a01b0385166000908152600360205260409020805460010190555b60008481526002602052604080822080546001600160a01b0319166001600160a01b0389811691821790925591518793918516917fddf252ad1be2c89b69c2b068fc378daa952ba7f163c4a11628f55a4df523b3ef91a4949350505050565b6001600160a01b0382166126ae57604051633250574960e11b81526000600482015260240161053f565b60006126bc8383600061258b565b90506001600160a01b03811615610553576040516339e3563760e11b81526000600482015260240161053f565b6126f483838361273f565b610553576001600160a01b03831661272257604051637e27328960e01b81526004810182905260240161053f565b818160405163177e802f60e01b815260040161053f929190612df6565b60006001600160a01b0383161580159061279d5750826001600160a01b0316846001600160a01b0316148061277957506127798484610fdf565b8061279d57506000828152600460205260409020546001600160a01b038481169116145b949350505050565b6001600160e01b03198116811461104857600080fd5b6000602082840312156127cd57600080fd5b81356127d8816127a5565b9392505050565b6000815180845260005b81811015612805576020818501810151868301820152016127e9565b506000602082860101526020601f19601f83011685010191505092915050565b6020815260006127d860208301846127df565b60006020828403121561284a57600080fd5b5035919050565b80356001600160a01b038116811461286857600080fd5b919050565b6000806040838503121561288057600080fd5b61288983612851565b946020939093013593505050565b6000806000606084860312156128ac57600080fd5b6128b584612851565b92506128c360208501612851565b9150604084013590509250925092565b6000602082840312156128e557600080fd5b6127d882612851565b801515811461104857600080fd5b6003811061104857600080fd5b634e487b7160e01b600052604160045260246000fd5b604051601f8201601f1916810167ffffffffffffffff8111828210171561294857612948612909565b604052919050565b600082601f83011261296157600080fd5b813567ffffffffffffffff81111561297b5761297b612909565b61298e601f8201601f191660200161291f565b8181528460208386010111156129a357600080fd5b816020850160208301376000918101602001919091529392505050565b60008060008060008060c087890312156129d957600080fd5b86356129e4816128ee565b95506020870135945060408701356129fb816128fc565b9350606087013560048110612a0f57600080fd5b92506080870135915060a087013567ffffffffffffffff811115612a3257600080fd5b612a3e89828a01612950565b9150509295509295509295565b60008060408385031215612a5e57600080fd5b612a6783612851565b91506020830135612a77816128ee565b809150509250929050565b634e487b7160e01b600052602160045260246000fd5b6003811061104857611048612a82565b60808101612ab586612a98565b9481526020810193909352604083019190915260609091015290565b600067ffffffffffffffff821115612aeb57612aeb612909565b5060051b60200190565b600082601f830112612b0657600080fd5b81356020612b1b612b1683612ad1565b61291f565b82815260059290921b84018101918181019086841115612b3a57600080fd5b8286015b84811015612b555780358352918301918301612b3e565b509695505050505050565b600080600080600060a08688031215612b7857600080fd5b853567ffffffffffffffff80821115612b9057600080fd5b818801915088601f830112612ba457600080fd5b81356020612bb4612b1683612ad1565b82815260059290921b8401810191818101908c841115612bd357600080fd5b948201945b83861015612bfa578535612beb816128fc565b82529482019490820190612bd8565b99505089013592505080821115612c1057600080fd5b612c1c89838a01612af5565b9550612c2a60408901612851565b9450606088013593506080880135915080821115612c4757600080fd5b50612c5488828901612950565b9150509295509295909350565b60008060008060808587031215612c7757600080fd5b612c8085612851565b9350612c8e60208601612851565b925060408501359150606085013567ffffffffffffffff811115612cb157600080fd5b612cbd87828801612950565b91505092959194509250565b60008060408385031215612cdc57600080fd5b612ce583612851565b9150612cf360208401612851565b90509250929050565b600181811c90821680612d1057607f821691505b602082108103612d3057634e487b7160e01b600052602260045260246000fd5b50919050565b634e487b7160e01b600052601160045260246000fd5b8181038181111561042257610422612d36565b84815260808101612d6f85612a98565b84602083015260048410612d8557612d85612a82565b60408201939093526060015292915050565b634e487b7160e01b600052603260045260246000fd5b600060018201612dbf57612dbf612d36565b5060010190565b60ff818116838216019081111561042257610422612d36565b808202811582820484141761042257610422612d36565b6001600160a01b03929092168252602082015260400190565b600060208284031215612e2157600080fd5b81516127d8816128ee565b600082612e4957634e487b7160e01b600052601260045260246000fd5b500490565b8581526001600160a01b038581166020830152604082018590528316606082015260a08101612e7c83612a98565b8260808301529695505050505050565b6001600160a01b0385811682528416602082015260408101839052608060608201819052600090612ebf908301846127df565b9695505050505050565b600060208284031215612edb57600080fd5b81516127d8816127a556fea2646970667358221220862b3b426ef3e3b84421afc0bc9a9f56a709267a836b551f395a67287e1620e764736f6c63430008150033",
    "linkReferences": {}
  },
  "methodIdentifiers": {
    "USDT()": "c54e44eb",
    "Zeb()": "15f2e205",
    "approve(address,uint256)": "095ea7b3",
    "balanceOf(address)": "70a08231",
    "getApproved(uint256)": "081812fc",
    "isApprovedForAll(address,address)": "e985e9c5",
    "name()": "06fdde03",
    "nextTokenID()": "f101e481",
    "nodeInfo(uint256)": "b02439ae",
    "oracle()": "7dc0d1d0",
    "owner()": "8da5cb5b",
    "ownerOf(uint256)": "6352211e",
    "publicMint(uint8[],uint256[],address,uint256,bytes)": "b588a890",
    "receiver()": "f7260d3e",
    "renounceOwnership()": "715018a6",
    "safeTransferFrom(address,address,uint256)": "42842e0e",
    "safeTransferFrom(address,address,uint256,bytes)": "b88d4fde",
    "setApprovalForAll(address,bool)": "a22cb465",
    "signer()": "238ac933",
    "supportsInterface(bytes4)": "01ffc9a7",
    "symbol()": "95d89b41",
    "tokenURI(uint256)": "c87b56dd",
    "transferFrom(address,address,uint256)": "23b872dd",
    "transferOwnership(address)": "f2fde38b",
    "transferable()": "92ff0d31",
    "upgrade(bool,uint256,uint8,uint8,uint256,bytes)": "73046035"
  },
  "id": 35
}