{
  "abi": [
    {
      "inputs": [
        {
          "internalType": "string",
          "name": "name",
          "type": "string"
        },
        {
          "internalType": "string",
          "name": "symbol",
          "type": "string"
        },
        {
          "internalType": "address",
          "name": "_usdt",
          "type": "address"
        },
        {
          "internalType": "address",
          "name": "_zeb",
          "type": "address"
        },
        {
          "internalType": "address",
          "name": "_fund",
          "type": "address"
        },
        {
          "internalType": "address",
          "name": "_signer",
          "type": "address"
        }
      ],
      "stateMutability": "nonpayable",
      "type": "constructor"
    },
    {
      "inputs": [],
      "name": "ERC721EnumerableForbiddenBatchMint",
      "type": "error"
    },
    {
      "inputs": [
        {
          "internalType": "address",
          "name": "sender",
          "type": "address"
        },
        {
          "internalType": "uint256",
          "name": "tokenId",
          "type": "uint256"
        },
        {
          "internalType": "address",
          "name": "owner",
          "type": "address"
        }
      ],
      "name": "ERC721IncorrectOwner",
      "type": "error"
    },
    {
      "inputs": [
        {
          "internalType": "address",
          "name": "operator",
          "type": "address"
        },
        {
          "internalType": "uint256",
          "name": "tokenId",
          "type": "uint256"
        }
      ],
      "name": "ERC721InsufficientApproval",
      "type": "error"
    },
    {
      "inputs": [
        {
          "internalType": "address",
          "name": "approver",
          "type": "address"
        }
      ],
      "name": "ERC721InvalidApprover",
      "type": "error"
    },
    {
      "inputs": [
        {
          "internalType": "address",
          "name": "operator",
          "type": "address"
        }
      ],
      "name": "ERC721InvalidOperator",
      "type": "error"
    },
    {
      "inputs": [
        {
          "internalType": "address",
          "name": "owner",
          "type": "address"
        }
      ],
      "name": "ERC721InvalidOwner",
      "type": "error"
    },
    {
      "inputs": [
        {
          "internalType": "address",
          "name": "receiver",
          "type": "address"
        }
      ],
      "name": "ERC721InvalidReceiver",
      "type": "error"
    },
    {
      "inputs": [
        {
          "internalType": "address",
          "name": "sender",
          "type": "address"
        }
      ],
      "name": "ERC721InvalidSender",
      "type": "error"
    },
    {
      "inputs": [
        {
          "internalType": "uint256",
          "name": "tokenId",
          "type": "uint256"
        }
      ],
      "name": "ERC721NonexistentToken",
      "type": "error"
    },
    {
      "inputs": [
        {
          "internalType": "address",
          "name": "owner",
          "type": "address"
        },
        {
          "internalType": "uint256",
          "name": "index",
          "type": "uint256"
        }
      ],
      "name": "ERC721OutOfBoundsIndex",
      "type": "error"
    },
    {
      "inputs": [
        {
          "internalType": "address",
          "name": "owner",
          "type": "address"
        }
      ],
      "name": "OwnableInvalidOwner",
      "type": "error"
    },
    {
      "inputs": [
        {
          "internalType": "address",
          "name": "account",
          "type": "address"
        }
      ],
      "name": "OwnableUnauthorizedAccount",
      "type": "error"
    },
    {
      "anonymous": false,
      "inputs": [
        {
          "indexed": true,
          "internalType": "address",
          "name": "owner",
          "type": "address"
        },
        {
          "indexed": true,
          "internalType": "address",
          "name": "approved",
          "type": "address"
        },
        {
          "indexed": true,
          "internalType": "uint256",
          "name": "tokenId",
          "type": "uint256"
        }
      ],
      "name": "Approval",
      "type": "event"
    },
    {
      "anonymous": false,
      "inputs": [
        {
          "indexed": true,
          "internalType": "address",
          "name": "owner",
          "type": "address"
        },
        {
          "indexed": true,
          "internalType": "address",
          "name": "operator",
          "type": "address"
        },
        {
          "indexed": false,
          "internalType": "bool",
          "name": "approved",
          "type": "bool"
        }
      ],
      "name": "ApprovalForAll",
      "type": "event"
    },
    {
      "anonymous": false,
      "inputs": [
        {
          "indexed": true,
          "internalType": "address",
          "name": "previousOwner",
          "type": "address"
        },
        {
          "indexed": true,
          "internalType": "address",
          "name": "newOwner",
          "type": "address"
        }
      ],
      "name": "OwnershipTransferred",
      "type": "event"
    },
    {
      "anonymous": false,
      "inputs": [
        {
          "indexed": true,
          "internalType": "address",
          "name": "from",
          "type": "address"
        },
        {
          "indexed": true,
          "internalType": "address",
          "name": "to",
          "type": "address"
        },
        {
          "indexed": true,
          "internalType": "uint256",
          "name": "tokenId",
          "type": "uint256"
        }
      ],
      "name": "Transfer",
      "type": "event"
    },
    {
      "anonymous": false,
      "inputs": [
        {
          "indexed": true,
          "internalType": "uint256",
          "name": "tokenId",
          "type": "uint256"
        },
        {
          "indexed": false,
          "internalType": "address",
          "name": "user",
          "type": "address"
        },
        {
          "indexed": false,
          "internalType": "uint256",
          "name": "amount",
          "type": "uint256"
        },
        {
          "indexed": false,
          "internalType": "address",
          "name": "inviter",
          "type": "address"
        },
        {
          "indexed": false,
          "internalType": "enum Node.MachineType",
          "name": "_MachineType",
          "type": "uint8"
        }
      ],
      "name": "mintEvent",
      "type": "event"
    },
    {
      "anonymous": false,
      "inputs": [
        {
          "indexed": true,
          "internalType": "uint256",
          "name": "tokenId",
          "type": "uint256"
        },
        {
          "indexed": false,
          "internalType": "address",
          "name": "inviter",
          "type": "address"
        },
        {
          "indexed": false,
          "internalType": "enum Node.EquipmentType",
          "name": "equipmentType",
          "type": "uint8"
        },
        {
          "indexed": false,
          "internalType": "enum Node.EquipmentLevel",
          "name": "equipmentLevel",
          "type": "uint8"
        },
        {
          "indexed": false,
          "internalType": "uint256",
          "name": "time",
          "type": "uint256"
        }
      ],
      "name": "upgradeEvent",
      "type": "event"
    },
    {
      "inputs": [],
      "name": "USDT",
      "outputs": [
        {
          "internalType": "contract IERC20",
          "name": "",
          "type": "address"
        }
      ],
      "stateMutability": "view",
      "type": "function"
    },
    {
      "inputs": [],
      "name": "Zeb",
      "outputs": [
        {
          "internalType": "contract IERC20",
          "name": "",
          "type": "address"
        }
      ],
      "stateMutability": "view",
      "type": "function"
    },
    {
      "inputs": [
        {
          "internalType": "address",
          "name": "to",
          "type": "address"
        },
        {
          "internalType": "uint256",
          "name": "tokenId",
          "type": "uint256"
        }
      ],
      "name": "approve",
      "outputs": [],
      "stateMutability": "nonpayable",
      "type": "function"
    },
    {
      "inputs": [
        {
          "internalType": "address",
          "name": "owner",
          "type": "address"
        }
      ],
      "name": "balanceOf",
      "outputs": [
        {
          "internalType": "uint256",
          "name": "",
          "type": "uint256"
        }
      ],
      "stateMutability": "view",
      "type": "function"
    },
    {
      "inputs": [],
      "name": "fund",
      "outputs": [
        {
          "internalType": "address",
          "name": "",
          "type": "address"
        }
      ],
      "stateMutability": "view",
      "type": "function"
    },
    {
      "inputs": [
        {
          "internalType": "uint256",
          "name": "tokenId",
          "type": "uint256"
        }
      ],
      "name": "getApproved",
      "outputs": [
        {
          "internalType": "address",
          "name": "",
          "type": "address"
        }
      ],
      "stateMutability": "view",
      "type": "function"
    },
    {
      "inputs": [
        {
          "internalType": "uint256",
          "name": "tokenId",
          "type": "uint256"
        }
      ],
      "name": "getEquipmentLevel",
      "outputs": [
        {
          "internalType": "enum Node.EquipmentLevel[]",
          "name": "",
          "type": "uint8[]"
        }
      ],
      "stateMutability": "view",
      "type": "function"
    },
    {
      "inputs": [
        {
          "internalType": "address",
          "name": "owner",
          "type": "address"
        },
        {
          "internalType": "address",
          "name": "operator",
          "type": "address"
        }
      ],
      "name": "isApprovedForAll",
      "outputs": [
        {
          "internalType": "bool",
          "name": "",
          "type": "bool"
        }
      ],
      "stateMutability": "view",
      "type": "function"
    },
    {
      "inputs": [
        {
          "internalType": "bool",
          "name": "isUSDT",
          "type": "bool"
        },
        {
          "internalType": "uint256",
          "name": "tokenId",
          "type": "uint256"
        },
        {
          "internalType": "enum Node.EquipmentType[]",
          "name": "_equipmentType",
          "type": "uint8[]"
        },
        {
          "internalType": "enum Node.EquipmentLevel[]",
          "name": "_equipmentLevel",
          "type": "uint8[]"
        },
        {
          "internalType": "address",
          "name": "inviter",
          "type": "address"
        },
        {
          "internalType": "uint256",
          "name": "zebPrice",
          "type": "uint256"
        },
        {
          "internalType": "bytes",
          "name": "evidence",
          "type": "bytes"
        }
      ],
      "name": "multipleUpgrade",
      "outputs": [],
      "stateMutability": "nonpayable",
      "type": "function"
    },
    {
      "inputs": [],
      "name": "name",
      "outputs": [
        {
          "internalType": "string",
          "name": "",
          "type": "string"
        }
      ],
      "stateMutability": "view",
      "type": "function"
    },
    {
      "inputs": [],
      "name": "nextTokenID",
      "outputs": [
        {
          "internalType": "uint256",
          "name": "",
          "type": "uint256"
        }
      ],
      "stateMutability": "view",
      "type": "function"
    },
    {
      "inputs": [
        {
          "internalType": "uint256",
          "name": "",
          "type": "uint256"
        }
      ],
      "name": "nodeInfo",
      "outputs": [
        {
          "internalType": "enum Node.MachineType",
          "name": "MachineType",
          "type": "uint8"
        },
        {
          "internalType": "uint256",
          "name": "mintTime",
          "type": "uint256"
        },
        {
          "internalType": "uint256",
          "name": "unlockPeriod",
          "type": "uint256"
        },
        {
          "internalType": "uint256",
          "name": "totalToken",
          "type": "uint256"
        }
      ],
      "stateMutability": "view",
      "type": "function"
    },
    {
      "inputs": [],
      "name": "owner",
      "outputs": [
        {
          "internalType": "address",
          "name": "",
          "type": "address"
        }
      ],
      "stateMutability": "view",
      "type": "function"
    },
    {
      "inputs": [
        {
          "internalType": "uint256",
          "name": "tokenId",
          "type": "uint256"
        }
      ],
      "name": "ownerOf",
      "outputs": [
        {
          "internalType": "address",
          "name": "",
          "type": "address"
        }
      ],
      "stateMutability": "view",
      "type": "function"
    },
    {
      "inputs": [
        {
          "internalType": "enum Node.MachineType[]",
          "name": "_machineType",
          "type": "uint8[]"
        },
        {
          "internalType": "uint256[]",
          "name": "amount",
          "type": "uint256[]"
        },
        {
          "internalType": "address",
          "name": "inviter",
          "type": "address"
        },
        {
          "internalType": "uint256",
          "name": "discount",
          "type": "uint256"
        },
        {
          "internalType": "bytes",
          "name": "evidence",
          "type": "bytes"
        }
      ],
      "name": "publicMint",
      "outputs": [],
      "stateMutability": "nonpayable",
      "type": "function"
    },
    {
      "inputs": [],
      "name": "renounceOwnership",
      "outputs": [],
      "stateMutability": "nonpayable",
      "type": "function"
    },
    {
      "inputs": [
        {
          "internalType": "address",
          "name": "from",
          "type": "address"
        },
        {
          "internalType": "address",
          "name": "to",
          "type": "address"
        },
        {
          "internalType": "uint256",
          "name": "tokenId",
          "type": "uint256"
        }
      ],
      "name": "safeTransferFrom",
      "outputs": [],
      "stateMutability": "nonpayable",
      "type": "function"
    },
    {
      "inputs": [
        {
          "internalType": "address",
          "name": "from",
          "type": "address"
        },
        {
          "internalType": "address",
          "name": "to",
          "type": "address"
        },
        {
          "internalType": "uint256",
          "name": "tokenId",
          "type": "uint256"
        },
        {
          "internalType": "bytes",
          "name": "data",
          "type": "bytes"
        }
      ],
      "name": "safeTransferFrom",
      "outputs": [],
      "stateMutability": "nonpayable",
      "type": "function"
    },
    {
      "inputs": [
        {
          "internalType": "address",
          "name": "operator",
          "type": "address"
        },
        {
          "internalType": "bool",
          "name": "approved",
          "type": "bool"
        }
      ],
      "name": "setApprovalForAll",
      "outputs": [],
      "stateMutability": "nonpayable",
      "type": "function"
    },
    {
      "inputs": [],
      "name": "signer",
      "outputs": [
        {
          "internalType": "address",
          "name": "",
          "type": "address"
        }
      ],
      "stateMutability": "view",
      "type": "function"
    },
    {
      "inputs": [
        {
          "internalType": "bytes4",
          "name": "interfaceId",
          "type": "bytes4"
        }
      ],
      "name": "supportsInterface",
      "outputs": [
        {
          "internalType": "bool",
          "name": "",
          "type": "bool"
        }
      ],
      "stateMutability": "view",
      "type": "function"
    },
    {
      "inputs": [],
      "name": "symbol",
      "outputs": [
        {
          "internalType": "string",
          "name": "",
          "type": "string"
        }
      ],
      "stateMutability": "view",
      "type": "function"
    },
    {
      "inputs": [
        {
          "internalType": "uint256",
          "name": "index",
          "type": "uint256"
        }
      ],
      "name": "tokenByIndex",
      "outputs": [
        {
          "internalType": "uint256",
          "name": "",
          "type": "uint256"
        }
      ],
      "stateMutability": "view",
      "type": "function"
    },
    {
      "inputs": [
        {
          "internalType": "address",
          "name": "owner",
          "type": "address"
        },
        {
          "internalType": "uint256",
          "name": "index",
          "type": "uint256"
        }
      ],
      "name": "tokenOfOwnerByIndex",
      "outputs": [
        {
          "internalType": "uint256",
          "name": "",
          "type": "uint256"
        }
      ],
      "stateMutability": "view",
      "type": "function"
    },
    {
      "inputs": [
        {
          "internalType": "uint256",
          "name": "tokenID",
          "type": "uint256"
        }
      ],
      "name": "tokenURI",
      "outputs": [
        {
          "internalType": "string",
          "name": "",
          "type": "string"
        }
      ],
      "stateMutability": "view",
      "type": "function"
    },
    {
      "inputs": [],
      "name": "totalSupply",
      "outputs": [
        {
          "internalType": "uint256",
          "name": "",
          "type": "uint256"
        }
      ],
      "stateMutability": "view",
      "type": "function"
    },
    {
      "inputs": [
        {
          "internalType": "address",
          "name": "from",
          "type": "address"
        },
        {
          "internalType": "address",
          "name": "to",
          "type": "address"
        },
        {
          "internalType": "uint256",
          "name": "tokenId",
          "type": "uint256"
        }
      ],
      "name": "transferFrom",
      "outputs": [],
      "stateMutability": "nonpayable",
      "type": "function"
    },
    {
      "inputs": [
        {
          "internalType": "address",
          "name": "newOwner",
          "type": "address"
        }
      ],
      "name": "transferOwnership",
      "outputs": [],
      "stateMutability": "nonpayable",
      "type": "function"
    },
    {
      "inputs": [],
      "name": "transferable",
      "outputs": [
        {
          "internalType": "bool",
          "name": "",
          "type": "bool"
        }
      ],
      "stateMutability": "view",
      "type": "function"
    },
    {
      "inputs": [
        {
          "internalType": "bool",
          "name": "isUSDT",
          "type": "bool"
        },
        {
          "internalType": "uint256",
          "name": "tokenId",
          "type": "uint256"
        },
        {
          "internalType": "enum Node.EquipmentType",
          "name": "_equipmentType",
          "type": "uint8"
        },
        {
          "internalType": "enum Node.EquipmentLevel",
          "name": "_equipmentLevel",
          "type": "uint8"
        },
        {
          "internalType": "address",
          "name": "inviter",
          "type": "address"
        },
        {
          "internalType": "uint256",
          "name": "zebPrice",
          "type": "uint256"
        },
        {
          "internalType": "bytes",
          "name": "evidence",
          "type": "bytes"
        }
      ],
      "name": "upgrade",
      "outputs": [],
      "stateMutability": "nonpayable",
      "type": "function"
    }
  ],
  "bytecode": {
    "object": "0x60806040523480156200001157600080fd5b50604051620042263803806200422683398101604081905262000034916200021d565b33868660006200004583826200035f565b5060016200005482826200035f565b5050506001600160a01b0381166200008657604051631e4fbdf760e01b81526000600482015260240160405180910390fd5b6200009181620000e9565b50600d80546001600160a01b039586166001600160a01b031991821617909155600e805494861694821694909417909355600f80549285169284169290921790915560108054919093169116179055506200042b9050565b600a80546001600160a01b038381166001600160a01b0319831681179093556040519116919082907f8be0079c531659141344cd1fd0a4f28419497f9722a3daafe3b4186f6b6457e090600090a35050565b634e487b7160e01b600052604160045260246000fd5b600082601f8301126200016357600080fd5b81516001600160401b03808211156200018057620001806200013b565b604051601f8301601f19908116603f01168101908282118183101715620001ab57620001ab6200013b565b81604052838152602092508683858801011115620001c857600080fd5b600091505b83821015620001ec5785820183015181830184015290820190620001cd565b600093810190920192909252949350505050565b80516001600160a01b03811681146200021857600080fd5b919050565b60008060008060008060c087890312156200023757600080fd5b86516001600160401b03808211156200024f57600080fd5b6200025d8a838b0162000151565b975060208901519150808211156200027457600080fd5b506200028389828a0162000151565b955050620002946040880162000200565b9350620002a46060880162000200565b9250620002b46080880162000200565b9150620002c460a0880162000200565b90509295509295509295565b600181811c90821680620002e557607f821691505b6020821081036200030657634e487b7160e01b600052602260045260246000fd5b50919050565b601f8211156200035a57600081815260208120601f850160051c81016020861015620003355750805b601f850160051c820191505b81811015620003565782815560010162000341565b5050505b505050565b81516001600160401b038111156200037b576200037b6200013b565b62000393816200038c8454620002d0565b846200030c565b602080601f831160018114620003cb5760008415620003b25750858301515b600019600386901b1c1916600185901b17855562000356565b600085815260208120601f198616915b82811015620003fc57888601518255948401946001909101908401620003db565b50858210156200041b5787850151600019600388901b60f8161c191681555b5050505050600190811b01905550565b613deb806200043b6000396000f3fe608060405234801561001057600080fd5b50600436106101da5760003560e01c8063715018a611610104578063b60d4288116100a2578063d0e774f611610071578063d0e774f61461042a578063e985e9c51461043d578063f101e48114610450578063f2fde38b1461045957600080fd5b8063b60d4288146103dd578063b88d4fde146103f0578063c54e44eb14610403578063c87b56dd1461041657600080fd5b806395d89b41116100de57806395d89b4114610366578063a22cb4651461036e578063b02439ae14610381578063b588a890146103ca57600080fd5b8063715018a6146103395780638da5cb5b1461034157806392ff0d311461035257600080fd5b806323b872dd1161017c57806342842e0e1161014b57806342842e0e146102ed5780634f6ccce7146103005780636352211e1461031357806370a082311461032657600080fd5b806323b872dd1461029457806329fb08f5146102a75780632aaf0779146102ba5780632f745c59146102da57600080fd5b8063095ea7b3116101b8578063095ea7b31461024757806315f2e2051461025c57806318160ddd1461026f578063238ac9331461028157600080fd5b806301ffc9a7146101df57806306fdde0314610207578063081812fc1461021c575b600080fd5b6101f26101ed36600461349b565b61046c565b60405190151581526020015b60405180910390f35b61020f610497565b6040516101fe9190613505565b61022f61022a366004613518565b610529565b6040516001600160a01b0390911681526020016101fe565b61025a61025536600461354d565b610552565b005b600e5461022f906001600160a01b031681565b6008545b6040519081526020016101fe565b60105461022f906001600160a01b031681565b61025a6102a2366004613577565b610561565b61025a6102b5366004613694565b6105f1565b6102cd6102c8366004613518565b610f77565b6040516101fe9190613755565b6102736102e836600461354d565b6110d4565b61025a6102fb366004613577565b61112b565b61027361030e366004613518565b61114b565b61022f610321366004613518565b61119f565b6102736103343660046137a0565b6111aa565b61025a6111f2565b600a546001600160a01b031661022f565b600a546101f290600160a01b900460ff1681565b61020f611206565b61025a61037c3660046137bb565b611215565b6103ba61038f366004613518565b600c60205260009081526040902080546003820154600483015460059093015460ff90921692909184565b6040516101fe9493929190613802565b61025a6103d83660046138ba565b611220565b600f5461022f906001600160a01b031681565b61025a6103fe3660046139bb565b611285565b600d5461022f906001600160a01b031681565b61020f610424366004613518565b50606090565b61025a610438366004613a85565b61129c565b6101f261044b366004613b95565b611305565b610273600b5481565b61025a6104673660046137a0565b611333565b60006001600160e01b0319821663780e9d6360e01b1480610491575061049182611371565b92915050565b6060600080546104a690613bc8565b80601f01602080910402602001604051908101604052809291908181526020018280546104d290613bc8565b801561051f5780601f106104f45761010080835404028352916020019161051f565b820191906000526020600020905b81548152906001019060200180831161050257829003601f168201915b5050505050905090565b6000610534826113c1565b506000828152600460205260409020546001600160a01b0316610491565b61055d8282336113fa565b5050565b6001600160a01b03821661059057604051633250574960e11b8152600060048201526024015b60405180910390fd5b600061059d838333611407565b9050836001600160a01b0316816001600160a01b0316146105eb576040516364283d7b60e01b81526001600160a01b0380861660048301526024820184905282166044820152606401610587565b50505050565b61064482846040516020016106199291909182526001600160a01b0316602082015260400190565b60408051601f19818403018152919052805160209091012060105483906001600160a01b03166114dc565b6106835760405162461bcd60e51b815260206004820152601060248201526f696e76616c69642065766964656e636560801b6044820152606401610587565b3361068d8761119f565b6001600160a01b0316146106d45760405162461bcd60e51b815260206004820152600e60248201526d27232a1d103737ba1037bbb732b960911b6044820152606401610587565b8360038111156106e6576106e661372b565b6000878152600c6020526040812060029081019190889081111561070c5761070c61372b565b600281111561071d5761071d61372b565b815260208101919091526040016000205460ff1660038111156107425761074261372b565b106107865760405162461bcd60e51b81526020600482015260146024820152734e46543a206e6f74207570677261646561626c6560601b6044820152606401610587565b6000868152600c602052604081205460ff16908160028111156107ab576107ab61372b565b036109415760008660028111156107c4576107c461372b565b03610838576000878152600c60205260408120600290810190829089908111156107f0576107f061372b565b60028111156108015761080161372b565b815260208101919091526040016000205460ff16905061083285858b8b858c8c601f60296032600c6015600a6115c3565b50610c9b565b600186600281111561084c5761084c61372b565b036108ba576000878152600c60205260408120600290810190829089908111156108785761087861372b565b60028111156108895761088961372b565b815260208101919091526040016000205460ff16905061083285858b8b858c8c6044605b606e601b603160166115c3565b60028660028111156108ce576108ce61372b565b0361093c576000878152600c60205260408120600290810190829089908111156108fa576108fa61372b565b600281111561090b5761090b61372b565b815260208101919091526040016000205460ff16905061083285858b8b858c8c6072609860b7602d605160246115c3565b610c9b565b60018160028111156109555761095561372b565b03610aee57600086600281111561096e5761096e61372b565b036109e4576000878152600c602052604081206002908101908290899081111561099a5761099a61372b565b60028111156109ab576109ab61372b565b815260200190815260200160002060009054906101000a900460ff16905061083285858b8b858c8c6066608860a36028604860206115c3565b60018660028111156109f8576109f861372b565b03610a68576000878152600c6020526040812060029081019082908990811115610a2457610a2461372b565b6002811115610a3557610a3561372b565b815260208101919091526040016000205460ff16905061083285858b8b858c8c60e161012c610168605a60a260486115c3565b6002866002811115610a7c57610a7c61372b565b0361093c576000878152600c6020526040812060029081019082908990811115610aa857610aa861372b565b6002811115610ab957610ab961372b565b815260208101919091526040016000205460ff16905061083285858b8b858c8c6101776101f4610258609661010e60786115c3565b6002816002811115610b0257610b0261372b565b03610c9b576000866002811115610b1b57610b1b61372b565b03610b8b576000878152600c6020526040812060029081019082908990811115610b4757610b4761372b565b6002811115610b5857610b5861372b565b815260208101919091526040016000205460ff16905061083285858b8b858c8c60dd6101276101626058609e60466115c3565b6001866002811115610b9f57610b9f61372b565b03610c11576000878152600c6020526040812060029081019082908990811115610bcb57610bcb61372b565b6002811115610bdc57610bdc61372b565b815260208101919091526040016000205460ff16905061083285858b8b858c8c6101e761028a61030c60c361015f609c6115c3565b6002866002811115610c2557610c2561372b565b03610c9b576000878152600c6020526040812060029081019082908990811115610c5157610c5161372b565b6002811115610c6257610c6261372b565b815260208101919091526040016000205460ff169050610c9985858b8b858c8c61032c61043b6105146101456102496101046115c3565b505b6000866002811115610caf57610caf61372b565b03610d86576001856003811115610cc857610cc861372b565b03610cfc576000878152600c602052604081206004018054624f1a009290610cf1908490613c18565b90915550610f2f9050565b6002856003811115610d1057610d1061372b565b03610d44576000878152600c6020526040812060040180546276a7009290610d39908490613c18565b90915550610d819050565b6003856003811115610d5857610d5861372b565b03610d81576000878152600c602052604081206004018054629e34009290610cf1908490613c18565b610f2f565b6001866002811115610d9a57610d9a61372b565b03610e57576001856003811115610db357610db361372b565b03610ddc576000878152600c602052604081206004018054629e34009290610cf1908490613c18565b6002856003811115610df057610df061372b565b03610e19576000878152600c60205260408120600401805462ed4e009290610d39908490613c18565b6003856003811115610e2d57610e2d61372b565b03610d81576000878152600c60205260408120600401805463013c68009290610cf1908490613c18565b6002866002811115610e6b57610e6b61372b565b03610f2f576001856003811115610e8457610e8461372b565b03610ead576000878152600c60205260408120600401805462ed4e009290610cf1908490613c18565b6002856003811115610ec157610ec161372b565b03610eeb576000878152600c602052604081206004018054630163f5009290610cf1908490613c18565b6003856003811115610eff57610eff61372b565b03610f2f576000878152600c6020526040812060040180546301da9c009290610f29908490613c18565b90915550505b867f45d556c1b08304cc1ae1a44d5caa6e8dc835b9f6134ff8bed268dfd5cc71bda685888842604051610f659493929190613c2b565b60405180910390a25050505050505050565b60408051600380825260808201909252606091600091906020820184803683375050506000848152600c60209081526040808320838052600201909152812054825192935060ff1691839190610fcf57610fcf613c66565b60200260200101906003811115610fe857610fe861372b565b90816003811115610ffb57610ffb61372b565b9052506000838152600c602090815260408083206001808552600290910190925290912054825160ff909116918391811061103857611038613c66565b602002602001019060038111156110515761105161372b565b908160038111156110645761106461372b565b9052506000838152600c60209081526040808320600280855290810190925290912054825160ff909116918391811061109f5761109f613c66565b602002602001019060038111156110b8576110b861372b565b908160038111156110cb576110cb61372b565b90525092915050565b60006110df836111aa565b821061110257828260405163295f44f760e21b8152600401610587929190613c7c565b506001600160a01b03919091166000908152600660209081526040808320938352929052205490565b61114683838360405180602001604052806000815250611285565b505050565b600061115660085490565b821061117a5760008260405163295f44f760e21b8152600401610587929190613c7c565b6008828154811061118d5761118d613c66565b90600052602060002001549050919050565b6000610491826113c1565b60006001600160a01b0382166111d6576040516322718ad960e21b815260006004820152602401610587565b506001600160a01b031660009081526003602052604090205490565b6111fa6127c5565b61120460006127f2565b565b6060600180546104a690613bc8565b61055d338383612844565b60005b855181101561127d5761126b86828151811061124157611241613c66565b602002602001015186838151811061125b5761125b613c66565b60200260200101518686866128e3565b8061127581613c95565b915050611223565b505050505050565b611290848484610561565b6105eb84848484612eaf565b60005b85518110156112fb576112e988888884815181106112bf576112bf613c66565b60200260200101518885815181106112d9576112d9613c66565b60200260200101518888886105f1565b806112f381613c95565b91505061129f565b5050505050505050565b6001600160a01b03918216600090815260056020908152604080832093909416825291909152205460ff1690565b61133b6127c5565b6001600160a01b03811661136557604051631e4fbdf760e01b815260006004820152602401610587565b61136e816127f2565b50565b60006001600160e01b031982166380ac58cd60e01b14806113a257506001600160e01b03198216635b5e139f60e01b145b8061049157506301ffc9a760e01b6001600160e01b0319831614610491565b6000818152600260205260408120546001600160a01b03168061049157604051637e27328960e01b815260048101849052602401610587565b6111468383836001612fd8565b6000806114158585856130de565b90506001600160a01b0381166114725761146d84600880546000838152600960205260408120829055600182018355919091527ff3f7a9fe364faab93b216da50a3214154f22a0a2b415b23a84c8169e8b636ee30155565b611495565b846001600160a01b0316816001600160a01b0316146114955761149581856131d7565b6001600160a01b0385166114b1576114ac84613268565b6114d4565b846001600160a01b0316816001600160a01b0316146114d4576114d48585613317565b949350505050565b60006001600160a01b038216158015906114f7575082516041145b61150057600080fd5b60008060008560408151811061151857611518613c66565b016020015161152b9060f81c601b613cae565b90506020860151925060408601519150846001600160a01b031660018883868660405160008152602001604052604051611581949392919093845260ff9290921660208401526040830152606082015260800190565b6020604051602081039080840390855afa1580156115a3573d6000803e3d6000fd5b505050602060405103516001600160a01b03161493505050509392505050565b60008960038111156115d7576115d761372b565b03611eb05760018760038111156115f0576115f061372b565b036118ce578a1561172757600d54600f546001600160a01b039182169163a9059cbb911661161f89605f613cc7565b6116319067016345785d8a0000613cc7565b6040518363ffffffff1660e01b815260040161164e929190613c7c565b6020604051808303816000875af115801561166d573d6000803e3d6000fd5b505050506040513d601f19601f820116820180604052508101906116919190613cde565b50600d546001600160a01b031663a9059cbb8e6116af896005613cc7565b6116c19067016345785d8a0000613cc7565b6040518363ffffffff1660e01b81526004016116de929190613c7c565b6020604051808303816000875af11580156116fd573d6000803e3d6000fd5b505050506040513d601f19601f820116820180604052508101906117219190613cde565b50611865565b600e54600f546001600160a01b039182169163a9059cbb91168e61174c8a605f613cc7565b61175e9067016345785d8a0000613cc7565b6117689190613cfb565b6040518363ffffffff1660e01b8152600401611785929190613c7c565b6020604051808303816000875af11580156117a4573d6000803e3d6000fd5b505050506040513d601f19601f820116820180604052508101906117c89190613cde565b50600e546001600160a01b031663a9059cbb8e8e6117e78a6005613cc7565b6117f99067016345785d8a0000613cc7565b6118039190613cfb565b6040518363ffffffff1660e01b8152600401611820929190613c7c565b6020604051808303816000875af115801561183f573d6000803e3d6000fd5b505050506040513d601f19601f820116820180604052508101906118639190613cde565b505b60008a8152600c602052604081206001916002918201918b9081111561188d5761188d61372b565b600281111561189e5761189e61372b565b81526020810191909152604001600020805460ff191660018360038111156118c8576118c861372b565b02179055505b60028760038111156118e2576118e261372b565b03611bbe578a15611a1957600d54600f546001600160a01b039182169163a9059cbb911661191188605f613cc7565b6119239067016345785d8a0000613cc7565b6040518363ffffffff1660e01b8152600401611940929190613c7c565b6020604051808303816000875af115801561195f573d6000803e3d6000fd5b505050506040513d601f19601f820116820180604052508101906119839190613cde565b50600d546001600160a01b031663a9059cbb8e6119a1886005613cc7565b6119b39067016345785d8a0000613cc7565b6040518363ffffffff1660e01b81526004016119d0929190613c7c565b6020604051808303816000875af11580156119ef573d6000803e3d6000fd5b505050506040513d601f19601f82011682018060405250810190611a139190613cde565b50611b57565b600e54600f546001600160a01b039182169163a9059cbb91168e611a3e89605f613cc7565b611a509067016345785d8a0000613cc7565b611a5a9190613cfb565b6040518363ffffffff1660e01b8152600401611a77929190613c7c565b6020604051808303816000875af1158015611a96573d6000803e3d6000fd5b505050506040513d601f19601f82011682018060405250810190611aba9190613cde565b50600e546001600160a01b031663a9059cbb8e8e611ad9896005613cc7565b611aeb9067016345785d8a0000613cc7565b611af59190613cfb565b6040518363ffffffff1660e01b8152600401611b12929190613c7c565b6020604051808303816000875af1158015611b31573d6000803e3d6000fd5b505050506040513d601f19601f82011682018060405250810190611b559190613cde565b505b60008a8152600c60205260408120600291908201908a83811115611b7d57611b7d61372b565b6002811115611b8e57611b8e61372b565b81526020810191909152604001600020805460ff19166001836003811115611bb857611bb861372b565b02179055505b6003876003811115611bd257611bd261372b565b03611eb0578a15611d0957600d54600f546001600160a01b039182169163a9059cbb9116611c0187605f613cc7565b611c139067016345785d8a0000613cc7565b6040518363ffffffff1660e01b8152600401611c30929190613c7c565b6020604051808303816000875af1158015611c4f573d6000803e3d6000fd5b505050506040513d601f19601f82011682018060405250810190611c739190613cde565b50600d546001600160a01b031663a9059cbb8e611c91876005613cc7565b611ca39067016345785d8a0000613cc7565b6040518363ffffffff1660e01b8152600401611cc0929190613c7c565b6020604051808303816000875af1158015611cdf573d6000803e3d6000fd5b505050506040513d601f19601f82011682018060405250810190611d039190613cde565b50611e47565b600e54600f546001600160a01b039182169163a9059cbb91168e611d2e88605f613cc7565b611d409067016345785d8a0000613cc7565b611d4a9190613cfb565b6040518363ffffffff1660e01b8152600401611d67929190613c7c565b6020604051808303816000875af1158015611d86573d6000803e3d6000fd5b505050506040513d601f19601f82011682018060405250810190611daa9190613cde565b50600e546001600160a01b031663a9059cbb8e8e611dc9886005613cc7565b611ddb9067016345785d8a0000613cc7565b611de59190613cfb565b6040518363ffffffff1660e01b8152600401611e02929190613c7c565b6020604051808303816000875af1158015611e21573d6000803e3d6000fd5b505050506040513d601f19601f82011682018060405250810190611e459190613cde565b505b60008a8152600c602052604081206003916002918201918b90811115611e6f57611e6f61372b565b6002811115611e8057611e8061372b565b81526020810191909152604001600020805460ff19166001836003811115611eaa57611eaa61372b565b02179055505b6001896003811115611ec457611ec461372b565b036124ab576002876003811115611edd57611edd61372b565b036121b9578a1561201457600d54600f546001600160a01b039182169163a9059cbb9116611f0c86605f613cc7565b611f1e9067016345785d8a0000613cc7565b6040518363ffffffff1660e01b8152600401611f3b929190613c7c565b6020604051808303816000875af1158015611f5a573d6000803e3d6000fd5b505050506040513d601f19601f82011682018060405250810190611f7e9190613cde565b50600d546001600160a01b031663a9059cbb8e611f9c866005613cc7565b611fae9067016345785d8a0000613cc7565b6040518363ffffffff1660e01b8152600401611fcb929190613c7c565b6020604051808303816000875af1158015611fea573d6000803e3d6000fd5b505050506040513d601f19601f8201168201806040525081019061200e9190613cde565b50612152565b600e54600f546001600160a01b039182169163a9059cbb91168e61203987605f613cc7565b61204b9067016345785d8a0000613cc7565b6120559190613cfb565b6040518363ffffffff1660e01b8152600401612072929190613c7c565b6020604051808303816000875af1158015612091573d6000803e3d6000fd5b505050506040513d601f19601f820116820180604052508101906120b59190613cde565b50600e546001600160a01b031663a9059cbb8e8e6120d4876005613cc7565b6120e69067016345785d8a0000613cc7565b6120f09190613cfb565b6040518363ffffffff1660e01b815260040161210d929190613c7c565b6020604051808303816000875af115801561212c573d6000803e3d6000fd5b505050506040513d601f19601f820116820180604052508101906121509190613cde565b505b60008a8152600c60205260408120600291908201908a838111156121785761217861372b565b60028111156121895761218961372b565b81526020810191909152604001600020805460ff191660018360038111156121b3576121b361372b565b02179055505b60038760038111156121cd576121cd61372b565b036124ab578a1561230457600d54600f546001600160a01b039182169163a9059cbb91166121fc85605f613cc7565b61220e9067016345785d8a0000613cc7565b6040518363ffffffff1660e01b815260040161222b929190613c7c565b6020604051808303816000875af115801561224a573d6000803e3d6000fd5b505050506040513d601f19601f8201168201806040525081019061226e9190613cde565b50600d546001600160a01b031663a9059cbb8e61228c856005613cc7565b61229e9067016345785d8a0000613cc7565b6040518363ffffffff1660e01b81526004016122bb929190613c7c565b6020604051808303816000875af11580156122da573d6000803e3d6000fd5b505050506040513d601f19601f820116820180604052508101906122fe9190613cde565b50612442565b600e54600f546001600160a01b039182169163a9059cbb91168e61232986605f613cc7565b61233b9067016345785d8a0000613cc7565b6123459190613cfb565b6040518363ffffffff1660e01b8152600401612362929190613c7c565b6020604051808303816000875af1158015612381573d6000803e3d6000fd5b505050506040513d601f19601f820116820180604052508101906123a59190613cde565b50600e546001600160a01b031663a9059cbb8e8e6123c4866005613cc7565b6123d69067016345785d8a0000613cc7565b6123e09190613cfb565b6040518363ffffffff1660e01b81526004016123fd929190613c7c565b6020604051808303816000875af115801561241c573d6000803e3d6000fd5b505050506040513d601f19601f820116820180604052508101906124409190613cde565b505b60008a8152600c602052604081206003916002918201918b9081111561246a5761246a61372b565b600281111561247b5761247b61372b565b81526020810191909152604001600020805460ff191660018360038111156124a5576124a561372b565b02179055505b60028960038111156124bf576124bf61372b565b036127b65760038760038111156124d8576124d861372b565b036127b6578a1561260f57600d54600f546001600160a01b039182169163a9059cbb911661250784605f613cc7565b6125199067016345785d8a0000613cc7565b6040518363ffffffff1660e01b8152600401612536929190613c7c565b6020604051808303816000875af1158015612555573d6000803e3d6000fd5b505050506040513d601f19601f820116820180604052508101906125799190613cde565b50600d546001600160a01b031663a9059cbb8e612597846005613cc7565b6125a99067016345785d8a0000613cc7565b6040518363ffffffff1660e01b81526004016125c6929190613c7c565b6020604051808303816000875af11580156125e5573d6000803e3d6000fd5b505050506040513d601f19601f820116820180604052508101906126099190613cde565b5061274d565b600e54600f546001600160a01b039182169163a9059cbb91168e61263485605f613cc7565b6126469067016345785d8a0000613cc7565b6126509190613cfb565b6040518363ffffffff1660e01b815260040161266d929190613c7c565b6020604051808303816000875af115801561268c573d6000803e3d6000fd5b505050506040513d601f19601f820116820180604052508101906126b09190613cde565b50600e546001600160a01b031663a9059cbb8e8e6126cf856005613cc7565b6126e19067016345785d8a0000613cc7565b6126eb9190613cfb565b6040518363ffffffff1660e01b8152600401612708929190613c7c565b6020604051808303816000875af1158015612727573d6000803e3d6000fd5b505050506040513d601f19601f8201168201806040525081019061274b9190613cde565b505b60008a8152600c602052604081206003916002918201918b908111156127755761277561372b565b60028111156127865761278661372b565b81526020810191909152604001600020805460ff191660018360038111156127b0576127b061372b565b02179055505b50505050505050505050505050565b600a546001600160a01b031633146112045760405163118cdaa760e01b8152336004820152602401610587565b600a80546001600160a01b038381166001600160a01b0319831681179093556040519116919082907f8be0079c531659141344cd1fd0a4f28419497f9722a3daafe3b4186f6b6457e090600090a35050565b6001600160a01b03821661287657604051630b61174360e31b81526001600160a01b0383166004820152602401610587565b6001600160a01b03838116600081815260056020908152604080832094871680845294825291829020805460ff191686151590811790915591519182527f17307eab39ab6107e8899845ad3d59bd9653f200f220920489ca2b5937696c31910160405180910390a3505050565b600061292684846040516020016128fb929190613c7c565b60408051601f19818403018152919052805160209091012060105484906001600160a01b03166114dc565b6129655760405162461bcd60e51b815260206004820152601060248201526f696e76616c69642065766964656e636560801b6044820152606401610587565b60008660028111156129795761297961372b565b03612adf57600d54600f546001600160a01b039182169163a9059cbb9116612710866129af8a69010f0cf064dd59200000613cc7565b6129ba90605f613cc7565b6129c49190613cc7565b6129ce9190613cfb565b6040518363ffffffff1660e01b81526004016129eb929190613c7c565b6020604051808303816000875af1158015612a0a573d6000803e3d6000fd5b505050506040513d601f19601f82011682018060405250810190612a2e9190613cde565b50600d546001600160a01b031663a9059cbb8561271086612a598a69010f0cf064dd59200000613cc7565b612a64906005613cc7565b612a6e9190613cc7565b612a789190613cfb565b6040518363ffffffff1660e01b8152600401612a95929190613c7c565b6020604051808303816000875af1158015612ab4573d6000803e3d6000fd5b505050506040513d601f19601f82011682018060405250810190612ad89190613cde565b506104b090505b6001866002811115612af357612af361372b565b03612c5957600d54600f546001600160a01b039182169163a9059cbb911661271086612b298a6901b1ae4d6e2ef5000000613cc7565b612b3490605f613cc7565b612b3e9190613cc7565b612b489190613cfb565b6040518363ffffffff1660e01b8152600401612b65929190613c7c565b6020604051808303816000875af1158015612b84573d6000803e3d6000fd5b505050506040513d601f19601f82011682018060405250810190612ba89190613cde565b50600d546001600160a01b031663a9059cbb8561271086612bd38a6901b1ae4d6e2ef5000000613cc7565b612bde906005613cc7565b612be89190613cc7565b612bf29190613cfb565b6040518363ffffffff1660e01b8152600401612c0f929190613c7c565b6020604051808303816000875af1158015612c2e573d6000803e3d6000fd5b505050506040513d601f19601f82011682018060405250810190612c529190613cde565b506107d090505b6002866002811115612c6d57612c6d61372b565b03612dd357600d54600f546001600160a01b039182169163a9059cbb911661271086612ca38a69028a857425466f800000613cc7565b612cae90605f613cc7565b612cb89190613cc7565b612cc29190613cfb565b6040518363ffffffff1660e01b8152600401612cdf929190613c7c565b6020604051808303816000875af1158015612cfe573d6000803e3d6000fd5b505050506040513d601f19601f82011682018060405250810190612d229190613cde565b50600d546001600160a01b031663a9059cbb8561271086612d4d8a69028a857425466f800000613cc7565b612d58906005613cc7565b612d629190613cc7565b612d6c9190613cfb565b6040518363ffffffff1660e01b8152600401612d89929190613c7c565b6020604051808303816000875af1158015612da8573d6000803e3d6000fd5b505050506040513d601f19601f82011682018060405250810190612dcc9190613cde565b50610c8090505b60005b85811015612ea657600b80549081906000612df083613c95565b9190505550612dff3382613367565b6000818152600c60205260409020805489919060ff19166001836002811115612e2a57612e2a61372b565b02179055506000818152600c60205260409081902042600382015563076a700060048201556005018490555181907f2e6d97f41fb5e22a6bdffd32e22b194939ba2aa3ef13f7cfd9d8bc1b3bdae1a490612e8b9033908b908b908e90613d1d565b60405180910390a25080612e9e81613c95565b915050612dd6565b50505050505050565b6001600160a01b0383163b156105eb57604051630a85bd0160e11b81526001600160a01b0384169063150b7a0290612ef1903390889087908790600401613d45565b6020604051808303816000875af1925050508015612f2c575060408051601f3d908101601f19168201909252612f2991810190613d82565b60015b612f95573d808015612f5a576040519150601f19603f3d011682016040523d82523d6000602084013e612f5f565b606091505b508051600003612f8d57604051633250574960e11b81526001600160a01b0385166004820152602401610587565b805181602001fd5b6001600160e01b03198116630a85bd0160e11b14612fd157604051633250574960e11b81526001600160a01b0385166004820152602401610587565b5050505050565b8080612fec57506001600160a01b03821615155b156130ae576000612ffc846113c1565b90506001600160a01b038316158015906130285750826001600160a01b0316816001600160a01b031614155b801561303b57506130398184611305565b155b156130645760405163a9fbf51f60e01b81526001600160a01b0384166004820152602401610587565b81156130ac5783856001600160a01b0316826001600160a01b03167f8c5be1e5ebec7d5bd14f71427d1e84f3dd0314c0f7b2291e5b200ac8c7c3b92560405160405180910390a45b505b5050600090815260046020526040902080546001600160a01b0319166001600160a01b0392909216919091179055565b6000828152600260205260408120546001600160a01b039081169083161561310b5761310b8184866133cc565b6001600160a01b0381161561314957613128600085600080612fd8565b6001600160a01b038116600090815260036020526040902080546000190190555b6001600160a01b03851615613178576001600160a01b0385166000908152600360205260409020805460010190555b60008481526002602052604080822080546001600160a01b0319166001600160a01b0389811691821790925591518793918516917fddf252ad1be2c89b69c2b068fc378daa952ba7f163c4a11628f55a4df523b3ef91a4949350505050565b60006131e2836111aa565b600083815260076020526040902054909150808214613235576001600160a01b03841660009081526006602090815260408083208584528252808320548484528184208190558352600790915290208190555b5060009182526007602090815260408084208490556001600160a01b039094168352600681528383209183525290812055565b60085460009061327a90600190613c18565b600083815260096020526040812054600880549394509092849081106132a2576132a2613c66565b9060005260206000200154905080600883815481106132c3576132c3613c66565b60009182526020808320909101929092558281526009909152604080822084905585825281205560088054806132fb576132fb613d9f565b6001900381819060005260206000200160009055905550505050565b60006001613324846111aa565b61332e9190613c18565b6001600160a01b039093166000908152600660209081526040808320868452825280832085905593825260079052919091209190915550565b6001600160a01b03821661339157604051633250574960e11b815260006004820152602401610587565b600061339f83836000611407565b90506001600160a01b03811615611146576040516339e3563760e11b815260006004820152602401610587565b6133d7838383613422565b611146576001600160a01b03831661340557604051637e27328960e01b815260048101829052602401610587565b818160405163177e802f60e01b8152600401610587929190613c7c565b60006001600160a01b038316158015906114d45750826001600160a01b0316846001600160a01b0316148061345c575061345c8484611305565b806114d45750506000908152600460205260409020546001600160a01b03908116911614919050565b6001600160e01b03198116811461136e57600080fd5b6000602082840312156134ad57600080fd5b81356134b881613485565b9392505050565b6000815180845260005b818110156134e5576020818501810151868301820152016134c9565b506000602082860101526020601f19601f83011685010191505092915050565b6020815260006134b860208301846134bf565b60006020828403121561352a57600080fd5b5035919050565b80356001600160a01b038116811461354857600080fd5b919050565b6000806040838503121561356057600080fd5b61356983613531565b946020939093013593505050565b60008060006060848603121561358c57600080fd5b61359584613531565b92506135a360208501613531565b9150604084013590509250925092565b801515811461136e57600080fd5b6003811061136e57600080fd5b80356004811061354857600080fd5b634e487b7160e01b600052604160045260246000fd5b604051601f8201601f1916810167ffffffffffffffff8111828210171561361c5761361c6135dd565b604052919050565b600082601f83011261363557600080fd5b813567ffffffffffffffff81111561364f5761364f6135dd565b613662601f8201601f19166020016135f3565b81815284602083860101111561367757600080fd5b816020850160208301376000918101602001919091529392505050565b600080600080600080600060e0888a0312156136af57600080fd5b87356136ba816135b3565b96506020880135955060408801356136d1816135c1565b94506136df606089016135ce565b93506136ed60808901613531565b925060a0880135915060c088013567ffffffffffffffff81111561371057600080fd5b61371c8a828b01613624565b91505092959891949750929550565b634e487b7160e01b600052602160045260246000fd5b600481106137515761375161372b565b9052565b6020808252825182820181905260009190848201906040850190845b8181101561379457613784838551613741565b9284019291840191600101613771565b50909695505050505050565b6000602082840312156137b257600080fd5b6134b882613531565b600080604083850312156137ce57600080fd5b6137d783613531565b915060208301356137e7816135b3565b809150509250929050565b6003811061136e5761136e61372b565b6080810161380f866137f2565b9481526020810193909352604083019190915260609091015290565b600067ffffffffffffffff821115613845576138456135dd565b5060051b60200190565b600082601f83011261386057600080fd5b813560206138756138708361382b565b6135f3565b82815260059290921b8401810191818101908684111561389457600080fd5b8286015b848110156138af5780358352918301918301613898565b509695505050505050565b600080600080600060a086880312156138d257600080fd5b853567ffffffffffffffff808211156138ea57600080fd5b818801915088601f8301126138fe57600080fd5b8135602061390e6138708361382b565b82815260059290921b8401810191818101908c84111561392d57600080fd5b948201945b83861015613954578535613945816135c1565b82529482019490820190613932565b9950508901359250508082111561396a57600080fd5b61397689838a0161384f565b955061398460408901613531565b94506060880135935060808801359150808211156139a157600080fd5b506139ae88828901613624565b9150509295509295909350565b600080600080608085870312156139d157600080fd5b6139da85613531565b93506139e860208601613531565b925060408501359150606085013567ffffffffffffffff811115613a0b57600080fd5b613a1787828801613624565b91505092959194509250565b600082601f830112613a3457600080fd5b81356020613a446138708361382b565b82815260059290921b84018101918181019086841115613a6357600080fd5b8286015b848110156138af57613a78816135ce565b8352918301918301613a67565b600080600080600080600060e0888a031215613aa057600080fd5b8735613aab816135b3565b96506020888101359650604089013567ffffffffffffffff80821115613ad057600080fd5b818b0191508b601f830112613ae457600080fd5b8135613af26138708261382b565b81815260059190911b8301840190848101908e831115613b1157600080fd5b938501935b82851015613b38578435613b29816135c1565b82529385019390850190613b16565b9950505060608b0135925080831115613b5057600080fd5b613b5c8c848d01613a23565b9650613b6a60808c01613531565b955060a08b0135945060c08b0135925080831115613b8757600080fd5b505061371c8a828b01613624565b60008060408385031215613ba857600080fd5b613bb183613531565b9150613bbf60208401613531565b90509250929050565b600181811c90821680613bdc57607f821691505b602082108103613bfc57634e487b7160e01b600052602260045260246000fd5b50919050565b634e487b7160e01b600052601160045260246000fd5b8181038181111561049157610491613c02565b6001600160a01b038516815260808101613c44856137f2565b846020830152613c576040830185613741565b82606083015295945050505050565b634e487b7160e01b600052603260045260246000fd5b6001600160a01b03929092168252602082015260400190565b600060018201613ca757613ca7613c02565b5060010190565b60ff818116838216019081111561049157610491613c02565b808202811582820484141761049157610491613c02565b600060208284031215613cf057600080fd5b81516134b8816135b3565b600082613d1857634e487b7160e01b600052601260045260246000fd5b500490565b6001600160a01b038581168252602082018590528316604082015260808101613c57836137f2565b6001600160a01b0385811682528416602082015260408101839052608060608201819052600090613d78908301846134bf565b9695505050505050565b600060208284031215613d9457600080fd5b81516134b881613485565b634e487b7160e01b600052603160045260246000fdfea2646970667358221220e3ebdb3dd49e5ff12bc5dcb1b557391ddc6903e4198e1075942cec3e8650981264736f6c63430008150033",
    "linkReferences": {}
  },
  "methodIdentifiers": {
    "USDT()": "c54e44eb",
    "Zeb()": "15f2e205",
    "approve(address,uint256)": "095ea7b3",
    "balanceOf(address)": "70a08231",
    "fund()": "b60d4288",
    "getApproved(uint256)": "081812fc",
    "getEquipmentLevel(uint256)": "2aaf0779",
    "isApprovedForAll(address,address)": "e985e9c5",
    "multipleUpgrade(bool,uint256,uint8[],uint8[],address,uint256,bytes)": "d0e774f6",
    "name()": "06fdde03",
    "nextTokenID()": "f101e481",
    "nodeInfo(uint256)": "b02439ae",
    "owner()": "8da5cb5b",
    "ownerOf(uint256)": "6352211e",
    "publicMint(uint8[],uint256[],address,uint256,bytes)": "b588a890",
    "renounceOwnership()": "715018a6",
    "safeTransferFrom(address,address,uint256)": "42842e0e",
    "safeTransferFrom(address,address,uint256,bytes)": "b88d4fde",
    "setApprovalForAll(address,bool)": "a22cb465",
    "signer()": "238ac933",
    "supportsInterface(bytes4)": "01ffc9a7",
    "symbol()": "95d89b41",
    "tokenByIndex(uint256)": "4f6ccce7",
    "tokenOfOwnerByIndex(address,uint256)": "2f745c59",
    "tokenURI(uint256)": "c87b56dd",
    "totalSupply()": "18160ddd",
    "transferFrom(address,address,uint256)": "23b872dd",
    "transferOwnership(address)": "f2fde38b",
    "transferable()": "92ff0d31",
    "upgrade(bool,uint256,uint8,uint8,address,uint256,bytes)": "29fb08f5"
  },
  "id": 37
}