{
  "abi": [
    {
      "inputs": [
        {
          "internalType": "string",
          "name": "name",
          "type": "string"
        },
        {
          "internalType": "string",
          "name": "symbol",
          "type": "string"
        },
        {
          "internalType": "address",
          "name": "_usdt",
          "type": "address"
        },
        {
          "internalType": "address",
          "name": "_zeb",
          "type": "address"
        },
        {
          "internalType": "address",
          "name": "_receiver",
          "type": "address"
        },
        {
          "internalType": "address",
          "name": "_signer",
          "type": "address"
        }
      ],
      "stateMutability": "nonpayable",
      "type": "constructor"
    },
    {
      "inputs": [
        {
          "internalType": "address",
          "name": "sender",
          "type": "address"
        },
        {
          "internalType": "uint256",
          "name": "tokenId",
          "type": "uint256"
        },
        {
          "internalType": "address",
          "name": "owner",
          "type": "address"
        }
      ],
      "name": "ERC721IncorrectOwner",
      "type": "error"
    },
    {
      "inputs": [
        {
          "internalType": "address",
          "name": "operator",
          "type": "address"
        },
        {
          "internalType": "uint256",
          "name": "tokenId",
          "type": "uint256"
        }
      ],
      "name": "ERC721InsufficientApproval",
      "type": "error"
    },
    {
      "inputs": [
        {
          "internalType": "address",
          "name": "approver",
          "type": "address"
        }
      ],
      "name": "ERC721InvalidApprover",
      "type": "error"
    },
    {
      "inputs": [
        {
          "internalType": "address",
          "name": "operator",
          "type": "address"
        }
      ],
      "name": "ERC721InvalidOperator",
      "type": "error"
    },
    {
      "inputs": [
        {
          "internalType": "address",
          "name": "owner",
          "type": "address"
        }
      ],
      "name": "ERC721InvalidOwner",
      "type": "error"
    },
    {
      "inputs": [
        {
          "internalType": "address",
          "name": "receiver",
          "type": "address"
        }
      ],
      "name": "ERC721InvalidReceiver",
      "type": "error"
    },
    {
      "inputs": [
        {
          "internalType": "address",
          "name": "sender",
          "type": "address"
        }
      ],
      "name": "ERC721InvalidSender",
      "type": "error"
    },
    {
      "inputs": [
        {
          "internalType": "uint256",
          "name": "tokenId",
          "type": "uint256"
        }
      ],
      "name": "ERC721NonexistentToken",
      "type": "error"
    },
    {
      "inputs": [
        {
          "internalType": "address",
          "name": "owner",
          "type": "address"
        }
      ],
      "name": "OwnableInvalidOwner",
      "type": "error"
    },
    {
      "inputs": [
        {
          "internalType": "address",
          "name": "account",
          "type": "address"
        }
      ],
      "name": "OwnableUnauthorizedAccount",
      "type": "error"
    },
    {
      "anonymous": false,
      "inputs": [
        {
          "indexed": true,
          "internalType": "address",
          "name": "owner",
          "type": "address"
        },
        {
          "indexed": true,
          "internalType": "address",
          "name": "approved",
          "type": "address"
        },
        {
          "indexed": true,
          "internalType": "uint256",
          "name": "tokenId",
          "type": "uint256"
        }
      ],
      "name": "Approval",
      "type": "event"
    },
    {
      "anonymous": false,
      "inputs": [
        {
          "indexed": true,
          "internalType": "address",
          "name": "owner",
          "type": "address"
        },
        {
          "indexed": true,
          "internalType": "address",
          "name": "operator",
          "type": "address"
        },
        {
          "indexed": false,
          "internalType": "bool",
          "name": "approved",
          "type": "bool"
        }
      ],
      "name": "ApprovalForAll",
      "type": "event"
    },
    {
      "anonymous": false,
      "inputs": [
        {
          "indexed": true,
          "internalType": "address",
          "name": "previousOwner",
          "type": "address"
        },
        {
          "indexed": true,
          "internalType": "address",
          "name": "newOwner",
          "type": "address"
        }
      ],
      "name": "OwnershipTransferred",
      "type": "event"
    },
    {
      "anonymous": false,
      "inputs": [
        {
          "indexed": true,
          "internalType": "address",
          "name": "from",
          "type": "address"
        },
        {
          "indexed": true,
          "internalType": "address",
          "name": "to",
          "type": "address"
        },
        {
          "indexed": true,
          "internalType": "uint256",
          "name": "tokenId",
          "type": "uint256"
        }
      ],
      "name": "Transfer",
      "type": "event"
    },
    {
      "anonymous": false,
      "inputs": [
        {
          "indexed": true,
          "internalType": "uint256",
          "name": "tokenId",
          "type": "uint256"
        },
        {
          "indexed": false,
          "internalType": "address",
          "name": "user",
          "type": "address"
        },
        {
          "indexed": false,
          "internalType": "uint256",
          "name": "amount",
          "type": "uint256"
        },
        {
          "indexed": false,
          "internalType": "address",
          "name": "inviter",
          "type": "address"
        },
        {
          "indexed": false,
          "internalType": "enum Node.MachineType",
          "name": "_MachineType",
          "type": "uint8"
        }
      ],
      "name": "mintEvent",
      "type": "event"
    },
    {
      "anonymous": false,
      "inputs": [
        {
          "indexed": true,
          "internalType": "uint256",
          "name": "tokenId",
          "type": "uint256"
        },
        {
          "indexed": false,
          "internalType": "address",
          "name": "inviter",
          "type": "address"
        },
        {
          "indexed": false,
          "internalType": "enum Node.EquipmentType",
          "name": "equipmentType",
          "type": "uint8"
        },
        {
          "indexed": false,
          "internalType": "enum Node.EquipmentLevel",
          "name": "equipmentLevel",
          "type": "uint8"
        },
        {
          "indexed": false,
          "internalType": "uint256",
          "name": "time",
          "type": "uint256"
        }
      ],
      "name": "upgradeEvent",
      "type": "event"
    },
    {
      "inputs": [],
      "name": "USDT",
      "outputs": [
        {
          "internalType": "contract IERC20",
          "name": "",
          "type": "address"
        }
      ],
      "stateMutability": "view",
      "type": "function"
    },
    {
      "inputs": [],
      "name": "Zeb",
      "outputs": [
        {
          "internalType": "contract IERC20",
          "name": "",
          "type": "address"
        }
      ],
      "stateMutability": "view",
      "type": "function"
    },
    {
      "inputs": [
        {
          "internalType": "address",
          "name": "to",
          "type": "address"
        },
        {
          "internalType": "uint256",
          "name": "tokenId",
          "type": "uint256"
        }
      ],
      "name": "approve",
      "outputs": [],
      "stateMutability": "nonpayable",
      "type": "function"
    },
    {
      "inputs": [
        {
          "internalType": "address",
          "name": "owner",
          "type": "address"
        }
      ],
      "name": "balanceOf",
      "outputs": [
        {
          "internalType": "uint256",
          "name": "",
          "type": "uint256"
        }
      ],
      "stateMutability": "view",
      "type": "function"
    },
    {
      "inputs": [
        {
          "internalType": "uint256",
          "name": "tokenId",
          "type": "uint256"
        }
      ],
      "name": "getApproved",
      "outputs": [
        {
          "internalType": "address",
          "name": "",
          "type": "address"
        }
      ],
      "stateMutability": "view",
      "type": "function"
    },
    {
      "inputs": [
        {
          "internalType": "address",
          "name": "owner",
          "type": "address"
        },
        {
          "internalType": "address",
          "name": "operator",
          "type": "address"
        }
      ],
      "name": "isApprovedForAll",
      "outputs": [
        {
          "internalType": "bool",
          "name": "",
          "type": "bool"
        }
      ],
      "stateMutability": "view",
      "type": "function"
    },
    {
      "inputs": [],
      "name": "name",
      "outputs": [
        {
          "internalType": "string",
          "name": "",
          "type": "string"
        }
      ],
      "stateMutability": "view",
      "type": "function"
    },
    {
      "inputs": [],
      "name": "nextTokenID",
      "outputs": [
        {
          "internalType": "uint256",
          "name": "",
          "type": "uint256"
        }
      ],
      "stateMutability": "view",
      "type": "function"
    },
    {
      "inputs": [
        {
          "internalType": "uint256",
          "name": "",
          "type": "uint256"
        }
      ],
      "name": "nodeInfo",
      "outputs": [
        {
          "internalType": "enum Node.MachineType",
          "name": "MachineType",
          "type": "uint8"
        },
        {
          "internalType": "uint256",
          "name": "mintTime",
          "type": "uint256"
        },
        {
          "internalType": "uint256",
          "name": "unlockPeriod",
          "type": "uint256"
        },
        {
          "internalType": "uint256",
          "name": "totalToken",
          "type": "uint256"
        }
      ],
      "stateMutability": "view",
      "type": "function"
    },
    {
      "inputs": [],
      "name": "owner",
      "outputs": [
        {
          "internalType": "address",
          "name": "",
          "type": "address"
        }
      ],
      "stateMutability": "view",
      "type": "function"
    },
    {
      "inputs": [
        {
          "internalType": "uint256",
          "name": "tokenId",
          "type": "uint256"
        }
      ],
      "name": "ownerOf",
      "outputs": [
        {
          "internalType": "address",
          "name": "",
          "type": "address"
        }
      ],
      "stateMutability": "view",
      "type": "function"
    },
    {
      "inputs": [
        {
          "internalType": "enum Node.MachineType[]",
          "name": "_machineType",
          "type": "uint8[]"
        },
        {
          "internalType": "uint256[]",
          "name": "amount",
          "type": "uint256[]"
        },
        {
          "internalType": "address",
          "name": "inviter",
          "type": "address"
        },
        {
          "internalType": "uint256",
          "name": "discount",
          "type": "uint256"
        },
        {
          "internalType": "bytes",
          "name": "evidence",
          "type": "bytes"
        }
      ],
      "name": "publicMint",
      "outputs": [],
      "stateMutability": "nonpayable",
      "type": "function"
    },
    {
      "inputs": [],
      "name": "receiver",
      "outputs": [
        {
          "internalType": "address",
          "name": "",
          "type": "address"
        }
      ],
      "stateMutability": "view",
      "type": "function"
    },
    {
      "inputs": [],
      "name": "renounceOwnership",
      "outputs": [],
      "stateMutability": "nonpayable",
      "type": "function"
    },
    {
      "inputs": [
        {
          "internalType": "address",
          "name": "from",
          "type": "address"
        },
        {
          "internalType": "address",
          "name": "to",
          "type": "address"
        },
        {
          "internalType": "uint256",
          "name": "tokenId",
          "type": "uint256"
        }
      ],
      "name": "safeTransferFrom",
      "outputs": [],
      "stateMutability": "nonpayable",
      "type": "function"
    },
    {
      "inputs": [
        {
          "internalType": "address",
          "name": "from",
          "type": "address"
        },
        {
          "internalType": "address",
          "name": "to",
          "type": "address"
        },
        {
          "internalType": "uint256",
          "name": "tokenId",
          "type": "uint256"
        },
        {
          "internalType": "bytes",
          "name": "data",
          "type": "bytes"
        }
      ],
      "name": "safeTransferFrom",
      "outputs": [],
      "stateMutability": "nonpayable",
      "type": "function"
    },
    {
      "inputs": [
        {
          "internalType": "address",
          "name": "operator",
          "type": "address"
        },
        {
          "internalType": "bool",
          "name": "approved",
          "type": "bool"
        }
      ],
      "name": "setApprovalForAll",
      "outputs": [],
      "stateMutability": "nonpayable",
      "type": "function"
    },
    {
      "inputs": [],
      "name": "signer",
      "outputs": [
        {
          "internalType": "address",
          "name": "",
          "type": "address"
        }
      ],
      "stateMutability": "view",
      "type": "function"
    },
    {
      "inputs": [
        {
          "internalType": "bytes4",
          "name": "interfaceId",
          "type": "bytes4"
        }
      ],
      "name": "supportsInterface",
      "outputs": [
        {
          "internalType": "bool",
          "name": "",
          "type": "bool"
        }
      ],
      "stateMutability": "view",
      "type": "function"
    },
    {
      "inputs": [],
      "name": "symbol",
      "outputs": [
        {
          "internalType": "string",
          "name": "",
          "type": "string"
        }
      ],
      "stateMutability": "view",
      "type": "function"
    },
    {
      "inputs": [
        {
          "internalType": "uint256",
          "name": "tokenID",
          "type": "uint256"
        }
      ],
      "name": "tokenURI",
      "outputs": [
        {
          "internalType": "string",
          "name": "",
          "type": "string"
        }
      ],
      "stateMutability": "view",
      "type": "function"
    },
    {
      "inputs": [
        {
          "internalType": "address",
          "name": "from",
          "type": "address"
        },
        {
          "internalType": "address",
          "name": "to",
          "type": "address"
        },
        {
          "internalType": "uint256",
          "name": "tokenId",
          "type": "uint256"
        }
      ],
      "name": "transferFrom",
      "outputs": [],
      "stateMutability": "nonpayable",
      "type": "function"
    },
    {
      "inputs": [
        {
          "internalType": "address",
          "name": "newOwner",
          "type": "address"
        }
      ],
      "name": "transferOwnership",
      "outputs": [],
      "stateMutability": "nonpayable",
      "type": "function"
    },
    {
      "inputs": [],
      "name": "transferable",
      "outputs": [
        {
          "internalType": "bool",
          "name": "",
          "type": "bool"
        }
      ],
      "stateMutability": "view",
      "type": "function"
    },
    {
      "inputs": [
        {
          "internalType": "bool",
          "name": "isUSDT",
          "type": "bool"
        },
        {
          "internalType": "uint256",
          "name": "tokenId",
          "type": "uint256"
        },
        {
          "internalType": "enum Node.EquipmentType",
          "name": "_equipmentType",
          "type": "uint8"
        },
        {
          "internalType": "enum Node.EquipmentLevel",
          "name": "_equipmentLevel",
          "type": "uint8"
        },
        {
          "internalType": "address",
          "name": "inviter",
          "type": "address"
        },
        {
          "internalType": "uint256",
          "name": "zebPrice",
          "type": "uint256"
        },
        {
          "internalType": "bytes",
          "name": "evidence",
          "type": "bytes"
        }
      ],
      "name": "upgrade",
      "outputs": [],
      "stateMutability": "nonpayable",
      "type": "function"
    }
  ],
  "bytecode": {
    "object": "0x60806040523480156200001157600080fd5b5060405162003adb38038062003adb83398101604081905262000034916200021d565b33868660006200004583826200035f565b5060016200005482826200035f565b5050506001600160a01b0381166200008657604051631e4fbdf760e01b81526000600482015260240160405180910390fd5b6200009181620000e9565b50600980546001600160a01b039586166001600160a01b031991821617909155600a805494861694821694909417909355600b805492851692841692909217909155600c8054919093169116179055506200042b9050565b600680546001600160a01b038381166001600160a01b0319831681179093556040519116919082907f8be0079c531659141344cd1fd0a4f28419497f9722a3daafe3b4186f6b6457e090600090a35050565b634e487b7160e01b600052604160045260246000fd5b600082601f8301126200016357600080fd5b81516001600160401b03808211156200018057620001806200013b565b604051601f8301601f19908116603f01168101908282118183101715620001ab57620001ab6200013b565b81604052838152602092508683858801011115620001c857600080fd5b600091505b83821015620001ec5785820183015181830184015290820190620001cd565b600093810190920192909252949350505050565b80516001600160a01b03811681146200021857600080fd5b919050565b60008060008060008060c087890312156200023757600080fd5b86516001600160401b03808211156200024f57600080fd5b6200025d8a838b0162000151565b975060208901519150808211156200027457600080fd5b506200028389828a0162000151565b955050620002946040880162000200565b9350620002a46060880162000200565b9250620002b46080880162000200565b9150620002c460a0880162000200565b90509295509295509295565b600181811c90821680620002e557607f821691505b6020821081036200030657634e487b7160e01b600052602260045260246000fd5b50919050565b601f8211156200035a57600081815260208120601f850160051c81016020861015620003355750805b601f850160051c820191505b81811015620003565782815560010162000341565b5050505b505050565b81516001600160401b038111156200037b576200037b6200013b565b62000393816200038c8454620002d0565b846200030c565b602080601f831160018114620003cb5760008415620003b25750858301515b600019600386901b1c1916600185901b17855562000356565b600085815260208120601f198616915b82811015620003fc57888601518255948401946001909101908401620003db565b50858210156200041b5787850151600019600388901b60f8161c191681555b5050505050600190811b01905550565b6136a0806200043b6000396000f3fe608060405234801561001057600080fd5b50600436106101735760003560e01c80638da5cb5b116100de578063b88d4fde11610097578063e985e9c511610071578063e985e9c514610366578063f101e48114610379578063f2fde38b14610382578063f7260d3e1461039557600080fd5b8063b88d4fde1461032c578063c54e44eb1461033f578063c87b56dd1461035257600080fd5b80638da5cb5b1461029057806392ff0d31146102a157806395d89b41146102b5578063a22cb465146102bd578063b02439ae146102d0578063b588a8901461031957600080fd5b806323b872dd1161013057806323b872dd1461021b57806329fb08f51461022e57806342842e0e146102415780636352211e1461025457806370a0823114610267578063715018a61461028857600080fd5b806301ffc9a71461017857806306fdde03146101a0578063081812fc146101b5578063095ea7b3146101e057806315f2e205146101f5578063238ac93314610208575b600080fd5b61018b610186366004612f2b565b6103a8565b60405190151581526020015b60405180910390f35b6101a86103fa565b6040516101979190612f95565b6101c86101c3366004612fa8565b61048c565b6040516001600160a01b039091168152602001610197565b6101f36101ee366004612fdd565b6104b5565b005b600a546101c8906001600160a01b031681565b600c546101c8906001600160a01b031681565b6101f3610229366004613007565b6104c4565b6101f361023c366004613115565b61052a565b6101f361024f366004613007565b610eb0565b6101c8610262366004612fa8565b610ecb565b61027a6102753660046131b2565b610ed6565b604051908152602001610197565b6101f3610f1e565b6006546001600160a01b03166101c8565b60065461018b90600160a01b900460ff1681565b6101a8610f32565b6101f36102cb3660046131cd565b610f41565b6103096102de366004612fa8565b600860205260009081526040902080546003820154600483015460059093015460ff90921692909184565b604051610197949392919061322a565b6101f36103273660046132e2565b610f4c565b6101f361033a3660046133e3565b610fb1565b6009546101c8906001600160a01b031681565b6101a8610360366004612fa8565b50606090565b61018b61037436600461344b565b610fce565b61027a60075481565b6101f36103903660046131b2565b610ffc565b600b546101c8906001600160a01b031681565b60006001600160e01b031982166380ac58cd60e01b14806103d957506001600160e01b03198216635b5e139f60e01b145b806103f457506301ffc9a760e01b6001600160e01b03198316145b92915050565b6060600080546104099061347e565b80601f01602080910402602001604051908101604052809291908181526020018280546104359061347e565b80156104825780601f1061045757610100808354040283529160200191610482565b820191906000526020600020905b81548152906001019060200180831161046557829003601f168201915b5050505050905090565b60006104978261103a565b506000828152600460205260409020546001600160a01b03166103f4565b6104c0828233611073565b5050565b600654600160a01b900460ff1661051a5760405162461bcd60e51b81526020600482015260156024820152744e46543a206e6f74207472616e7366657261626c6560581b60448201526064015b60405180910390fd5b610525838383611080565b505050565b61057d82846040516020016105529291909182526001600160a01b0316602082015260400190565b60408051601f198184030181529190528051602090910120600c5483906001600160a01b0316611105565b6105bc5760405162461bcd60e51b815260206004820152601060248201526f696e76616c69642065766964656e636560801b6044820152606401610511565b336105c687610ecb565b6001600160a01b03161461060d5760405162461bcd60e51b815260206004820152600e60248201526d27232a1d103737ba1037bbb732b960911b6044820152606401610511565b83600381111561061f5761061f613204565b600087815260086020526040812060029081019190889081111561064557610645613204565b600281111561065657610656613204565b815260208101919091526040016000205460ff16600381111561067b5761067b613204565b106106bf5760405162461bcd60e51b81526020600482015260146024820152734e46543a206e6f74207570677261646561626c6560601b6044820152606401610511565b60008681526008602052604081205460ff16908160028111156106e4576106e4613204565b0361087a5760008660028111156106fd576106fd613204565b036107715760008781526008602052604081206002908101908290899081111561072957610729613204565b600281111561073a5761073a613204565b815260208101919091526040016000205460ff16905061076b85858b8b858c8c601f60296032600c6015600a6111ec565b50610bd4565b600186600281111561078557610785613204565b036107f3576000878152600860205260408120600290810190829089908111156107b1576107b1613204565b60028111156107c2576107c2613204565b815260208101919091526040016000205460ff16905061076b85858b8b858c8c6044605b606e601b603160166111ec565b600286600281111561080757610807613204565b036108755760008781526008602052604081206002908101908290899081111561083357610833613204565b600281111561084457610844613204565b815260208101919091526040016000205460ff16905061076b85858b8b858c8c6072609860b7602d605160246111ec565b610bd4565b600181600281111561088e5761088e613204565b03610a275760008660028111156108a7576108a7613204565b0361091d576000878152600860205260408120600290810190829089908111156108d3576108d3613204565b60028111156108e4576108e4613204565b815260200190815260200160002060009054906101000a900460ff16905061076b85858b8b858c8c6066608860a36028604860206111ec565b600186600281111561093157610931613204565b036109a15760008781526008602052604081206002908101908290899081111561095d5761095d613204565b600281111561096e5761096e613204565b815260208101919091526040016000205460ff16905061076b85858b8b858c8c60e161012c610168605a60a260486111ec565b60028660028111156109b5576109b5613204565b03610875576000878152600860205260408120600290810190829089908111156109e1576109e1613204565b60028111156109f2576109f2613204565b815260208101919091526040016000205460ff16905061076b85858b8b858c8c6101776101f4610258609661010e60786111ec565b6002816002811115610a3b57610a3b613204565b03610bd4576000866002811115610a5457610a54613204565b03610ac457600087815260086020526040812060029081019082908990811115610a8057610a80613204565b6002811115610a9157610a91613204565b815260208101919091526040016000205460ff16905061076b85858b8b858c8c60dd6101276101626058609e60466111ec565b6001866002811115610ad857610ad8613204565b03610b4a57600087815260086020526040812060029081019082908990811115610b0457610b04613204565b6002811115610b1557610b15613204565b815260208101919091526040016000205460ff16905061076b85858b8b858c8c6101e761028a61030c60c361015f609c6111ec565b6002866002811115610b5e57610b5e613204565b03610bd457600087815260086020526040812060029081019082908990811115610b8a57610b8a613204565b6002811115610b9b57610b9b613204565b815260208101919091526040016000205460ff169050610bd285858b8b858c8c61032c61043b6105146101456102496101046111ec565b505b6000866002811115610be857610be8613204565b03610cbf576001856003811115610c0157610c01613204565b03610c355760008781526008602052604081206004018054624f1a009290610c2a9084906134ce565b90915550610e689050565b6002856003811115610c4957610c49613204565b03610c7d57600087815260086020526040812060040180546276a7009290610c729084906134ce565b90915550610cba9050565b6003856003811115610c9157610c91613204565b03610cba5760008781526008602052604081206004018054629e34009290610c2a9084906134ce565b610e68565b6001866002811115610cd357610cd3613204565b03610d90576001856003811115610cec57610cec613204565b03610d155760008781526008602052604081206004018054629e34009290610c2a9084906134ce565b6002856003811115610d2957610d29613204565b03610d52576000878152600860205260408120600401805462ed4e009290610c729084906134ce565b6003856003811115610d6657610d66613204565b03610cba576000878152600860205260408120600401805463013c68009290610c2a9084906134ce565b6002866002811115610da457610da4613204565b03610e68576001856003811115610dbd57610dbd613204565b03610de6576000878152600860205260408120600401805462ed4e009290610c2a9084906134ce565b6002856003811115610dfa57610dfa613204565b03610e245760008781526008602052604081206004018054630163f5009290610c2a9084906134ce565b6003856003811115610e3857610e38613204565b03610e6857600087815260086020526040812060040180546301da9c009290610e629084906134ce565b90915550505b867f45d556c1b08304cc1ae1a44d5caa6e8dc835b9f6134ff8bed268dfd5cc71bda685888842604051610e9e94939291906134e1565b60405180910390a25050505050505050565b61052583838360405180602001604052806000815250610fb1565b60006103f48261103a565b60006001600160a01b038216610f02576040516322718ad960e21b815260006004820152602401610511565b506001600160a01b031660009081526003602052604090205490565b610f266123e2565b610f30600061240f565b565b6060600180546104099061347e565b6104c0338383612461565b60005b8551811015610fa957610f97868281518110610f6d57610f6d613522565b6020026020010151868381518110610f8757610f87613522565b6020026020010151868686612500565b80610fa181613538565b915050610f4f565b505050505050565b610fbc8484846104c4565b610fc884848484612acc565b50505050565b6001600160a01b03918216600090815260056020908152604080832093909416825291909152205460ff1690565b6110046123e2565b6001600160a01b03811661102e57604051631e4fbdf760e01b815260006004820152602401610511565b6110378161240f565b50565b6000818152600260205260408120546001600160a01b0316806103f457604051637e27328960e01b815260048101849052602401610511565b6105258383836001612bf5565b6001600160a01b0382166110aa57604051633250574960e11b815260006004820152602401610511565b60006110b7838333612cfb565b9050836001600160a01b0316816001600160a01b031614610fc8576040516364283d7b60e01b81526001600160a01b0380861660048301526024820184905282166044820152606401610511565b60006001600160a01b03821615801590611120575082516041145b61112957600080fd5b60008060008560408151811061114157611141613522565b01602001516111549060f81c601b613551565b90506020860151925060408601519150846001600160a01b0316600188838686604051600081526020016040526040516111aa949392919093845260ff9290921660208401526040830152606082015260800190565b6020604051602081039080840390855afa1580156111cc573d6000803e3d6000fd5b505050602060405103516001600160a01b03161493505050509392505050565b600089600381111561120057611200613204565b03611ad357600187600381111561121957611219613204565b036114f5578a1561135057600954600b546001600160a01b039182169163a9059cbb911661124889605f61356a565b61125a9067016345785d8a000061356a565b6040518363ffffffff1660e01b8152600401611277929190613581565b6020604051808303816000875af1158015611296573d6000803e3d6000fd5b505050506040513d601f19601f820116820180604052508101906112ba919061359a565b506009546001600160a01b031663a9059cbb8e6112d889600561356a565b6112ea9067016345785d8a000061356a565b6040518363ffffffff1660e01b8152600401611307929190613581565b6020604051808303816000875af1158015611326573d6000803e3d6000fd5b505050506040513d601f19601f8201168201806040525081019061134a919061359a565b5061148c565b600a54600b546001600160a01b039182169163a9059cbb91166113738f8a6135b7565b61137e90605f61356a565b6113909067016345785d8a000061356a565b6040518363ffffffff1660e01b81526004016113ad929190613581565b6020604051808303816000875af11580156113cc573d6000803e3d6000fd5b505050506040513d601f19601f820116820180604052508101906113f0919061359a565b50600a546001600160a01b031663a9059cbb8e61140d8f8a6135b7565b61141890600561356a565b61142a9067016345785d8a000061356a565b6040518363ffffffff1660e01b8152600401611447929190613581565b6020604051808303816000875af1158015611466573d6000803e3d6000fd5b505050506040513d601f19601f8201168201806040525081019061148a919061359a565b505b60008a81526008602052604081206001916002918201918b908111156114b4576114b4613204565b60028111156114c5576114c5613204565b81526020810191909152604001600020805460ff191660018360038111156114ef576114ef613204565b02179055505b600287600381111561150957611509613204565b036117e3578a1561164057600954600b546001600160a01b039182169163a9059cbb911661153888605f61356a565b61154a9067016345785d8a000061356a565b6040518363ffffffff1660e01b8152600401611567929190613581565b6020604051808303816000875af1158015611586573d6000803e3d6000fd5b505050506040513d601f19601f820116820180604052508101906115aa919061359a565b506009546001600160a01b031663a9059cbb8e6115c888600561356a565b6115da9067016345785d8a000061356a565b6040518363ffffffff1660e01b81526004016115f7929190613581565b6020604051808303816000875af1158015611616573d6000803e3d6000fd5b505050506040513d601f19601f8201168201806040525081019061163a919061359a565b5061177c565b600a54600b546001600160a01b039182169163a9059cbb91166116638f896135b7565b61166e90605f61356a565b6116809067016345785d8a000061356a565b6040518363ffffffff1660e01b815260040161169d929190613581565b6020604051808303816000875af11580156116bc573d6000803e3d6000fd5b505050506040513d601f19601f820116820180604052508101906116e0919061359a565b50600a546001600160a01b031663a9059cbb8e6116fd8f896135b7565b61170890600561356a565b61171a9067016345785d8a000061356a565b6040518363ffffffff1660e01b8152600401611737929190613581565b6020604051808303816000875af1158015611756573d6000803e3d6000fd5b505050506040513d601f19601f8201168201806040525081019061177a919061359a565b505b60008a8152600860205260408120600291908201908a838111156117a2576117a2613204565b60028111156117b3576117b3613204565b81526020810191909152604001600020805460ff191660018360038111156117dd576117dd613204565b02179055505b60038760038111156117f7576117f7613204565b03611ad3578a1561192e57600954600b546001600160a01b039182169163a9059cbb911661182687605f61356a565b6118389067016345785d8a000061356a565b6040518363ffffffff1660e01b8152600401611855929190613581565b6020604051808303816000875af1158015611874573d6000803e3d6000fd5b505050506040513d601f19601f82011682018060405250810190611898919061359a565b506009546001600160a01b031663a9059cbb8e6118b687600561356a565b6118c89067016345785d8a000061356a565b6040518363ffffffff1660e01b81526004016118e5929190613581565b6020604051808303816000875af1158015611904573d6000803e3d6000fd5b505050506040513d601f19601f82011682018060405250810190611928919061359a565b50611a6a565b600a54600b546001600160a01b039182169163a9059cbb91166119518f886135b7565b61195c90605f61356a565b61196e9067016345785d8a000061356a565b6040518363ffffffff1660e01b815260040161198b929190613581565b6020604051808303816000875af11580156119aa573d6000803e3d6000fd5b505050506040513d601f19601f820116820180604052508101906119ce919061359a565b50600a546001600160a01b031663a9059cbb8e6119eb8f886135b7565b6119f690600561356a565b611a089067016345785d8a000061356a565b6040518363ffffffff1660e01b8152600401611a25929190613581565b6020604051808303816000875af1158015611a44573d6000803e3d6000fd5b505050506040513d601f19601f82011682018060405250810190611a68919061359a565b505b60008a81526008602052604081206003916002918201918b90811115611a9257611a92613204565b6002811115611aa357611aa3613204565b81526020810191909152604001600020805460ff19166001836003811115611acd57611acd613204565b02179055505b6001896003811115611ae757611ae7613204565b036120ca576002876003811115611b0057611b00613204565b03611dda578a15611c3757600954600b546001600160a01b039182169163a9059cbb9116611b2f86605f61356a565b611b419067016345785d8a000061356a565b6040518363ffffffff1660e01b8152600401611b5e929190613581565b6020604051808303816000875af1158015611b7d573d6000803e3d6000fd5b505050506040513d601f19601f82011682018060405250810190611ba1919061359a565b506009546001600160a01b031663a9059cbb8e611bbf86600561356a565b611bd19067016345785d8a000061356a565b6040518363ffffffff1660e01b8152600401611bee929190613581565b6020604051808303816000875af1158015611c0d573d6000803e3d6000fd5b505050506040513d601f19601f82011682018060405250810190611c31919061359a565b50611d73565b600a54600b546001600160a01b039182169163a9059cbb9116611c5a8f876135b7565b611c6590605f61356a565b611c779067016345785d8a000061356a565b6040518363ffffffff1660e01b8152600401611c94929190613581565b6020604051808303816000875af1158015611cb3573d6000803e3d6000fd5b505050506040513d601f19601f82011682018060405250810190611cd7919061359a565b50600a546001600160a01b031663a9059cbb8e611cf48f876135b7565b611cff90600561356a565b611d119067016345785d8a000061356a565b6040518363ffffffff1660e01b8152600401611d2e929190613581565b6020604051808303816000875af1158015611d4d573d6000803e3d6000fd5b505050506040513d601f19601f82011682018060405250810190611d71919061359a565b505b60008a8152600860205260408120600291908201908a83811115611d9957611d99613204565b6002811115611daa57611daa613204565b81526020810191909152604001600020805460ff19166001836003811115611dd457611dd4613204565b02179055505b6003876003811115611dee57611dee613204565b036120ca578a15611f2557600954600b546001600160a01b039182169163a9059cbb9116611e1d85605f61356a565b611e2f9067016345785d8a000061356a565b6040518363ffffffff1660e01b8152600401611e4c929190613581565b6020604051808303816000875af1158015611e6b573d6000803e3d6000fd5b505050506040513d601f19601f82011682018060405250810190611e8f919061359a565b506009546001600160a01b031663a9059cbb8e611ead85600561356a565b611ebf9067016345785d8a000061356a565b6040518363ffffffff1660e01b8152600401611edc929190613581565b6020604051808303816000875af1158015611efb573d6000803e3d6000fd5b505050506040513d601f19601f82011682018060405250810190611f1f919061359a565b50612061565b600a54600b546001600160a01b039182169163a9059cbb9116611f488f866135b7565b611f5390605f61356a565b611f659067016345785d8a000061356a565b6040518363ffffffff1660e01b8152600401611f82929190613581565b6020604051808303816000875af1158015611fa1573d6000803e3d6000fd5b505050506040513d601f19601f82011682018060405250810190611fc5919061359a565b50600a546001600160a01b031663a9059cbb8e611fe28f866135b7565b611fed90600561356a565b611fff9067016345785d8a000061356a565b6040518363ffffffff1660e01b815260040161201c929190613581565b6020604051808303816000875af115801561203b573d6000803e3d6000fd5b505050506040513d601f19601f8201168201806040525081019061205f919061359a565b505b60008a81526008602052604081206003916002918201918b9081111561208957612089613204565b600281111561209a5761209a613204565b81526020810191909152604001600020805460ff191660018360038111156120c4576120c4613204565b02179055505b60028960038111156120de576120de613204565b036123d35760038760038111156120f7576120f7613204565b036123d3578a1561222e57600954600b546001600160a01b039182169163a9059cbb911661212684605f61356a565b6121389067016345785d8a000061356a565b6040518363ffffffff1660e01b8152600401612155929190613581565b6020604051808303816000875af1158015612174573d6000803e3d6000fd5b505050506040513d601f19601f82011682018060405250810190612198919061359a565b506009546001600160a01b031663a9059cbb8e6121b684600561356a565b6121c89067016345785d8a000061356a565b6040518363ffffffff1660e01b81526004016121e5929190613581565b6020604051808303816000875af1158015612204573d6000803e3d6000fd5b505050506040513d601f19601f82011682018060405250810190612228919061359a565b5061236a565b600a54600b546001600160a01b039182169163a9059cbb91166122518f856135b7565b61225c90605f61356a565b61226e9067016345785d8a000061356a565b6040518363ffffffff1660e01b815260040161228b929190613581565b6020604051808303816000875af11580156122aa573d6000803e3d6000fd5b505050506040513d601f19601f820116820180604052508101906122ce919061359a565b50600a546001600160a01b031663a9059cbb8e6122eb8f856135b7565b6122f690600561356a565b6123089067016345785d8a000061356a565b6040518363ffffffff1660e01b8152600401612325929190613581565b6020604051808303816000875af1158015612344573d6000803e3d6000fd5b505050506040513d601f19601f82011682018060405250810190612368919061359a565b505b60008a81526008602052604081206003916002918201918b9081111561239257612392613204565b60028111156123a3576123a3613204565b81526020810191909152604001600020805460ff191660018360038111156123cd576123cd613204565b02179055505b50505050505050505050505050565b6006546001600160a01b03163314610f305760405163118cdaa760e01b8152336004820152602401610511565b600680546001600160a01b038381166001600160a01b0319831681179093556040519116919082907f8be0079c531659141344cd1fd0a4f28419497f9722a3daafe3b4186f6b6457e090600090a35050565b6001600160a01b03821661249357604051630b61174360e31b81526001600160a01b0383166004820152602401610511565b6001600160a01b03838116600081815260056020908152604080832094871680845294825291829020805460ff191686151590811790915591519182527f17307eab39ab6107e8899845ad3d59bd9653f200f220920489ca2b5937696c31910160405180910390a3505050565b60006125438484604051602001612518929190613581565b60408051601f198184030181529190528051602090910120600c5484906001600160a01b0316611105565b6125825760405162461bcd60e51b815260206004820152601060248201526f696e76616c69642065766964656e636560801b6044820152606401610511565b600086600281111561259657612596613204565b036126fc57600954600b546001600160a01b039182169163a9059cbb9116612710866125cc8a69010f0cf064dd5920000061356a565b6125d790605f61356a565b6125e1919061356a565b6125eb91906135b7565b6040518363ffffffff1660e01b8152600401612608929190613581565b6020604051808303816000875af1158015612627573d6000803e3d6000fd5b505050506040513d601f19601f8201168201806040525081019061264b919061359a565b506009546001600160a01b031663a9059cbb85612710866126768a69010f0cf064dd5920000061356a565b61268190600561356a565b61268b919061356a565b61269591906135b7565b6040518363ffffffff1660e01b81526004016126b2929190613581565b6020604051808303816000875af11580156126d1573d6000803e3d6000fd5b505050506040513d601f19601f820116820180604052508101906126f5919061359a565b506104b090505b600186600281111561271057612710613204565b0361287657600954600b546001600160a01b039182169163a9059cbb9116612710866127468a6901b1ae4d6e2ef500000061356a565b61275190605f61356a565b61275b919061356a565b61276591906135b7565b6040518363ffffffff1660e01b8152600401612782929190613581565b6020604051808303816000875af11580156127a1573d6000803e3d6000fd5b505050506040513d601f19601f820116820180604052508101906127c5919061359a565b506009546001600160a01b031663a9059cbb85612710866127f08a6901b1ae4d6e2ef500000061356a565b6127fb90600561356a565b612805919061356a565b61280f91906135b7565b6040518363ffffffff1660e01b815260040161282c929190613581565b6020604051808303816000875af115801561284b573d6000803e3d6000fd5b505050506040513d601f19601f8201168201806040525081019061286f919061359a565b506107d090505b600286600281111561288a5761288a613204565b036129f057600954600b546001600160a01b039182169163a9059cbb9116612710866128c08a69028a857425466f80000061356a565b6128cb90605f61356a565b6128d5919061356a565b6128df91906135b7565b6040518363ffffffff1660e01b81526004016128fc929190613581565b6020604051808303816000875af115801561291b573d6000803e3d6000fd5b505050506040513d601f19601f8201168201806040525081019061293f919061359a565b506009546001600160a01b031663a9059cbb856127108661296a8a69028a857425466f80000061356a565b61297590600561356a565b61297f919061356a565b61298991906135b7565b6040518363ffffffff1660e01b81526004016129a6929190613581565b6020604051808303816000875af11580156129c5573d6000803e3d6000fd5b505050506040513d601f19601f820116820180604052508101906129e9919061359a565b50610c8090505b60005b85811015612ac357600780549081906000612a0d83613538565b9190505550612a1c3382612df4565b6000818152600860205260409020805489919060ff19166001836002811115612a4757612a47613204565b02179055506000818152600860205260409081902042600382015563076a700060048201556005018490555181907f2e6d97f41fb5e22a6bdffd32e22b194939ba2aa3ef13f7cfd9d8bc1b3bdae1a490612aa89033908b908b908e906135d9565b60405180910390a25080612abb81613538565b9150506129f3565b50505050505050565b6001600160a01b0383163b15610fc857604051630a85bd0160e11b81526001600160a01b0384169063150b7a0290612b0e903390889087908790600401613610565b6020604051808303816000875af1925050508015612b49575060408051601f3d908101601f19168201909252612b469181019061364d565b60015b612bb2573d808015612b77576040519150601f19603f3d011682016040523d82523d6000602084013e612b7c565b606091505b508051600003612baa57604051633250574960e11b81526001600160a01b0385166004820152602401610511565b805181602001fd5b6001600160e01b03198116630a85bd0160e11b14612bee57604051633250574960e11b81526001600160a01b0385166004820152602401610511565b5050505050565b8080612c0957506001600160a01b03821615155b15612ccb576000612c198461103a565b90506001600160a01b03831615801590612c455750826001600160a01b0316816001600160a01b031614155b8015612c585750612c568184610fce565b155b15612c815760405163a9fbf51f60e01b81526001600160a01b0384166004820152602401610511565b8115612cc95783856001600160a01b0316826001600160a01b03167f8c5be1e5ebec7d5bd14f71427d1e84f3dd0314c0f7b2291e5b200ac8c7c3b92560405160405180910390a45b505b5050600090815260046020526040902080546001600160a01b0319166001600160a01b0392909216919091179055565b6000828152600260205260408120546001600160a01b0390811690831615612d2857612d28818486612e59565b6001600160a01b03811615612d6657612d45600085600080612bf5565b6001600160a01b038116600090815260036020526040902080546000190190555b6001600160a01b03851615612d95576001600160a01b0385166000908152600360205260409020805460010190555b60008481526002602052604080822080546001600160a01b0319166001600160a01b0389811691821790925591518793918516917fddf252ad1be2c89b69c2b068fc378daa952ba7f163c4a11628f55a4df523b3ef91a4949350505050565b6001600160a01b038216612e1e57604051633250574960e11b815260006004820152602401610511565b6000612e2c83836000612cfb565b90506001600160a01b03811615610525576040516339e3563760e11b815260006004820152602401610511565b612e64838383612eaf565b610525576001600160a01b038316612e9257604051637e27328960e01b815260048101829052602401610511565b818160405163177e802f60e01b8152600401610511929190613581565b60006001600160a01b03831615801590612f0d5750826001600160a01b0316846001600160a01b03161480612ee95750612ee98484610fce565b80612f0d57506000828152600460205260409020546001600160a01b038481169116145b949350505050565b6001600160e01b03198116811461103757600080fd5b600060208284031215612f3d57600080fd5b8135612f4881612f15565b9392505050565b6000815180845260005b81811015612f7557602081850181015186830182015201612f59565b506000602082860101526020601f19601f83011685010191505092915050565b602081526000612f486020830184612f4f565b600060208284031215612fba57600080fd5b5035919050565b80356001600160a01b0381168114612fd857600080fd5b919050565b60008060408385031215612ff057600080fd5b612ff983612fc1565b946020939093013593505050565b60008060006060848603121561301c57600080fd5b61302584612fc1565b925061303360208501612fc1565b9150604084013590509250925092565b801515811461103757600080fd5b6003811061103757600080fd5b634e487b7160e01b600052604160045260246000fd5b604051601f8201601f1916810167ffffffffffffffff8111828210171561309d5761309d61305e565b604052919050565b600082601f8301126130b657600080fd5b813567ffffffffffffffff8111156130d0576130d061305e565b6130e3601f8201601f1916602001613074565b8181528460208386010111156130f857600080fd5b816020850160208301376000918101602001919091529392505050565b600080600080600080600060e0888a03121561313057600080fd5b873561313b81613043565b965060208801359550604088013561315281613051565b945060608801356004811061316657600080fd5b935061317460808901612fc1565b925060a0880135915060c088013567ffffffffffffffff81111561319757600080fd5b6131a38a828b016130a5565b91505092959891949750929550565b6000602082840312156131c457600080fd5b612f4882612fc1565b600080604083850312156131e057600080fd5b6131e983612fc1565b915060208301356131f981613043565b809150509250929050565b634e487b7160e01b600052602160045260246000fd5b6003811061103757611037613204565b608081016132378661321a565b9481526020810193909352604083019190915260609091015290565b600067ffffffffffffffff82111561326d5761326d61305e565b5060051b60200190565b600082601f83011261328857600080fd5b8135602061329d61329883613253565b613074565b82815260059290921b840181019181810190868411156132bc57600080fd5b8286015b848110156132d757803583529183019183016132c0565b509695505050505050565b600080600080600060a086880312156132fa57600080fd5b853567ffffffffffffffff8082111561331257600080fd5b818801915088601f83011261332657600080fd5b8135602061333661329883613253565b82815260059290921b8401810191818101908c84111561335557600080fd5b948201945b8386101561337c57853561336d81613051565b8252948201949082019061335a565b9950508901359250508082111561339257600080fd5b61339e89838a01613277565b95506133ac60408901612fc1565b94506060880135935060808801359150808211156133c957600080fd5b506133d6888289016130a5565b9150509295509295909350565b600080600080608085870312156133f957600080fd5b61340285612fc1565b935061341060208601612fc1565b925060408501359150606085013567ffffffffffffffff81111561343357600080fd5b61343f878288016130a5565b91505092959194509250565b6000806040838503121561345e57600080fd5b61346783612fc1565b915061347560208401612fc1565b90509250929050565b600181811c9082168061349257607f821691505b6020821081036134b257634e487b7160e01b600052602260045260246000fd5b50919050565b634e487b7160e01b600052601160045260246000fd5b818103818111156103f4576103f46134b8565b6001600160a01b0385168152608081016134fa8561321a565b8460208301526004841061351057613510613204565b60408201939093526060015292915050565b634e487b7160e01b600052603260045260246000fd5b60006001820161354a5761354a6134b8565b5060010190565b60ff81811683821601908111156103f4576103f46134b8565b80820281158282048414176103f4576103f46134b8565b6001600160a01b03929092168252602082015260400190565b6000602082840312156135ac57600080fd5b8151612f4881613043565b6000826135d457634e487b7160e01b600052601260045260246000fd5b500490565b6001600160a01b0385811682526020820185905283166040820152608081016136018361321a565b82606083015295945050505050565b6001600160a01b038581168252841660208201526040810183905260806060820181905260009061364390830184612f4f565b9695505050505050565b60006020828403121561365f57600080fd5b8151612f4881612f1556fea2646970667358221220716158f236084b0698d15dd997cc456159ee101299ec84cf760e868df11bdec964736f6c63430008150033",
    "linkReferences": {}
  },
  "methodIdentifiers": {
    "USDT()": "c54e44eb",
    "Zeb()": "15f2e205",
    "approve(address,uint256)": "095ea7b3",
    "balanceOf(address)": "70a08231",
    "getApproved(uint256)": "081812fc",
    "isApprovedForAll(address,address)": "e985e9c5",
    "name()": "06fdde03",
    "nextTokenID()": "f101e481",
    "nodeInfo(uint256)": "b02439ae",
    "owner()": "8da5cb5b",
    "ownerOf(uint256)": "6352211e",
    "publicMint(uint8[],uint256[],address,uint256,bytes)": "b588a890",
    "receiver()": "f7260d3e",
    "renounceOwnership()": "715018a6",
    "safeTransferFrom(address,address,uint256)": "42842e0e",
    "safeTransferFrom(address,address,uint256,bytes)": "b88d4fde",
    "setApprovalForAll(address,bool)": "a22cb465",
    "signer()": "238ac933",
    "supportsInterface(bytes4)": "01ffc9a7",
    "symbol()": "95d89b41",
    "tokenURI(uint256)": "c87b56dd",
    "transferFrom(address,address,uint256)": "23b872dd",
    "transferOwnership(address)": "f2fde38b",
    "transferable()": "92ff0d31",
    "upgrade(bool,uint256,uint8,uint8,address,uint256,bytes)": "29fb08f5"
  },
  "id": 35
}