{
  "abi": [
    {
      "inputs": [
        {
          "internalType": "string",
          "name": "name",
          "type": "string"
        },
        {
          "internalType": "string",
          "name": "symbol",
          "type": "string"
        },
        {
          "internalType": "address",
          "name": "_usdt",
          "type": "address"
        },
        {
          "internalType": "address",
          "name": "_zeb",
          "type": "address"
        },
        {
          "internalType": "address",
          "name": "_fund",
          "type": "address"
        },
        {
          "internalType": "address",
          "name": "_signer",
          "type": "address"
        }
      ],
      "stateMutability": "nonpayable",
      "type": "constructor"
    },
    {
      "inputs": [],
      "name": "ERC721EnumerableForbiddenBatchMint",
      "type": "error"
    },
    {
      "inputs": [
        {
          "internalType": "address",
          "name": "sender",
          "type": "address"
        },
        {
          "internalType": "uint256",
          "name": "tokenId",
          "type": "uint256"
        },
        {
          "internalType": "address",
          "name": "owner",
          "type": "address"
        }
      ],
      "name": "ERC721IncorrectOwner",
      "type": "error"
    },
    {
      "inputs": [
        {
          "internalType": "address",
          "name": "operator",
          "type": "address"
        },
        {
          "internalType": "uint256",
          "name": "tokenId",
          "type": "uint256"
        }
      ],
      "name": "ERC721InsufficientApproval",
      "type": "error"
    },
    {
      "inputs": [
        {
          "internalType": "address",
          "name": "approver",
          "type": "address"
        }
      ],
      "name": "ERC721InvalidApprover",
      "type": "error"
    },
    {
      "inputs": [
        {
          "internalType": "address",
          "name": "operator",
          "type": "address"
        }
      ],
      "name": "ERC721InvalidOperator",
      "type": "error"
    },
    {
      "inputs": [
        {
          "internalType": "address",
          "name": "owner",
          "type": "address"
        }
      ],
      "name": "ERC721InvalidOwner",
      "type": "error"
    },
    {
      "inputs": [
        {
          "internalType": "address",
          "name": "receiver",
          "type": "address"
        }
      ],
      "name": "ERC721InvalidReceiver",
      "type": "error"
    },
    {
      "inputs": [
        {
          "internalType": "address",
          "name": "sender",
          "type": "address"
        }
      ],
      "name": "ERC721InvalidSender",
      "type": "error"
    },
    {
      "inputs": [
        {
          "internalType": "uint256",
          "name": "tokenId",
          "type": "uint256"
        }
      ],
      "name": "ERC721NonexistentToken",
      "type": "error"
    },
    {
      "inputs": [
        {
          "internalType": "address",
          "name": "owner",
          "type": "address"
        },
        {
          "internalType": "uint256",
          "name": "index",
          "type": "uint256"
        }
      ],
      "name": "ERC721OutOfBoundsIndex",
      "type": "error"
    },
    {
      "inputs": [
        {
          "internalType": "address",
          "name": "owner",
          "type": "address"
        }
      ],
      "name": "OwnableInvalidOwner",
      "type": "error"
    },
    {
      "inputs": [
        {
          "internalType": "address",
          "name": "account",
          "type": "address"
        }
      ],
      "name": "OwnableUnauthorizedAccount",
      "type": "error"
    },
    {
      "anonymous": false,
      "inputs": [
        {
          "indexed": true,
          "internalType": "address",
          "name": "owner",
          "type": "address"
        },
        {
          "indexed": true,
          "internalType": "address",
          "name": "approved",
          "type": "address"
        },
        {
          "indexed": true,
          "internalType": "uint256",
          "name": "tokenId",
          "type": "uint256"
        }
      ],
      "name": "Approval",
      "type": "event"
    },
    {
      "anonymous": false,
      "inputs": [
        {
          "indexed": true,
          "internalType": "address",
          "name": "owner",
          "type": "address"
        },
        {
          "indexed": true,
          "internalType": "address",
          "name": "operator",
          "type": "address"
        },
        {
          "indexed": false,
          "internalType": "bool",
          "name": "approved",
          "type": "bool"
        }
      ],
      "name": "ApprovalForAll",
      "type": "event"
    },
    {
      "anonymous": false,
      "inputs": [
        {
          "indexed": true,
          "internalType": "address",
          "name": "previousOwner",
          "type": "address"
        },
        {
          "indexed": true,
          "internalType": "address",
          "name": "newOwner",
          "type": "address"
        }
      ],
      "name": "OwnershipTransferred",
      "type": "event"
    },
    {
      "anonymous": false,
      "inputs": [
        {
          "indexed": true,
          "internalType": "address",
          "name": "from",
          "type": "address"
        },
        {
          "indexed": true,
          "internalType": "address",
          "name": "to",
          "type": "address"
        },
        {
          "indexed": true,
          "internalType": "uint256",
          "name": "tokenId",
          "type": "uint256"
        }
      ],
      "name": "Transfer",
      "type": "event"
    },
    {
      "anonymous": false,
      "inputs": [
        {
          "indexed": true,
          "internalType": "uint256",
          "name": "tokenId",
          "type": "uint256"
        },
        {
          "indexed": false,
          "internalType": "address",
          "name": "user",
          "type": "address"
        },
        {
          "indexed": false,
          "internalType": "uint256",
          "name": "amount",
          "type": "uint256"
        },
        {
          "indexed": false,
          "internalType": "address",
          "name": "inviter",
          "type": "address"
        },
        {
          "indexed": false,
          "internalType": "enum Node.MachineType",
          "name": "_MachineType",
          "type": "uint8"
        }
      ],
      "name": "mintEvent",
      "type": "event"
    },
    {
      "anonymous": false,
      "inputs": [
        {
          "indexed": true,
          "internalType": "uint256",
          "name": "tokenId",
          "type": "uint256"
        },
        {
          "indexed": false,
          "internalType": "address",
          "name": "inviter",
          "type": "address"
        },
        {
          "indexed": false,
          "internalType": "enum Node.EquipmentType",
          "name": "equipmentType",
          "type": "uint8"
        },
        {
          "indexed": false,
          "internalType": "enum Node.EquipmentLevel",
          "name": "equipmentLevel",
          "type": "uint8"
        },
        {
          "indexed": false,
          "internalType": "uint256",
          "name": "time",
          "type": "uint256"
        }
      ],
      "name": "upgradeEvent",
      "type": "event"
    },
    {
      "inputs": [],
      "name": "USDT",
      "outputs": [
        {
          "internalType": "contract IERC20",
          "name": "",
          "type": "address"
        }
      ],
      "stateMutability": "view",
      "type": "function"
    },
    {
      "inputs": [],
      "name": "Zeb",
      "outputs": [
        {
          "internalType": "contract IERC20",
          "name": "",
          "type": "address"
        }
      ],
      "stateMutability": "view",
      "type": "function"
    },
    {
      "inputs": [
        {
          "internalType": "address",
          "name": "to",
          "type": "address"
        },
        {
          "internalType": "uint256",
          "name": "tokenId",
          "type": "uint256"
        }
      ],
      "name": "approve",
      "outputs": [],
      "stateMutability": "nonpayable",
      "type": "function"
    },
    {
      "inputs": [
        {
          "internalType": "address",
          "name": "owner",
          "type": "address"
        }
      ],
      "name": "balanceOf",
      "outputs": [
        {
          "internalType": "uint256",
          "name": "",
          "type": "uint256"
        }
      ],
      "stateMutability": "view",
      "type": "function"
    },
    {
      "inputs": [],
      "name": "fund",
      "outputs": [
        {
          "internalType": "address",
          "name": "",
          "type": "address"
        }
      ],
      "stateMutability": "view",
      "type": "function"
    },
    {
      "inputs": [
        {
          "internalType": "uint256",
          "name": "tokenId",
          "type": "uint256"
        }
      ],
      "name": "getApproved",
      "outputs": [
        {
          "internalType": "address",
          "name": "",
          "type": "address"
        }
      ],
      "stateMutability": "view",
      "type": "function"
    },
    {
      "inputs": [
        {
          "internalType": "address",
          "name": "owner",
          "type": "address"
        },
        {
          "internalType": "address",
          "name": "operator",
          "type": "address"
        }
      ],
      "name": "isApprovedForAll",
      "outputs": [
        {
          "internalType": "bool",
          "name": "",
          "type": "bool"
        }
      ],
      "stateMutability": "view",
      "type": "function"
    },
    {
      "inputs": [],
      "name": "name",
      "outputs": [
        {
          "internalType": "string",
          "name": "",
          "type": "string"
        }
      ],
      "stateMutability": "view",
      "type": "function"
    },
    {
      "inputs": [],
      "name": "nextTokenID",
      "outputs": [
        {
          "internalType": "uint256",
          "name": "",
          "type": "uint256"
        }
      ],
      "stateMutability": "view",
      "type": "function"
    },
    {
      "inputs": [
        {
          "internalType": "uint256",
          "name": "",
          "type": "uint256"
        }
      ],
      "name": "nodeInfo",
      "outputs": [
        {
          "internalType": "enum Node.MachineType",
          "name": "MachineType",
          "type": "uint8"
        },
        {
          "internalType": "uint256",
          "name": "mintTime",
          "type": "uint256"
        },
        {
          "internalType": "uint256",
          "name": "unlockPeriod",
          "type": "uint256"
        },
        {
          "internalType": "uint256",
          "name": "totalToken",
          "type": "uint256"
        }
      ],
      "stateMutability": "view",
      "type": "function"
    },
    {
      "inputs": [],
      "name": "owner",
      "outputs": [
        {
          "internalType": "address",
          "name": "",
          "type": "address"
        }
      ],
      "stateMutability": "view",
      "type": "function"
    },
    {
      "inputs": [
        {
          "internalType": "uint256",
          "name": "tokenId",
          "type": "uint256"
        }
      ],
      "name": "ownerOf",
      "outputs": [
        {
          "internalType": "address",
          "name": "",
          "type": "address"
        }
      ],
      "stateMutability": "view",
      "type": "function"
    },
    {
      "inputs": [
        {
          "internalType": "enum Node.MachineType[]",
          "name": "_machineType",
          "type": "uint8[]"
        },
        {
          "internalType": "uint256[]",
          "name": "amount",
          "type": "uint256[]"
        },
        {
          "internalType": "address",
          "name": "inviter",
          "type": "address"
        },
        {
          "internalType": "uint256",
          "name": "discount",
          "type": "uint256"
        },
        {
          "internalType": "bytes",
          "name": "evidence",
          "type": "bytes"
        }
      ],
      "name": "publicMint",
      "outputs": [],
      "stateMutability": "nonpayable",
      "type": "function"
    },
    {
      "inputs": [],
      "name": "renounceOwnership",
      "outputs": [],
      "stateMutability": "nonpayable",
      "type": "function"
    },
    {
      "inputs": [
        {
          "internalType": "address",
          "name": "from",
          "type": "address"
        },
        {
          "internalType": "address",
          "name": "to",
          "type": "address"
        },
        {
          "internalType": "uint256",
          "name": "tokenId",
          "type": "uint256"
        }
      ],
      "name": "safeTransferFrom",
      "outputs": [],
      "stateMutability": "nonpayable",
      "type": "function"
    },
    {
      "inputs": [
        {
          "internalType": "address",
          "name": "from",
          "type": "address"
        },
        {
          "internalType": "address",
          "name": "to",
          "type": "address"
        },
        {
          "internalType": "uint256",
          "name": "tokenId",
          "type": "uint256"
        },
        {
          "internalType": "bytes",
          "name": "data",
          "type": "bytes"
        }
      ],
      "name": "safeTransferFrom",
      "outputs": [],
      "stateMutability": "nonpayable",
      "type": "function"
    },
    {
      "inputs": [
        {
          "internalType": "address",
          "name": "operator",
          "type": "address"
        },
        {
          "internalType": "bool",
          "name": "approved",
          "type": "bool"
        }
      ],
      "name": "setApprovalForAll",
      "outputs": [],
      "stateMutability": "nonpayable",
      "type": "function"
    },
    {
      "inputs": [],
      "name": "signer",
      "outputs": [
        {
          "internalType": "address",
          "name": "",
          "type": "address"
        }
      ],
      "stateMutability": "view",
      "type": "function"
    },
    {
      "inputs": [
        {
          "internalType": "bytes4",
          "name": "interfaceId",
          "type": "bytes4"
        }
      ],
      "name": "supportsInterface",
      "outputs": [
        {
          "internalType": "bool",
          "name": "",
          "type": "bool"
        }
      ],
      "stateMutability": "view",
      "type": "function"
    },
    {
      "inputs": [],
      "name": "symbol",
      "outputs": [
        {
          "internalType": "string",
          "name": "",
          "type": "string"
        }
      ],
      "stateMutability": "view",
      "type": "function"
    },
    {
      "inputs": [
        {
          "internalType": "uint256",
          "name": "index",
          "type": "uint256"
        }
      ],
      "name": "tokenByIndex",
      "outputs": [
        {
          "internalType": "uint256",
          "name": "",
          "type": "uint256"
        }
      ],
      "stateMutability": "view",
      "type": "function"
    },
    {
      "inputs": [
        {
          "internalType": "address",
          "name": "owner",
          "type": "address"
        },
        {
          "internalType": "uint256",
          "name": "index",
          "type": "uint256"
        }
      ],
      "name": "tokenOfOwnerByIndex",
      "outputs": [
        {
          "internalType": "uint256",
          "name": "",
          "type": "uint256"
        }
      ],
      "stateMutability": "view",
      "type": "function"
    },
    {
      "inputs": [
        {
          "internalType": "uint256",
          "name": "tokenID",
          "type": "uint256"
        }
      ],
      "name": "tokenURI",
      "outputs": [
        {
          "internalType": "string",
          "name": "",
          "type": "string"
        }
      ],
      "stateMutability": "view",
      "type": "function"
    },
    {
      "inputs": [],
      "name": "totalSupply",
      "outputs": [
        {
          "internalType": "uint256",
          "name": "",
          "type": "uint256"
        }
      ],
      "stateMutability": "view",
      "type": "function"
    },
    {
      "inputs": [
        {
          "internalType": "address",
          "name": "from",
          "type": "address"
        },
        {
          "internalType": "address",
          "name": "to",
          "type": "address"
        },
        {
          "internalType": "uint256",
          "name": "tokenId",
          "type": "uint256"
        }
      ],
      "name": "transferFrom",
      "outputs": [],
      "stateMutability": "nonpayable",
      "type": "function"
    },
    {
      "inputs": [
        {
          "internalType": "address",
          "name": "newOwner",
          "type": "address"
        }
      ],
      "name": "transferOwnership",
      "outputs": [],
      "stateMutability": "nonpayable",
      "type": "function"
    },
    {
      "inputs": [],
      "name": "transferable",
      "outputs": [
        {
          "internalType": "bool",
          "name": "",
          "type": "bool"
        }
      ],
      "stateMutability": "view",
      "type": "function"
    },
    {
      "inputs": [
        {
          "internalType": "bool",
          "name": "isUSDT",
          "type": "bool"
        },
        {
          "internalType": "uint256",
          "name": "tokenId",
          "type": "uint256"
        },
        {
          "internalType": "enum Node.EquipmentType",
          "name": "_equipmentType",
          "type": "uint8"
        },
        {
          "internalType": "enum Node.EquipmentLevel",
          "name": "_equipmentLevel",
          "type": "uint8"
        },
        {
          "internalType": "address",
          "name": "inviter",
          "type": "address"
        },
        {
          "internalType": "uint256",
          "name": "zebPrice",
          "type": "uint256"
        },
        {
          "internalType": "bytes",
          "name": "evidence",
          "type": "bytes"
        }
      ],
      "name": "upgrade",
      "outputs": [],
      "stateMutability": "nonpayable",
      "type": "function"
    }
  ],
  "bytecode": {
    "object": "0x60806040523480156200001157600080fd5b5060405162003e5238038062003e5283398101604081905262000034916200021d565b33868660006200004583826200035f565b5060016200005482826200035f565b5050506001600160a01b0381166200008657604051631e4fbdf760e01b81526000600482015260240160405180910390fd5b6200009181620000e9565b50600d80546001600160a01b039586166001600160a01b031991821617909155600e805494861694821694909417909355600f80549285169284169290921790915560108054919093169116179055506200042b9050565b600a80546001600160a01b038381166001600160a01b0319831681179093556040519116919082907f8be0079c531659141344cd1fd0a4f28419497f9722a3daafe3b4186f6b6457e090600090a35050565b634e487b7160e01b600052604160045260246000fd5b600082601f8301126200016357600080fd5b81516001600160401b03808211156200018057620001806200013b565b604051601f8301601f19908116603f01168101908282118183101715620001ab57620001ab6200013b565b81604052838152602092508683858801011115620001c857600080fd5b600091505b83821015620001ec5785820183015181830184015290820190620001cd565b600093810190920192909252949350505050565b80516001600160a01b03811681146200021857600080fd5b919050565b60008060008060008060c087890312156200023757600080fd5b86516001600160401b03808211156200024f57600080fd5b6200025d8a838b0162000151565b975060208901519150808211156200027457600080fd5b506200028389828a0162000151565b955050620002946040880162000200565b9350620002a46060880162000200565b9250620002b46080880162000200565b9150620002c460a0880162000200565b90509295509295509295565b600181811c90821680620002e557607f821691505b6020821081036200030657634e487b7160e01b600052602260045260246000fd5b50919050565b601f8211156200035a57600081815260208120601f850160051c81016020861015620003355750805b601f850160051c820191505b81811015620003565782815560010162000341565b5050505b505050565b81516001600160401b038111156200037b576200037b6200013b565b62000393816200038c8454620002d0565b846200030c565b602080601f831160018114620003cb5760008415620003b25750858301515b600019600386901b1c1916600185901b17855562000356565b600085815260208120601f198616915b82811015620003fc57888601518255948401946001909101908401620003db565b50858210156200041b5787850151600019600388901b60f8161c191681555b5050505050600190811b01905550565b613a17806200043b6000396000f3fe608060405234801561001057600080fd5b50600436106101c45760003560e01c8063715018a6116100f9578063b60d428811610097578063c87b56dd11610071578063c87b56dd146103e0578063e985e9c5146103f4578063f101e48114610407578063f2fde38b1461041057600080fd5b8063b60d4288146103a7578063b88d4fde146103ba578063c54e44eb146103cd57600080fd5b806395d89b41116100d357806395d89b4114610330578063a22cb46514610338578063b02439ae1461034b578063b588a8901461039457600080fd5b8063715018a6146103035780638da5cb5b1461030b57806392ff0d311461031c57600080fd5b806323b872dd1161016657806342842e0e1161014057806342842e0e146102b75780634f6ccce7146102ca5780636352211e146102dd57806370a08231146102f057600080fd5b806323b872dd1461027e57806329fb08f5146102915780632f745c59146102a457600080fd5b8063095ea7b3116101a2578063095ea7b31461023157806315f2e2051461024657806318160ddd14610259578063238ac9331461026b57600080fd5b806301ffc9a7146101c957806306fdde03146101f1578063081812fc14610206575b600080fd5b6101dc6101d736600461328c565b610423565b60405190151581526020015b60405180910390f35b6101f961044e565b6040516101e891906132f6565b610219610214366004613309565b6104e0565b6040516001600160a01b0390911681526020016101e8565b61024461023f36600461333e565b610509565b005b600e54610219906001600160a01b031681565b6008545b6040519081526020016101e8565b601054610219906001600160a01b031681565b61024461028c366004613368565b610518565b61024461029f366004613476565b6105a8565b61025d6102b236600461333e565b610f2e565b6102446102c5366004613368565b610f85565b61025d6102d8366004613309565b610fa5565b6102196102eb366004613309565b610ff9565b61025d6102fe366004613513565b611004565b61024461104c565b600a546001600160a01b0316610219565b600a546101dc90600160a01b900460ff1681565b6101f9611060565b61024461034636600461352e565b61106f565b610384610359366004613309565b600c60205260009081526040902080546003820154600483015460059093015460ff90921692909184565b6040516101e8949392919061358b565b6102446103a2366004613643565b61107a565b600f54610219906001600160a01b031681565b6102446103c8366004613744565b6110df565b600d54610219906001600160a01b031681565b6101f96103ee366004613309565b50606090565b6101dc6104023660046137ac565b6110f6565b61025d600b5481565b61024461041e366004613513565b611124565b60006001600160e01b0319821663780e9d6360e01b1480610448575061044882611162565b92915050565b60606000805461045d906137df565b80601f0160208091040260200160405190810160405280929190818152602001828054610489906137df565b80156104d65780601f106104ab576101008083540402835291602001916104d6565b820191906000526020600020905b8154815290600101906020018083116104b957829003601f168201915b5050505050905090565b60006104eb826111b2565b506000828152600460205260409020546001600160a01b0316610448565b6105148282336111eb565b5050565b6001600160a01b03821661054757604051633250574960e11b8152600060048201526024015b60405180910390fd5b60006105548383336111f8565b9050836001600160a01b0316816001600160a01b0316146105a2576040516364283d7b60e01b81526001600160a01b038086166004830152602482018490528216604482015260640161053e565b50505050565b6105fb82846040516020016105d09291909182526001600160a01b0316602082015260400190565b60408051601f19818403018152919052805160209091012060105483906001600160a01b03166112cd565b61063a5760405162461bcd60e51b815260206004820152601060248201526f696e76616c69642065766964656e636560801b604482015260640161053e565b3361064487610ff9565b6001600160a01b03161461068b5760405162461bcd60e51b815260206004820152600e60248201526d27232a1d103737ba1037bbb732b960911b604482015260640161053e565b83600381111561069d5761069d613565565b6000878152600c602052604081206002908101919088908111156106c3576106c3613565565b60028111156106d4576106d4613565565b815260208101919091526040016000205460ff1660038111156106f9576106f9613565565b1061073d5760405162461bcd60e51b81526020600482015260146024820152734e46543a206e6f74207570677261646561626c6560601b604482015260640161053e565b6000868152600c602052604081205460ff169081600281111561076257610762613565565b036108f857600086600281111561077b5761077b613565565b036107ef576000878152600c60205260408120600290810190829089908111156107a7576107a7613565565b60028111156107b8576107b8613565565b815260208101919091526040016000205460ff1690506107e985858b8b858c8c601f60296032600c6015600a6113b4565b50610c52565b600186600281111561080357610803613565565b03610871576000878152600c602052604081206002908101908290899081111561082f5761082f613565565b600281111561084057610840613565565b815260208101919091526040016000205460ff1690506107e985858b8b858c8c6044605b606e601b603160166113b4565b600286600281111561088557610885613565565b036108f3576000878152600c60205260408120600290810190829089908111156108b1576108b1613565565b60028111156108c2576108c2613565565b815260208101919091526040016000205460ff1690506107e985858b8b858c8c6072609860b7602d605160246113b4565b610c52565b600181600281111561090c5761090c613565565b03610aa557600086600281111561092557610925613565565b0361099b576000878152600c602052604081206002908101908290899081111561095157610951613565565b600281111561096257610962613565565b815260200190815260200160002060009054906101000a900460ff1690506107e985858b8b858c8c6066608860a36028604860206113b4565b60018660028111156109af576109af613565565b03610a1f576000878152600c60205260408120600290810190829089908111156109db576109db613565565b60028111156109ec576109ec613565565b815260208101919091526040016000205460ff1690506107e985858b8b858c8c60e161012c610168605a60a260486113b4565b6002866002811115610a3357610a33613565565b036108f3576000878152600c6020526040812060029081019082908990811115610a5f57610a5f613565565b6002811115610a7057610a70613565565b815260208101919091526040016000205460ff1690506107e985858b8b858c8c6101776101f4610258609661010e60786113b4565b6002816002811115610ab957610ab9613565565b03610c52576000866002811115610ad257610ad2613565565b03610b42576000878152600c6020526040812060029081019082908990811115610afe57610afe613565565b6002811115610b0f57610b0f613565565b815260208101919091526040016000205460ff1690506107e985858b8b858c8c60dd6101276101626058609e60466113b4565b6001866002811115610b5657610b56613565565b03610bc8576000878152600c6020526040812060029081019082908990811115610b8257610b82613565565b6002811115610b9357610b93613565565b815260208101919091526040016000205460ff1690506107e985858b8b858c8c6101e761028a61030c60c361015f609c6113b4565b6002866002811115610bdc57610bdc613565565b03610c52576000878152600c6020526040812060029081019082908990811115610c0857610c08613565565b6002811115610c1957610c19613565565b815260208101919091526040016000205460ff169050610c5085858b8b858c8c61032c61043b6105146101456102496101046113b4565b505b6000866002811115610c6657610c66613565565b03610d3d576001856003811115610c7f57610c7f613565565b03610cb3576000878152600c602052604081206004018054624f1a009290610ca890849061382f565b90915550610ee69050565b6002856003811115610cc757610cc7613565565b03610cfb576000878152600c6020526040812060040180546276a7009290610cf090849061382f565b90915550610d389050565b6003856003811115610d0f57610d0f613565565b03610d38576000878152600c602052604081206004018054629e34009290610ca890849061382f565b610ee6565b6001866002811115610d5157610d51613565565b03610e0e576001856003811115610d6a57610d6a613565565b03610d93576000878152600c602052604081206004018054629e34009290610ca890849061382f565b6002856003811115610da757610da7613565565b03610dd0576000878152600c60205260408120600401805462ed4e009290610cf090849061382f565b6003856003811115610de457610de4613565565b03610d38576000878152600c60205260408120600401805463013c68009290610ca890849061382f565b6002866002811115610e2257610e22613565565b03610ee6576001856003811115610e3b57610e3b613565565b03610e64576000878152600c60205260408120600401805462ed4e009290610ca890849061382f565b6002856003811115610e7857610e78613565565b03610ea2576000878152600c602052604081206004018054630163f5009290610ca890849061382f565b6003856003811115610eb657610eb6613565565b03610ee6576000878152600c6020526040812060040180546301da9c009290610ee090849061382f565b90915550505b867f45d556c1b08304cc1ae1a44d5caa6e8dc835b9f6134ff8bed268dfd5cc71bda685888842604051610f1c9493929190613842565b60405180910390a25050505050505050565b6000610f3983611004565b8210610f5c57828260405163295f44f760e21b815260040161053e929190613883565b506001600160a01b03919091166000908152600660209081526040808320938352929052205490565b610fa0838383604051806020016040528060008152506110df565b505050565b6000610fb060085490565b8210610fd45760008260405163295f44f760e21b815260040161053e929190613883565b60088281548110610fe757610fe761389c565b90600052602060002001549050919050565b6000610448826111b2565b60006001600160a01b038216611030576040516322718ad960e21b81526000600482015260240161053e565b506001600160a01b031660009081526003602052604090205490565b6110546125b6565b61105e60006125e3565b565b60606001805461045d906137df565b610514338383612635565b60005b85518110156110d7576110c586828151811061109b5761109b61389c565b60200260200101518683815181106110b5576110b561389c565b60200260200101518686866126d4565b806110cf816138b2565b91505061107d565b505050505050565b6110ea848484610518565b6105a284848484612ca0565b6001600160a01b03918216600090815260056020908152604080832093909416825291909152205460ff1690565b61112c6125b6565b6001600160a01b03811661115657604051631e4fbdf760e01b81526000600482015260240161053e565b61115f816125e3565b50565b60006001600160e01b031982166380ac58cd60e01b148061119357506001600160e01b03198216635b5e139f60e01b145b8061044857506301ffc9a760e01b6001600160e01b0319831614610448565b6000818152600260205260408120546001600160a01b03168061044857604051637e27328960e01b81526004810184905260240161053e565b610fa08383836001612dc9565b600080611206858585612ecf565b90506001600160a01b0381166112635761125e84600880546000838152600960205260408120829055600182018355919091527ff3f7a9fe364faab93b216da50a3214154f22a0a2b415b23a84c8169e8b636ee30155565b611286565b846001600160a01b0316816001600160a01b031614611286576112868185612fc8565b6001600160a01b0385166112a25761129d84613059565b6112c5565b846001600160a01b0316816001600160a01b0316146112c5576112c58585613108565b949350505050565b60006001600160a01b038216158015906112e8575082516041145b6112f157600080fd5b6000806000856040815181106113095761130961389c565b016020015161131c9060f81c601b6138cb565b90506020860151925060408601519150846001600160a01b031660018883868660405160008152602001604052604051611372949392919093845260ff9290921660208401526040830152606082015260800190565b6020604051602081039080840390855afa158015611394573d6000803e3d6000fd5b505050602060405103516001600160a01b03161493505050509392505050565b60008960038111156113c8576113c8613565565b03611ca15760018760038111156113e1576113e1613565565b036116bf578a1561151857600d54600f546001600160a01b039182169163a9059cbb911661141089605f6138e4565b6114229067016345785d8a00006138e4565b6040518363ffffffff1660e01b815260040161143f929190613883565b6020604051808303816000875af115801561145e573d6000803e3d6000fd5b505050506040513d601f19601f8201168201806040525081019061148291906138fb565b50600d546001600160a01b031663a9059cbb8e6114a08960056138e4565b6114b29067016345785d8a00006138e4565b6040518363ffffffff1660e01b81526004016114cf929190613883565b6020604051808303816000875af11580156114ee573d6000803e3d6000fd5b505050506040513d601f19601f8201168201806040525081019061151291906138fb565b50611656565b600e54600f546001600160a01b039182169163a9059cbb91168e61153d8a605f6138e4565b61154f9067016345785d8a00006138e4565b6115599190613918565b6040518363ffffffff1660e01b8152600401611576929190613883565b6020604051808303816000875af1158015611595573d6000803e3d6000fd5b505050506040513d601f19601f820116820180604052508101906115b991906138fb565b50600e546001600160a01b031663a9059cbb8e8e6115d88a60056138e4565b6115ea9067016345785d8a00006138e4565b6115f49190613918565b6040518363ffffffff1660e01b8152600401611611929190613883565b6020604051808303816000875af1158015611630573d6000803e3d6000fd5b505050506040513d601f19601f8201168201806040525081019061165491906138fb565b505b60008a8152600c602052604081206001916002918201918b9081111561167e5761167e613565565b600281111561168f5761168f613565565b81526020810191909152604001600020805460ff191660018360038111156116b9576116b9613565565b02179055505b60028760038111156116d3576116d3613565565b036119af578a1561180a57600d54600f546001600160a01b039182169163a9059cbb911661170288605f6138e4565b6117149067016345785d8a00006138e4565b6040518363ffffffff1660e01b8152600401611731929190613883565b6020604051808303816000875af1158015611750573d6000803e3d6000fd5b505050506040513d601f19601f8201168201806040525081019061177491906138fb565b50600d546001600160a01b031663a9059cbb8e6117928860056138e4565b6117a49067016345785d8a00006138e4565b6040518363ffffffff1660e01b81526004016117c1929190613883565b6020604051808303816000875af11580156117e0573d6000803e3d6000fd5b505050506040513d601f19601f8201168201806040525081019061180491906138fb565b50611948565b600e54600f546001600160a01b039182169163a9059cbb91168e61182f89605f6138e4565b6118419067016345785d8a00006138e4565b61184b9190613918565b6040518363ffffffff1660e01b8152600401611868929190613883565b6020604051808303816000875af1158015611887573d6000803e3d6000fd5b505050506040513d601f19601f820116820180604052508101906118ab91906138fb565b50600e546001600160a01b031663a9059cbb8e8e6118ca8960056138e4565b6118dc9067016345785d8a00006138e4565b6118e69190613918565b6040518363ffffffff1660e01b8152600401611903929190613883565b6020604051808303816000875af1158015611922573d6000803e3d6000fd5b505050506040513d601f19601f8201168201806040525081019061194691906138fb565b505b60008a8152600c60205260408120600291908201908a8381111561196e5761196e613565565b600281111561197f5761197f613565565b81526020810191909152604001600020805460ff191660018360038111156119a9576119a9613565565b02179055505b60038760038111156119c3576119c3613565565b03611ca1578a15611afa57600d54600f546001600160a01b039182169163a9059cbb91166119f287605f6138e4565b611a049067016345785d8a00006138e4565b6040518363ffffffff1660e01b8152600401611a21929190613883565b6020604051808303816000875af1158015611a40573d6000803e3d6000fd5b505050506040513d601f19601f82011682018060405250810190611a6491906138fb565b50600d546001600160a01b031663a9059cbb8e611a828760056138e4565b611a949067016345785d8a00006138e4565b6040518363ffffffff1660e01b8152600401611ab1929190613883565b6020604051808303816000875af1158015611ad0573d6000803e3d6000fd5b505050506040513d601f19601f82011682018060405250810190611af491906138fb565b50611c38565b600e54600f546001600160a01b039182169163a9059cbb91168e611b1f88605f6138e4565b611b319067016345785d8a00006138e4565b611b3b9190613918565b6040518363ffffffff1660e01b8152600401611b58929190613883565b6020604051808303816000875af1158015611b77573d6000803e3d6000fd5b505050506040513d601f19601f82011682018060405250810190611b9b91906138fb565b50600e546001600160a01b031663a9059cbb8e8e611bba8860056138e4565b611bcc9067016345785d8a00006138e4565b611bd69190613918565b6040518363ffffffff1660e01b8152600401611bf3929190613883565b6020604051808303816000875af1158015611c12573d6000803e3d6000fd5b505050506040513d601f19601f82011682018060405250810190611c3691906138fb565b505b60008a8152600c602052604081206003916002918201918b90811115611c6057611c60613565565b6002811115611c7157611c71613565565b81526020810191909152604001600020805460ff19166001836003811115611c9b57611c9b613565565b02179055505b6001896003811115611cb557611cb5613565565b0361229c576002876003811115611cce57611cce613565565b03611faa578a15611e0557600d54600f546001600160a01b039182169163a9059cbb9116611cfd86605f6138e4565b611d0f9067016345785d8a00006138e4565b6040518363ffffffff1660e01b8152600401611d2c929190613883565b6020604051808303816000875af1158015611d4b573d6000803e3d6000fd5b505050506040513d601f19601f82011682018060405250810190611d6f91906138fb565b50600d546001600160a01b031663a9059cbb8e611d8d8660056138e4565b611d9f9067016345785d8a00006138e4565b6040518363ffffffff1660e01b8152600401611dbc929190613883565b6020604051808303816000875af1158015611ddb573d6000803e3d6000fd5b505050506040513d601f19601f82011682018060405250810190611dff91906138fb565b50611f43565b600e54600f546001600160a01b039182169163a9059cbb91168e611e2a87605f6138e4565b611e3c9067016345785d8a00006138e4565b611e469190613918565b6040518363ffffffff1660e01b8152600401611e63929190613883565b6020604051808303816000875af1158015611e82573d6000803e3d6000fd5b505050506040513d601f19601f82011682018060405250810190611ea691906138fb565b50600e546001600160a01b031663a9059cbb8e8e611ec58760056138e4565b611ed79067016345785d8a00006138e4565b611ee19190613918565b6040518363ffffffff1660e01b8152600401611efe929190613883565b6020604051808303816000875af1158015611f1d573d6000803e3d6000fd5b505050506040513d601f19601f82011682018060405250810190611f4191906138fb565b505b60008a8152600c60205260408120600291908201908a83811115611f6957611f69613565565b6002811115611f7a57611f7a613565565b81526020810191909152604001600020805460ff19166001836003811115611fa457611fa4613565565b02179055505b6003876003811115611fbe57611fbe613565565b0361229c578a156120f557600d54600f546001600160a01b039182169163a9059cbb9116611fed85605f6138e4565b611fff9067016345785d8a00006138e4565b6040518363ffffffff1660e01b815260040161201c929190613883565b6020604051808303816000875af115801561203b573d6000803e3d6000fd5b505050506040513d601f19601f8201168201806040525081019061205f91906138fb565b50600d546001600160a01b031663a9059cbb8e61207d8560056138e4565b61208f9067016345785d8a00006138e4565b6040518363ffffffff1660e01b81526004016120ac929190613883565b6020604051808303816000875af11580156120cb573d6000803e3d6000fd5b505050506040513d601f19601f820116820180604052508101906120ef91906138fb565b50612233565b600e54600f546001600160a01b039182169163a9059cbb91168e61211a86605f6138e4565b61212c9067016345785d8a00006138e4565b6121369190613918565b6040518363ffffffff1660e01b8152600401612153929190613883565b6020604051808303816000875af1158015612172573d6000803e3d6000fd5b505050506040513d601f19601f8201168201806040525081019061219691906138fb565b50600e546001600160a01b031663a9059cbb8e8e6121b58660056138e4565b6121c79067016345785d8a00006138e4565b6121d19190613918565b6040518363ffffffff1660e01b81526004016121ee929190613883565b6020604051808303816000875af115801561220d573d6000803e3d6000fd5b505050506040513d601f19601f8201168201806040525081019061223191906138fb565b505b60008a8152600c602052604081206003916002918201918b9081111561225b5761225b613565565b600281111561226c5761226c613565565b81526020810191909152604001600020805460ff1916600183600381111561229657612296613565565b02179055505b60028960038111156122b0576122b0613565565b036125a75760038760038111156122c9576122c9613565565b036125a7578a1561240057600d54600f546001600160a01b039182169163a9059cbb91166122f884605f6138e4565b61230a9067016345785d8a00006138e4565b6040518363ffffffff1660e01b8152600401612327929190613883565b6020604051808303816000875af1158015612346573d6000803e3d6000fd5b505050506040513d601f19601f8201168201806040525081019061236a91906138fb565b50600d546001600160a01b031663a9059cbb8e6123888460056138e4565b61239a9067016345785d8a00006138e4565b6040518363ffffffff1660e01b81526004016123b7929190613883565b6020604051808303816000875af11580156123d6573d6000803e3d6000fd5b505050506040513d601f19601f820116820180604052508101906123fa91906138fb565b5061253e565b600e54600f546001600160a01b039182169163a9059cbb91168e61242585605f6138e4565b6124379067016345785d8a00006138e4565b6124419190613918565b6040518363ffffffff1660e01b815260040161245e929190613883565b6020604051808303816000875af115801561247d573d6000803e3d6000fd5b505050506040513d601f19601f820116820180604052508101906124a191906138fb565b50600e546001600160a01b031663a9059cbb8e8e6124c08560056138e4565b6124d29067016345785d8a00006138e4565b6124dc9190613918565b6040518363ffffffff1660e01b81526004016124f9929190613883565b6020604051808303816000875af1158015612518573d6000803e3d6000fd5b505050506040513d601f19601f8201168201806040525081019061253c91906138fb565b505b60008a8152600c602052604081206003916002918201918b9081111561256657612566613565565b600281111561257757612577613565565b81526020810191909152604001600020805460ff191660018360038111156125a1576125a1613565565b02179055505b50505050505050505050505050565b600a546001600160a01b0316331461105e5760405163118cdaa760e01b815233600482015260240161053e565b600a80546001600160a01b038381166001600160a01b0319831681179093556040519116919082907f8be0079c531659141344cd1fd0a4f28419497f9722a3daafe3b4186f6b6457e090600090a35050565b6001600160a01b03821661266757604051630b61174360e31b81526001600160a01b038316600482015260240161053e565b6001600160a01b03838116600081815260056020908152604080832094871680845294825291829020805460ff191686151590811790915591519182527f17307eab39ab6107e8899845ad3d59bd9653f200f220920489ca2b5937696c31910160405180910390a3505050565b600061271784846040516020016126ec929190613883565b60408051601f19818403018152919052805160209091012060105484906001600160a01b03166112cd565b6127565760405162461bcd60e51b815260206004820152601060248201526f696e76616c69642065766964656e636560801b604482015260640161053e565b600086600281111561276a5761276a613565565b036128d057600d54600f546001600160a01b039182169163a9059cbb9116612710866127a08a69010f0cf064dd592000006138e4565b6127ab90605f6138e4565b6127b591906138e4565b6127bf9190613918565b6040518363ffffffff1660e01b81526004016127dc929190613883565b6020604051808303816000875af11580156127fb573d6000803e3d6000fd5b505050506040513d601f19601f8201168201806040525081019061281f91906138fb565b50600d546001600160a01b031663a9059cbb856127108661284a8a69010f0cf064dd592000006138e4565b6128559060056138e4565b61285f91906138e4565b6128699190613918565b6040518363ffffffff1660e01b8152600401612886929190613883565b6020604051808303816000875af11580156128a5573d6000803e3d6000fd5b505050506040513d601f19601f820116820180604052508101906128c991906138fb565b506104b090505b60018660028111156128e4576128e4613565565b03612a4a57600d54600f546001600160a01b039182169163a9059cbb91166127108661291a8a6901b1ae4d6e2ef50000006138e4565b61292590605f6138e4565b61292f91906138e4565b6129399190613918565b6040518363ffffffff1660e01b8152600401612956929190613883565b6020604051808303816000875af1158015612975573d6000803e3d6000fd5b505050506040513d601f19601f8201168201806040525081019061299991906138fb565b50600d546001600160a01b031663a9059cbb85612710866129c48a6901b1ae4d6e2ef50000006138e4565b6129cf9060056138e4565b6129d991906138e4565b6129e39190613918565b6040518363ffffffff1660e01b8152600401612a00929190613883565b6020604051808303816000875af1158015612a1f573d6000803e3d6000fd5b505050506040513d601f19601f82011682018060405250810190612a4391906138fb565b506107d090505b6002866002811115612a5e57612a5e613565565b03612bc457600d54600f546001600160a01b039182169163a9059cbb911661271086612a948a69028a857425466f8000006138e4565b612a9f90605f6138e4565b612aa991906138e4565b612ab39190613918565b6040518363ffffffff1660e01b8152600401612ad0929190613883565b6020604051808303816000875af1158015612aef573d6000803e3d6000fd5b505050506040513d601f19601f82011682018060405250810190612b1391906138fb565b50600d546001600160a01b031663a9059cbb8561271086612b3e8a69028a857425466f8000006138e4565b612b499060056138e4565b612b5391906138e4565b612b5d9190613918565b6040518363ffffffff1660e01b8152600401612b7a929190613883565b6020604051808303816000875af1158015612b99573d6000803e3d6000fd5b505050506040513d601f19601f82011682018060405250810190612bbd91906138fb565b50610c8090505b60005b85811015612c9757600b80549081906000612be1836138b2565b9190505550612bf03382613158565b6000818152600c60205260409020805489919060ff19166001836002811115612c1b57612c1b613565565b02179055506000818152600c60205260409081902042600382015563076a700060048201556005018490555181907f2e6d97f41fb5e22a6bdffd32e22b194939ba2aa3ef13f7cfd9d8bc1b3bdae1a490612c7c9033908b908b908e9061393a565b60405180910390a25080612c8f816138b2565b915050612bc7565b50505050505050565b6001600160a01b0383163b156105a257604051630a85bd0160e11b81526001600160a01b0384169063150b7a0290612ce2903390889087908790600401613971565b6020604051808303816000875af1925050508015612d1d575060408051601f3d908101601f19168201909252612d1a918101906139ae565b60015b612d86573d808015612d4b576040519150601f19603f3d011682016040523d82523d6000602084013e612d50565b606091505b508051600003612d7e57604051633250574960e11b81526001600160a01b038516600482015260240161053e565b805181602001fd5b6001600160e01b03198116630a85bd0160e11b14612dc257604051633250574960e11b81526001600160a01b038516600482015260240161053e565b5050505050565b8080612ddd57506001600160a01b03821615155b15612e9f576000612ded846111b2565b90506001600160a01b03831615801590612e195750826001600160a01b0316816001600160a01b031614155b8015612e2c5750612e2a81846110f6565b155b15612e555760405163a9fbf51f60e01b81526001600160a01b038416600482015260240161053e565b8115612e9d5783856001600160a01b0316826001600160a01b03167f8c5be1e5ebec7d5bd14f71427d1e84f3dd0314c0f7b2291e5b200ac8c7c3b92560405160405180910390a45b505b5050600090815260046020526040902080546001600160a01b0319166001600160a01b0392909216919091179055565b6000828152600260205260408120546001600160a01b0390811690831615612efc57612efc8184866131bd565b6001600160a01b03811615612f3a57612f19600085600080612dc9565b6001600160a01b038116600090815260036020526040902080546000190190555b6001600160a01b03851615612f69576001600160a01b0385166000908152600360205260409020805460010190555b60008481526002602052604080822080546001600160a01b0319166001600160a01b0389811691821790925591518793918516917fddf252ad1be2c89b69c2b068fc378daa952ba7f163c4a11628f55a4df523b3ef91a4949350505050565b6000612fd383611004565b600083815260076020526040902054909150808214613026576001600160a01b03841660009081526006602090815260408083208584528252808320548484528184208190558352600790915290208190555b5060009182526007602090815260408084208490556001600160a01b039094168352600681528383209183525290812055565b60085460009061306b9060019061382f565b600083815260096020526040812054600880549394509092849081106130935761309361389c565b9060005260206000200154905080600883815481106130b4576130b461389c565b60009182526020808320909101929092558281526009909152604080822084905585825281205560088054806130ec576130ec6139cb565b6001900381819060005260206000200160009055905550505050565b6000600161311584611004565b61311f919061382f565b6001600160a01b039093166000908152600660209081526040808320868452825280832085905593825260079052919091209190915550565b6001600160a01b03821661318257604051633250574960e11b81526000600482015260240161053e565b6000613190838360006111f8565b90506001600160a01b03811615610fa0576040516339e3563760e11b81526000600482015260240161053e565b6131c8838383613213565b610fa0576001600160a01b0383166131f657604051637e27328960e01b81526004810182905260240161053e565b818160405163177e802f60e01b815260040161053e929190613883565b60006001600160a01b038316158015906112c55750826001600160a01b0316846001600160a01b0316148061324d575061324d84846110f6565b806112c55750506000908152600460205260409020546001600160a01b03908116911614919050565b6001600160e01b03198116811461115f57600080fd5b60006020828403121561329e57600080fd5b81356132a981613276565b9392505050565b6000815180845260005b818110156132d6576020818501810151868301820152016132ba565b506000602082860101526020601f19601f83011685010191505092915050565b6020815260006132a960208301846132b0565b60006020828403121561331b57600080fd5b5035919050565b80356001600160a01b038116811461333957600080fd5b919050565b6000806040838503121561335157600080fd5b61335a83613322565b946020939093013593505050565b60008060006060848603121561337d57600080fd5b61338684613322565b925061339460208501613322565b9150604084013590509250925092565b801515811461115f57600080fd5b6003811061115f57600080fd5b634e487b7160e01b600052604160045260246000fd5b604051601f8201601f1916810167ffffffffffffffff811182821017156133fe576133fe6133bf565b604052919050565b600082601f83011261341757600080fd5b813567ffffffffffffffff811115613431576134316133bf565b613444601f8201601f19166020016133d5565b81815284602083860101111561345957600080fd5b816020850160208301376000918101602001919091529392505050565b600080600080600080600060e0888a03121561349157600080fd5b873561349c816133a4565b96506020880135955060408801356134b3816133b2565b94506060880135600481106134c757600080fd5b93506134d560808901613322565b925060a0880135915060c088013567ffffffffffffffff8111156134f857600080fd5b6135048a828b01613406565b91505092959891949750929550565b60006020828403121561352557600080fd5b6132a982613322565b6000806040838503121561354157600080fd5b61354a83613322565b9150602083013561355a816133a4565b809150509250929050565b634e487b7160e01b600052602160045260246000fd5b6003811061115f5761115f613565565b608081016135988661357b565b9481526020810193909352604083019190915260609091015290565b600067ffffffffffffffff8211156135ce576135ce6133bf565b5060051b60200190565b600082601f8301126135e957600080fd5b813560206135fe6135f9836135b4565b6133d5565b82815260059290921b8401810191818101908684111561361d57600080fd5b8286015b848110156136385780358352918301918301613621565b509695505050505050565b600080600080600060a0868803121561365b57600080fd5b853567ffffffffffffffff8082111561367357600080fd5b818801915088601f83011261368757600080fd5b813560206136976135f9836135b4565b82815260059290921b8401810191818101908c8411156136b657600080fd5b948201945b838610156136dd5785356136ce816133b2565b825294820194908201906136bb565b995050890135925050808211156136f357600080fd5b6136ff89838a016135d8565b955061370d60408901613322565b945060608801359350608088013591508082111561372a57600080fd5b5061373788828901613406565b9150509295509295909350565b6000806000806080858703121561375a57600080fd5b61376385613322565b935061377160208601613322565b925060408501359150606085013567ffffffffffffffff81111561379457600080fd5b6137a087828801613406565b91505092959194509250565b600080604083850312156137bf57600080fd5b6137c883613322565b91506137d660208401613322565b90509250929050565b600181811c908216806137f357607f821691505b60208210810361381357634e487b7160e01b600052602260045260246000fd5b50919050565b634e487b7160e01b600052601160045260246000fd5b8181038181111561044857610448613819565b6001600160a01b03851681526080810161385b8561357b565b8460208301526004841061387157613871613565565b60408201939093526060015292915050565b6001600160a01b03929092168252602082015260400190565b634e487b7160e01b600052603260045260246000fd5b6000600182016138c4576138c4613819565b5060010190565b60ff818116838216019081111561044857610448613819565b808202811582820484141761044857610448613819565b60006020828403121561390d57600080fd5b81516132a9816133a4565b60008261393557634e487b7160e01b600052601260045260246000fd5b500490565b6001600160a01b0385811682526020820185905283166040820152608081016139628361357b565b82606083015295945050505050565b6001600160a01b03858116825284166020820152604081018390526080606082018190526000906139a4908301846132b0565b9695505050505050565b6000602082840312156139c057600080fd5b81516132a981613276565b634e487b7160e01b600052603160045260246000fdfea26469706673582212200450bc4b6161e7d2909c8fd233d68032652b862241040c5825e469a7a037cd9564736f6c63430008150033",
    "linkReferences": {}
  },
  "methodIdentifiers": {
    "USDT()": "c54e44eb",
    "Zeb()": "15f2e205",
    "approve(address,uint256)": "095ea7b3",
    "balanceOf(address)": "70a08231",
    "fund()": "b60d4288",
    "getApproved(uint256)": "081812fc",
    "isApprovedForAll(address,address)": "e985e9c5",
    "name()": "06fdde03",
    "nextTokenID()": "f101e481",
    "nodeInfo(uint256)": "b02439ae",
    "owner()": "8da5cb5b",
    "ownerOf(uint256)": "6352211e",
    "publicMint(uint8[],uint256[],address,uint256,bytes)": "b588a890",
    "renounceOwnership()": "715018a6",
    "safeTransferFrom(address,address,uint256)": "42842e0e",
    "safeTransferFrom(address,address,uint256,bytes)": "b88d4fde",
    "setApprovalForAll(address,bool)": "a22cb465",
    "signer()": "238ac933",
    "supportsInterface(bytes4)": "01ffc9a7",
    "symbol()": "95d89b41",
    "tokenByIndex(uint256)": "4f6ccce7",
    "tokenOfOwnerByIndex(address,uint256)": "2f745c59",
    "tokenURI(uint256)": "c87b56dd",
    "totalSupply()": "18160ddd",
    "transferFrom(address,address,uint256)": "23b872dd",
    "transferOwnership(address)": "f2fde38b",
    "transferable()": "92ff0d31",
    "upgrade(bool,uint256,uint8,uint8,address,uint256,bytes)": "29fb08f5"
  },
  "id": 37
}