{
  "abi": [
    {
      "inputs": [
        {
          "internalType": "string",
          "name": "name",
          "type": "string"
        },
        {
          "internalType": "string",
          "name": "symbol",
          "type": "string"
        }
      ],
      "stateMutability": "nonpayable",
      "type": "constructor"
    },
    {
      "inputs": [
        {
          "internalType": "address",
          "name": "sender",
          "type": "address"
        },
        {
          "internalType": "uint256",
          "name": "tokenId",
          "type": "uint256"
        },
        {
          "internalType": "address",
          "name": "owner",
          "type": "address"
        }
      ],
      "name": "ERC721IncorrectOwner",
      "type": "error"
    },
    {
      "inputs": [
        {
          "internalType": "address",
          "name": "operator",
          "type": "address"
        },
        {
          "internalType": "uint256",
          "name": "tokenId",
          "type": "uint256"
        }
      ],
      "name": "ERC721InsufficientApproval",
      "type": "error"
    },
    {
      "inputs": [
        {
          "internalType": "address",
          "name": "approver",
          "type": "address"
        }
      ],
      "name": "ERC721InvalidApprover",
      "type": "error"
    },
    {
      "inputs": [
        {
          "internalType": "address",
          "name": "operator",
          "type": "address"
        }
      ],
      "name": "ERC721InvalidOperator",
      "type": "error"
    },
    {
      "inputs": [
        {
          "internalType": "address",
          "name": "owner",
          "type": "address"
        }
      ],
      "name": "ERC721InvalidOwner",
      "type": "error"
    },
    {
      "inputs": [
        {
          "internalType": "address",
          "name": "receiver",
          "type": "address"
        }
      ],
      "name": "ERC721InvalidReceiver",
      "type": "error"
    },
    {
      "inputs": [
        {
          "internalType": "address",
          "name": "sender",
          "type": "address"
        }
      ],
      "name": "ERC721InvalidSender",
      "type": "error"
    },
    {
      "inputs": [
        {
          "internalType": "uint256",
          "name": "tokenId",
          "type": "uint256"
        }
      ],
      "name": "ERC721NonexistentToken",
      "type": "error"
    },
    {
      "inputs": [
        {
          "internalType": "address",
          "name": "owner",
          "type": "address"
        }
      ],
      "name": "OwnableInvalidOwner",
      "type": "error"
    },
    {
      "inputs": [
        {
          "internalType": "address",
          "name": "account",
          "type": "address"
        }
      ],
      "name": "OwnableUnauthorizedAccount",
      "type": "error"
    },
    {
      "anonymous": false,
      "inputs": [
        {
          "indexed": true,
          "internalType": "address",
          "name": "owner",
          "type": "address"
        },
        {
          "indexed": true,
          "internalType": "address",
          "name": "approved",
          "type": "address"
        },
        {
          "indexed": true,
          "internalType": "uint256",
          "name": "tokenId",
          "type": "uint256"
        }
      ],
      "name": "Approval",
      "type": "event"
    },
    {
      "anonymous": false,
      "inputs": [
        {
          "indexed": true,
          "internalType": "address",
          "name": "owner",
          "type": "address"
        },
        {
          "indexed": true,
          "internalType": "address",
          "name": "operator",
          "type": "address"
        },
        {
          "indexed": false,
          "internalType": "bool",
          "name": "approved",
          "type": "bool"
        }
      ],
      "name": "ApprovalForAll",
      "type": "event"
    },
    {
      "anonymous": false,
      "inputs": [
        {
          "indexed": true,
          "internalType": "address",
          "name": "previousOwner",
          "type": "address"
        },
        {
          "indexed": true,
          "internalType": "address",
          "name": "newOwner",
          "type": "address"
        }
      ],
      "name": "OwnershipTransferred",
      "type": "event"
    },
    {
      "anonymous": false,
      "inputs": [
        {
          "indexed": true,
          "internalType": "address",
          "name": "from",
          "type": "address"
        },
        {
          "indexed": true,
          "internalType": "address",
          "name": "to",
          "type": "address"
        },
        {
          "indexed": true,
          "internalType": "uint256",
          "name": "tokenId",
          "type": "uint256"
        }
      ],
      "name": "Transfer",
      "type": "event"
    },
    {
      "inputs": [],
      "name": "USDT",
      "outputs": [
        {
          "internalType": "contract IERC20",
          "name": "",
          "type": "address"
        }
      ],
      "stateMutability": "view",
      "type": "function"
    },
    {
      "inputs": [
        {
          "internalType": "address",
          "name": "to",
          "type": "address"
        },
        {
          "internalType": "uint256",
          "name": "tokenId",
          "type": "uint256"
        }
      ],
      "name": "approve",
      "outputs": [],
      "stateMutability": "nonpayable",
      "type": "function"
    },
    {
      "inputs": [
        {
          "internalType": "address",
          "name": "owner",
          "type": "address"
        }
      ],
      "name": "balanceOf",
      "outputs": [
        {
          "internalType": "uint256",
          "name": "",
          "type": "uint256"
        }
      ],
      "stateMutability": "view",
      "type": "function"
    },
    {
      "inputs": [
        {
          "internalType": "uint256",
          "name": "tokenId",
          "type": "uint256"
        }
      ],
      "name": "getApproved",
      "outputs": [
        {
          "internalType": "address",
          "name": "",
          "type": "address"
        }
      ],
      "stateMutability": "view",
      "type": "function"
    },
    {
      "inputs": [],
      "name": "invitationCenter",
      "outputs": [
        {
          "internalType": "contract InvitationCenter",
          "name": "",
          "type": "address"
        }
      ],
      "stateMutability": "view",
      "type": "function"
    },
    {
      "inputs": [
        {
          "internalType": "address",
          "name": "owner",
          "type": "address"
        },
        {
          "internalType": "address",
          "name": "operator",
          "type": "address"
        }
      ],
      "name": "isApprovedForAll",
      "outputs": [
        {
          "internalType": "bool",
          "name": "",
          "type": "bool"
        }
      ],
      "stateMutability": "view",
      "type": "function"
    },
    {
      "inputs": [],
      "name": "isPromotion",
      "outputs": [
        {
          "internalType": "bool",
          "name": "",
          "type": "bool"
        }
      ],
      "stateMutability": "view",
      "type": "function"
    },
    {
      "inputs": [],
      "name": "name",
      "outputs": [
        {
          "internalType": "string",
          "name": "",
          "type": "string"
        }
      ],
      "stateMutability": "view",
      "type": "function"
    },
    {
      "inputs": [],
      "name": "nextTokenID",
      "outputs": [
        {
          "internalType": "uint256",
          "name": "",
          "type": "uint256"
        }
      ],
      "stateMutability": "view",
      "type": "function"
    },
    {
      "inputs": [
        {
          "internalType": "uint256",
          "name": "",
          "type": "uint256"
        }
      ],
      "name": "nftInifo",
      "outputs": [
        {
          "internalType": "enum NFT.MachaineType",
          "name": "machaineType",
          "type": "uint8"
        },
        {
          "internalType": "enum NFT.EquipmentType",
          "name": "equipmentType",
          "type": "uint8"
        },
        {
          "internalType": "enum NFT.EquipmentLevel",
          "name": "equipmentLevel",
          "type": "uint8"
        },
        {
          "internalType": "uint256",
          "name": "mintTime",
          "type": "uint256"
        },
        {
          "internalType": "uint256",
          "name": "unlockPeriod",
          "type": "uint256"
        }
      ],
      "stateMutability": "view",
      "type": "function"
    },
    {
      "inputs": [],
      "name": "owner",
      "outputs": [
        {
          "internalType": "address",
          "name": "",
          "type": "address"
        }
      ],
      "stateMutability": "view",
      "type": "function"
    },
    {
      "inputs": [
        {
          "internalType": "uint256",
          "name": "tokenId",
          "type": "uint256"
        }
      ],
      "name": "ownerOf",
      "outputs": [
        {
          "internalType": "address",
          "name": "",
          "type": "address"
        }
      ],
      "stateMutability": "view",
      "type": "function"
    },
    {
      "inputs": [
        {
          "internalType": "enum NFT.MachaineType[]",
          "name": "_machineType",
          "type": "uint8[]"
        },
        {
          "internalType": "uint256[]",
          "name": "amount",
          "type": "uint256[]"
        },
        {
          "internalType": "bytes32",
          "name": "inviterCode",
          "type": "bytes32"
        }
      ],
      "name": "publicMint",
      "outputs": [],
      "stateMutability": "nonpayable",
      "type": "function"
    },
    {
      "inputs": [],
      "name": "receiver",
      "outputs": [
        {
          "internalType": "address",
          "name": "",
          "type": "address"
        }
      ],
      "stateMutability": "view",
      "type": "function"
    },
    {
      "inputs": [],
      "name": "renounceOwnership",
      "outputs": [],
      "stateMutability": "nonpayable",
      "type": "function"
    },
    {
      "inputs": [
        {
          "internalType": "address",
          "name": "from",
          "type": "address"
        },
        {
          "internalType": "address",
          "name": "to",
          "type": "address"
        },
        {
          "internalType": "uint256",
          "name": "tokenId",
          "type": "uint256"
        }
      ],
      "name": "safeTransferFrom",
      "outputs": [],
      "stateMutability": "nonpayable",
      "type": "function"
    },
    {
      "inputs": [
        {
          "internalType": "address",
          "name": "from",
          "type": "address"
        },
        {
          "internalType": "address",
          "name": "to",
          "type": "address"
        },
        {
          "internalType": "uint256",
          "name": "tokenId",
          "type": "uint256"
        },
        {
          "internalType": "bytes",
          "name": "data",
          "type": "bytes"
        }
      ],
      "name": "safeTransferFrom",
      "outputs": [],
      "stateMutability": "nonpayable",
      "type": "function"
    },
    {
      "inputs": [
        {
          "internalType": "address",
          "name": "operator",
          "type": "address"
        },
        {
          "internalType": "bool",
          "name": "approved",
          "type": "bool"
        }
      ],
      "name": "setApprovalForAll",
      "outputs": [],
      "stateMutability": "nonpayable",
      "type": "function"
    },
    {
      "inputs": [
        {
          "internalType": "bool",
          "name": "_isPromotion",
          "type": "bool"
        }
      ],
      "name": "setPromotion",
      "outputs": [],
      "stateMutability": "nonpayable",
      "type": "function"
    },
    {
      "inputs": [
        {
          "internalType": "bytes4",
          "name": "interfaceId",
          "type": "bytes4"
        }
      ],
      "name": "supportsInterface",
      "outputs": [
        {
          "internalType": "bool",
          "name": "",
          "type": "bool"
        }
      ],
      "stateMutability": "view",
      "type": "function"
    },
    {
      "inputs": [],
      "name": "symbol",
      "outputs": [
        {
          "internalType": "string",
          "name": "",
          "type": "string"
        }
      ],
      "stateMutability": "view",
      "type": "function"
    },
    {
      "inputs": [
        {
          "internalType": "uint256",
          "name": "tokenID",
          "type": "uint256"
        }
      ],
      "name": "tokenURI",
      "outputs": [
        {
          "internalType": "string",
          "name": "",
          "type": "string"
        }
      ],
      "stateMutability": "view",
      "type": "function"
    },
    {
      "inputs": [
        {
          "internalType": "address",
          "name": "from",
          "type": "address"
        },
        {
          "internalType": "address",
          "name": "to",
          "type": "address"
        },
        {
          "internalType": "uint256",
          "name": "tokenId",
          "type": "uint256"
        }
      ],
      "name": "transferFrom",
      "outputs": [],
      "stateMutability": "nonpayable",
      "type": "function"
    },
    {
      "inputs": [
        {
          "internalType": "address",
          "name": "newOwner",
          "type": "address"
        }
      ],
      "name": "transferOwnership",
      "outputs": [],
      "stateMutability": "nonpayable",
      "type": "function"
    },
    {
      "inputs": [],
      "name": "transferable",
      "outputs": [
        {
          "internalType": "bool",
          "name": "",
          "type": "bool"
        }
      ],
      "stateMutability": "view",
      "type": "function"
    }
  ],
  "bytecode": {
    "object": "0x60806040523480156200001157600080fd5b5060405162001d7c38038062001d7c8339810160408190526200003491620001b1565b3382826000620000458382620002aa565b506001620000548282620002aa565b5050506001600160a01b0381166200008657604051631e4fbdf760e01b81526000600482015260240160405180910390fd5b62000091816200009a565b50505062000376565b600680546001600160a01b038381166001600160a01b0319831681179093556040519116919082907f8be0079c531659141344cd1fd0a4f28419497f9722a3daafe3b4186f6b6457e090600090a35050565b634e487b7160e01b600052604160045260246000fd5b600082601f8301126200011457600080fd5b81516001600160401b0380821115620001315762000131620000ec565b604051601f8301601f19908116603f011681019082821181831017156200015c576200015c620000ec565b816040528381526020925086838588010111156200017957600080fd5b600091505b838210156200019d57858201830151818301840152908201906200017e565b600093810190920192909252949350505050565b60008060408385031215620001c557600080fd5b82516001600160401b0380821115620001dd57600080fd5b620001eb8683870162000102565b935060208501519150808211156200020257600080fd5b50620002118582860162000102565b9150509250929050565b600181811c908216806200023057607f821691505b6020821081036200025157634e487b7160e01b600052602260045260246000fd5b50919050565b601f821115620002a557600081815260208120601f850160051c81016020861015620002805750805b601f850160051c820191505b81811015620002a1578281556001016200028c565b5050505b505050565b81516001600160401b03811115620002c657620002c6620000ec565b620002de81620002d784546200021b565b8462000257565b602080601f831160018114620003165760008415620002fd5750858301515b600019600386901b1c1916600185901b178555620002a1565b600085815260208120601f198616915b82811015620003475788860151825594840194600190910190840162000326565b5085821015620003665787850151600019600388901b60f8161c191681555b5050505050600190811b01905550565b6119f680620003866000396000f3fe608060405234801561001057600080fd5b50600436106101735760003560e01c80637278aec5116100de578063c54e44eb11610097578063e985e9c511610071578063e985e9c514610373578063f101e48114610386578063f2fde38b1461038f578063f7260d3e146103a257600080fd5b8063c54e44eb14610339578063c87b56dd1461034c578063d21d701c1461036057600080fd5b80637278aec5146102915780638da5cb5b146102e657806392ff0d31146102f757806395d89b411461030b578063a22cb46514610313578063b88d4fde1461032657600080fd5b80632f533280116101305780632f5332801461021c57806342842e0e1461022f5780634f821a26146102425780636352211e1461025557806370a0823114610268578063715018a61461028957600080fd5b806301ffc9a71461017857806306fdde03146101a0578063081812fc146101b5578063095ea7b3146101e057806323b872dd146101f55780632677e4d314610208575b600080fd5b61018b6101863660046113d2565b6103b5565b60405190151581526020015b60405180910390f35b6101a8610407565b604051610197919061143c565b6101c86101c336600461144f565b610499565b6040516001600160a01b039091168152602001610197565b6101f36101ee36600461147d565b6104c2565b005b6101f36102033660046114a9565b6104d1565b60065461018b90600160a01b900460ff1681565b600a546101c8906001600160a01b031681565b6101f361023d3660046114a9565b610537565b6101f36102503660046114f8565b610552565b6101c861026336600461144f565b610578565b61027b610276366004611515565b610583565b604051908152602001610197565b6101f36105cb565b6102d561029f36600461144f565b60086020526000908152604090208054600182015460029092015460ff8083169361010084048216936201000090049091169185565b604051610197959493929190611558565b6006546001600160a01b03166101c8565b60065461018b90600160a81b900460ff1681565b6101a86105df565b6101f36103213660046115a3565b6105ee565b6101f3610334366004611623565b6105f9565b6009546101c8906001600160a01b031681565b6101a861035a36600461144f565b50606090565b6101f361036e366004611776565b610616565b61018b610381366004611846565b610671565b61027b60075481565b6101f361039d366004611515565b61069f565b600b546101c8906001600160a01b031681565b60006001600160e01b031982166380ac58cd60e01b14806103e657506001600160e01b03198216635b5e139f60e01b145b8061040157506301ffc9a760e01b6001600160e01b03198316145b92915050565b60606000805461041690611874565b80601f016020809104026020016040519081016040528092919081815260200182805461044290611874565b801561048f5780601f106104645761010080835404028352916020019161048f565b820191906000526020600020905b81548152906001019060200180831161047257829003601f168201915b5050505050905090565b60006104a4826106dd565b506000828152600460205260409020546001600160a01b0316610401565b6104cd828233610716565b5050565b600654600160a81b900460ff166105275760405162461bcd60e51b81526020600482015260156024820152744e46543a206e6f74207472616e7366657261626c6560581b60448201526064015b60405180910390fd5b610532838383610723565b505050565b610532838383604051806020016040528060008152506105f9565b61055a6107a8565b60068054911515600160a01b0260ff60a01b19909216919091179055565b6000610401826106dd565b60006001600160a01b0382166105af576040516322718ad960e21b81526000600482015260240161051e565b506001600160a01b031660009081526003602052604090205490565b6105d36107a8565b6105dd60006107d5565b565b60606001805461041690611874565b6104cd338383610827565b6106048484846104d1565b610610848484846108c6565b50505050565b60005b83518110156106105761065f848281518110610637576106376118ae565b6020026020010151848381518110610651576106516118ae565b6020026020010151846109ef565b80610669816118da565b915050610619565b6001600160a01b03918216600090815260056020908152604080832093909416825291909152205460ff1690565b6106a76107a8565b6001600160a01b0381166106d157604051631e4fbdf760e01b81526000600482015260240161051e565b6106da816107d5565b50565b6000818152600260205260408120546001600160a01b03168061040157604051637e27328960e01b81526004810184905260240161051e565b610532838383600161108e565b6001600160a01b03821661074d57604051633250574960e11b81526000600482015260240161051e565b600061075a838333611194565b9050836001600160a01b0316816001600160a01b031614610610576040516364283d7b60e01b81526001600160a01b038086166004830152602482018490528216604482015260640161051e565b6006546001600160a01b031633146105dd5760405163118cdaa760e01b815233600482015260240161051e565b600680546001600160a01b038381166001600160a01b0319831681179093556040519116919082907f8be0079c531659141344cd1fd0a4f28419497f9722a3daafe3b4186f6b6457e090600090a35050565b6001600160a01b03821661085957604051630b61174360e31b81526001600160a01b038316600482015260240161051e565b6001600160a01b03838116600081815260056020908152604080832094871680845294825291829020805460ff191686151590811790915591519182527f17307eab39ab6107e8899845ad3d59bd9653f200f220920489ca2b5937696c31910160405180910390a3505050565b6001600160a01b0383163b1561061057604051630a85bd0160e11b81526001600160a01b0384169063150b7a02906109089033908890879087906004016118f3565b6020604051808303816000875af1925050508015610943575060408051601f3d908101601f1916820190925261094091810190611930565b60015b6109ac573d808015610971576040519150601f19603f3d011682016040523d82523d6000602084013e610976565b606091505b5080516000036109a457604051633250574960e11b81526001600160a01b038516600482015260240161051e565b805181602001fd5b6001600160e01b03198116630a85bd0160e11b146109e857604051633250574960e11b81526001600160a01b038516600482015260240161051e565b5050505050565b600081610ae257600a5460405163a4f62bc360e01b8152336004820152674d415853314b533760c01b60248201526001600160a01b039091169063a4f62bc390604401600060405180830381600087803b158015610a4c57600080fd5b505af1158015610a60573d6000803e3d6000fd5b5050600a546040516328a3d02360e01b8152674d415853314b533760c01b60048201526001600160a01b0390911692506328a3d0239150602401602060405180830381865afa158015610ab7573d6000803e3d6000fd5b505050506040513d601f19601f82011682018060405250810190610adb919061194d565b9050610bb6565b600a5460405163a4f62bc360e01b8152336004820152602481018490526001600160a01b039091169063a4f62bc390604401600060405180830381600087803b158015610b2e57600080fd5b505af1158015610b42573d6000803e3d6000fd5b5050600a546040516328a3d02360e01b8152600481018690526001600160a01b0390911692506328a3d0239150602401602060405180830381865afa158015610b8f573d6000803e3d6000fd5b505050506040513d601f19601f82011682018060405250810190610bb3919061194d565b90505b6000846002811115610bca57610bca611532565b03610d2157600954600b546001600160a01b039182169163a9059cbb91166064610bf6876101f461196a565b610c0190605f61196a565b610c0b9190611981565b6040516001600160e01b031960e085901b1681526001600160a01b03909216600483015260248201526044016020604051808303816000875af1158015610c56573d6000803e3d6000fd5b505050506040513d601f19601f82011682018060405250810190610c7a91906119a3565b506009546001600160a01b031663a9059cbb826064610c9b876101f461196a565b610ca690600561196a565b610cb09190611981565b6040516001600160e01b031960e085901b1681526001600160a01b03909216600483015260248201526044016020604051808303816000875af1158015610cfb573d6000803e3d6000fd5b505050506040513d601f19601f82011682018060405250810190610d1f91906119a3565b505b6001846002811115610d3557610d35611532565b03610e8c57600954600b546001600160a01b039182169163a9059cbb91166064610d618761032061196a565b610d6c90605f61196a565b610d769190611981565b6040516001600160e01b031960e085901b1681526001600160a01b03909216600483015260248201526044016020604051808303816000875af1158015610dc1573d6000803e3d6000fd5b505050506040513d601f19601f82011682018060405250810190610de591906119a3565b506009546001600160a01b031663a9059cbb826064610e068761032061196a565b610e1190600561196a565b610e1b9190611981565b6040516001600160e01b031960e085901b1681526001600160a01b03909216600483015260248201526044016020604051808303816000875af1158015610e66573d6000803e3d6000fd5b505050506040513d601f19601f82011682018060405250810190610e8a91906119a3565b505b6002846002811115610ea057610ea0611532565b03610ff757600954600b546001600160a01b039182169163a9059cbb91166064610ecc876104b061196a565b610ed790605f61196a565b610ee19190611981565b6040516001600160e01b031960e085901b1681526001600160a01b03909216600483015260248201526044016020604051808303816000875af1158015610f2c573d6000803e3d6000fd5b505050506040513d601f19601f82011682018060405250810190610f5091906119a3565b506009546001600160a01b031663a9059cbb826064610f71876104b061196a565b610f7c90600561196a565b610f869190611981565b6040516001600160e01b031960e085901b1681526001600160a01b03909216600483015260248201526044016020604051808303816000875af1158015610fd1573d6000803e3d6000fd5b505050506040513d601f19601f82011682018060405250810190610ff591906119a3565b505b60005b838110156109e857600780549081906000611014836118da565b9190505550611023338261128d565b6000818152600860205260409020805487919060ff1916600183600281111561104e5761104e611532565b02179055506000908152600860205260409020805462ff00001916815542600182015563076a700060029091015580611086816118da565b915050610ffa565b80806110a257506001600160a01b03821615155b156111645760006110b2846106dd565b90506001600160a01b038316158015906110de5750826001600160a01b0316816001600160a01b031614155b80156110f157506110ef8184610671565b155b1561111a5760405163a9fbf51f60e01b81526001600160a01b038416600482015260240161051e565b81156111625783856001600160a01b0316826001600160a01b03167f8c5be1e5ebec7d5bd14f71427d1e84f3dd0314c0f7b2291e5b200ac8c7c3b92560405160405180910390a45b505b5050600090815260046020526040902080546001600160a01b0319166001600160a01b0392909216919091179055565b6000828152600260205260408120546001600160a01b03908116908316156111c1576111c18184866112f2565b6001600160a01b038116156111ff576111de60008560008061108e565b6001600160a01b038116600090815260036020526040902080546000190190555b6001600160a01b0385161561122e576001600160a01b0385166000908152600360205260409020805460010190555b60008481526002602052604080822080546001600160a01b0319166001600160a01b0389811691821790925591518793918516917fddf252ad1be2c89b69c2b068fc378daa952ba7f163c4a11628f55a4df523b3ef91a4949350505050565b6001600160a01b0382166112b757604051633250574960e11b81526000600482015260240161051e565b60006112c583836000611194565b90506001600160a01b03811615610532576040516339e3563760e11b81526000600482015260240161051e565b6112fd838383611356565b610532576001600160a01b03831661132b57604051637e27328960e01b81526004810182905260240161051e565b60405163177e802f60e01b81526001600160a01b03831660048201526024810182905260440161051e565b60006001600160a01b038316158015906113b45750826001600160a01b0316846001600160a01b0316148061139057506113908484610671565b806113b457506000828152600460205260409020546001600160a01b038481169116145b949350505050565b6001600160e01b0319811681146106da57600080fd5b6000602082840312156113e457600080fd5b81356113ef816113bc565b9392505050565b6000815180845260005b8181101561141c57602081850181015186830182015201611400565b506000602082860101526020601f19601f83011685010191505092915050565b6020815260006113ef60208301846113f6565b60006020828403121561146157600080fd5b5035919050565b6001600160a01b03811681146106da57600080fd5b6000806040838503121561149057600080fd5b823561149b81611468565b946020939093013593505050565b6000806000606084860312156114be57600080fd5b83356114c981611468565b925060208401356114d981611468565b929592945050506040919091013590565b80151581146106da57600080fd5b60006020828403121561150a57600080fd5b81356113ef816114ea565b60006020828403121561152757600080fd5b81356113ef81611468565b634e487b7160e01b600052602160045260246000fd5b600381106106da576106da611532565b60a0810161156587611548565b86825261157186611548565b8560208301526004851061158757611587611532565b8460408301528360608301528260808301529695505050505050565b600080604083850312156115b657600080fd5b82356115c181611468565b915060208301356115d1816114ea565b809150509250929050565b634e487b7160e01b600052604160045260246000fd5b604051601f8201601f1916810167ffffffffffffffff8111828210171561161b5761161b6115dc565b604052919050565b6000806000806080858703121561163957600080fd5b843561164481611468565b935060208581013561165581611468565b935060408601359250606086013567ffffffffffffffff8082111561167957600080fd5b818801915088601f83011261168d57600080fd5b81358181111561169f5761169f6115dc565b6116b1601f8201601f191685016115f2565b915080825289848285010111156116c757600080fd5b808484018584013760008482840101525080935050505092959194509250565b600067ffffffffffffffff821115611701576117016115dc565b5060051b60200190565b600082601f83011261171c57600080fd5b8135602061173161172c836116e7565b6115f2565b82815260059290921b8401810191818101908684111561175057600080fd5b8286015b8481101561176b5780358352918301918301611754565b509695505050505050565b60008060006060848603121561178b57600080fd5b833567ffffffffffffffff808211156117a357600080fd5b818601915086601f8301126117b757600080fd5b813560206117c761172c836116e7565b82815260059290921b8401810191818101908a8411156117e657600080fd5b948201945b83861015611812578535600381106118035760008081fd5b825294820194908201906117eb565b9750508701359250508082111561182857600080fd5b506118358682870161170b565b925050604084013590509250925092565b6000806040838503121561185957600080fd5b823561186481611468565b915060208301356115d181611468565b600181811c9082168061188857607f821691505b6020821081036118a857634e487b7160e01b600052602260045260246000fd5b50919050565b634e487b7160e01b600052603260045260246000fd5b634e487b7160e01b600052601160045260246000fd5b6000600182016118ec576118ec6118c4565b5060010190565b6001600160a01b0385811682528416602082015260408101839052608060608201819052600090611926908301846113f6565b9695505050505050565b60006020828403121561194257600080fd5b81516113ef816113bc565b60006020828403121561195f57600080fd5b81516113ef81611468565b8082028115828204841417610401576104016118c4565b60008261199e57634e487b7160e01b600052601260045260246000fd5b500490565b6000602082840312156119b557600080fd5b81516113ef816114ea56fea2646970667358221220f9dd4a9fc1c020093b4159e798246fbdf31a272f37eafd1d397721880ec61eec64736f6c63430008150033",
    "linkReferences": {}
  },
  "methodIdentifiers": {
    "USDT()": "c54e44eb",
    "approve(address,uint256)": "095ea7b3",
    "balanceOf(address)": "70a08231",
    "getApproved(uint256)": "081812fc",
    "invitationCenter()": "2f533280",
    "isApprovedForAll(address,address)": "e985e9c5",
    "isPromotion()": "2677e4d3",
    "name()": "06fdde03",
    "nextTokenID()": "f101e481",
    "nftInifo(uint256)": "7278aec5",
    "owner()": "8da5cb5b",
    "ownerOf(uint256)": "6352211e",
    "publicMint(uint8[],uint256[],bytes32)": "d21d701c",
    "receiver()": "f7260d3e",
    "renounceOwnership()": "715018a6",
    "safeTransferFrom(address,address,uint256)": "42842e0e",
    "safeTransferFrom(address,address,uint256,bytes)": "b88d4fde",
    "setApprovalForAll(address,bool)": "a22cb465",
    "setPromotion(bool)": "4f821a26",
    "supportsInterface(bytes4)": "01ffc9a7",
    "symbol()": "95d89b41",
    "tokenURI(uint256)": "c87b56dd",
    "transferFrom(address,address,uint256)": "23b872dd",
    "transferOwnership(address)": "f2fde38b",
    "transferable()": "92ff0d31"
  },
  "id": 18
}