{
  "abi": [
    {
      "inputs": [],
      "stateMutability": "nonpayable",
      "type": "constructor"
    },
    {
      "inputs": [
        {
          "internalType": "address",
          "name": "owner",
          "type": "address"
        }
      ],
      "name": "OwnableInvalidOwner",
      "type": "error"
    },
    {
      "inputs": [
        {
          "internalType": "address",
          "name": "account",
          "type": "address"
        }
      ],
      "name": "OwnableUnauthorizedAccount",
      "type": "error"
    },
    {
      "anonymous": false,
      "inputs": [
        {
          "indexed": true,
          "internalType": "address",
          "name": "previousOwner",
          "type": "address"
        },
        {
          "indexed": true,
          "internalType": "address",
          "name": "newOwner",
          "type": "address"
        }
      ],
      "name": "OwnershipTransferred",
      "type": "event"
    },
    {
      "inputs": [
        {
          "internalType": "address",
          "name": "requester",
          "type": "address"
        }
      ],
      "name": "generateInvitationCode",
      "outputs": [
        {
          "internalType": "bytes32",
          "name": "",
          "type": "bytes32"
        }
      ],
      "stateMutability": "view",
      "type": "function"
    },
    {
      "inputs": [
        {
          "internalType": "uint256[]",
          "name": "offsets",
          "type": "uint256[]"
        }
      ],
      "name": "getRegister",
      "outputs": [
        {
          "components": [
            {
              "internalType": "address",
              "name": "who",
              "type": "address"
            },
            {
              "internalType": "address",
              "name": "inviter",
              "type": "address"
            },
            {
              "internalType": "bytes32",
              "name": "invitationCode",
              "type": "bytes32"
            }
          ],
          "internalType": "struct InvitationCenter.Record[]",
          "name": "",
          "type": "tuple[]"
        }
      ],
      "stateMutability": "view",
      "type": "function"
    },
    {
      "inputs": [
        {
          "internalType": "uint256",
          "name": "start",
          "type": "uint256"
        },
        {
          "internalType": "uint256",
          "name": "length",
          "type": "uint256"
        }
      ],
      "name": "getRegisterDetail",
      "outputs": [
        {
          "components": [
            {
              "internalType": "uint256",
              "name": "index",
              "type": "uint256"
            },
            {
              "internalType": "address",
              "name": "who",
              "type": "address"
            },
            {
              "internalType": "address",
              "name": "inviter",
              "type": "address"
            },
            {
              "internalType": "bytes32",
              "name": "invitationCode",
              "type": "bytes32"
            }
          ],
          "internalType": "struct InvitationCenter.Record2[]",
          "name": "",
          "type": "tuple[]"
        }
      ],
      "stateMutability": "view",
      "type": "function"
    },
    {
      "inputs": [
        {
          "internalType": "address",
          "name": "who",
          "type": "address"
        },
        {
          "internalType": "uint256",
          "name": "index",
          "type": "uint256"
        }
      ],
      "name": "inviteeRecordsAt",
      "outputs": [
        {
          "internalType": "address",
          "name": "",
          "type": "address"
        }
      ],
      "stateMutability": "view",
      "type": "function"
    },
    {
      "inputs": [
        {
          "internalType": "address",
          "name": "who",
          "type": "address"
        },
        {
          "internalType": "address",
          "name": "invitee",
          "type": "address"
        }
      ],
      "name": "inviteeRecordsContains",
      "outputs": [
        {
          "internalType": "bool",
          "name": "",
          "type": "bool"
        }
      ],
      "stateMutability": "view",
      "type": "function"
    },
    {
      "inputs": [
        {
          "internalType": "address",
          "name": "who",
          "type": "address"
        }
      ],
      "name": "inviteeRecordsLength",
      "outputs": [
        {
          "internalType": "uint256",
          "name": "",
          "type": "uint256"
        }
      ],
      "stateMutability": "view",
      "type": "function"
    },
    {
      "inputs": [
        {
          "internalType": "bytes32",
          "name": "input",
          "type": "bytes32"
        }
      ],
      "name": "inviterCodeToAddress",
      "outputs": [
        {
          "internalType": "address",
          "name": "",
          "type": "address"
        }
      ],
      "stateMutability": "view",
      "type": "function"
    },
    {
      "inputs": [
        {
          "internalType": "address",
          "name": "who",
          "type": "address"
        }
      ],
      "name": "inviterRecords",
      "outputs": [
        {
          "components": [
            {
              "internalType": "address",
              "name": "who",
              "type": "address"
            },
            {
              "internalType": "address",
              "name": "inviter",
              "type": "address"
            },
            {
              "internalType": "bytes32",
              "name": "invitationCode",
              "type": "bytes32"
            }
          ],
          "internalType": "struct InvitationCenter.Record",
          "name": "",
          "type": "tuple"
        }
      ],
      "stateMutability": "view",
      "type": "function"
    },
    {
      "inputs": [
        {
          "internalType": "address",
          "name": "who",
          "type": "address"
        }
      ],
      "name": "isRegistered",
      "outputs": [
        {
          "internalType": "bool",
          "name": "",
          "type": "bool"
        }
      ],
      "stateMutability": "view",
      "type": "function"
    },
    {
      "inputs": [
        {
          "components": [
            {
              "internalType": "address",
              "name": "who",
              "type": "address"
            },
            {
              "internalType": "address",
              "name": "inviter",
              "type": "address"
            },
            {
              "internalType": "bytes32",
              "name": "invitationCode",
              "type": "bytes32"
            }
          ],
          "internalType": "struct InvitationCenter.Record[]",
          "name": "params",
          "type": "tuple[]"
        }
      ],
      "name": "manualRegister",
      "outputs": [],
      "stateMutability": "nonpayable",
      "type": "function"
    },
    {
      "inputs": [],
      "name": "owner",
      "outputs": [
        {
          "internalType": "address",
          "name": "",
          "type": "address"
        }
      ],
      "stateMutability": "view",
      "type": "function"
    },
    {
      "inputs": [
        {
          "internalType": "address",
          "name": "registerApplier",
          "type": "address"
        },
        {
          "internalType": "bytes32",
          "name": "inviterCode",
          "type": "bytes32"
        }
      ],
      "name": "registerInviterAuth",
      "outputs": [],
      "stateMutability": "nonpayable",
      "type": "function"
    },
    {
      "inputs": [
        {
          "internalType": "uint256",
          "name": "index",
          "type": "uint256"
        }
      ],
      "name": "registeredAccountAt",
      "outputs": [
        {
          "internalType": "address",
          "name": "",
          "type": "address"
        }
      ],
      "stateMutability": "view",
      "type": "function"
    },
    {
      "inputs": [
        {
          "internalType": "address",
          "name": "who",
          "type": "address"
        }
      ],
      "name": "registeredAccountContains",
      "outputs": [
        {
          "internalType": "bool",
          "name": "",
          "type": "bool"
        }
      ],
      "stateMutability": "view",
      "type": "function"
    },
    {
      "inputs": [],
      "name": "registeredAccountLength",
      "outputs": [
        {
          "internalType": "uint256",
          "name": "",
          "type": "uint256"
        }
      ],
      "stateMutability": "view",
      "type": "function"
    },
    {
      "inputs": [
        {
          "internalType": "uint256",
          "name": "index",
          "type": "uint256"
        }
      ],
      "name": "registeredInvitationCodeAt",
      "outputs": [
        {
          "internalType": "bytes32",
          "name": "",
          "type": "bytes32"
        }
      ],
      "stateMutability": "view",
      "type": "function"
    },
    {
      "inputs": [
        {
          "internalType": "bytes32",
          "name": "input",
          "type": "bytes32"
        }
      ],
      "name": "registeredInvitationCodeContains",
      "outputs": [
        {
          "internalType": "bool",
          "name": "",
          "type": "bool"
        }
      ],
      "stateMutability": "view",
      "type": "function"
    },
    {
      "inputs": [],
      "name": "registeredInvitationCodeLength",
      "outputs": [
        {
          "internalType": "uint256",
          "name": "",
          "type": "uint256"
        }
      ],
      "stateMutability": "view",
      "type": "function"
    },
    {
      "inputs": [],
      "name": "renounceOwnership",
      "outputs": [],
      "stateMutability": "nonpayable",
      "type": "function"
    },
    {
      "inputs": [
        {
          "internalType": "address",
          "name": "newOwner",
          "type": "address"
        }
      ],
      "name": "transferOwnership",
      "outputs": [],
      "stateMutability": "nonpayable",
      "type": "function"
    }
  ],
  "bytecode": {
    "object": "0x608060405234801561001057600080fd5b50338061003757604051631e4fbdf760e01b81526000600482015260240160405180910390fd5b61004081610046565b50610096565b600080546001600160a01b038381166001600160a01b0319831681178455604051919092169283917f8be0079c531659141344cd1fd0a4f28419497f9722a3daafe3b4186f6b6457e09190a35050565b6119fd806100a56000396000f3fe608060405234801561001057600080fd5b506004361061012c5760003560e01c80635c9a41d8116100ad5780638da5cb5b116100715780638da5cb5b146102fd578063a4f62bc31461030e578063c3c5a54714610284578063f2fde38b14610321578063f927c67a1461033457600080fd5b80635c9a41d8146102a75780636251eb1e146102c7578063715018a6146102cf57806385b6880a146102d75780638ce54348146102ea57600080fd5b806337a2addd116100f457806337a2addd146101c85780634115b6db146101db578063459c6fe614610251578063569e293d146102645780635a9d9bc71461028457600080fd5b8063017bc74c1461013157806304178f791461014c5780631a3617701461016157806328a3d0231461018c5780632caa92c9146101b5575b600080fd5b610139610347565b6040519081526020015b60405180910390f35b61015f61015a366004611192565b610358565b005b61017461016f366004611207565b6104e1565b6040516001600160a01b039091168152602001610143565b61017461019a366004611207565b6000908152600760205260409020546001600160a01b031690565b6101746101c336600461123c565b6104f4565b6101396101d6366004611207565b61051d565b6102446101e9366004611266565b6040805160608082018352600080835260208084018290529284018190526001600160a01b03948516815260038352839020835191820184528054851682526001810154909416918101919091526002909201549082015290565b6040516101439190611281565b61013961025f366004611266565b61052a565b6102776102723660046112b0565b61061f565b6040516101439190611313565b610297610292366004611266565b610744565b6040519015158152602001610143565b6102ba6102b5366004611383565b610751565b60405161014391906113a5565b61013961096d565b61015f610979565b6102976102e5366004611207565b61098d565b6102976102f8366004611415565b61099a565b6000546001600160a01b0316610174565b61015f61031c36600461123c565b6109bc565b61015f61032f366004611266565b6109ca565b610139610342366004611266565b610a08565b60006103536001610a25565b905090565b610360610a2f565b60005b818110156104dc573683838381811061037e5761037e611448565b6060029190910191506103a190506103996020830183611266565b600190610a5c565b506103b160056040830135610a71565b506103bf6020820182611266565b60408281013560009081526007602090815291812080546001600160a01b0319166001600160a01b039490941693909317909255600390829061040490850185611266565b6001600160a01b03168152602080820192909252604001600020915061042c90830183611266565b81546001600160a01b0319166001600160a01b03919091161781556104576040830160208401611266565b6001820180546001600160a01b0319166001600160a01b0392909216919091179055604082013560028201556104c66104936020840184611266565b600460006104a76040870160208801611266565b6001600160a01b03168152602081019190915260400160002090610a5c565b50505080806104d490611474565b915050610363565b505050565b60006104ee600183610a7d565b92915050565b6001600160a01b03821660009081526004602052604081206105169083610a7d565b9392505050565b60006104ee600583610a7d565b6040516bffffffffffffffffffffffff19606083901b1660208201526000908190610571906034015b6040516020818303038152906040528051906020012060001c610a89565b90505b61057f600582610eea565b80610588575080155b156105c5576105be818460405160200161055392919091825260601b6bffffffffffffffffffffffff1916602082015260340190565b9050610574565b6105ce81610f02565b6104ee5760405162461bcd60e51b815260206004820152601d60248201527f5f67656e6572617465496e7669746174696f6e436f6465206572726f7200000060448201526064015b60405180910390fd5b606060008267ffffffffffffffff81111561063c5761063c61148d565b60405190808252806020026020018201604052801561068757816020015b604080516060810182526000808252602080830182905292820152825260001990920191018161065a5790505b50905060005b8381101561073c5760006106c38686848181106106ac576106ac611448565b905060200201356001610a7d90919063ffffffff16565b6001600160a01b038082166000908152600360209081526040918290208251606081018452815485168152600182015490941691840191909152600201549082015284519192509084908490811061071d5761071d611448565b602002602001018190525050808061073490611474565b91505061068d565b509392505050565b60006104ee600183610f2f565b6060600061075f6001610a25565b90508381116107bb5760408051600080825260208201909252906107b2565b60408051608081018252600080825260208083018290529282018190526060820152825260001990920191018161077e5790505b509150506104ee565b60006107c785836114a3565b9050838110156107d5578093505b60008467ffffffffffffffff8111156107f0576107f061148d565b60405190808252806020026020018201604052801561084257816020015b60408051608081018252600080825260208083018290529282018190526060820152825260001990920191018161080e5790505b50905060005b8581101561096257600061086761085f838a6114b6565b600190610a7d565b6001600160a01b038116600090815260036020526040902090915061088c838a6114b6565b84848151811061089e5761089e611448565b602090810291909101015152805484516001600160a01b03909116908590859081106108cc576108cc611448565b6020908102919091018101516001600160a01b039283169101526001820154855191169085908590811061090257610902611448565b6020026020010151604001906001600160a01b031690816001600160a01b031681525050806002015484848151811061093d5761093d611448565b602002602001015160600181815250505050808061095a90611474565b915050610848565b5092506104ee915050565b60006103536005610a25565b610981610a2f565b61098b6000610f51565b565b60006104ee600583610eea565b6001600160a01b03821660009081526004602052604081206105169083610f2f565b6109c68282610fa1565b5050565b6109d2610a2f565b6001600160a01b0381166109fc57604051631e4fbdf760e01b815260006004820152602401610616565b610a0581610f51565b50565b6001600160a01b03811660009081526004602052604081206104ee905b60006104ee825490565b6000546001600160a01b0316331461098b5760405163118cdaa760e01b8152336004820152602401610616565b6000610516836001600160a01b038416611119565b60006105168383611119565b60006105168383611168565b6040805160208101909152600080825290815b6008811015610e69576000610ab26020866114df565b9050610abf6020866114f3565b945080600003610af05782604051602001610ada9190611537565b6040516020818303038152906040529250610e56565b80600103610b095782604051602001610ada9190611554565b80600203610b225782604051602001610ada9190611571565b80600303610b3b5782604051602001610ada919061158e565b80600403610b545782604051602001610ada91906115ab565b80600503610b6d5782604051602001610ada91906115c8565b80600603610b865782604051602001610ada91906115e5565b80600703610b9f5782604051602001610ada9190611602565b80600803610bb85782604051602001610ada919061161f565b80600903610bd15782604051602001610ada919061163c565b80600a03610bea5782604051602001610ada9190611659565b80600b03610c035782604051602001610ada9190611676565b80600c03610c1c5782604051602001610ada9190611693565b80600d03610c355782604051602001610ada91906116b0565b80600e03610c4e5782604051602001610ada91906116cd565b80600f03610c675782604051602001610ada91906116ea565b80601003610c805782604051602001610ada9190611707565b80601103610c995782604051602001610ada9190611724565b80601203610cb25782604051602001610ada9190611741565b80601303610ccb5782604051602001610ada919061175e565b80601403610ce45782604051602001610ada919061177b565b80601503610cfd5782604051602001610ada9190611798565b80601603610d165782604051602001610ada91906117b5565b80601703610d2f5782604051602001610ada91906117d2565b80601803610d485782604051602001610ada91906117ef565b80601903610d615782604051602001610ada919061180c565b80601a03610d7a5782604051602001610ada9190611829565b80601b03610d935782604051602001610ada9190611846565b80601c03610dac5782604051602001610ada9190611863565b80601d03610dc55782604051602001610ada9190611880565b80601e03610dde5782604051602001610ada919061189d565b80601f03610df75782604051602001610ada91906118ba565b60405162461bcd60e51b815260206004820152602e60248201527f5f63616c63496e7669746174696f6e436f64652c205f63616c63496e7669746160448201526d3a34b7b721b7b2329032b93937b960911b6064820152608401610616565b5080610e6181611474565b915050610a9c565b506020810151610e7881610f02565b6105165760405162461bcd60e51b815260206004820152603a60248201527f5f63616c63496e7669746174696f6e436f64652c205f63616c63496e7669746160448201527f74696f6e436f6465207468656e20636865636b206661696c65640000000000006064820152608401610616565b60008181526001830160205260408120541515610516565b600080610f11600860206114a3565b610f1d906101006119bb565b610f2790846114df565b159392505050565b6001600160a01b03811660009081526001830160205260408120541515610516565b600080546001600160a01b038381166001600160a01b0319831681178455604051919092169283917f8be0079c531659141344cd1fd0a4f28419497f9722a3daafe3b4186f6b6457e09190a35050565b610fac600183610f2f565b15610ff95760405162461bcd60e51b815260206004820152601860248201527f796f752068617665206265656e207265676973746572656400000000000000006044820152606401610616565b6000674d415853314b533760c01b82036110155750600061107d565b611020600583610eea565b6110635760405162461bcd60e51b8152602060048201526014602482015273756e7573656420726566657272616c20636f646560601b6044820152606401610616565b506000818152600760205260409020546001600160a01b03165b611088600184610a5c565b5060006110948461052a565b90506110a1600582610a71565b50600081815260076020908152604080832080546001600160a01b03808a166001600160a01b031992831681179093558286526003855283862080548316909317835560018301805491891691909216811790915560028201869055845260049092529091206111119086610a5c565b505050505050565b6000818152600183016020526040812054611160575081546001818101845560008481526020808220909301849055845484825282860190935260409020919091556104ee565b5060006104ee565b600082600001828154811061117f5761117f611448565b9060005260206000200154905092915050565b600080602083850312156111a557600080fd5b823567ffffffffffffffff808211156111bd57600080fd5b818501915085601f8301126111d157600080fd5b8135818111156111e057600080fd5b8660206060830285010111156111f557600080fd5b60209290920196919550909350505050565b60006020828403121561121957600080fd5b5035919050565b80356001600160a01b038116811461123757600080fd5b919050565b6000806040838503121561124f57600080fd5b61125883611220565b946020939093013593505050565b60006020828403121561127857600080fd5b61051682611220565b81516001600160a01b0390811682526020808401519091169082015260408083015190820152606081016104ee565b600080602083850312156112c357600080fd5b823567ffffffffffffffff808211156112db57600080fd5b818501915085601f8301126112ef57600080fd5b8135818111156112fe57600080fd5b8660208260051b85010111156111f557600080fd5b6020808252825182820181905260009190848201906040850190845b818110156113775761136483855180516001600160a01b03908116835260208083015190911690830152604090810151910152565b928401926060929092019160010161132f565b50909695505050505050565b6000806040838503121561139657600080fd5b50508035926020909101359150565b602080825282518282018190526000919060409081850190868401855b8281101561140857815180518552868101516001600160a01b039081168887015286820151168686015260609081015190850152608090930192908501906001016113c2565b5091979650505050505050565b6000806040838503121561142857600080fd5b61143183611220565b915061143f60208401611220565b90509250929050565b634e487b7160e01b600052603260045260246000fd5b634e487b7160e01b600052601160045260246000fd5b6000600182016114865761148661145e565b5060010190565b634e487b7160e01b600052604160045260246000fd5b818103818111156104ee576104ee61145e565b808201808211156104ee576104ee61145e565b634e487b7160e01b600052601260045260246000fd5b6000826114ee576114ee6114c9565b500690565b600082611502576115026114c9565b500490565b6000815160005b81811015611528576020818501810151868301520161150e565b50600093019283525090919050565b60006115438284611507565b604160f81b81526001019392505050565b60006115608284611507565b602160f91b81526001019392505050565b600061157d8284611507565b604360f81b81526001019392505050565b600061159a8284611507565b601160fa1b81526001019392505050565b60006115b78284611507565b604560f81b81526001019392505050565b60006115d48284611507565b602360f91b81526001019392505050565b60006115f18284611507565b604760f81b81526001019392505050565b600061160e8284611507565b600960fb1b81526001019392505050565b600061162b8284611507565b602560f91b81526001019392505050565b60006116488284611507565b604b60f81b81526001019392505050565b60006116658284611507565b601360fa1b81526001019392505050565b60006116828284611507565b604d60f81b81526001019392505050565b600061169f8284611507565b602760f91b81526001019392505050565b60006116bc8284611507565b600560fc1b81526001019392505050565b60006116d98284611507565b605160f81b81526001019392505050565b60006116f68284611507565b602960f91b81526001019392505050565b60006117138284611507565b605360f81b81526001019392505050565b60006117308284611507565b601560fa1b81526001019392505050565b600061174d8284611507565b605560f81b81526001019392505050565b600061176a8284611507565b602b60f91b81526001019392505050565b60006117878284611507565b605760f81b81526001019392505050565b60006117a48284611507565b600b60fb1b81526001019392505050565b60006117c18284611507565b605960f81b81526001019392505050565b60006117de8284611507565b602d60f91b81526001019392505050565b60006117fb8284611507565b601960f91b81526001019392505050565b60006118188284611507565b603360f81b81526001019392505050565b60006118358284611507565b600d60fa1b81526001019392505050565b60006118528284611507565b603560f81b81526001019392505050565b600061186f8284611507565b601b60f91b81526001019392505050565b600061188c8284611507565b603760f81b81526001019392505050565b60006118a98284611507565b600760fb1b81526001019392505050565b60006118c68284611507565b603960f81b81526001019392505050565b600181815b808511156119125781600019048211156118f8576118f861145e565b8085161561190557918102915b93841c93908002906118dc565b509250929050565b600082611929575060016104ee565b81611936575060006104ee565b816001811461194c576002811461195657611972565b60019150506104ee565b60ff8411156119675761196761145e565b50506001821b6104ee565b5060208310610133831016604e8410600b8410161715611995575081810a6104ee565b61199f83836118d7565b80600019048211156119b3576119b361145e565b029392505050565b6000610516838361191a56fea2646970667358221220962e48a5f2457293caf63e6dc91b3989e0d1b3d00c7d313acdf781b72d3cd91864736f6c63430008150033",
    "linkReferences": {}
  },
  "methodIdentifiers": {
    "generateInvitationCode(address)": "459c6fe6",
    "getRegister(uint256[])": "569e293d",
    "getRegisterDetail(uint256,uint256)": "5c9a41d8",
    "inviteeRecordsAt(address,uint256)": "2caa92c9",
    "inviteeRecordsContains(address,address)": "8ce54348",
    "inviteeRecordsLength(address)": "f927c67a",
    "inviterCodeToAddress(bytes32)": "28a3d023",
    "inviterRecords(address)": "4115b6db",
    "isRegistered(address)": "c3c5a547",
    "manualRegister((address,address,bytes32)[])": "04178f79",
    "owner()": "8da5cb5b",
    "registerInviterAuth(address,bytes32)": "a4f62bc3",
    "registeredAccountAt(uint256)": "1a361770",
    "registeredAccountContains(address)": "5a9d9bc7",
    "registeredAccountLength()": "017bc74c",
    "registeredInvitationCodeAt(uint256)": "37a2addd",
    "registeredInvitationCodeContains(bytes32)": "85b6880a",
    "registeredInvitationCodeLength()": "6251eb1e",
    "renounceOwnership()": "715018a6",
    "transferOwnership(address)": "f2fde38b"
  },
  "id": 33
}