{
  "abi": [
    {
      "inputs": [],
      "stateMutability": "nonpayable",
      "type": "constructor"
    },
    {
      "inputs": [
        {
          "internalType": "address",
          "name": "owner",
          "type": "address"
        }
      ],
      "name": "OwnableInvalidOwner",
      "type": "error"
    },
    {
      "inputs": [
        {
          "internalType": "address",
          "name": "account",
          "type": "address"
        }
      ],
      "name": "OwnableUnauthorizedAccount",
      "type": "error"
    },
    {
      "anonymous": false,
      "inputs": [
        {
          "indexed": true,
          "internalType": "address",
          "name": "previousOwner",
          "type": "address"
        },
        {
          "indexed": true,
          "internalType": "address",
          "name": "newOwner",
          "type": "address"
        }
      ],
      "name": "OwnershipTransferred",
      "type": "event"
    },
    {
      "inputs": [
        {
          "internalType": "uint256[]",
          "name": "offsets",
          "type": "uint256[]"
        }
      ],
      "name": "getRegister",
      "outputs": [
        {
          "components": [
            {
              "internalType": "address",
              "name": "who",
              "type": "address"
            },
            {
              "internalType": "address",
              "name": "inviter",
              "type": "address"
            },
            {
              "internalType": "bytes32",
              "name": "invitationCode",
              "type": "bytes32"
            }
          ],
          "internalType": "struct Invitation.Record[]",
          "name": "",
          "type": "tuple[]"
        }
      ],
      "stateMutability": "view",
      "type": "function"
    },
    {
      "inputs": [
        {
          "internalType": "uint256",
          "name": "start",
          "type": "uint256"
        },
        {
          "internalType": "uint256",
          "name": "length",
          "type": "uint256"
        }
      ],
      "name": "getRegisterDetail",
      "outputs": [
        {
          "components": [
            {
              "internalType": "uint256",
              "name": "index",
              "type": "uint256"
            },
            {
              "internalType": "address",
              "name": "who",
              "type": "address"
            },
            {
              "internalType": "address",
              "name": "inviter",
              "type": "address"
            },
            {
              "internalType": "bytes32",
              "name": "invitationCode",
              "type": "bytes32"
            }
          ],
          "internalType": "struct Invitation.Record2[]",
          "name": "",
          "type": "tuple[]"
        }
      ],
      "stateMutability": "view",
      "type": "function"
    },
    {
      "inputs": [
        {
          "internalType": "address",
          "name": "who",
          "type": "address"
        },
        {
          "internalType": "uint256",
          "name": "index",
          "type": "uint256"
        }
      ],
      "name": "inviteeRecordsAt",
      "outputs": [
        {
          "internalType": "address",
          "name": "",
          "type": "address"
        }
      ],
      "stateMutability": "view",
      "type": "function"
    },
    {
      "inputs": [
        {
          "internalType": "address",
          "name": "who",
          "type": "address"
        },
        {
          "internalType": "address",
          "name": "invitee",
          "type": "address"
        }
      ],
      "name": "inviteeRecordsContains",
      "outputs": [
        {
          "internalType": "bool",
          "name": "",
          "type": "bool"
        }
      ],
      "stateMutability": "view",
      "type": "function"
    },
    {
      "inputs": [
        {
          "internalType": "address",
          "name": "who",
          "type": "address"
        }
      ],
      "name": "inviteeRecordsLength",
      "outputs": [
        {
          "internalType": "uint256",
          "name": "",
          "type": "uint256"
        }
      ],
      "stateMutability": "view",
      "type": "function"
    },
    {
      "inputs": [
        {
          "internalType": "bytes32",
          "name": "input",
          "type": "bytes32"
        }
      ],
      "name": "inviterCodeToAddress",
      "outputs": [
        {
          "internalType": "address",
          "name": "",
          "type": "address"
        }
      ],
      "stateMutability": "view",
      "type": "function"
    },
    {
      "inputs": [
        {
          "internalType": "address",
          "name": "who",
          "type": "address"
        }
      ],
      "name": "inviterRecords",
      "outputs": [
        {
          "components": [
            {
              "internalType": "address",
              "name": "who",
              "type": "address"
            },
            {
              "internalType": "address",
              "name": "inviter",
              "type": "address"
            },
            {
              "internalType": "bytes32",
              "name": "invitationCode",
              "type": "bytes32"
            }
          ],
          "internalType": "struct Invitation.Record",
          "name": "",
          "type": "tuple"
        }
      ],
      "stateMutability": "view",
      "type": "function"
    },
    {
      "inputs": [
        {
          "internalType": "address",
          "name": "who",
          "type": "address"
        }
      ],
      "name": "isRegistered",
      "outputs": [
        {
          "internalType": "bool",
          "name": "",
          "type": "bool"
        }
      ],
      "stateMutability": "view",
      "type": "function"
    },
    {
      "inputs": [
        {
          "components": [
            {
              "internalType": "address",
              "name": "who",
              "type": "address"
            },
            {
              "internalType": "address",
              "name": "inviter",
              "type": "address"
            },
            {
              "internalType": "bytes32",
              "name": "invitationCode",
              "type": "bytes32"
            }
          ],
          "internalType": "struct Invitation.Record[]",
          "name": "params",
          "type": "tuple[]"
        }
      ],
      "name": "manualRegister",
      "outputs": [],
      "stateMutability": "nonpayable",
      "type": "function"
    },
    {
      "inputs": [],
      "name": "owner",
      "outputs": [
        {
          "internalType": "address",
          "name": "",
          "type": "address"
        }
      ],
      "stateMutability": "view",
      "type": "function"
    },
    {
      "inputs": [
        {
          "internalType": "address",
          "name": "registerApplier",
          "type": "address"
        },
        {
          "internalType": "bytes32",
          "name": "inviterCode",
          "type": "bytes32"
        }
      ],
      "name": "registerInviterAuth",
      "outputs": [],
      "stateMutability": "nonpayable",
      "type": "function"
    },
    {
      "inputs": [
        {
          "internalType": "uint256",
          "name": "index",
          "type": "uint256"
        }
      ],
      "name": "registeredAccountAt",
      "outputs": [
        {
          "internalType": "address",
          "name": "",
          "type": "address"
        }
      ],
      "stateMutability": "view",
      "type": "function"
    },
    {
      "inputs": [
        {
          "internalType": "address",
          "name": "who",
          "type": "address"
        }
      ],
      "name": "registeredAccountContains",
      "outputs": [
        {
          "internalType": "bool",
          "name": "",
          "type": "bool"
        }
      ],
      "stateMutability": "view",
      "type": "function"
    },
    {
      "inputs": [],
      "name": "registeredAccountLength",
      "outputs": [
        {
          "internalType": "uint256",
          "name": "",
          "type": "uint256"
        }
      ],
      "stateMutability": "view",
      "type": "function"
    },
    {
      "inputs": [
        {
          "internalType": "uint256",
          "name": "index",
          "type": "uint256"
        }
      ],
      "name": "registeredInvitationCodeAt",
      "outputs": [
        {
          "internalType": "bytes32",
          "name": "",
          "type": "bytes32"
        }
      ],
      "stateMutability": "view",
      "type": "function"
    },
    {
      "inputs": [
        {
          "internalType": "bytes32",
          "name": "input",
          "type": "bytes32"
        }
      ],
      "name": "registeredInvitationCodeContains",
      "outputs": [
        {
          "internalType": "bool",
          "name": "",
          "type": "bool"
        }
      ],
      "stateMutability": "view",
      "type": "function"
    },
    {
      "inputs": [],
      "name": "registeredInvitationCodeLength",
      "outputs": [
        {
          "internalType": "uint256",
          "name": "",
          "type": "uint256"
        }
      ],
      "stateMutability": "view",
      "type": "function"
    },
    {
      "inputs": [],
      "name": "renounceOwnership",
      "outputs": [],
      "stateMutability": "nonpayable",
      "type": "function"
    },
    {
      "inputs": [
        {
          "internalType": "address",
          "name": "newOwner",
          "type": "address"
        }
      ],
      "name": "transferOwnership",
      "outputs": [],
      "stateMutability": "nonpayable",
      "type": "function"
    }
  ],
  "bytecode": {
    "object": "0x608060405234801561001057600080fd5b50338061003757604051631e4fbdf760e01b81526000600482015260240160405180910390fd5b61004081610046565b50610096565b600080546001600160a01b038381166001600160a01b0319831681178455604051919092169283917f8be0079c531659141344cd1fd0a4f28419497f9722a3daafe3b4186f6b6457e09190a35050565b6119e7806100a56000396000f3fe608060405234801561001057600080fd5b50600436106101215760003560e01c80635c9a41d8116100ad5780638da5cb5b116100715780638da5cb5b146102df578063a4f62bc3146102f0578063c3c5a54714610266578063f2fde38b14610303578063f927c67a1461031657600080fd5b80635c9a41d8146102895780636251eb1e146102a9578063715018a6146102b157806385b6880a146102b95780638ce54348146102cc57600080fd5b80632caa92c9116100f45780632caa92c9146101aa57806337a2addd146101bd5780634115b6db146101d0578063569e293d146102465780635a9d9bc71461026657600080fd5b8063017bc74c1461012657806304178f79146101415780631a3617701461015657806328a3d02314610181575b600080fd5b61012e610329565b6040519081526020015b60405180910390f35b61015461014f36600461117c565b61033a565b005b6101696101643660046111f1565b6104c3565b6040516001600160a01b039091168152602001610138565b61016961018f3660046111f1565b6000908152600760205260409020546001600160a01b031690565b6101696101b8366004611226565b6104d6565b61012e6101cb3660046111f1565b6104ff565b6102396101de366004611250565b6040805160608082018352600080835260208084018290529284018190526001600160a01b03948516815260038352839020835191820184528054851682526001810154909416918101919091526002909201549082015290565b604051610138919061126b565b61025961025436600461129a565b61050c565b60405161013891906112fd565b610279610274366004611250565b610631565b6040519015158152602001610138565b61029c61029736600461136d565b61063e565b604051610138919061138f565b61012e61085a565b610154610866565b6102796102c73660046111f1565b61087a565b6102796102da3660046113ff565b610887565b6000546001600160a01b0316610169565b6101546102fe366004611226565b6108a9565b610154610311366004611250565b6108bf565b61012e610324366004611250565b610902565b6000610335600161091f565b905090565b610342610929565b60005b818110156104be573683838381811061036057610360611432565b606002919091019150610383905061037b6020830183611250565b600190610956565b506103936005604083013561096b565b506103a16020820182611250565b60408281013560009081526007602090815291812080546001600160a01b0319166001600160a01b03949094169390931790925560039082906103e690850185611250565b6001600160a01b03168152602080820192909252604001600020915061040e90830183611250565b81546001600160a01b0319166001600160a01b03919091161781556104396040830160208401611250565b6001820180546001600160a01b0319166001600160a01b0392909216919091179055604082013560028201556104a86104756020840184611250565b600460006104896040870160208801611250565b6001600160a01b03168152602081019190915260400160002090610956565b50505080806104b69061145e565b915050610345565b505050565b60006104d0600183610977565b92915050565b6001600160a01b03821660009081526004602052604081206104f89083610977565b9392505050565b60006104d0600583610977565b606060008267ffffffffffffffff81111561052957610529611477565b60405190808252806020026020018201604052801561057457816020015b60408051606081018252600080825260208083018290529282015282526000199092019101816105475790505b50905060005b838110156106295760006105b086868481811061059957610599611432565b90506020020135600161097790919063ffffffff16565b6001600160a01b038082166000908152600360209081526040918290208251606081018452815485168152600182015490941691840191909152600201549082015284519192509084908490811061060a5761060a611432565b60200260200101819052505080806106219061145e565b91505061057a565b509392505050565b60006104d0600183610983565b6060600061064c600161091f565b90508381116106a857604080516000808252602082019092529061069f565b60408051608081018252600080825260208083018290529282018190526060820152825260001990920191018161066b5790505b509150506104d0565b60006106b4858361148d565b9050838110156106c2578093505b60008467ffffffffffffffff8111156106dd576106dd611477565b60405190808252806020026020018201604052801561072f57816020015b6040805160808101825260008082526020808301829052928201819052606082015282526000199092019101816106fb5790505b50905060005b8581101561084f57600061075461074c838a6114a0565b600190610977565b6001600160a01b0381166000908152600360205260409020909150610779838a6114a0565b84848151811061078b5761078b611432565b602090810291909101015152805484516001600160a01b03909116908590859081106107b9576107b9611432565b6020908102919091018101516001600160a01b03928316910152600182015485519116908590859081106107ef576107ef611432565b6020026020010151604001906001600160a01b031690816001600160a01b031681525050806002015484848151811061082a5761082a611432565b60200260200101516060018181525050505080806108479061145e565b915050610735565b5092506104d0915050565b6000610335600561091f565b61086e610929565b61087860006109a5565b565b60006104d06005836109f5565b6001600160a01b03821660009081526004602052604081206104f89083610983565b6108b1610929565b6108bb8282610a0d565b5050565b6108c7610929565b6001600160a01b0381166108f657604051631e4fbdf760e01b8152600060048201526024015b60405180910390fd5b6108ff816109a5565b50565b6001600160a01b03811660009081526004602052604081206104d0905b60006104d0825490565b6000546001600160a01b031633146108785760405163118cdaa760e01b81523360048201526024016108ed565b60006104f8836001600160a01b038416610b85565b60006104f88383610b85565b60006104f88383610bd4565b6001600160a01b038116600090815260018301602052604081205415156104f8565b600080546001600160a01b038381166001600160a01b0319831681178455604051919092169283917f8be0079c531659141344cd1fd0a4f28419497f9722a3daafe3b4186f6b6457e09190a35050565b600081815260018301602052604081205415156104f8565b610a18600183610983565b15610a655760405162461bcd60e51b815260206004820152601860248201527f796f752068617665206265656e2072656769737465726564000000000000000060448201526064016108ed565b6000674d415853314b533760c01b8203610a8157506000610ae9565b610a8c6005836109f5565b610acf5760405162461bcd60e51b8152602060048201526014602482015273756e7573656420726566657272616c20636f646560601b60448201526064016108ed565b506000818152600760205260409020546001600160a01b03165b610af4600184610956565b506000610b0084610bfe565b9050610b0d60058261096b565b50600081815260076020908152604080832080546001600160a01b03808a166001600160a01b03199283168117909355828652600385528386208054831690931783556001830180549189169190921681179091556002820186905584526004909252909120610b7d9086610956565b505050505050565b6000818152600183016020526040812054610bcc575081546001818101845560008481526020808220909301849055845484825282860190935260409020919091556104d0565b5060006104d0565b6000826000018281548110610beb57610beb611432565b9060005260206000200154905092915050565b6040516bffffffffffffffffffffffff19606083901b1660208201526000908190610c45906034015b6040516020818303038152906040528051906020012060001c610cee565b90505b610c536005826109f5565b80610c5c575080155b15610c9957610c928184604051602001610c2792919091825260601b6bffffffffffffffffffffffff1916602082015260340190565b9050610c48565b610ca28161114f565b6104d05760405162461bcd60e51b815260206004820152601d60248201527f5f67656e6572617465496e7669746174696f6e436f6465206572726f7200000060448201526064016108ed565b6040805160208101909152600080825290815b60088110156110ce576000610d176020866114c9565b9050610d246020866114dd565b945080600003610d555782604051602001610d3f9190611521565b60405160208183030381529060405292506110bb565b80600103610d6e5782604051602001610d3f919061153e565b80600203610d875782604051602001610d3f919061155b565b80600303610da05782604051602001610d3f9190611578565b80600403610db95782604051602001610d3f9190611595565b80600503610dd25782604051602001610d3f91906115b2565b80600603610deb5782604051602001610d3f91906115cf565b80600703610e045782604051602001610d3f91906115ec565b80600803610e1d5782604051602001610d3f9190611609565b80600903610e365782604051602001610d3f9190611626565b80600a03610e4f5782604051602001610d3f9190611643565b80600b03610e685782604051602001610d3f9190611660565b80600c03610e815782604051602001610d3f919061167d565b80600d03610e9a5782604051602001610d3f919061169a565b80600e03610eb35782604051602001610d3f91906116b7565b80600f03610ecc5782604051602001610d3f91906116d4565b80601003610ee55782604051602001610d3f91906116f1565b80601103610efe5782604051602001610d3f919061170e565b80601203610f175782604051602001610d3f919061172b565b80601303610f305782604051602001610d3f9190611748565b80601403610f495782604051602001610d3f9190611765565b80601503610f625782604051602001610d3f9190611782565b80601603610f7b5782604051602001610d3f919061179f565b80601703610f945782604051602001610d3f91906117bc565b80601803610fad5782604051602001610d3f91906117d9565b80601903610fc65782604051602001610d3f91906117f6565b80601a03610fdf5782604051602001610d3f9190611813565b80601b03610ff85782604051602001610d3f9190611830565b80601c036110115782604051602001610d3f919061184d565b80601d0361102a5782604051602001610d3f919061186a565b80601e036110435782604051602001610d3f9190611887565b80601f0361105c5782604051602001610d3f91906118a4565b60405162461bcd60e51b815260206004820152602e60248201527f5f63616c63496e7669746174696f6e436f64652c205f63616c63496e7669746160448201526d3a34b7b721b7b2329032b93937b960911b60648201526084016108ed565b50806110c68161145e565b915050610d01565b5060208101516110dd8161114f565b6104f85760405162461bcd60e51b815260206004820152603a60248201527f5f63616c63496e7669746174696f6e436f64652c205f63616c63496e7669746160448201527f74696f6e436f6465207468656e20636865636b206661696c656400000000000060648201526084016108ed565b60008061115e6008602061148d565b61116a906101006119a5565b61117490846114c9565b159392505050565b6000806020838503121561118f57600080fd5b823567ffffffffffffffff808211156111a757600080fd5b818501915085601f8301126111bb57600080fd5b8135818111156111ca57600080fd5b8660206060830285010111156111df57600080fd5b60209290920196919550909350505050565b60006020828403121561120357600080fd5b5035919050565b80356001600160a01b038116811461122157600080fd5b919050565b6000806040838503121561123957600080fd5b6112428361120a565b946020939093013593505050565b60006020828403121561126257600080fd5b6104f88261120a565b81516001600160a01b0390811682526020808401519091169082015260408083015190820152606081016104d0565b600080602083850312156112ad57600080fd5b823567ffffffffffffffff808211156112c557600080fd5b818501915085601f8301126112d957600080fd5b8135818111156112e857600080fd5b8660208260051b85010111156111df57600080fd5b6020808252825182820181905260009190848201906040850190845b818110156113615761134e83855180516001600160a01b03908116835260208083015190911690830152604090810151910152565b9284019260609290920191600101611319565b50909695505050505050565b6000806040838503121561138057600080fd5b50508035926020909101359150565b602080825282518282018190526000919060409081850190868401855b828110156113f257815180518552868101516001600160a01b039081168887015286820151168686015260609081015190850152608090930192908501906001016113ac565b5091979650505050505050565b6000806040838503121561141257600080fd5b61141b8361120a565b91506114296020840161120a565b90509250929050565b634e487b7160e01b600052603260045260246000fd5b634e487b7160e01b600052601160045260246000fd5b60006001820161147057611470611448565b5060010190565b634e487b7160e01b600052604160045260246000fd5b818103818111156104d0576104d0611448565b808201808211156104d0576104d0611448565b634e487b7160e01b600052601260045260246000fd5b6000826114d8576114d86114b3565b500690565b6000826114ec576114ec6114b3565b500490565b6000815160005b8181101561151257602081850181015186830152016114f8565b50600093019283525090919050565b600061152d82846114f1565b604160f81b81526001019392505050565b600061154a82846114f1565b602160f91b81526001019392505050565b600061156782846114f1565b604360f81b81526001019392505050565b600061158482846114f1565b601160fa1b81526001019392505050565b60006115a182846114f1565b604560f81b81526001019392505050565b60006115be82846114f1565b602360f91b81526001019392505050565b60006115db82846114f1565b604760f81b81526001019392505050565b60006115f882846114f1565b600960fb1b81526001019392505050565b600061161582846114f1565b602560f91b81526001019392505050565b600061163282846114f1565b604b60f81b81526001019392505050565b600061164f82846114f1565b601360fa1b81526001019392505050565b600061166c82846114f1565b604d60f81b81526001019392505050565b600061168982846114f1565b602760f91b81526001019392505050565b60006116a682846114f1565b600560fc1b81526001019392505050565b60006116c382846114f1565b605160f81b81526001019392505050565b60006116e082846114f1565b602960f91b81526001019392505050565b60006116fd82846114f1565b605360f81b81526001019392505050565b600061171a82846114f1565b601560fa1b81526001019392505050565b600061173782846114f1565b605560f81b81526001019392505050565b600061175482846114f1565b602b60f91b81526001019392505050565b600061177182846114f1565b605760f81b81526001019392505050565b600061178e82846114f1565b600b60fb1b81526001019392505050565b60006117ab82846114f1565b605960f81b81526001019392505050565b60006117c882846114f1565b602d60f91b81526001019392505050565b60006117e582846114f1565b601960f91b81526001019392505050565b600061180282846114f1565b603360f81b81526001019392505050565b600061181f82846114f1565b600d60fa1b81526001019392505050565b600061183c82846114f1565b603560f81b81526001019392505050565b600061185982846114f1565b601b60f91b81526001019392505050565b600061187682846114f1565b603760f81b81526001019392505050565b600061189382846114f1565b600760fb1b81526001019392505050565b60006118b082846114f1565b603960f81b81526001019392505050565b600181815b808511156118fc5781600019048211156118e2576118e2611448565b808516156118ef57918102915b93841c93908002906118c6565b509250929050565b600082611913575060016104d0565b81611920575060006104d0565b816001811461193657600281146119405761195c565b60019150506104d0565b60ff84111561195157611951611448565b50506001821b6104d0565b5060208310610133831016604e8410600b841016171561197f575081810a6104d0565b61198983836118c1565b806000190482111561199d5761199d611448565b029392505050565b60006104f8838361190456fea2646970667358221220b1835255bac70d215b937e4d39ad11a2f6dc7b90db58e2770212bf54ebe025c564736f6c63430008150033",
    "linkReferences": {}
  },
  "methodIdentifiers": {
    "getRegister(uint256[])": "569e293d",
    "getRegisterDetail(uint256,uint256)": "5c9a41d8",
    "inviteeRecordsAt(address,uint256)": "2caa92c9",
    "inviteeRecordsContains(address,address)": "8ce54348",
    "inviteeRecordsLength(address)": "f927c67a",
    "inviterCodeToAddress(bytes32)": "28a3d023",
    "inviterRecords(address)": "4115b6db",
    "isRegistered(address)": "c3c5a547",
    "manualRegister((address,address,bytes32)[])": "04178f79",
    "owner()": "8da5cb5b",
    "registerInviterAuth(address,bytes32)": "a4f62bc3",
    "registeredAccountAt(uint256)": "1a361770",
    "registeredAccountContains(address)": "5a9d9bc7",
    "registeredAccountLength()": "017bc74c",
    "registeredInvitationCodeAt(uint256)": "37a2addd",
    "registeredInvitationCodeContains(bytes32)": "85b6880a",
    "registeredInvitationCodeLength()": "6251eb1e",
    "renounceOwnership()": "715018a6",
    "transferOwnership(address)": "f2fde38b"
  },
  "id": 18
}